:100000000C941B030C9443030C9443030C94430380
:100010000C9443030C9443030C9443030C94430348
:100020000C9443030C9443030C9443030C94430338
:100030000C9443030C9443030C9443030C94430328
:100040000C942A080C9443030C9490070C946A07B0
:100050000C9443030C9443030C9443030C94430308
:100060000C9443030C9443030000050014002D007E
:1000700050007C00B300F3003D019101EF015602F6
:10008000C7024103C5035204E90488053106E306AB
:100090009D0761082D09010ADE0AC30BB10CA60DEC
:1000A000A30EA80FB410C811E21204142D155C168B
:1000B0009217CE18101A581BA61CF91D521FAF20FC
:1000C00012227923E5245426C8274029BB2A392C3B
:1000D000BB2D3F2FC6304F32DA336835F6368738BE
:1000E000183AAB3B3E3DD13E6540F9418C431F453C
:1000F000B1464248D1495F4BEC4C764EFE4F84519D
:100100000753875403567D57F258645AD25B3B5DC0
:10011000A05E00605B61B16202644C659266D1676B
:100120000A693C6A686B8D6CAC6DC36ED36FDC7012
:10013000DC71D672C773B07491756A763A770278BB
:10014000C1787779247AC87A647BF57B7E7CFD7CE4
:10015000737DDF7D417E9A7EE97E2E7F6A7F9B7F65
:10016000C37FE17FF57FFF7FFF7FF57FE17FC37F67
:100170009B7F6A7F2E7FE97E9A7E417EDF7D737D45
:10018000FD7C7E7CF57B647BC87A247A7779C178A4
:1001900002783A776A769175B074C773D672DC715B
:1001A000DC70D36FC36EAC6D8D6C686B3C6A0A6992
:1001B000D16792664C650264B1625B610060A05ECB
:1001C0003B5DD25B645AF2587D5703568754075300
:1001D0008451FE4F764EEC4C5F4BD1494248B146BC
:1001E0001F458C43F9416540D13E3E3DAB3B183A3B
:1001F0008738F6366835DA334F32C6303F2FBB2D9D
:10020000392CBB2A4029C8275426E52479231222F9
:10021000AF20521FF91DA61C581B101ACE1892179A
:100220005C162D150414E212C811B410A80FA30E09
:10023000A60DB10CC30BDE0A010A2D0961089D074A
:10024000E30631068805E9045204C5034103C702E9
:100250005602EF0191013D01F300B3007C00500014
:100260002D001400050000000000080D10131516E5
:1002700018191B1C1D1E1E1F20212122232324248C
:10028000252526262627272828282929292A2A2AF3
:100290002B2B2B2B2C2C2C2C2D2D2D2D2E2E2E2E96
:1002A0002E2F2F2F2F2F3030303030313131313150
:1002B0003132323232323232333333333333333416
:1002C00034343434343434353535353535353535E5
:1002D00036363636363636363637373737373737B7
:1002E000373737383838383838383838383839398F
:1002F000393939393939393939393A3A3A3A3A3A68
:100300003A3A3A3A3A3A3A3B3B3B3B3B3B3B3B3B44
:100310003B3B3B3B3B3B3C3C3C3C3C3C3C3C3C3C23
:100320003C3C3C3C3C3C3D3D3D3D3D3D3D3D3D3D03
:100330003D3D3D3D3D3D3D3E3E3E3E3E3E3E3E3EE4
:100340003E3E3E3E3E3E3E3E3E3F3F3F3F3F3F3FC6
:100350003F3F3F3F3F3F3F3F3F3F3F3F3F3F4040AB
:100360004040404040404040F00FF81FF42FFC3F19
:10037000F24FFA5FF66FFE7FF18FF99FF5AFFDBF89
:10038000F3CFFBDFF7EFE007E817E427EC37E247AE
:10039000EA57E667EE77E187E997E5A7EDB7E3C7A8
:1003A000EBD7D00BD81BD42BDC3BD24BDA5BD66B14
:1003B000DE7BD18BD99BD5ABDDBBD3CBC003C813C0
:1003C000C423CC33C243CA53C663CE73C183C9931B
:1003D000C5A3CDB3B00DB81DB42DBC3DB24DBA5DB3
:1003E000B66DBE7DB18DB99DB5ADA005A815A4258E
:1003F000AC35A245AA55A665AE75A185A99590090B
:10040000981994299C3992499A5996699E799189AB
:100410008001881184218C3182418A5186618E71DC
:10042000700E781E742E7C3E724E7A5E766E60067A
:10043000681664266C3662466A56500A581A542A60
:100440005C3A524A4002481244224C32300C381C6A
:10045000342C2004281410084276FC30825A825A28
:10046000FC3042768A7DF9184276FC306E6A1D4770
:10047000825A825A1D476E6AFC304276F9188A7D8C
:10048000627F8C0C8A7DF9187D7A28254276FC30B3
:10049000E370573C6E6A1D47F2623451825A825AA9
:1004A0003451F2621D476E6A573CE370FC3042766D
:1004B00028257D7AF9188A7D8C0C627FD97F4806C1
:1004C000627F8C0C9D7EC8128A7DF9182A7C1A1FC7
:1004D0007D7A282585781F2B4276FC30B673BA3694
:1004E000E370573CCA6DCE416E6A1D47D066404CE2
:1004F000F2623451D75EF655825A825AF655D75E6B
:100500003451F262404CD0661D476E6ACE41CA6DCE
:10051000573CE370BA36B673FC3042761F2B8578B1
:1005200028257D7A1A1F2A7CF9188A7DC8129D7E9B
:100530008C0C627F4806D97FF67F2403D97F48065A
:10054000A77F6B09627F8C0C0A7FAB0F9D7EC81260
:100550001E7EE2158A7DF918E47C0C1C2A7C1A1F89
:100560005D7B24227D7A28258A79272885781F2B90
:100570006C77112E4276FC300575DF33B673BA36D0
:1005800055728D39E370573C5F6F173FCA6DCE418E
:10059000246C7B446E6A1D47A768B449D066404C02
:1005A000E964C04EF2623451EC609B53D75EF6555D
:1005B000B45C4358825A825A4358B45CF655D75EAD
:1005C0009B53EC603451F262C04EE964404CD066FB
:1005D000B449A7681D476E6A7B44246CCE41CA6D3E
:1005E000173F5F6F573CE3708D395572BA36B6735B
:1005F000DF330575FC304276112E6C771F2B857822
:1006000027288A7928257D7A24225D7B1A1F2A7C57
:100610000C1CE47CF9188A7DE2151E7EC8129D7EB2
:10062000AB0F0A7F8C0C627F6B09A77F4806D97FCE
:100630002403F67F860F11241FBECFEFD8E0DEBF64
:10064000CDBF11E0A0E0B1E0E4E4F5E202C0059026
:100650000D92A634B107D9F726E0A6E4B1E001C0B7
:100660001D92A43DB207E1F713E0CBE1D3E004C053
:100670002197FE010E949512CA31D107C9F70E9445
:1006800074080C94A0120C940000FC01918D828DD2
:10069000981761F0828DDF01A80FB11D5D968C91D6
:1006A000928D9F5F9F73928F90E008958FEF9FEFE1
:1006B0000895FC01918D828D981731F0828DE80F9D
:1006C000F11D858D90E008958FEF9FEF0895FC0157
:1006D000918D228D892F90E0805C9F4F821B910924
:1006E0008F739927089585E296E00E94670321E0C1
:1006F000892B09F420E0822F0895FC01848DDF010D
:10070000A80FB11DA35ABF4F2C91848D90E0019684
:100710008F739927848FA689B7892C93A089B18973
:100720008C9180648C93938D848D981306C002887D
:10073000F389E02D80818F7D80830895EF92FF9271
:100740000F931F93CF93DF93EC0181E0888F9B8DF4
:100750008C8D981305C0E889F989808185FD24C0B6
:10076000F62E0B8D10E00F5F1F4F0F731127E02E39
:100770008C8DE8120CC00FB607FCFACFE889F98916
:10078000808185FFF5CFCE010E947D03F1CF8B8D57
:10079000FE01E80FF11DE35AFF4FF0820B8FEA894B
:1007A000FB898081806207C0EE89FF896083E889C8
:1007B000F98980818064808381E090E0DF91CF912E
:1007C0001F910F91FF90EF900895CF93DF93EC016D
:1007D000888D8823C9F0EA89FB89808185FD05C061
:1007E000A889B9898C9186FD0FC00FB607FCF5CF9B
:1007F000808185FFF2CFA889B9898C9185FFEDCFE3
:10080000CE010E947D03E7CFDF91CF91089580E074
:1008100090E0892B29F00E94730381110C94000051
:100820000895EF92FF920F931F93CF93DF93EC0104
:10083000909147019F5F292F27702093470190FFD8
:1008400002C090E801C090E021FD9064247009F09E
:10085000906220E1290FFE013C967E018FE0E80EB8
:10086000F11C00E011E06191662331F070E0C801F5
:100870000E9466126F5F01C060E0DF0114976C9305
:10088000322F369F030E30E0311D1124CF01079720
:10089000311103C0EC01188203C03150EC013883E0
:1008A000662311F061506C93EE15FF05E1F6DF91C0
:1008B000CF911F910F91FF90EF90089580E991E003
:1008C0000895569A08950F931F93CF93DF93CDB752
:1008D000DEB762970FB6F894DEBF0FBECDBF8C01B6
:1008E000F901DC011C968C917A8369835C834B83CC
:1008F0005E834D8390819D8791819E8792819F87A2
:10090000813029F4CE0101960E94110406C01C8694
:100910001B861A86198618861F8283E0888B1A8A9E
:10092000198AD801ED91FC910484F585E02DBE0172
:100930006F5F7F4FC801099562960FB6F894DEBFCE
:100940000FBECDBFDF91CF911F910F9108950F93EF
:100950001F93CF93DF93CDB7DEB762970FB6F894AE
:10096000DEBF0FBECDBF8C01F901DC011C968C915E
:100970007A8369835C834B835E834D8390819D87FB
:1009800091819E8792819F87813029F4CE010196C3
:100990000E94110406C01C861B861A8619861886BA
:1009A0001F82188A1A8A198AD801ED91FC91048451
:1009B000F585E02DBE016F5F7F4FC80109956296F6
:1009C0000FB6F894DEBF0FBECDBFDF91CF911F9160
:1009D0000F91089580E090E00895FC01858596854B
:1009E0000895CF93DF9300D000D000D0CDB7DEB70D
:1009F000AB011C821D821E82DC01ED91FC910190F5
:100A0000F081E02D19821A821B829E012F5F3F4FD9
:100A1000BE016C5F7F4F099526960FB6F894DEBF36
:100A20000FBECDBFDF91CF9108950E949B124F92D0
:100A30005F926F927F928F92AF92BF92CF92EF921E
:100A4000FF920F931F93CF93DF933C01EB010E9422
:100A5000F907F30127853089621B730B6A30710532
:100A6000B0F3F894E881F9815BB150648BB18F7B6E
:100A70008BB96A859F81262F291B922F2F83BF84D4
:100A80004A805B807D85FC84EE847F5FF394E394F1
:100A90003E814885A984CB841181D20120E0C32FF7
:100AA000022F322F3181112788943111390F08F428
:100AB0003FEF9195889470FD130F1795889471FD01
:100AC000130F1795889472FD130F1795889473FD73
:100AD000130F1795889474FD130F1795889475FD5F
:100AE000130F1795889476FD130F1795889477FD4B
:100AF000130F17958894232F7111212F960F122F02
:100B0000002C5BB900C017FF8BB930812227889475
:100B100000C000C0002C8BB931113C0F00C0002C6C
:100B20005BB900C016FF8BB908F43FEFC1958894FC
:100B300000C000C0002C8BB9F0FC230F00C0002CBB
:100B40005BB900C015FF8BB927958894F1FC230F82
:100B500000C000C0002C8BB92795889400C0002CE1
:100B60005BB900C014FF8BB9F2FC230F2795889462
:100B700000C000C0002C8BB9F3FC230F00C0002C78
:100B80005BB900C013FF8BB927958894F4FC230F41
:100B900000C000C0002C8BB92795889400C0002CA1
:100BA0005BB900C012FF8BB9F5FC230F2795889421
:100BB00000C000C0002C8BB9F6FC230F00C0002C35
:100BC0005BB900C011FF8BB927958894F7FC230F00
:100BD00000C000C0002C8BB92795889400C0002C61
:100BE0005BB900C010FF8BB9132FF110122FCA0D83
:100BF00000C000C0002C8BB900C000C0002C5BB945
:100C000000C017FF8BB932812227889400C000C032
:100C1000002C8BB93111340F00C0002C5BB900C01F
:100C200016FF8BB908F43FEFEB0DF11D00C000C0BB
:100C3000002C8BB9E0FC230F00C0002C5BB900C076
:100C400015FF8BB927958894E1FC230F00C000C0E5
:100C5000002C8BB92795889400C0002C5BB900C08C
:100C600014FF8BB9E2FC230F2795889400C000C0C5
:100C7000002C8BB9E3FC230F00C0002C5BB900C033
:100C800013FF8BB927958894E4FC230F00C000C0A4
:100C9000002C8BB92795889400C0002C5BB900C04C
:100CA00012FF8BB9E5FC230F2795889400C000C084
:100CB000002C8BB9E6FC230F00C0002C5BB900C0F0
:100CC00011FF8BB927958894E7FC230F00C000C063
:100CD000002C8BB92795889400C0002C5BB900C00C
:100CE00010FF8BB9132FE110122F419500C000C0E7
:100CF000002C8BB94C0D00C000C05BB900C017FFC1
:100D00008BB931812227889400C000C0002C8BB998
:100D10003111390F00C0002C5BB900C016FF8BB930
:100D200008F43FEF9195889400C000C0002C8BB967
:100D300070FD230F00C0002C5BB900C015FF8BB9FC
:100D40002795889471FD230F00C000C0002C8BB93B
:100D50002795889400C0002C5BB900C014FF8BB9A4
:100D600072FD230F2795889400C000C0002C8BB91A
:100D700073FD230F00C0002C5BB900C013FF8BB9BB
:100D80002795889474FD230F00C000C0002C8BB9F8
:100D90002795889400C0002C5BB900C012FF8BB966
:100DA00075FD230F2795889400C000C0002C8BB9D7
:100DB00076FD230F00C0002C5BB900C011FF8BB97A
:100DC0002795889477FD230F00C000C0002C8BB9B5
:100DD0002795889400C0002C5BB900C010FF8BB928
:100DE000132F7111122F960F00C000C0002C8BB969
:100DF000119709F086CE20EE31E0D2010E947A12DE
:100E0000DC01CB01F4E0B695A79597958795FA9507
:100E1000D1F720E030E0A9016AE9469E040C411DAB
:100E2000569E400D511D1124450D511D840F951FD7
:100E3000A11DB11D893E43E09407A105B10508F449
:100E400034C0885E9340A109B10942E0B695A795E8
:100E5000979587954A95D1F747E0849F080E211D05
:100E6000949F200D311D1124290F311D60914601E1
:100E700070E0860F971F820F931F409121065091BB
:100E800022066091230670912406292F3327420FF2
:100E9000531F611D711D40932106509322066093DC
:100EA0002306709324068093460178940E94F907E4
:100EB000F301708B6787DF91CF911F910F91FF90A6
:100EC000EF90CF90BF90AF908F907F906F905F909A
:100ED0004F9008951F920F920FB60F9211242F93E7
:100EE0003F934F935F936F937F938F939F93AF93B2
:100EF000BF93EF93FF9385E296E00E947D03FF91FD
:100F0000EF91BF91AF919F918F917F916F915F9181
:100F10004F913F912F910F900FBE0F901F901895FA
:100F20001F920F920FB60F9211242F938F939F93BE
:100F3000EF93FF93E0913506F09136068081E091C2
:100F40003B06F0913C0682FD12C0908180913E06E6
:100F50008F5F8F7320913F06821751F0E0913E061C
:100F6000F0E0EB5DF94F958F80933E0601C08081E4
:100F7000FF91EF919F918F912F910F900FBE0F9046
:100F80001F901895CF92DF92EF92FF920F931F93CD
:100F9000CF93DF936C017A018B01C0E0D0E0CE15D6
:100FA000DF0589F0D8016D918D01D601ED91FC919D
:100FB0000190F081E02DC6010995892B11F47E0185
:100FC00002C02196ECCFC701DF91CF911F910F9105
:100FD000FF90EF90DF90CF90089520E0DC0160FF5C
:100FE00003C001C02D932D936250E0F77040D0F7FD
:100FF00008953FB7F8948091D0069091D106A091C2
:10100000D206B091D30626B5A89B05C02F3F19F094
:101010000196A11DB11D3FBFBA2FA92F982F882778
:10102000820F911DA11DB11DBC01CD0142E0660FD3
:10103000771F881F991F4A95D1F708952FB7F89405
:1010400060912106709122068091230690912406DA
:101050002FBF08951F920F920FB60F9211242F9356
:101060003F938F939F93AF93BF938091210690916D
:101070002206A0912306B09124063091CF0623E0EA
:10108000230F2D3720F40196A11DB11D05C026E8C0
:10109000230F0296A11DB11D2093CF068093210638
:1010A00090932206A0932306B09324068091D00645
:1010B0009091D106A091D206B091D3060196A11DC0
:1010C000B11D8093D0069093D106A093D206B09321
:1010D000D306BF91AF919F918F913F912F910F9028
:1010E0000FBE0F901F901895CF93DF93CDB7DEB74B
:1010F00063970FB6F894DEBF0FBECDBF789484B56A
:10110000826084BD84B5816084BD85B5826085BD03
:1011100085B5816085BD80916E00816080936E0091
:101120001092810080918100826080938100809183
:101130008100816080938100809180008160809334
:1011400080008091B10084608093B1008091B000F4
:1011500081608093B00080917A00846080937A00EF
:1011600080917A00826080937A0080917A00816019
:1011700080937A0080917A00806880937A00109240
:10118000C10080917A00846080937A0080917A0017
:101190008D7F80937A0080917A00816080937A00BD
:1011A000E0913506F091360682E08083E0913106C9
:1011B000F09132061082E0913306F09134068FEC04
:1011C000808310923D06E0913906F0913A0686E060
:1011D0008083E0913706F0913806808180618083BA
:1011E000E0913706F0913806808188608083E09135
:1011F0003706F0913806808180688083E091370659
:10120000F091380680818F7D808388EC8093C206C0
:101210008091DB03811145C01092CD031092CC0365
:101220008FEF8093D0038093D1038093D203809378
:10123000D3038093D4038093D50381E08093D603B6
:101240001092D8031092D7031092CF031092CE03BE
:101250008091E9039091EA03892B31F48AEC93E0C1
:101260009093EA038093E903E091C803F091C903E6
:10127000309721F08AEC93E0958384838AEC93E0A5
:101280009093C9038093C8031092DA031092D90394
:1012900086E191E09093CB038093CA0381E0809331
:1012A000DB03E091CA03F091CB030480F581E02DCC
:1012B0008AEC93E009958CE594E09093CD038093BC
:1012C000CC0380E990E09093D8038093D703E0911A
:1012D000CA03F091CB030284F385E02D8AEC93E0FE
:1012E0000995009729F19C0140E050E060E472E428
:1012F0008FE090E00E94C20F722F632F0091C5060D
:101300001091C6062091C7063091C806872F962FE8
:10131000DA0180179107A207B30710F4D901C801B9
:101320008093C5069093C606A093C706B093C806DF
:101330000E941E0800911D0610911E0620911F0696
:1013400030912006DC01CB01801B910BA20BB30B6B
:101350000297A105B10508F41FC50E941E086093FD
:101360001D0670931E0680931F0690932006E8E4E6
:10137000F1E030E430937C0080917A0080648093C7
:101380007A0080917A0086FDFCCF809178002091D0
:10139000790090E0922B8193919323E0E834F20757
:1013A00049F72F923F924F925F92FF920F931F93B4
:1013B000CF93DF93C8E4D1E0E8E6F0E0FF2440E01B
:1013C0006591759108811981970320010E034F1CC7
:1013D00010019E035F08300C411C5F1CF8035F087E
:1013E000300C411C5F1C499259924A9549F7DF9194
:1013F000CF911F910F91FF905F904F903F902F9052
:1014000011242F923F926F927F92CF93DF93E8E661
:10141000F3E048E7A591BB27AA0FBB1FA85BBE4F0F
:101420002D903C90C591DD27CC0FDD1FC85BDE4FB2
:10143000688079807C926E92288239824A9551F731
:10144000DF91CF917F906F903F902F902F923F929E
:101450004F925F926F927F928F929F92AF92BF92C4
:10146000CF92DF92EF92FF920F931F93CF93DF9370
:10147000FF2400E2E02EC8E4D1E0688079804A8051
:101480005B8075946794430155944794640C751C74
:1014900084189508AC80BD804E805F80B594A79479
:1014A000650155944794A40CB51CC418D5086885EB
:1014B00079854A845B84759567958B01559447942B
:1014C000640D751D041915098C859D854E845F84F6
:1014D000959587959C0155944794840D951D2419E5
:1014E0003509759467942301B594A7946A0C7B1C05
:1014F0004A185B08959487945401D594C7948C0C32
:101500009D1CAC18BD08759567956B0195958795E1
:10151000680F791FC81AD90A7594679413017595D5
:101520006795660E771E261A370A42E85AE51503B4
:10153000C001049FB00114039F09700D811D9F1D00
:10154000509F700D811D9F1D959487948401880E76
:10155000991E081B190B55944794D201D594C79432
:101560004C0C5D1CAC19BD093503C001249FB001B2
:1015700034039F09700D811D9F1D529F700D811DA9
:101580009F1DB594A7946501A80EB91EC81AD90A63
:10159000699279928992999249925992A992B992B3
:1015A0002992399209931993A993B993C992D9921F
:1015B000EA9409F062CF00E2C02EDD2403E0902E11
:1015C000E8E5F4E000E1A02EBB2404E0E02EA8E46E
:1015D000B1E0ED01CA0DDB1D8E2C2D903C904880B2
:1015E000598035942794310155944794640C751CA7
:1015F00024183508299239927C926E92AC0DBD1D4B
:101600001197EA94088119813C912E914591559149
:101610006591759115022001049F100114035F0864
:10162000300C411C5F1C509F300C411C5F1C37026A
:101630003001269F200C311C461C571C36035F08C6
:10164000300C411C5F1C729F300C411C5F1C0E0152
:10165000CA19DB0928803980359427943101640C3C
:10166000751C2418350868827982E0012992399224
:1016700017022001069F100116035F08300C411C61
:101680005F1C709F300C411C5F1C35023001249F91
:10169000201831084608570834035F1C30184108E9
:1016A0005F08529F301841085F080D01AA19BB0955
:1016B0002D903C90359427943101640C751C2418AE
:1016C00035087C926E92D0012D923C921297EA944A
:1016D00009F098CFDE01AA19BB092D903C904880F3
:1016E000598035942794310155944794640C751CA6
:1016F00024183508288239827C926E92C50196950D
:101700008795C80FD91FC834D90540F4DE01CA0D2A
:10171000DB1DE82CEA19FB0934965FCF86FC06C076
:10172000EA2CE6945601CC0CDD1C51CFDF91CF9111
:101730001F910F91FF90EF90DF90CF90BF90AF90EF
:101740009F908F907F906F905F904F903F902F90E1
:1017500011242F923F924F925F926F927F928F92BD
:101760009F92FF920F931F93CF93DF93A8E4B1E072
:10177000C8E4D3E0E8E4F3E04F01FF2440E80D9132
:101780001D91980106C0F4010D911D913291229195
:101790004F0111022001009F100198035F08300CD7
:1017A000411C5F1C33023001229F200C311C461C5F
:1017B000571CBA035F08300C411C5F1C11275520D1
:1017C00051F01CE0E52DE034F8F4440CEE1F440C1D
:1017D000EE1F1A95F8CF442051F018E0E42DE034C4
:1017E00098F4330CEE1F330CEE1F1A95F8CF33200C
:1017F00051F014E0E32DE03438F4220CEE1F220CFB
:10180000EE1F1A95F8CFE22DFF27E859FD4F0491FE
:101810001295010F09934A9509F0B5CFDF91CF9149
:101820001F910F91FF909F908F907F906F905F908E
:101830004F903F902F90112408E413E0D8018C9131
:101840008E3108F41C92F801608170E080E090E035
:101850000E94321120E030E040EC5FE30E94C511AD
:101860000E940311D8016D938D01B3E0083C1B0762
:1018700029F710921C060091E9031091EA03011563
:101880001105A1F0F80182819381009749F06585E7
:1018900076859B01220F331F620F731F0E94ED0795
:1018A000D80114960D911C911597E9CFE4E2F1E06F
:1018B000FD83EC833CE3232E34E0332E2CEF33E026
:1018C0003F832E834CE554E05D874C878CE096E0A7
:1018D0009B878A871F861E861FEFAC81BD810D9175
:1018E000BD83AC83202F30E0F901E85BFC4F6081C1
:1018F00070E01F3008F0A8C0FD0132978081D02E23
:10190000D81AE12CF12C8D2D90E0F901E81BF90B90
:10191000F987E8879C01990F440B550B288B398B6D
:101920004A8B5B8BCE2CED14E0F5072E000C880B58
:10193000990B0E9434114B015C016C2D70E080E02A
:1019400090E00E9432112B013C01688979898A89D3
:101950009B890E9434119B01AC01C301B2010E941A
:101960008A102B013C01E885F985EE0DFF1DE85B2F
:10197000FC4F608170E080E090E00E9434119B0198
:10198000AC01C301B2010E94C5119B01AC01C501AC
:10199000B4010E941E100E94FC103FEFE31AF30AEC
:1019A000C1CFAC81BD81FC90F01AF886C12CD12C3E
:1019B0008F2D90E07C01E00EF11C9C01990F440BEF
:1019C000550B288B398B4A8B5B8B0C2D4885C416A5
:1019D000D8F5072E000C880B990B0E9434114B018F
:1019E0005C01602F70E080E090E00E9432112B01DA
:1019F0003C01688979898A899B890E9434119B01FD
:101A0000AC01C301B2010E948A102B013C01F70115
:101A1000EC19FD09E85BFC4F608170E080E090E02C
:101A20000E9434119B01AC01C301B2010E94C51197
:101A30009B01AC01C501B4010E941E100E94FC1064
:101A40003FEFC31AD30AC1CF80911C0690E08617DE
:101A5000970714F460931C06072E000C880B990B53
:101A60000E9434112AE939E949E95EE30E94C5116F
:101A70006B017C01AA85BB856C9170E080E090E0F1
:101A80000E94341123E333E343E35FE30E94C51173
:101A90009B01AC01C701B6010E941E100E94FC1000
:101AA000EA85FB856193FB87EA87CB01770FAA0B59
:101AB000BB0B9C01AD012E51310941095109A9E02F
:101AC000B0E00E94E10F2091000130910101690115
:101AD000330FEE08FF08A70196012E513109410985
:101AE00051090E94C20F37FD42C02A30310514F05F
:101AF00029E030E021153105D1F140E050E080E0EF
:101B000090E060E870E0EC85FD85E40FF51F7083E0
:101B100061831282019682179307C4F48130910584
:101B200059F0843091055CF08630910554F088308E
:101B3000910549F060E006C060E870E004C06FEF16
:101B400001C065EA7FEF4D5F5F4FDDCFF10180811E
:101B50009181821793075CF4D1012D933C930E94ED
:101B60001E08EE81FF816083718382839383D1019C
:101B7000ED90FC90F7FC0FC0EE85FF85EE0DFF1D8C
:101B8000CF01880F991FE80FF91FE45AFB4F10820D
:101B90001182BFEFB2838091FB038823D9F00E94AA
:101BA0001E08EE81FF8180809180A280B380DC01DD
:101BB000CB0188199909AA09BB098D3B9240A1055F
:101BC000B10540F0F7FC06C021E0E21AF108D101AE
:101BD000ED92FC921F5FB2E02B0E311CEE81FF8173
:101BE0003496FF83EE832E853F85205F3F4F3F87EE
:101BF0002E874C855D85405D5F4F5D874C871F302C
:101C000009F06BCEF090C2068091C5069091C60691
:101C1000A091C706B091C806892B8A2B8B2BE9F0BF
:101C20000E94F9070091EB031091EC032091ED0362
:101C30003091EE03DC01CB01801B910BA20BB30BA7
:101C40000091C5061091C6062091C7063091C806BE
:101C500080179107A207B307B8F20E94F9076093B3
:101C6000EB037093EC038093ED039093EE03E0910C
:101C7000CD06F091CE06309759F04091C9065091AB
:101C8000CA066091CB067091CC068F2D0995F82E6F
:101C90000091E9031091EA034F2C512C612C712C17
:101CA0000115110509F07BC08091E7039091E803CD
:101CB0008C010F5F1F4F1093E8030093E7034997D0
:101CC0009CF10E941E084B015C0188EE93E0089F86
:101CD000B001099F700D189F700D1124072E000C84
:101CE000880B990BC090E303D090E403E090E503E8
:101CF000F090E603A50194012C193D094E095F09F6
:101D00000E94EC0F3093C4062093C3061092E803A0
:101D10001092E7030E941E086093E3037093E403AC
:101D20008093E5039093E6031092FB030E941E0844
:101D30000091F7031091F8032091F9033091FA0311
:101D4000DC01CB01801B910BA20BB30BC397A10548
:101D5000B10568F081E08093FB030E941E08609348
:101D6000F7037093F8038093F9039093FA030E94AA
:101D70001E080091F3031091F4032091F5033091B4
:101D8000F603DC01CB01801B910BA20BB30B0B976D
:101D9000A105B10508F065C00E940704C9CAD801B1
:101DA0001C96EC901C978091C3069091C4068436D3
:101DB000910510F41C961C92D801ED91FC91A28023
:101DC000B38019821A821B82F11014C0F801458574
:101DD0005685628173819E012F5F3F4FC801F501D7
:101DE0000995D8011C96EC921C9714960D911C91A4
:101DF000159756CFF80139969E012F5F3F4F690125
:101E000048013CE0830E911CDF0113973C90219127
:101E1000332001F12223F1F0822F90E0A0E0B0E026
:101E20009C01AD012F5F3F4F4F4F5F4FC301B20188
:101E30000E9456129B01AC01832D90E0A0E0B0E01F
:101E4000BC01CD016F5F7F4F8F4F9F4F0E94561295
:101E5000D6018C93BFEFCB1ADB0AE815F905A1F682
:101E6000B5CF60911C0670E080E090E00E943411D4
:101E70002DEC3CEC4CE45DE30E94C5116B017C0150
:101E800023E333E343E75FE36091EF037091F003F3
:101E90008091F1039091F2030E94C5119B01AC0166
:101EA000C701B6010E941E106B017C016093EF0315
:101EB0007093F0038093F1039093F20320E030E0FD
:101EC00040EF51E40E94C01118167CF42DEC3CEC5C
:101ED0004CE85FE3C701B6010E94C5110E94FC10E7
:101EE000709301016093000106C084E690E0909336
:101EF0000101809300010E941E086093F303709318
:101F0000F4038093F5039093F60346CFE5E2F6E001
:101F10001382128288EE93E0A0E0B0E08483958380
:101F2000A683B78389E391E09183808385EC90E079
:101F30009587848784EC90E09787868780EC90E093
:101F4000918B808B81EC90E0938B828B82EC90E084
:101F5000958B848B86EC90E0978B868B118E128EFE
:101F6000138E148EE2ECF6E08FEF808312821182E2
:101F7000148613868FEF9FEFDC0187839087A187FC
:101F8000B2870895052E97FB1EF400940E94D90F86
:101F900057FD07D00E94EC0F07FC03D04EF40C94C1
:101FA000D90F50954095309521953F4F4F4F5F4F3A
:101FB000089590958095709561957F4F8F4F9F4FB5
:101FC00008950E940E10A59F900DB49F900DA49FA0
:101FD000800D911D11240895A1E21A2EAA1BBB1B8E
:101FE000FD010DC0AA1FBB1FEE1FFF1FA217B307E5
:101FF000E407F50720F0A21BB30BE40BF50B661FFB
:10200000771F881F991F1A9469F7609570958095BE
:1020100090959B01AC01BD01CF010895A29FB00135
:10202000B39FC001A39F700D811D1124911DB29F0C
:10203000700D811D1124911D08955058BB27AA27AA
:102040000E9435100C9486110E94781138F00E947D
:102050007F1120F039F49F3F19F426F40C94751188
:102060000EF4E095E7FB0C946F11E92F0E94971195
:1020700058F3BA17620773078407950720F079F4BD
:10208000A6F50C94B9110EF4E0950B2EBA2FA02DE5
:102090000B01B90190010C01CA01A0011124FF2715
:1020A000591B99F0593F50F4503E68F11A16F04010
:1020B000A22F232F342F4427585FF3CF469537950F
:1020C0002795A795F0405395C9F77EF41F16BA0BD4
:1020D000620B730B840BBAF09150A1F0FF0FBB1F82
:1020E000661F771F881FC2F70EC0BA0F621F731FCB
:1020F000841F48F4879577956795B795F7959E3F28
:1021000008F0B0CF9395880F08F09927EE0F9795B8
:10211000879508950E949E100C9486110E947F114D
:1021200058F00E94781140F029F45F3F29F00C9498
:102130006F1151110C94BA110C9475110E949711E2
:1021400068F39923B1F3552391F3951B550BBB27E6
:10215000AA2762177307840738F09F5F5F4F220F2B
:10216000331F441FAA1FA9F335D00E2E3AF0E0E822
:1021700032D091505040E695001CCAF72BD0FE2F6C
:1021800029D0660F771F881FBB1F26173707480700
:10219000AB07B0E809F0BB0B802DBF01FF279358B8
:1021A0005F4F3AF09E3F510578F00C946F110C94FC
:1021B000BA115F3FE4F3983ED4F38695779567951F
:1021C000B795F7959F5FC9F7880F911D96958795ED
:1021D00097F90895E1E0660F771F881FBB1F62170C
:1021E00073078407BA0720F0621B730B840BBA0BCA
:1021F000EE1F88F7E09508950E9403116894B111CD
:102200000C94BA1108950E949F1188F09F5798F07E
:10221000B92F9927B751B0F0E1F0660F771F881FEB
:10222000991F1AF0BA95C9F714C0B13091F00E9405
:10223000B911B1E008950C94B911672F782F882750
:10224000B85F39F0B93FCCF3869577956795B3952C
:10225000D9F73EF490958095709561957F4F8F4F9B
:102260009F4F0895E89409C097FB3EF490958095A0
:10227000709561957F4F8F4F9F4F9923A9F0F92F4C
:1022800096E9BB279395F695879577956795B795CA
:10229000F111F8CFFAF4BB0F11F460FF1BC06F5FB0
:1022A0007F4F8F4F9F4F16C0882311F096E911C0C2
:1022B000772321F09EE8872F762F05C0662371F0E3
:1022C00096E8862F70E060E02AF09A95660F771FF7
:1022D000881FDAF7880F9695879597F9089597F9EB
:1022E0009F6780E870E060E008959FEF80EC0895BC
:1022F00000240A94161617061806090608950024E5
:102300000A9412161306140605060895092E03945E
:10231000000C11F4882352F0BB0F40F4BF2B11F4D2
:1023200060FF04C06F5F7F4F8F4F9F4F089557FD31
:102330009058440F551F59F05F3F71F04795880F33
:1023400097FB991F61F09F3F79F0879508951216CA
:1023500013061406551FF2CF4695F1DF08C0161676
:1023600017061806991FF1CF869571056105089427
:102370000895E894BB2766277727CB0197F908953E
:102380000E94321208F48FEF08950E94D8110C9425
:1023900086110E94781138F00E947F1120F0952359
:1023A00011F00C946F110C94751111240C94BA1146
:1023B0000E94971170F3959FC1F3950F50E0551F40
:1023C000629FF001729FBB27F00DB11D639FAA278A
:1023D000F00DB11DAA1F649F6627B00DA11D661FD9
:1023E000829F2227B00DA11D621F739FB00DA11DFA
:1023F000621F839FA00D611D221F749F3327A00DB4
:10240000611D231F849F600D211D822F762F6A2F4F
:1024100011249F5750409AF0F1F088234AF0EE0FB4
:10242000FF1FBB1F661F771F881F91505040A9F7E1
:102430009E3F510580F00C946F110C94BA115F3FD0
:10244000E4F3983ED4F3869577956795B795F7951D
:10245000E7959F5FC1F7FE2B880F911D9695879595
:1024600097F90895990F0008550FAA0BE0E8FEEFC1
:1024700016161706E807F907C0F012161306E40748
:10248000F50798F0621B730B840B950B39F40A2641
:1024900061F0232B242B252B21F408950A2609F41F
:1024A000A140A6958FEF811D811D0895DB018F93BB
:1024B0009F930E94E10FBF91AF91A29F800D911D4C
:1024C000A39F900DB29F900D1124089597FB072EA6
:1024D00016F4009407D077FD09D00E94811207FC02
:1024E00005D03EF4909581959F4F08957095619524
:1024F0007F4F08950E940E10B7FF0895821B930B23
:102500000895AA1BBB1B51E107C0AA1FBB1FA6173A
:10251000B70710F0A61BB70B881F991F5A95A9F78C
:1025200080959095BC01CD010895EE0FFF1F059099
:10253000F491E02D099481E090E0F8940C94A012BD
:04254000F894FFCF3D
:10254400320000000000150515051505F104ED0421
:10255400EA0400000000A70463046104F104ED042C
:102564005E04170502030406080A0C0E1014191E53
:10257400233C506478000000009E03C207670345B3
:06258400035903E503000A
:00000001FF
