:100000000C9462000C94C7030C94A0030C948A0017
:100010000C948A000C948A000C948A000C948A0038
:100020000C948A000C948A000C948A000C948A0028
:100030000C948A000C948A000C948A000C948A0018
:100040000C9456030C948A000C9414040C94EE0344
:100050000C948A000C948A000C948A000C948A00F8
:100060000C948A000C948A000000000024002700F1
:100070002A0000000000250028002B0000000000DE
:1000800023002600290004040404040404040202DA
:100090000202020203030303030301020408102007
:1000A0004080010204081020010204081020000012
:1000B0000008000201000003040700000000000027
:1000C0000000950511241FBECFEFD4E0DEBFCDBFE9
:1000D00011E0A0E0B1E0E2EEFBE002C005900D927D
:1000E000AA38B107D9F722E0AAE8B1E001C01D9211
:1000F000A137B207E1F710E0C2E6D0E004C02197D3
:10010000FE010E94E405C136D107C9F70E944604EA
:100110000C94EF050C940000833081F028F48130BA
:1001200099F08230A1F008958730A9F08830B9F0B5
:100130008430D1F4809180008F7D03C08091800055
:100140008F7780938000089584B58F7702C084B53F
:100150008F7D84BD08958091B0008F7703C080911A
:10016000B0008F7D8093B0000895CF93DF93282F48
:1001700030E0F901E255FF4F8491F901E656FF4F57
:10018000D491F901EA57FF4FC491CC2391F081112A
:100190000E948C00EC2FF0E0EE0FFF1FE458FF4FA1
:1001A000A591B491EC91ED2381E090E021F480E001
:1001B00002C080E090E0DF91CF9108951F93CF932C
:1001C000DF93282F30E0F901E255FF4F8491F901C8
:1001D000E656FF4FD491F901EA57FF4FC491CC2363
:1001E000C9F0162F81110E948C00EC2FF0E0EE0F69
:1001F000FF1FEE58FF4FA591B4918FB7F8941111DE
:1002000005C09C91ED2FE095E92302C0EC91ED2B08
:10021000EC938FBFDF91CF911F910895CF93DF9320
:1002200090E0FC01E656FF4F2491FC01EA57FF4F96
:100230008491882361F190E0880F991FFC01E859AF
:10024000FF4FC591D491FC01EE58FF4FA591B49199
:10025000611109C09FB7F894888120958223888313
:10026000EC912E230BC0623061F49FB7F894388173
:10027000822F809583238883EC912E2B2C939FBF14
:1002800006C08FB7F894E8812E2B28838FBFDF91AB
:10029000CF9108953FB7F8948091D0019091D1010A
:1002A000A091D201B091D30126B5A89B05C02F3FE4
:1002B00019F00196A11DB11D3FBFBA2FA92F982F8C
:1002C0008827820F911DA11DB11DBC01CD0142E007
:1002D000660F771F881F991F4A95D1F708958F924F
:1002E0009F92AF92BF92CF92DF92EF92FF926B01FB
:1002F0007C010E944A014B015C01C114D104E1045C
:10030000F104F1F00E944A01DC01CB01881999093E
:10031000AA09BB09883E9340A105B10570F321E00D
:10032000C21AD108E108F10888EE880E83E0981E11
:10033000A11CB11CC114D104E104F10419F7DDCFF3
:10034000FF90EF90DF90CF90BF90AF909F908F90F5
:1003500008950895CF92DF92EF92FF920F931F932B
:10036000CF93DF936C017A018B01C0E0D0E0CE1512
:10037000DF0589F0D8016D918D01D601ED91FC91D9
:100380000190F081E02DC6010995892B11F47E01C1
:1003900002C02196ECCFC701DF91CF911F910F9141
:1003A000FF90EF90DF90CF90089581E08093CA0195
:1003B0000895FC01918D828D981761F0828DDF0187
:1003C000A80FB11D5D968C91928D9F5F9F73928F48
:1003D00090E008958FEF9FEF0895FC01918D828D3D
:1003E000981731F0828DE80FF11D858D90E008950A
:1003F0008FEF9FEF0895FC01918D228D892F90E062
:10040000805C9F4F821B91098F739927089584ED1B
:1004100091E00E94FB0121E0892B09F420E0822F6A
:100420000895FC01848DDF01A80FB11DA35ABF4FB1
:100430002C91848D90E001968F739927848FA689E3
:10044000B7892C93A089B1898C9180648C93938D0A
:10045000848D981306C00288F389E02D80818F7DFA
:1004600080830895EF92FF920F931F93CF93DF93B2
:10047000EC0181E0888F9B8D8C8D981305C0E889F5
:10048000F989808185FD24C0F62E0B8D10E00F5F69
:100490001F4F0F731127E02E8C8DE8120CC00FB682
:1004A00007FCFACFE889F989808185FFF5CFCE0175
:1004B0000E941102F1CF8B8DFE01E80FF11DE35A6E
:1004C000FF4FF0820B8FEA89FB898081806207C031
:1004D000EE89FF896083E889F9898081806480835F
:1004E00081E090E0DF91CF911F910F91FF90EF900D
:1004F0000895CF93DF93EC01888D8823C9F0EA89B2
:10050000FB89808185FD05C0A889B9898C9186FD0C
:100510000FC00FB607FCF5CF808185FFF2CFA88909
:10052000B9898C9185FFEDCFCE010E941102E7CFF2
:10053000DF91CF91089580E090E0892B29F00E940F
:10054000070281110C9400000895CF92DF92EF9280
:10055000FF920F931F93CF93DF931F92CDB7DEB718
:10056000182F61E083E099830E940E0160E083E030
:100570000E94DE00C12E9981D92E760184E1E80E19
:10058000F11C01E010E084E00E94B5000817190793
:10059000D1F384E00E94B5008C01F6016081F2E0A5
:1005A000CF0ED11C83E00E94DE0084E00E94B500E3
:1005B00008171907D1F384E00E94B5008C01CE140E
:1005C000DF0409F761E083E00E94DE0060E083E081
:1005D0000F90DF91CF911F910F91FF90EF90DF90DF
:1005E000CF900C940E01009769F0FC01019000205F
:1005F000E9F73197AF01481B590BBC0184ED91E03D
:100600000C94AA0180E090E00895CF93DF930E94BC
:10061000F302EC0180E591E00E94F3028C0F9D1F34
:10062000DF91CF9108958F929F92AF92BF920F93D7
:100630001F93CF93DF93CDB7DEB7A1970FB6F89492
:10064000DEBF0FBECDBF19A2423008F44AE08E01D2
:100650000F5D1F4F842E912CA12CB12CA50194016C
:100660000E94C205E62FB901CA0101501109EA3002
:1006700014F4E05D01C0E95CD801EC93232B242B3A
:10068000252B61F7C8010E94F302A1960FB6F894DA
:10069000DEBF0FBECDBFDF91CF911F910F91BF90F5
:1006A000AF909F908F9008950E94EA051F920F923D
:1006B0000FB60F9211242F933F938F939F93AF9375
:1006C000BF938091CC019091CD01A091CE01B091CA
:1006D000CF013091CB0123E0230F2D3720F4019679
:1006E000A11DB11D05C026E8230F0296A11DB11D55
:1006F0002093CB018093CC019093CD01A093CE01A8
:10070000B093CF018091D0019091D101A091D201FD
:10071000B091D3010196A11DB11D8093D00190939A
:10072000D101A093D201B093D301BF91AF919F911A
:100730008F913F912F910F900FBE0F901F901895A2
:100740001F920F920FB60F9211242F933F934F9346
:100750005F936F937F938F939F93AF93BF93EF9329
:10076000FF93E0913E01F0913F010995FF91EF91D8
:10077000BF91AF919F918F917F916F915F914F91B9
:100780003F912F910F900FBE0F901F9018951F92C1
:100790000F920FB60F9211242F933F934F935F93B5
:1007A0006F937F938F939F93AF93BF93EF93FF9339
:1007B000E0913C01F0913D010995FF91EF91BF91CE
:1007C000AF919F918F917F916F915F914F913F91E9
:1007D0002F910F900FBE0F901F9018951F920F92A0
:1007E0000FB60F9211242F933F934F935F936F9304
:1007F0007F938F939F93AF93BF93EF93FF9384ED7A
:1008000091E00E941102FF91EF91BF91AF919F91F2
:100810008F917F916F915F914F913F912F910F90A9
:100820000FBE0F901F9018951F920F920FB60F9248
:1008300011242F938F939F93EF93FF93E091E40103
:10084000F091E5018081E091EA01F091EB0182FDF8
:1008500012C090818091ED018F5F8F732091EE0126
:10086000821751F0E091ED01F0E0EC52FE4F958FD0
:100870008093ED0101C08081FF91EF919F918F9155
:100880002F910F900FBE0F901F901895789484B5FC
:10089000826084BD84B5816084BD85B5826085BD7C
:1008A00085B5816085BD80916E00816080936E000A
:1008B00010928100809181008260809381008091FC
:1008C00081008160809381008091800081608093AD
:1008D00080008091B10084608093B1008091B0006D
:1008E00081608093B00080917A00846080937A0068
:1008F00080917A00826080937A0080917A00816092
:1009000080937A0080917A00806880937A001092B8
:10091000C100E091E401F091E50182E08083E09183
:10092000E001F091E1011082E091E201F091E30138
:100930008FEC80831092EC01E091E801F091E901E5
:1009400086E08083E091E601F091E701808180619B
:100950008083E091E601F091E701808188608083E7
:10096000E091E601F091E701808180688083E09169
:10097000E601F091E70180818F7D808360E082E075
:100980000E940E0161E082E00E94DE0060E083E0F0
:100990000E940E0160E084E00E940E0160ED77E0AD
:1009A00080E090E00E946F0184E191E00E94A50246
:1009B00062E370E080E090E00E946F0180E091E0EF
:1009C0000E94A50262E370E080E090E00E946F0167
:1009D00095EDE92E91E0F92E29EAC22E21E0D22EE2
:1009E00003EC10E083E591E00E94050383B7817F6B
:1009F000846083BF83B7816083BFF0923D01E09242
:100A00003C01809169008C7F80936900E89A83B7EC
:100A1000816083BF889583B78E7F83BF83B78E7FC6
:100A200083BFE898D0923D01C0923C0168EC70E031
:100A300080E090E00E946F018091CA01882309F450
:100A400071C08DE591E00E94050388E291E00E946B
:100A5000A502CAE0D0E085EFA82EBB24B39484E0C1
:100A60000E94B500892B41F0C8010197F1F721E000
:100A7000A21AB108A1F71EC083E00E94B5000C2E97
:100A800002C0880F991F0A94E2F720918A013091E1
:100A90008B01822B932B90938B0180938A0184E0AE
:100AA0000E94B500892B21F4C8010197F1F7F7CF17
:100AB000219788F686E691E00E940503CAE8D1E016
:100AC0006991799180E090E04AE00E94130361E02F
:100AD00070E080E090E00E946F0121E0C03AD20710
:100AE00079F780E591E00E94F30284E791E00E94AB
:100AF000F302C0EAD1E07A916A9180E090E04AE0A6
:100B00000E94130361E070E080E090E00E946F01BA
:100B100081E0CA38D80779F780E591E00E94F302B6
:100B20001092CA010E949B025DCFE4EDF1E01382B6
:100B3000128288EE93E0A0E0B0E084839583A683E0
:100B4000B78384E491E09183808385EC90E095877E
:100B5000848784EC90E09787868780EC90E0918B87
:100B6000808B81EC90E0938B828B82EC90E0958B74
:100B7000848B86EC90E0978B868B118E128E138E71
:100B8000148E0895A1E21A2EAA1BBB1BFD010DC0F5
:100B9000AA1FBB1FEE1FFF1FA217B307E407F5072D
:100BA00020F0A21BB30BE40BF50B661F771F881F09
:100BB000991F1A9469F760957095809590959B019F
:100BC000AC01BD01CF010895EE0FFF1F0590F49118
:100BD000E02D099481E090E0F8940C94EF05F894EE
:020BE000FFCF45
:100BE2000000000001000000000000000000010001
:100BF20000000100000000000100000000000000F1
:100C020000000100000000000000000000000000E1
:100C1200000000000000010000000000A901A9017D
:100C2200000000003202AA01FB01D901ED017902A4
:100C32000D0A00536C656570696E672E0053796EFC
:100C420063696E672E00696E636F6D696E672064FB
:100C520061746100696E636F6D696E6720646174AF
:0A0C62006120726576657273000070
:00000001FF
