:100000000C94DD010C9405020C9405020C9405027D
:100010000C9405020C9405020C9405020C94050244
:100020000C9405020C9405020C9405020C94050234
:100030000C9405020C9405020C9405020C94050224
:100040000C9412030C9405020C9482030C945C0330
:100050000C9405020C9405020C9405020C94050204
:100060000C9405020C940502000014005000B4002A
:100070004001F301CD02CD03F3043D06AD073F0976
:10008000F40AC90CBF0ED41007135515BE17411A38
:10009000DB1C8B1F502227250F28062B0A2E193117
:1000A00032345237773AA03DCB40F5431C473F4AA4
:1000B0005C4D70507A5378566759475C155FCF6135
:1000C000756403677969D66B166E3A703F72267451
:1000D000EB758F770F796D7AA57BB87CA57D6C7EEB
:1000E0000B7F837FD37FFB7FFB7FD37F837F0B7F60
:1000F0006C7EA57DB87CA57B6D7A0F798F77EB75CB
:1001000026743F723A70166ED66B79690367756410
:10011000CF61155F475C675978567A5370505C4DD4
:100120003F4A1C47F543CB40A03D773A5237323423
:1001300019310A2E062B0F28272550228B1FDB1C76
:10014000411ABE1755150713D410BF0EC90CF40A77
:100150003F09AD073D06F304CD03CD02F301400195
:10016000B4005000140000000000080D1013151614
:1001700018191B1C1D1E1E1F20212122232324248D
:10018000252526262627272828282929292A2A2AF4
:100190002B2B2B2B2C2C2C2C2D2D2D2D2E2E2E2E97
:1001A0002E2F2F2F2F2F3030303030313131313151
:1001B0003132323232323232333333333333333417
:1001C00034343434343434353535353535353535E6
:1001D00036363636363636363637373737373737B8
:1001E0003737373838383838383838383838393990
:1001F000393939393939393939393A3A3A3A3A3A69
:100200003A3A3A3A3A3A3A3B3B3B3B3B3B3B3B3B45
:100210003B3B3B3B3B3B3C3C3C3C3C3C3C3C3C3C24
:100220003C3C3C3C3C3C3D3D3D3D3D3D3D3D3D3D04
:100230003D3D3D3D3D3D3D3E3E3E3E3E3E3E3E3EE5
:100240003E3E3E3E3E3E3E3E3E3F3F3F3F3F3F3FC7
:100250003F3F3F3F3F3F3F3F3F3F3F3F3F3F4040AC
:1002600040404040404040407007780F74177C1F6A
:1002700072277A2F76377E3F7147794F75577D5FAA
:1002800073677B6F6003680B64136C1B62236A2BBC
:1002900066336E3B6143694B65536D5B5005580D8A
:1002A00054155C1D52255A2D56355E3D5145594D0C
:1002B0004001480944114C1942214A2946314E391E
:1002C0003006380E34163C1E32263A2E2002280AFA
:1002D00024122C1A1004180C4276FC30825A825ACE
:1002E000FC3042768A7DF9184276FC306E6A1D47F2
:1002F000825A825A1D476E6AFC304276F9188A7D0E
:10030000627F8C0C8A7DF9187D7A28254276FC3034
:10031000E370573C6E6A1D47F2623451825A825A2A
:100320003451F2621D476E6A573CE370FC304276EE
:1003300028257D7AF9188A7D8C0C627FD97F480642
:10034000627F8C0C9D7EC8128A7DF9182A7C1A1F48
:100350007D7A282585781F2B4276FC30B673BA3615
:10036000E370573CCA6DCE416E6A1D47D066404C63
:10037000F2623451D75EF655825A825AF655D75EEC
:100380003451F262404CD0661D476E6ACE41CA6D50
:10039000573CE370BA36B673FC3042761F2B857833
:1003A00028257D7A1A1F2A7CF9188A7DC8129D7E1D
:1003B0008C0C627F4806D97FE90611241FBECFEF5F
:1003C000D8E0DEBFCDBF11E0A0E0B1E0EAE8FEE09A
:1003D00002C005900D92A631B107D9F722E0A6E13F
:1003E000B1E001C01D92AC3FB207E1F711E0CDEDE5
:1003F000D1E004C02197FE010E943807CC3DD1070F
:10040000C9F70E94B4030C9443070C940000CF92E8
:10041000DF92EF92FF920F931F93CF93DF936C01C4
:100420007A018B01C0E0D0E0CE15DF0589F0D8015C
:100430006D918D01D601ED91FC910190F081E02D3F
:10044000C6010995892B11F47E0102C02196ECCFDB
:10045000C701DF91CF911F910F91FF90EF90DF9037
:10046000CF900895FC01918D828D981761F0828D57
:10047000DF01A80FB11D5D968C91928D9F5F9F73D8
:10048000928F90E008958FEF9FEF0895FC01918D7A
:10049000828D981731F0828DE80FF11D858D90E0E7
:1004A00008958FEF9FEF0895FC01918D228D892F84
:1004B00090E0805C9F4F821B91098F73992708956C
:1004C0008FE592E00E94540221E0892B09F420E09C
:1004D000822F0895FC01848DDF01A80FB11DA35A5E
:1004E000BF4F2C91848D90E001968F739927848F54
:1004F000A689B7892C93A089B1898C9180648C934B
:10050000938D848D981306C00288F389E02D808135
:100510008F7D80830895EF92FF920F931F93CF9367
:10052000DF93EC0181E0888F9B8D8C8D981305C043
:10053000E889F989808185FD24C0F62E0B8D10E0B5
:100540000F5F1F4F0F731127E02E8C8DE8120CC028
:100550000FB607FCFACFE889F989808185FFF5CFCE
:10056000CE010E946A02F1CF8B8DFE01E80FF11DD2
:10057000E35AFF4FF0820B8FEA89FB89808180620A
:1005800007C0EE89FF896083E889F98980818064EA
:10059000808381E090E0DF91CF911F910F91FF90D8
:1005A000EF900895CF93DF93EC01888D8823C9F0F5
:1005B000EA89FB89808185FD05C0A889B9898C916C
:1005C00086FD0FC00FB607FCF5CF808185FFF2CF07
:1005D000A889B9898C9185FFEDCFCE010E946A026E
:1005E000E7CFDF91CF91089580E090E0892B29F04B
:1005F0000E94600281110C9400000895009769F038
:10060000FC0101900020E9F73197AF01481B590B1D
:10061000BC018FE592E00C94070280E090E0089521
:100620000E943E071F920F920FB60F9211242F9334
:100630003F938F939F93AF93BF9380915B02909171
:100640005C02A0915D02B0915E0230915A0223E0FB
:10065000230F2D3720F40196A11DB11D05C026E8FA
:10066000230F0296A11DB11D20935A0280935B02B5
:1006700090935C02A0935D02B0935E02809156025B
:1006800090915702A0915802B09159020196A11D74
:10069000B11D8093560290935702A0935802B093D5
:1006A0005902BF91AF919F918F913F912F910F90E0
:1006B0000FBE0F901F9018951F920F920FB60F92BA
:1006C00011242F933F934F935F936F937F938F9357
:1006D0009F93AF93BF93EF93FF938FE592E00E94B8
:1006E0006A02FF91EF91BF91AF919F918F917F919E
:1006F0006F915F914F913F912F910F900FBE0F908F
:100700001F9018951F920F920FB60F9211242F93DE
:100710008F939F93EF93FF93E0916F02F09170029C
:100720008081E0917502F091760282FD12C0908185
:10073000809178028F5F8F7320917902821751F038
:10074000E0917802F0E0E15AFD4F958F80937802B6
:1007500001C08081FF91EF919F918F912F910F9018
:100760000FBE0F901F901895CF93DF93CDB7DEB7D4
:10077000A1970FB6F894DEBF0FBECDBF789484B5B5
:10078000826084BD84B5816084BD85B5826085BD8D
:1007900085B5816085BD80916E00816080936E001B
:1007A000109281008091810082608093810080910D
:1007B00081008160809381008091800081608093BE
:1007C00080008091B10084608093B1008091B0007E
:1007D00081608093B00080917A00846080937A0079
:1007E00080917A00826080937A0080917A008160A3
:1007F00080937A0080917A00806880937A001092CA
:10080000C100E0916F02F091700282E08083E0917C
:100810006B02F0916C021082E0916D02F0916E0219
:100820008FEC808310927702E0917302F091740252
:1008300086E08083E0917102F09172028081806194
:100840008083E0917102F0917202808188608083E0
:10085000E0917102F0917202808180688083E09162
:100860007102F091720280818F7D808380917A0085
:10087000846080937A0080917A008D7F80937A00E3
:1008800080917A00816080937A0083E080930001F8
:100890008AE0882E912CA12CB12CE6E5F1E0809124
:1008A000000120E4829FC001112480937C0080918C
:1008B0007A00806480937A0080917A0086FDFCCF74
:1008C000809178002091790090E0922B8193919310
:1008D00082E0E635F80719F72F923F924F925F9228
:1008E000FF920F931F93CF93DF93C6E5D1E0E8E625
:1008F000F0E0FF2440E86591759108811981970324
:1009000020010E034F1C10019E035F08300C411C98
:100910005F1CF8035F08300C411C5F1C4992599220
:100920004A9549F7DF91CF911F910F91FF905F900A
:100930004F903F902F9011242F923F926F927F9271
:10094000CF93DF93E8E6F2E048E3A591BB27AA0F37
:10095000BB1FAA5ABE4F2D903C90C591DD27CC0FEE
:10096000DD1FCA5ADE4F688079807C926E922882A1
:1009700039824A9551F7DF91CF917F906F903F90E8
:100980002F902F923F924F925F926F927F928F9211
:100990009F92AF92BF92CF92DF92EF92FF920F930E
:1009A0001F93CF93DF93FF2400E1E02EC6E5D1E053
:1009B000688079804A805B80759467944301559480
:1009C0004794640C751C84189508AC80BD804E80DB
:1009D0005F80B594A794650155944794A40CB51C09
:1009E000C418D508688579854A845B8475956795B0
:1009F0008B0155944794640D751D041915098C8558
:100A00009D854E845F84959587959C015594479468
:100A1000840D951D24193509759467942301B594A7
:100A2000A7946A0C7B1C4A185B0895948794540120
:100A3000D594C7948C0C9D1CAC18BD087595679512
:100A40006B0195958795680F791FC81AD90A759417
:100A50006794130175956795660E771E261A370AF7
:100A600042E85AE51503C001049FB00114039F0931
:100A7000700D811D9F1D509F700D811D9F1D9594B0
:100A800087948401880E991E081B190B559447946E
:100A9000D201D594C7944C0C5D1CAC19BD0935032B
:100AA000C001249FB00134039F09700D811D9F1D5B
:100AB000529F700D811D9F1DB594A7946501A80ECE
:100AC000B91EC81AD90A6992799289929992499263
:100AD0005992A992B9922992399209931993A9939B
:100AE000B993C992D992EA9409F062CF00E2C02E7C
:100AF000DD2402E0902EE8EDF2E000E1A02EBB2420
:100B000004E0E02EA6E5B1E0ED01CA0DDB1D8E2C60
:100B10002D903C904880598035942794310155940C
:100B20004794640C751C24183508299239927C92DC
:100B30006E92AC0DBD1D1197EA94088119813C910C
:100B40002E91459155916591759115022001049F53
:100B5000100114035F08300C411C5F1C509F300CC7
:100B6000411C5F1C37023001269F200C311C461CA3
:100B7000571C36035F08300C411C5F1C729F300C01
:100B8000411C5F1C0E01CA19DB092880398035948D
:100B900027943101640C751C241835086882798209
:100BA000E0012992399217022001069F10011603D5
:100BB0005F08300C411C5F1C709F300C411C5F1C97
:100BC00035023001249F20183108460857083403A5
:100BD0005F1C301841085F08529F301841085F08B9
:100BE0000D01AA19BB092D903C9035942794310131
:100BF000640C751C241835087C926E92D0012D92DD
:100C00003C921297EA9409F098CFDE01AA19BB0929
:100C10002D903C904880598035942794310155940B
:100C20004794640C751C24183508288239827C92FC
:100C30006E92C50196958795C80FD91FC635D905FF
:100C400040F4DE01CA0DDB1DE82CEA19FB093496DD
:100C50005FCF85FC06C0EA2CE6945601CC0CDD1C67
:100C600051CFDF91CF911F910F91FF90EF90DF90C7
:100C7000CF90BF90AF909F908F907F906F905F903C
:100C80004F903F902F9011242F923F924F925F925E
:100C90006F927F928F929F92FF920F931F93CF93A9
:100CA000DF93A6E5B1E0C6E1D1E0E6E5F2E04F0171
:100CB000FF2440E40D911D91980106C0F4010D91AF
:100CC0001D91329122914F0111022001009F1001CC
:100CD00098035F08300C411C5F1C33023001229FD7
:100CE000200C311C461C571CBA035F08300C411CF9
:100CF0005F1C1127552051F01CE0E52DE034F8F47D
:100D0000440CEE1F440CEE1F1A95F8CF442051F00E
:100D100018E0E42DE03498F4330CEE1F330CEE1F92
:100D20001A95F8CF332051F014E0E32DE03438F475
:100D3000220CEE1F220CEE1F1A95F8CFE22DFF2792
:100D4000E859FE4F04911295010F09934A9509F055
:100D5000B5CFDF91CF911F910F91FF909F908F9012
:100D60007F906F905F904F903F902F90112406E1FD
:100D700011E0F80181918F01282F30E040E050E030
:100D800019A2CE0181967C01CA01B901A501940185
:100D90000E941607605DF70162937F0121153105FE
:100DA0004105510589F7CF010E94FE0281E191E0E2
:100DB0000E94FE02F1E006351F07D9F685E191E0B9
:100DC0000E94FE0283E191E00E94FE020E94F40272
:100DD00064CDEFE5F2E01382128288EE93E0A0E0AA
:100DE000B0E084839583A683B78385E091E0918307
:100DF000808385EC90E09587848784EC90E09787EA
:100E0000868780EC90E0918B808B81EC90E0938BD7
:100E1000828B82EC90E0958B848B86EC90E0978BB4
:100E2000868B118E128E138E148E0895A1E21A2EC7
:100E3000AA1BBB1BFD010DC0AA1FBB1FEE1FFF1F7E
:100E4000A217B307E407F50720F0A21BB30BE40BCE
:100E5000F50B661F771F881F991F1A9469F7609515
:100E60007095809590959B01AC01BD01CF010895CF
:100E7000EE0FFF1F0590F491E02D099481E090E0C2
:0A0E8000F8940C944307F894FFCF98
:100E8A0001000000008B020702540232024602D21D
:060E9A000220000D0A0019
:00000001FF
