:100000000C9435000C945D000C945D000C945D0024
:100010000C945D000C945D000C945D000C945D00EC
:100020000C945D000C945D000C945D000C945D00DC
:100030000C945D000C945D000C945D000C945D00CC
:100040000C948A040C945D000C94FA040C94D4046F
:100050000C945D000C945D000C945D000C945D00AC
:100060000C945D000C945D00AC0711241FBECFEF13
:10007000D8E0DEBFCDBF22E0ACE2B2E001C01D920D
:10008000AB3EB207E1F712E0A0E0B1E0E4EEF8E148
:1000900002C005900D92AC32B107D9F710E0C5E36C
:1000A000D0E004C02197FE010E946E0AC433D1073C
:1000B000C9F70E942C050C94700C0C94000080E48D
:1000C00080937C0080917A00806480937A00809194
:1000D0007A0086FDFCCF809178002091790090E035
:1000E000922B08953FB7F894809145029091460273
:1000F000A0914702B091480226B5A89B05C02F3FAA
:1001000019F00196A11DB11D3FBFBA2FA92F982F3D
:100110008827820F911DA11DB11DBC01CD0142E0B8
:10012000660F771F881F991F4A95D1F708952FB73B
:10013000F894609141027091420280914302909143
:1001400044022FBF0895CF92DF92EF92FF920F9358
:100150001F93CF93DF936C017A018B01C0E0D0E055
:10016000CE15DF0581F0D8016D918D01D601ED919D
:10017000FC910190F081E02DC6010995892B11F0C9
:100180002196EECF7E01C701DF91CF911F910F9194
:10019000FF90EF90DF90CF900895FC01918D828DBC
:1001A000981761F0828DDF01A80FB11D5D968C91CB
:1001B000928D9F5F9F73928F90E008958FEF9FEFD6
:1001C0000895FC01918D828D981731F0828DE80F92
:1001D000F11D858D90E008958FEF9FEF0895FC014C
:1001E000918D228D892F90E0805C9F4F821B910919
:1001F0008F739927089589E492E00E94EF0021E02F
:10020000892B09F420E0822F0895FC01848DDF0101
:10021000A80FB11DA35ABF4F2C91848D90E0019679
:100220008F739927848FA689B7892C93A089B18968
:100230008C9180648C93938D848D981306C0028872
:10024000F389E02D80818F7D80830895EF92FF9266
:100250000F931F93CF93DF93EC0181E0888F9B8DE9
:100260008C8D981305C0E889F989808185FD24C0AB
:10027000F62E0B8D10E00F5F1F4F0F731127E02E2E
:100280008C8DE8120CC00FB607FCFACFE889F9890B
:10029000808185FFF5CFCE010E940501F1CF8B8DC6
:1002A000FE01E80FF11DE35AFF4FF0820B8FEA8940
:1002B000FB898081806207C0EE89FF896083E889BD
:1002C000F98980818064808381E090E0DF91CF9123
:1002D0001F910F91FF90EF900895CF93DF93EC0162
:1002E000888D8823C9F0EA89FB89808185FD05C056
:1002F000A889B9898C9186FD0FC00FB607FCF5CF90
:10030000808185FFF2CFA889B9898C9185FFEDCFD7
:10031000CE010E940501E7CFDF91CF91089580E0E3
:1003200090E0892B29F00E94FB0081110C940000C1
:100330000895009769F0FC0101900020E9F73197DA
:10034000AF01481B590BBC0189E492E00C94A30057
:1003500080E090E0089586E191E00C949901CF93BC
:10036000DF93FC01448155816081718189E492E0D1
:100370000E94A300EC010E94AB018C0F9D1FDF9136
:10038000CF9108958F929F92AF92BF920F931F9338
:10039000CF93DF93CDB7DEB7A1970FB6F894DEBF4A
:1003A0000FBECDBF19A2423008F44AE08E010F5DA6
:1003B0001F4F842E912CA12CB12CA50194010E94D9
:1003C0004C0AE62FB901CA0101501109EA3014F4B0
:1003D000E05D01C0E95CD801EC93232B242B252B95
:1003E00061F7C8010E949901A1960FB6F894DEBF8B
:1003F0000FBECDBFDF91CF911F910F91BF90AF90F6
:100400009F908F900895CF92DF92EF92FF92CF93BB
:10041000DF936C01990FEE08FF08F7FE13C06DE241
:1004200089E492E00E942601EC0166277727CB0140
:100430006C197D098E099F094AE00E94C201C80F0C
:10044000D91F06C04AE0C701B6010E94C201EC01F3
:100450000E94AB018C0F9D1FDF91CF91FF90EF9019
:10046000DF90CF9008958F929F92AF92BF92CF92DC
:10047000DF92EF92FF920F931F93CF93DF936B0165
:100480007C01142F9B01AC010E94470A882319F0BC
:1004900089E191E027C046015701E894B7F82FEFB2
:1004A0003FEF4FE75FE7C501B4010E94470A8111A2
:1004B0000DC02FEF3FEF4FE75FE7C501B4010E948A
:1004C000D90718161CF48DE191E00CC02FEF3FEF17
:1004D0004FE75FE4C701B6010E94420A181684F490
:1004E00081E291E0DF91CF911F910F91FF90EF900A
:1004F000DF90CF90BF90AF909F908F900C94990118
:100500002FEF3FEF4FE75FECC701B6010E94D9071D
:1005100087FDE6CF20E030E0A901C701B6010E94C7
:10052000D90787FF0BC06DE289E492E00E942601A3
:10053000EC01F7FAF094F7F8F09402C0C0E0D0E0D4
:1005400000E060E070E080E09FE3101741F020E001
:1005500030E040E251E40E94A1090F5FF6CFA7010D
:1005600096010E9435096B017C010E94130A4B0120
:100570005C014AE00E94C201C80FD91F1123B9F1E2
:10058000C501B4010E94DE079B01AC01C701B601A1
:100590000E9434096B017C016EE289E492E00E94C2
:1005A0002601C80FD91F20E030E040E251E4C70126
:1005B000B6010E943F084B015C010E94130A6B01C7
:1005C000E12CF12C4AE0C701B6010E94C201C80F1C
:1005D000D91FC701B6010E94DE079B01AC01C5010E
:1005E000B4010E9434096B017C011150E1F6CE0187
:1005F000DF91CF911F910F91FF90EF90DF90CF90FF
:10060000BF90AF909F908F9008950E945B0C0F93C6
:100610001F93CF93DF93EC0188819981009729F094
:100620002A813B812617370788F48B016F5F7F4F44
:100630000E94950B009761F0998388831B830A833E
:100640002C813D81232B11F4FC01108281E001C03B
:1006500080E0DF91CF911F910F910895CF93DF93A9
:10066000EC0188819981009711F00E940C0B19828E
:1006700018821D821C821B821A82DF91CF910895FD
:10068000EF92FF920F931F93CF93DF93EC018617A6
:100690009707C1F0FB01008111810115110539F0A7
:1006A000E480F580B7010E940703811104C0CE01E8
:1006B0000E942E0307C0FD82EC82B80188819981D7
:1006C0000E94690CCE01DF91CF911F910F91FF9095
:1006D000EF900895EF92FF920F931F93CF93DF93C4
:1006E000EC01198218821B821A821D821C826115FC
:1006F000710521F18B01FB0101900020E9F7319791
:100700007F01E61AF70AB7010E940703811109C0A9
:10071000CE01DF91CF911F910F91FF90EF900C943C
:100720002E03FD82EC82B80188819981DF91CF91FF
:100730001F910F91FF90EF900C94690CDF91CF9176
:100740001F910F91FF90EF900895FC01808191819E
:100750000C940C0B6F927F928F929F92AF92BF92EC
:10076000CF92DF92EF92FF920F931F93CF93DF937D
:10077000CDB7DEB72E970FB6F894DEBF0FBECDBF54
:100780006C017B0168E171E00E946A0380E38D8760
:100790001E86D70114966D907C90159720E030E06E
:1007A000261537050CF0A0C0F701448155812417A8
:1007B000350728F40190F081E02D309729F410924C
:1007C000E602E6EEF2E002C0E20FF31F808189014B
:1007D0000F5F1F4F8F3B08F440C0803D19F0813DF3
:1007E000E9F03BC00417150728F4D7018D919C91BF
:1007F000009729F41092E602E6EEF2E003C0FC0155
:10080000E00FF11F808189010E5F1F4F813811F1C8
:1008100090E7980F903308F5805D1FC00417150707
:1008200028F4F70180819181009729F41092E60263
:10083000E6EEF2E003C0FC01E00FF11F80818901C8
:100840000E5F1F4F813941F090E8980F903128F4E6
:10085000805903C088EA01C088EB8D87BE01635FC1
:100860007F4FCE0101960E946A0318861F821A8666
:1008700019861C861B86B601CE0107960E9440038E
:100880008D819E8189809A808114910441F1009725
:10089000B1F0AB84BC84A80EB91EB501CE01079699
:1008A0000E9407038823D9F02F8138858B859C858A
:1008B000B401820F931F0E94690CBC86AB86BE01F7
:1008C000695F7F4FC6010E944003CE0107960E94D8
:1008D000A503CE0101960E94A503980161CFCE0128
:1008E00007960E942E03EBCFC6012E960FB6F89402
:1008F000DEBF0FBECDBFDF91CF911F910F91FF9053
:10090000EF90DF90CF90BF90AF909F908F907F90AF
:100910006F9008951F920F920FB60F9211242F938C
:100920003F938F939F93AF93BF9380914102909198
:100930004202A0914302B09144023091400223E070
:10094000230F2D3720F40196A11DB11D05C026E807
:10095000230F0296A11DB11D2093400280934102F6
:1009600090934202A0934302B093440280914502C7
:1009700090914602A0914702B09148020196A11DB4
:10098000B11D8093450290934602A0934702B09315
:100990004802BF91AF919F918F913F912F910F90FE
:1009A0000FBE0F901F9018951F920F920FB60F92C7
:1009B00011242F933F934F935F936F937F938F9364
:1009C0009F93AF93BF93EF93FF9389E492E00E94CC
:1009D0000501FF91EF91BF91AF919F918F917F9111
:1009E0006F915F914F913F912F910F900FBE0F909C
:1009F0001F9018951F920F920FB60F9211242F93EC
:100A00008F939F93EF93FF93E0915902F0915A02D5
:100A10008081E0915F02F091600282FD12C09081BE
:100A2000809162028F5F8F7320916302821751F071
:100A3000E0916202F0E0E75BFD4F958F80936202E8
:100A400001C08081FF91EF919F918F912F910F9025
:100A50000FBE0F901F901895CF93DF93CDB7DEB7E1
:100A60002C970FB6F894DEBF0FBECDBF789484B537
:100A7000826084BD84B5816084BD85B5826085BD9A
:100A800085B5816085BD80916E00816080936E0028
:100A9000109281008091810082608093810080911A
:100AA00081008160809381008091800081608093CB
:100AB00080008091B10084608093B1008091B0008B
:100AC00081608093B00080917A00846080937A0086
:100AD00080917A00826080937A0080917A008160B0
:100AE00080937A0080917A00806880937A001092D7
:100AF000C100E0915902F0915A0282E08083E091B6
:100B00005502F09156021082E0915702F09158027E
:100B100080E1808310926102E0915D02F0915E02BB
:100B200086E08083E0915B02F0915C0280818061CD
:100B30008083E0915B02F0915C0280818860808319
:100B4000E0915B02F0915C02808180688083E0919B
:100B50005B02F0915C0280818F7D80830E94720035
:100B60004B015C0184EFC82EDD24D394E12CF12CE1
:100B70000E947200DC01CB0188199909AA09BB09FE
:100B8000883E9340A105B10598F321E0C21AD1082F
:100B9000E108F10888EE880E83E0981EA11CB11CC4
:100BA000C114D104E104F10419F765E271E0CE014A
:100BB00007960E946A03BE01695F7F4FCE010196CE
:100BC0000E94AA03CE0101960E94AF01CE010196B8
:100BD0000E94A503CE0107960E94A50310923C0235
:100BE00010923D0210923E0210923F0210923B0280
:100BF00010923A020E949700609336027093370277
:100C000080933802909339026093320270933302DA
:100C100080933402909335020E949700C090320274
:100C2000D0903302E0903402F0903502DC01CB0129
:100C30008C199D09AE09BF09883E9340A105B105F5
:100C400008F46FC00E945F00BC01990F880B990BDC
:100C50000E94E0072AE939E94CE453E40E94A10923
:100C600020E030E040EA5FE30E9434092AE037EDFB
:100C700043EA5BE30E94A10960932E0270932F0266
:100C800080933002909331020E94AB0188E591E09D
:100C90000E94990160912E0270912F028091300282
:100CA0009091310242E00E9433028CE691E00E9472
:100CB00099010E9497004AE00E94C2010E94AB0184
:100CC000C0902E02D0902F02E0903002F0903102BE
:100CD00020913C0230913D0240913E0250913F02F2
:100CE000C701B6010E94420A181644F4C0923C02A1
:100CF000D0923D02E0923E02F0923F0280913A0291
:100D000090913B02019690933B0280933A020E949D
:100D10009700609332027093330280933402909371
:100D200035020E949700C0903602D0903702E090C2
:100D30003802F0903902DC01CB018C199D09AE0913
:100D4000BF09883F9A42A105B10508F465CF0E940A
:100D5000AB018AE791E00E94990160913C02709199
:100D60003D0280913E0290913F0242E00E94330298
:100D70008BE891E00E94990180913A0290913B02A8
:100D80000E9403026EE971E0CE0107960E946A0399
:100D9000BE01695F7F4FCE0101960E94AA03CE017A
:100DA00001960E94AF01CE0101960E94A503CE01DB
:100DB00007960E94A50310923C0210923D021092E9
:100DC0003E0210923F0210923B0210923A020E94A1
:100DD00097006B017C016093360270933702809319
:100DE00038029093390260933202709333028093F9
:100DF0003402909335020E949700809032029090C6
:100E00003302A0903402B0903502DC01CB01881986
:100E10009909AA09BB094397A105B10508F44BC07C
:100E20000E945F00BC01990F880B990B0E94E0079C
:100E30002AE939E94CE453E40E94A10920E030E0BA
:100E400040EA5FE30E9434092AE037ED43EA5BE3BE
:100E50000E94A1094B015C0160932E0270932F0246
:100E6000809330029093310220913C0230913D02F8
:100E700040913E0250913F020E94420A181644F4EB
:100E800080923C0290923D02A0923E02B0923F02BC
:100E900080913A0290913B02019690933B0280939D
:100EA0003A020E949700609332027093330280935B
:100EB0003402909335020E949700DC01CB018C191B
:100EC0009D09AE09BF09883E9340A105B10508F40C
:100ED00092CF0E94AB018CEF91E00E94990160914A
:100EE0003C0270913D0280913E0290913F0242E0AF
:100EF0000E9433028BE891E00E94990180913A02AE
:100F000090913B020E94030280912C0290912D024D
:100F1000019690932D0280932C020A97D4F06EE0F4
:100F200072E0CE0107960E946A03BE01695F7F4F9F
:100F3000CE0101960E94AA03CE0101960E94AF0144
:100F4000CE0101960E94A503CE0107960E94A5033B
:100F5000FFCF0E948F012FCFE9E4F2E013821282CB
:100F600088EE93E0A0E0B0E084839583A683B78306
:100F70008AE091E09183808385EC90E09587848777
:100F800084EC90E09787868780EC90E0918B808B53
:100F900081EC90E0938B828B82EC90E0958B848B3C
:100FA00086EC90E0978B868B118E128E138E148EAA
:100FB00008950E941B0808F481E00895E89409C090
:100FC00097FB3EF490958095709561957F4F8F4F7C
:100FD0009F4F9923A9F0F92F96E9BB279395F69592
:100FE000879577956795B795F111F8CFFAF4BB0F10
:100FF00011F460FF1BC06F5F7F4F8F4F9F4F16C074
:10100000882311F096E911C0772321F09EE8872FFD
:10101000762F05C0662371F096E8862F70E060E0B9
:101020002AF09A95660F771F881FDAF7880F969532
:10103000879597F90895990F0008550FAA0BE0E8D6
:10104000FEEF16161706E807F907C0F0121613068A
:10105000E407F50798F0621B730B840B950B39F4CA
:101060000A2661F0232B242B252B21F408950A2630
:1010700009F4A140A6958FEF811D811D08950E945E
:1010800052080C94C3080E94B50838F00E94BC08AE
:1010900020F0952311F00C94AC080C94B2081124A4
:1010A0000C94F7080E94D40870F3959FC1F3950F34
:1010B00050E0551F629FF001729FBB27F00DB11DDC
:1010C000639FAA27F00DB11DAA1F649F6627B00D6C
:1010D000A11D661F829F2227B00DA11D621F739F55
:1010E000B00DA11D621F839FA00D611D221F749F63
:1010F0003327A00D611D231F849F600D211D822FAA
:10110000762F6A2F11249F5750409AF0F1F08823D0
:101110004AF0EE0FFF1FBB1F661F771F881F9150FD
:101120005040A9F79E3F510580F00C94AC080C94F8
:10113000F7085F3FE4F3983ED4F38695779567957B
:10114000B795F795E7959F5FC1F7FE2B880F911D27
:101150009695879597F9089597F99F6780E870E0CD
:1011600060E008959FEF80EC089500240A9416161D
:10117000170618060906089500240A941216130685
:10118000140605060895092E0394000C11F4882313
:1011900052F0BB0F40F4BF2B11F460FF04C06F5F2F
:1011A0007F4F8F4F9F4F089557FD9058440F551F05
:1011B00059F05F3F71F04795880F97FB991F61F0D9
:1011C0009F3F79F087950895121613061406551F50
:1011D000F2CF4695F1DF08C0161617061806991FBC
:1011E000F1CF86957105610508940895E894BB27B1
:1011F00066277727CB0197F908952F923F924F9258
:101200005F926F927F928F929F92AF92BF92CF9296
:10121000DF92EF92FF920F931F93CF93DF93CDB79F
:10122000DEB7CA1BDB0B0FB6F894DEBF0FBECDBF17
:1012300009942A88398848885F846E847D848C84E8
:101240009B84AA84B984C884DF80EE80FD800C81F1
:101250001B81AA81B981CE0FD11D0FB6F894DEBFD4
:101260000FBECDBFED0108955058BB27AA270E949D
:101270004C090C94C3080E94B50838F00E94BC08C1
:1012800020F039F49F3F19F426F40C94B2080EF4C0
:10129000E095E7FB0C94AC08E92F0E94D40858F3C2
:1012A000BA17620773078407950720F079F4A6F54B
:1012B0000C94F6080EF4E0950B2EBA2FA02D0B011E
:1012C000B90190010C01CA01A0011124FF27591B8B
:1012D00099F0593F50F4503E68F11A16F040A22F91
:1012E000232F342F4427585FF3CF46953795279502
:1012F000A795F0405395C9F77EF41F16BA0B620B01
:10130000730B840BBAF09150A1F0FF0FBB1F661F47
:10131000771F881FC2F70EC0BA0F621F731F841F8A
:1013200048F4879577956795B795F7959E3F08F0B0
:10133000B0CF9395880F08F09927EE0F9795879572
:1013400008950E94B5090C94C3080E94BC0858F087
:101350000E94B50840F029F45F3F29F00C94AC08D6
:1013600051110C94F7080C94B2080E94D40868F349
:101370009923B1F3552391F3951B550BBB27AA274E
:1013800062177307840738F09F5F5F4F220F331F88
:10139000441FAA1FA9F335D00E2E3AF0E0E832D050
:1013A00091505040E695001CCAF72BD0FE2F29D053
:1013B000660F771F881FBB1F261737074807AB0725
:1013C000B0E809F0BB0B802DBF01FF2793585F4F9A
:1013D0003AF09E3F510578F00C94AC080C94F70855
:1013E0005F3FE4F3983ED4F3869577956795B7957C
:1013F000F7959F5FC9F7880F911D9695879597F987
:101400000895E1E0660F771F881FBB1F62177307FF
:101410008407BA0720F0621B730B840BBA0BEE1F14
:1014200088F7E09508950E94DC0888F09F5798F0AF
:10143000B92F9927B751B0F0E1F0660F771F881FD9
:10144000991F1AF0BA95C9F714C0B13091F00E94F3
:10145000F608B1E008950C94F608672F782F8827D6
:10146000B85F39F0B93FCCF3869577956795B3951A
:10147000D9F73EF490958095709561957F4F8F4F89
:101480009F4F08950E941B0808F48FEF08950E9453
:101490001B08880B990B0895A1E21A2EAA1BBB1BEF
:1014A000FD010DC0AA1FBB1FEE1FFF1FA217B30730
:1014B000E407F50720F0A21BB30BE40BF50B661F46
:1014C000771F881F991F1A9469F76095709580950A
:1014D00090959B01AC01BD01CF010895EE0FFF1F58
:1014E0000590F491E02D09940F931F93CF93DF9310
:1014F0008230910510F482E090E0E091E902F091F1
:10150000EA0220E030E0A0E0B0E0309719F140813D
:1015100051810281138148175907C8F08417950734
:1015200069F4109731F012960C93129713961C934E
:1015300027C00093E9021093EA0222C02115310569
:1015400019F04217530718F49A01BD01EF01DF01AA
:10155000F801DBCF21153105F9F0281B390B2430B8
:10156000310580F48A819B816115710521F0FB01B1
:101570009383828304C09093EA028093E902FE0180
:10158000329644C0FE01E20FF31F819391932250E3
:101590003109398328833AC02091E7023091E8026B
:1015A000232B41F420910201309103013093E80292
:1015B0002093E702209100013091010121153105AE
:1015C00041F42DB73EB74091040150910501241B11
:1015D000350BE091E702F091E802E217F307A0F47F
:1015E0002E1B3F0B2817390778F0AC014E5F5F4F79
:1015F0002417350748F04E0F5F1F5093E8024093C1
:10160000E7028193919302C0E0E0F0E0CF01DF9127
:10161000CF911F910F910895CF93DF93009709F415
:1016200081C0FC01329713821282A091E902B0912D
:10163000EA02109781F420813181820F931F20915B
:10164000E7023091E8022817390751F5F093E802D4
:10165000E093E70267C0ED0120E030E0CE17DF073E
:1016600040F44A815B819E0141155105F1F0EA0188
:10167000F5CFD383C28340815181840F951FC81752
:10168000D90759F488819981840F951F0296918317
:1016900080838A819B81938382832115310529F47C
:1016A000F093EA02E093E9023DC0E901FB83EA839B
:1016B00049915991C40FD51FEC17FD0761F4808142
:1016C0009181840F951F0296E90199838883828115
:1016D00093819B838A83E0E0F0E012968D919C9148
:1016E0001397009719F0FD01DC01F7CF8D919C91C4
:1016F00011979D012E5F3F4F820F931F2091E702AC
:101700003091E8022817390769F4309729F41092CC
:10171000EA021092E90202C013821282B093E80238
:10172000A093E702DF91CF910895A0E0B0E0EBE94C
:10173000FBE00C940109EC01009721F4CB010E941D
:10174000740AB4C0FC01E60FF71F9C012250310956
:10175000E217F30708F4A8C0D9010D911C91119765
:1017600006171707B0F00530110508F49BC0C80133
:1017700004978617970708F495C002501109061BB5
:10178000170B019311936D937C93CF010E940C0B67
:1017900089C05B01A01AB10A4C01800E911EA09174
:1017A000E902B091EA02612C712CE12CF12C109726
:1017B00009F446C08D919C911197A815B905B1F512
:1017C0006C0142E0C40ED11CCA14DB0478F14C0158
:1017D0008A189B08640142E0C40ED11C1296BC908A
:1017E00012971396AC91B5E0CB16D10440F0B282BB
:1017F000A38391828082D9016D937C9309C00E5F8F
:101800001F4F800F911FF90191838083EB2DFA2FD9
:10181000E114F10431F0D7011396FC93EE93129783
:1018200041C0F093EA02E093E9023CC068167906F1
:1018300008F43C017D0112960D90BC91A02DB7CF0C
:101840008091E7029091E80288169906E1F4661605
:101850007706C8F48091000190910101009741F44E
:101860008DB79EB74091040150910501841B950BE3
:10187000E817F907C8F4F093E802E093E702F901EA
:10188000718360830FC0CB010E94740A7C010097B2
:1018900059F0A801BE010E94600CCE010E940C0B01
:1018A000C70104C0CE0102C080E090E0CDB7DEB732
:1018B000EEE00C941D0981E090E0F8940C94700C1B
:1018C000FB01DC0102C001900D9241505040D8F75D
:1018D0000895FB01DC0101900D920020E1F70895CD
:0418E000F894FFCFAA
:1018E4000000EB028000000000002601A300EF00CE
:1018F400CD00E1006D010D0A006E616E00696E6637
:10190400006F76660020313020D0B8D0B7D0BCD07C
:10191400B5D180D0B5D0BDD0B8D0B9203120D180D8
:10192400D0B0D0B720D0B220D181D0B5D0BAD18335
:10193400D0BDD0B4D183200020202031202020200D
:101944004355522054454D50203D20002C2020204A
:101954004D494C4C4953203D200031202020204D3E
:1019640041582054454D50203D20002C2020205427
:1019740049432050455220534543203D2000203503
:10198400303020D0B8D0B7D0BCD0B5D180D0B5D00D
:10199400BDD0B8D0B920353020D180D0B0D0B72058
:1019A400D0B220D181D0B5D0BAD183D0BDD0B4D1FA
:1019B400832C20D0B2D18BD0B2D0BED0B420313061
:1019C40020D0B7D0BDD0B0D187D0B5D0BDD0B8D09D
:1019D400B920D09CD090D09AD0A1200035302020BE
:1019E40020204D41582054454D50203D2000D09E8C
:1019F400D09AD09ED09DD0A7D090D09DD098D0958D
:0C1A040020D0A2D095D0A1D0A2D090009C
:00000001FF
