:100000000C9463000C948B000C948B000C94E30212
:100010000C94E3020C94E3020C948B000C948B0080
:100020000C948B000C948B000C948B000C948B0024
:100030000C948B000C948B000C948B000C948B0014
:100040000C940E060C948B000C94B1020C948B0251
:100050000C948B000C948B000C948B000C948B00F4
:100060000C948B000C948B000000000024002700EF
:100070002A0000000008000201000003040700003D
:1000800000000000000000000000230026002900FE
:1000900000000000250028002B00040404040404D0
:1000A0000404020202020202030303030303010227
:1000B00004081020408001020408102001020408F6
:1000C0001020BC0E950811241FBECFEFD8E0DEBF74
:1000D000CDBF23E0AEE7B2E001C01D92AE3BB20758
:1000E000E1F712E0A0E0B1E0E8E8F4E202C0059038
:1000F0000D92AE37B107D9F710E0C2E6D0E004C0E8
:100100002197FE010E940410C136D107C9F70E9451
:10011000BD080C9437120C9400000895CF92DF9222
:10012000EF92FF920F931F93CF93DF936C017A01AD
:100130008B01C0E0D0E0CE15DF0581F0D8016D91D4
:100140008D01D601ED91FC910190F081E02DC60169
:100150000995892B11F02196EECF7E01C701DF9121
:10016000CF911F910F91FF90EF90DF90CF90089566
:10017000FC01918D828D981761F0828DDF01A80FAF
:10018000B11D5D968C91928D9F5F9F73928F90E0D1
:1001900008958FEF9FEF0895FC01918D828D981740
:1001A00031F0828DE80FF11D858D90E008958FEF7D
:1001B0009FEF0895FC01918D228D892F90E0805C46
:1001C0009F4F821B91098F739927089583EC92E0CA
:1001D0000E94DA0021E0892B09F420E0822F0895A3
:1001E000FC01848DDF01A80FB11DA35ABF4F2C91D4
:1001F000848D90E001968F739927848FA689B789A3
:100200002C93A089B1898C9180648C93938D848D7B
:10021000981306C00288F389E02D80818F7D80834A
:100220000895EF92FF920F931F93CF93DF93EC010A
:1002300081E0888F9B8D8C8D981305C0E889F989A2
:10024000808185FD24C0F62E0B8D10E00F5F1F4FBF
:100250000F731127E02E8C8DE8120CC00FB607FC2F
:10026000FACFE889F989808185FFF5CFCE010E9418
:10027000F000F1CF8B8DFE01E80FF11DE35AFF4F27
:10028000F0820B8FEA89FB898081806207C0EE894A
:10029000FF896083E889F98980818064808381E0B7
:1002A00090E0DF91CF911F910F91FF90EF90089513
:1002B000CF93DF93EC01888D8823C9F0EA89FB890D
:1002C000808185FD05C0A889B9898C9186FD0FC004
:1002D0000FB607FCF5CF808185FFF2CFA889B989D9
:1002E0008C9185FFEDCFCE010E94F000E7CFDF912A
:1002F000CF91089580E090E0892B29F00E94E600DC
:1003000081110C94000008952091C0023091C10227
:100310002817390771F49091BE028091BF02981797
:1003200041F0E091BE02F0E0E258FD4F808190E0A4
:1003300008958FEF9FEF08951F93CF93DF93DC0114
:100340005C968D919C915D97009739F421E030E0A7
:1003500013963C932E9312973BC05196ED91FC91CE
:10036000529750962C915097322F30951FB75E962A
:100370004C915E97742F727041FD6095F8944081A6
:10038000772311F0422B01C043234083EC012197D6
:10039000F1F748E0508160FF02C0522B01C05323A7
:1003A0005083EC012197F1F76695415099F78081D0
:1003B000772319F08323808302C0282B20831FBF5B
:1003C0005C968D919C915D970197F1F781E090E0AB
:1003D000DF91CF911F9108952091C0023091C10209
:1003E0002817390771F48091BF022091BE0290E076
:1003F000805C9F4F821B910960E470E00E94DC0FDB
:10040000089580E090E008952091C0023091C102EB
:1004100028173907B9F49091BE028091BF0298174E
:1004200089F0E091BE02F0E0E258FD4F808120911A
:10043000BE0230E02F5F3F4F2F7333272093BE0261
:1004400090E008958FEF9FEF0895FB01DC01119676
:100450001C921E9213961C921E92129715961C9235
:100460001E9214978617970749F060817181611574
:10047000710521F0448155810C94990708950E94DB
:10048000F1110C94A210FC011182108213821282CD
:10049000158214826115710551F0FB010190002055
:1004A000E9F73197AF01461B570B0C949907089554
:1004B0006115710579F0FB0101900020E9F7319792
:1004C000AF01461B570BDC01ED91FC910280F381DB
:1004D000E02D099480E090E008950F931F93CF934F
:1004E000DF93EC01FB014481558160817181E881DA
:1004F000F9810280F381E02D09958C016EE271E0B3
:10050000CE010E945802800F911FDF91CF911F9161
:100510000F91089508951F920F920FB60F92112414
:100520002F933F934F935F936F937F938F939F93FB
:10053000AF93BF93EF93FF9383EC92E00E94F000A0
:10054000FF91EF91BF91AF919F918F917F916F91AB
:100550005F914F913F912F910F900FBE0F901F9081
:1005600018951F920F920FB60F9211242F938F930D
:100570009F93EF93FF93E091D302F091D402808197
:10058000E091D902F091DA0282FD12C0908180914F
:10059000DC028F5F8F732091DD02821751F0E091B2
:1005A000DC02F0E0ED53FD4F958F8093DC0201C03B
:1005B0008081FF91EF919F918F912F910F900FBEAE
:1005C0000F901F9018951F920F920FB60F92112443
:1005D0002F933F934F935F936F937F938F939F934B
:1005E000AF93BF93EF93FF93E091C002F091C102EC
:1005F000309709F451C0968DA685B785858591FF02
:1006000004C09C91892329F447C09C91892309F057
:1006100043C0A389B4899C918589809589238C9353
:10062000868997890197F1F7608D718DA685B785C9
:10063000558538E020E0CB010197F1F7822F90E05B
:1006400095958795282F4C91452309F020683150C6
:1006500091F7868D81FD20958091BF0290E00196F3
:100660008F7399273091BE02381749F0A091BF02CD
:10067000B0E0A258BD4F2C938093BF0203C0868D7B
:100680008160868F828D938D0197F1F7A389B4895C
:100690009C918589892B8C93FF91EF91BF91AF91AC
:1006A0009F918F917F916F915F914F913F912F918A
:1006B0000F900FBE0F901F90189508958F929F92E4
:1006C000AF92BF92EF92FF920F931F93CF93DF935E
:1006D000CDB7DEB728970FB6F894DEBF0FBECDBFFB
:1006E0007C0160E371E00E9443020E94CE054B0151
:1006F0005C0120E1820E27E2921EA11CB11C82E95E
:1007000093E00E94EC01892B39F40E94CE05681514
:1007100079058A059B0598F382E993E00E94EC0134
:10072000892B11F160E371E08E010F5F1F4FC8014B
:100730000E9443020E94DA0597FD0BC08F83188642
:1007400041E050E0BE01695F7F4FC8010E94F4069E
:10075000F1CF0E151F0521F0B801C7010E94220735
:10076000C8010E94D10704C081E391E00E941A04ED
:10077000C70128960FB6F894DEBF0FBECDBFDF913C
:10078000CF911F910F91FF90EF90BF90AF909F90EE
:100790008F900895833081F028F4813099F0823071
:1007A000A1F008958730A9F08830B9F08430D1F4F1
:1007B000809180008F7D03C0809180008F7780932F
:1007C0008000089584B58F7702C084B58F7D84BD85
:1007D00008958091B0008F7703C08091B0008F7D25
:1007E0008093B00008950F931F93CF93DF93EC0194
:1007F00088819981009729F02A813B812617370744
:1008000088F48B016F5F7F4F0E942B11009761F07E
:10081000998388831B830A832C813D81232B11F4C8
:10082000FC01108281E001C080E0DF91CF911F9137
:100830000F910895CF93DF93BC0183EC92E00E9467
:100840005802EC016EE271E083EC92E00E945802E3
:100850008C0F9D1FDF91CF910895FB01448155813D
:10086000FC01248135812417350778F0808191813E
:10087000009759F0FB01608171816115710529F0C4
:100880000E940F1221E0892B09F020E0822F0895A9
:10089000AF92BF92CF92DF92EF92FF920F931F938E
:1008A000CF93DF93FC0124813581FB014481558185
:1008B0008901041B150B4115510551F12115310515
:1008C00039F12417350720F10217130718F08901B1
:1008D000015011097B01FC01A080B180C501DFEF4F
:1008E000CFEF6501C00ED11EC816D906A0F0F701E2
:1008F000608171810E941D12009769F09C012A1984
:100900003B090217130710F0D22FC32F0196ECCF2B
:100910008FEF9FEF02C08D2F9C2FDF91CF911F9102
:100920000F91FF90EF90DF90CF90BF90AF90089520
:10093000CF93DF93282F30E0F901EE58FF4F8491D9
:10094000F901E255FF4FD491F901E656FF4FC491EA
:10095000CC2391F081110E94CA03EC2FF0E0EE0F3E
:10096000FF1FEA57FF4FA591B491EC91ED2381E071
:1009700090E021F480E002C080E090E0DF91CF9130
:1009800008951F93CF93DF93282F30E0F901EE589D
:10099000FF4F8491F901E255FF4FD491F901E656DA
:1009A000FF4FC491CC23C1F0162F81110E94CA03BE
:1009B000EC2FF0E0EE0FFF1FE057FF4FA591B49131
:1009C0009FB7F894111104C08C91D095D82302C020
:1009D000EC91DE2BDC939FBFDF91CF911F910895A7
:1009E000FF920F931F93CF93DF93F82E062FC7E04C
:1009F000D0E010E061E0802F0E94C1048F2D0E94A2
:100A000098040C2E01C0880F0A94EAF7182B60E0B6
:100A1000802F0E94C104219768F7812FDF91CF9129
:100A20001F910F91FF900895FF920F931F93CF9303
:100A3000DF93809163030E949804892BD1F7609122
:100A40006203809163030E94F004C82F60916203E7
:100A5000809163030E94F004D82F6091620380911B
:100A600063030E94F004F82E00E010E0809164031C
:100A700090E00817190768F461E0809162030E9412
:100A8000C10460E0809162030E94C1040F5F1F4FA8
:100A9000EDCF8D2F90E0A0E0B0E0BA2FA92F982FD6
:100AA0008827AC2BAC01BD014F298C2F880F880BF8
:100AB00090E0A0E0B0E0B82FAA27992788278A0104
:100AC0009B01082B192B2A2B3B2BC901B801DF9165
:100AD000CF911F910F91FF900895CF93DF9390E0F6
:100AE000FC01E255FF4F2491FC01E656FF4F849133
:100AF000882361F190E0880F991FFC01E859FF4FAE
:100B0000C591D491FC01E057FF4FA591B4916111BB
:100B100009C09FB7F8948881209582238883EC913F
:100B20002E230BC0623061F49FB7F8948881322F76
:100B3000309583238883EC912E2B2C939FBF06C086
:100B40008FB7F894E8812E2B28838FBFDF91CF9148
:100B500008953FB7F8948091B6039091B703A091A0
:100B6000B803B091B90326B5A89B05C02F3F19F073
:100B70000196A11DB11D3FBFBA2FA92F982F88271D
:100B8000820F911DA11DB11DBC01CD0143E0660F77
:100B9000771F881F991F4A95D1F708952FB7F894AA
:100BA0006091B2037091B3038091B4039091B50347
:100BB0002FBF08950F931F930E94CE0560939A0351
:100BC00070939B0380939C0390939D0382E993E031
:100BD0000E94040297FF1FC00E94CE0500919A0355
:100BE00010919B0320919C0330919D03DC01CB016C
:100BF000801B910BA20BB30B0091960310919703EE
:100C0000209198033091990380179107A207B307A9
:100C1000E8F28FEF9FEF1F910F9108951F920F92AF
:100C20000FB60F9211242F933F938F939F93AF93FF
:100C3000BF938091B2039091B303A091B403B0919C
:100C4000B5033091B10326E0230F2D3720F402962F
:100C5000A11DB11D05C029E8230F0396A11DB11DDB
:100C60002093B1038093B2039093B303A093B40392
:100C7000B093B5038091B6039091B703A091B803E8
:100C8000B091B9030196A11DB11D8093B603909355
:100C9000B703A093B803B093B903BF91AF919F91ED
:100CA0008F913F912F910F900FBE0F901F9018952D
:100CB000AF92BF92CF92DF92EF92FF920F931F936A
:100CC000CF93DF93DC01CD90DC901197C114D10458
:100CD00009F443C01496CD91DC9115972097E9F162
:100CE0008C0176015701BFEFAB1ABB0AF701808177
:100CF000082E000C990B0E94990F892B11F0750199
:100D0000F1CF2197CC0DDD1D8881082E000C990BA9
:100D10000E94990F892B29F0CE15DF0510F021973D
:100D2000F3CFAE014F5F5F4F4E195F09D8011596A3
:100D30005C934E931497CE14DF0420F4B701C601E0
:100D40000E94F611D801ED91FC91119714968D91A6
:100D50009C911597E80FF91F1082DF91CF911F9199
:100D60000F91FF90EF90DF90CF90BF90AF900895DC
:100D7000CF93DF93FC01248135814217530780F420
:100D8000FB01DC01CD91DC9160817181CE01840F8A
:100D9000951F0E941D12009719F08C1B9D0B02C01D
:100DA0008FEF9FEFDF91CF910895FC012481358172
:100DB000232B31F421E061157105A1F0FB0108C07E
:100DC000FC01808191816115710531F421E0FC0104
:100DD0008081882339F005C00E94FF1121E0892B12
:100DE00009F020E0822F0895EF92FF920F931F9356
:100DF000CF93DF936115710511F480E01CC041159C
:100E00005105C1F07B01EC018C819D818A01080FA5
:100E1000191FB801CE010E94F303882371F32881C2
:100E200039818C819D81B701820F931F0E94081226
:100E30001D830C8381E0DF91CF911F910F91FF9073
:100E4000EF9008950F931F93CF93DF938C01EB01E5
:100E5000FC01808191810097B1F0688179816115F1
:100E6000710579F0428153812C813D8142175307EE
:100E700040F00E9408128C819D81F8019583848343
:100E800013C00E94A21088819981F8019183808308
:100E90008A819B81938382838C819D8195838483C6
:100EA000198218821B821A821D821C82DF91CF91C7
:100EB0001F910F910895CF93DF93EC018881998161
:100EC000009711F00E94A210198218821D821C82C4
:100ED0001B821A82DF91CF910895CF93DF93EC01AB
:100EE0006115710561F0FB0101900020E9F7319770
:100EF000AF01461B570B0E94F406811103C0CE01BF
:100F00000E945B07CE01DF91CF910895CF93DF93CD
:100F1000EC01FB0144815581608171810E94F406DE
:100F2000811103C0CE010E945B07CE01DF91CF91FA
:100F30000895EF92FF920F931F93CF93DF93EC01ED
:100F40007B018A01BA010E94F303811104C0CE0122
:100F50000E945B0707C01D830C83B70188819981BC
:100F60000E940812CE01DF91CF911F910F91FF9047
:100F7000EF900895CF93DF93EC016115710559F05F
:100F8000FB0101900020E9F73197AF01461B570B99
:100F90000E94990702C00E945B07CE01DF91CF91AA
:100FA0000895FC01808191810C94A210AF92BF92B0
:100FB000CF92DF92EF92FF920F931F93CF93DF9325
:100FC0006C015B018A0179012417350720F4812F18
:100FD0008901E42EF82E60E371E0C6010E9443020D
:100FE000D5011496CD91DC9115970C171D07C8F407
:100FF000EC16FD0608F4E701D501ED91FC9111977F
:10100000EC0FFD1FF08010826D917C91600F711FBD
:10101000C6010E94BA07F50180819181C80FD91FCE
:10102000F882C601DF91CF911F910F91FF90EF9051
:10103000DF90CF90BF90AF900895CF92DF92EF9264
:10104000FF920F931F93CF93DF93CDB7DEB72C970B
:101050000FB6F894DEBF0FBECDBF8C016B0160E30D
:1010600071E00E94430266E772E083EC92E00E9426
:101070005802B60183EC92E00E946D02B60182E94B
:1010800093E00E946D02CE0101967C010E945E03F6
:10109000E016F10621F0B701C8010E942207C7013E
:1010A0000E94D107B601C8010E942D04882341F196
:1010B000F601C480D5806CE772E0CE0107960E94ED
:1010C0004302A601BE01695F7F4FC8010E94B806B6
:1010D000F80124813581AC014E5F5F4FB801C70133
:1010E0000E94D607E016F10621F0B701C8010E9460
:1010F0002207C7010E94D107CE0107960E94D1079F
:10110000B80183EC92E00E946D02C8012C960FB6E4
:10111000F894DEBF0FBECDBFDF91CF911F910F912D
:10112000FF90EF90DF90CF90089580E893E00E94C9
:10113000D10786E893E00E94D1078CE893E00E94F3
:10114000D10782E291E09093930380939203809180
:10115000C0029091C1028259934071F4E091A503BD
:10116000F091A60390818091A703809589238083C5
:101170001092C1021092C0020895CF93DF93CDB7B1
:10118000DEB7AA970FB6F894DEBF0FBECDBF789436
:1011900084B5826084BD84B5816084BD85B582607C
:1011A00085BD85B5816085BD80916E00816080932D
:1011B0006E00109281008091810082608093810096
:1011C00080918100816080938100809180008160A6
:1011D000809380008091B10084608093B100809101
:1011E000B00081608093B00080917A008460809329
:1011F0007A0080917A00826080937A0080917A00F0
:101200008E7F80937A0080917A00806880937A0044
:101210001092C10061E088E00E946D0560E088E006
:101220000E94C10460E086E00E946D0561E087E0F5
:101230000E946D0560E085E00E946D0561E08DE033
:101240000E946D0561E08DE00E94C104E091D3022F
:10125000F091D40282E08083E091CF02F091D0023D
:101260001082E091D102F091D20287E68083109241
:10127000DB02E091D702F091D80286E08083E09112
:10128000D502F091D602808180618083E091D50201
:10129000F091D602808188608083E091D502F09140
:1012A000D602808180688083E091D502F091D602D9
:1012B00080818F7D80831092AD031092AC031092D9
:1012C000AB031092AA031092A9031092A8038DEC0D
:1012D00090E09093AF038093AE0390919E0396317C
:1012E00008F058C025E530E03093A9032093A80307
:1012F0002BEC30E03093AB032093AA0320E930E0DD
:101300003093AD032093AC0340916800983058F0BF
:1013100031E09E3008F430E021E0822F01C0880FD8
:101320003A95EAF701C084E0842B809368009830F6
:1013300038F09E3040F0963148F020E030E008C0B0
:101340002DE630E005C02BE630E002C02CE630E0B0
:101350003093A6032093A503983030F481E001C0B8
:10136000880F9A95EAF70EC0292F30E09E3018F4C6
:101370002850310902C02E50310981E001C0880F88
:101380002A95EAF78093A7038091AE039091AF036B
:101390000197F1F78091AC039091AD03892B49F14E
:1013A000E091C002F091C10223E0E239F20709F1B5
:1013B000309739F0A389B4899C91858980958923D8
:1013C0008C938091B0038E7F8093B0031092BF0204
:1013D0001092BE0282E993E09093C1028093C00212
:1013E000E091A503F091A60390818091A703892B3A
:1013F000808381E18093620380E18093630361E0F5
:1014000081E10E946D0560E0809163030E946D059B
:1014100083E08093640360E0809162030E94C104D2
:101420000E9414050E94A9054B015C0184E6C82EA8
:10143000D12CE12CF12C0E94A905DC01CB018819EB
:101440009909AA09BB09883E9340A105B10598F303
:1014500031E0C31AD108E108F10848EE840E43E0F8
:10146000941EA11CB11CC114D104E104F10419F7AC
:1014700083E08093640360E0809162030E94C10472
:101480000E94140580E391E00E941A046CE371E06D
:1014900083EC92E00E94580282E491E00E941A04D8
:1014A0000E94CE056B017C016FE471E0CE010796CE
:1014B0000E944302BE01695F7F4FCE0101960E94E8
:1014C0001D08BE016F5F7F4F80E893E00E942207F6
:1014D000CE0101960E94D107CE0107960E94D10746
:1014E00080E893E00E9458060E94CE05DC01CB0103
:1014F0008C199D09AE09BF09843F9140A105B10532
:1015000070F08DE00E94980461E0892B09F060E0A2
:101510008DE00E94C1040E94CE056B017C0169EF41
:1015200071E080E893E00E94D506882309F4BCCFDF
:1015300060E08DE00E94C10482E591E00E941A04FF
:101540006BE671E0CE0107960E944302BE01695F1F
:101550007F4FCE0101960E941D08BE016F5F7F4F35
:1015600080E893E00E942207CE0101960E94D107F5
:10157000CE0107960E94D10765E771E0CE0107967C
:101580000E944302BE01695F7F4FCE0101960E9417
:101590001D08BE016F5F7F4F80E893E00E94220725
:1015A000CE0101960E94D107CE0107960E94D10775
:1015B0006FE771E0CE0107960E944302BE01695FAA
:1015C0007F4FCE0101960E941D08BE016F5F7F4FC5
:1015D00080E893E00E942207CE0101960E94D10785
:1015E000CE0107960E94D1076BE671E0CE01079607
:1015F0000E944302BE01695F7F4FCE0101960E94A7
:101600001D08BE016F5F7F4F80E893E00E942207B4
:10161000CE0101960E94D107CE0107960E94D10704
:1016200080E893E00E94580669EF71E080E893E05B
:101630000E94D5068823C1F28CE891E00E941A042A
:1016400063EA71E0CE0107960E944302BE01695F22
:101650007F4FCE0101960E941D08CE0101960E9487
:10166000D107CE0107960E94D10766EB71E0CE014B
:1016700085960E944302BE016B5D7F4FCE01499665
:101680000E94250266E873E0CE014F960E94250273
:101690006FEB71E0CE0101960E944302BE01615ED4
:1016A0007F4FCE0101960E94860765ED71E00E9492
:1016B0006D07BC01CE0107960E942502BE01695F3D
:1016C0007F4FCE010D960E941D08CE010D960E94FF
:1016D000D107CE0107960E94D107CE0101960E9444
:1016E000D10718861F821A8619861C861B868AE1F6
:1016F00089831A82BE016F5F7F4FCE0107960E94D9
:10170000BA07BE01675E7F4FCE0101960E94250297
:101710006EE271E0CE0101960E946D07BE01695F25
:101720007F4F0E948607BC01CE010D960E942502C4
:10173000BE01635F7F4FCE0143960E941D08CE011C
:1017400043960E94D107CE010D960E94D107CE018B
:1017500001960E94D107CE0107960E94D107CE01C3
:101760004F960E94D107CE0149960E94D107CE0123
:1017700085960E94D10782E993E00E94EC01892BB3
:1017800009F4ADC2CE0101960E945E03BE016F5FF7
:101790007F4F80E893E00E942207CE0101960E94CD
:1017A000D10760E873E0CE0185960E94250260E8CB
:1017B00073E0CE014F960E94250260E873E0CE01EF
:1017C00049960E94250260E873E083EC92E00E9453
:1017D0006D02CE014F960E94580669EC71E0CE0171
:1017E00001960E944302BE016F5F7F4FCE014F966C
:1017F0000E942D04182FCE0101960E94D1071123BB
:1018000009F485C06EEC71E0CE0101960E9443029E
:1018100040E050E0BE016F5F7F4FCE014F960E94C7
:10182000B8068C01CE0101960E94D10760E371E0F9
:10183000CE010D960E94430217FD3EC0085F1F4F68
:1018400065ED71E0CE0107960E944302A801BE013A
:10185000695F7F4FCE014F960E94B8069C01A80198
:10186000BE01615E7F4FCE0101960E94D607BE0188
:101870006F5F7F4FCE010D960E942207CE01019629
:101880000E94D107CE0107960E94D10767ED71E053
:10189000CE0101960E944302BE01635F7F4FCE01DD
:1018A00001960E948607BC0183EC92E00E946D02C3
:1018B000CE0101960E94D10789899A89079770F015
:1018C00040E050E0BE01635F7F4F8CE893E00E94F0
:1018D000B80697FD03C062E372E002C066E372E0FF
:1018E000CE0107960E944302BE01695F7F4FCE0181
:1018F00001960E941D08CE0101960E94D107CE01DB
:1019000007960E94D107CE010D960E94D107CE0105
:1019100049960E94580660EE71E0CE0101960E9441
:101920004302BE016F5F7F4FCE0149960E942D0496
:10193000182FCE0101960E94D1071123A9F16EE262
:1019400071E0CE0101960E944302BE016F5F7F4F9E
:10195000CE0149960E9448048C01CE0101960E9456
:10196000D1072D8D3E8DA8014E5F5F4FBE01675E92
:101970007F4FCE0101960E94D607CE0101960E94AC
:10198000580669EF71E0CE0101960E94D5068823C2
:1019900019F087EE91E002C08CEF91E00E941A04EA
:1019A000CE0101960E94D1076EE271E0CE01019650
:1019B0000E94430240E050E0BE016F5F7F4FCE01C6
:1019C00085960E94B8067C01CE0101960E94D1073F
:1019D00060E371E0CE0143960E944302F7FC2DC004
:1019E000970140E050E0BE016B5D7F4FCE01019654
:1019F0000E94D607BE016F5F7F4FCE0143960E94C3
:101A00002207CE0101960E94D10729A53AA5A70178
:101A10004E5F5F4FBE016B5D7F4FCE0101960E940E
:101A2000D607BE016F5F7F4FCE0185960E942207C9
:101A3000CE0101960E94D10716C06DA17EA161154D
:101A4000710539F049A55AA5CE0143960E94990720
:101A500004C0CE0143960E945B0760E371E0CE01B3
:101A600085960E94BA07CE0143960E94580660E30D
:101A700071E0CE0143960E94D50681111EC168E136
:101A800072E0CE0101960E944302BE016D5E7F4F5F
:101A9000CE0101960E948607BC0183EC92E00E9471
:101AA0006D02CE0101960E94D10765E272E0CE017F
:101AB00001960E944302BE016F5F7F4FCE014396A5
:101AC0000E942D04182FCE0101960E94D1071123E8
:101AD00049F128E030E047E050E0BE016D5E7F4F05
:101AE000CE010D960E94D607BE01635F7F4FCE01E7
:101AF00007960E9425026CE272E0CE0101960E94D8
:101B00004302BE01695F7F4FCE0101960E948607A6
:101B1000BC0183EC92E00E946D02CE0101960E940E
:101B2000D10723C169EC71E0CE0101960E94430206
:101B3000BE016F5F7F4FCE014F960E942D04182F7C
:101B4000CE0101960E94D107112309F46DC06EECFD
:101B500071E0CE0101960E94430240E050E0BE01D8
:101B60006F5F7F4FCE014F960E94B8068C01CE0169
:101B700001960E94D10760E371E0CE010D960E94AC
:101B8000430217FD3EC0085F1F4F65ED71E0CE01B7
:101B900007960E944302A801BE01695F7F4FCE01F4
:101BA0004F960E94B8069C01A801BE01615E7F4F5E
:101BB000CE0101960E94D607BE016F5F7F4FCE0116
:101BC0000D960E942207CE0101960E94D107CE01F8
:101BD00007960E94D10767ED71E0CE0101960E9441
:101BE0004302BE01635F7F4FCE0101960E948607CC
:101BF000BC0183EC92E00E946D02CE0101960E942E
:101C0000D10789899A89079708F49EC040E050E07F
:101C1000BE01635F7F4F8CE893E00E94B80697FD9A
:101C200093C062E372E092C060EE71E0CE01019673
:101C30000E944302BE016F5F7F4FCE0149960E9412
:101C40002D04182FCE0101960E94D1071123A9F16E
:101C50006EE271E0CE0101960E944302BE016F5F09
:101C60007F4FCE0149960E9448048C01CE01019617
:101C70000E94D1072D8D3E8DA8014E5F5F4FBE01A2
:101C8000675E7F4FCE0101960E94D607CE01019676
:101C90000E94580669EF71E0CE0101960E94D506B8
:101CA000882319F087EE91E002C08CEF91E00E944A
:101CB0001A04CE0101960E94D107CE0143960E94DC
:101CC000D107F7FE71CECE0149960E94D107CE0111
:101CD0004F960E94D107CE0185960E94D10783ECD2
:101CE00092E00E94DA00892B49F083EC92E00E9496
:101CF000B800682F82E993E00E949C0185E00E9471
:101D0000980461E087E00E94C1040E94CE059B0117
:101D1000AC0188279927DC01821B930BA40BB50B20
:101D2000C297A105B10568F086E00E94980421E001
:101D3000892B09F420E02093C20260E087E00E9432
:101D4000C1040E947A0117CD66E372E0CE010796C6
:101D50000E944302BE01695F7F4FCE0101960E943F
:101D60001D08CE0101960E94D107CE0107960E9460
:101D7000D107CE010D969FCF1092C6021092C502D8
:101D800088EE93E0A0E0B0E08093C7029093C80291
:101D9000A093C902B093CA022AE031E03093C40292
:101DA0002093C30225EC30E03093D0022093CF0281
:101DB00024EC30E03093D2022093D10220EC30E0CA
:101DC0003093D4022093D30221EC30E03093D6023A
:101DD0002093D50222EC30E03093D8022093D70232
:101DE00026EC30E03093DA022093D9021092DC0224
:101DF0001092DD021092DE021092DF021092950323
:101E0000109294038093960390939703A093980362
:101E1000B093990382E291E09093930380939203AD
:101E20001092A9031092A8031092AB031092AA0378
:101E30001092AD031092AC031092AF031092AE0358
:101E40006091B0036E7F6D7F6093B00366956170A3
:101E500081E068278BE00E94C10461E08BE00E9472
:101E60006D05E9EBF0E0E491E093A203E5EAF0E030
:101E7000E491F0E0EE0FFF1FE057FF4F8591949142
:101E80009093A4038093A30360E08AE00E946D0511
:101E90008091B00381FD04C061E08AE00E94C1042A
:101EA0008AE080939E03E8EBF0E0E491E0939F03E7
:101EB000E4EAF0E0E491F0E0EE0FFF1FEA57FF4F95
:101EC000859194919093A1038093A0036AE372E0BB
:101ED0008CE893E00E94430266E672E086E893E0B5
:101EE0000E94430264E772E080E893E00E944302AC
:101EF00084E080936D0385E180936E038AE191E035
:101F000090936103809360031092650310926603BF
:101F1000109267031092680380E090E0A0E8BFE3AE
:101F20008093690390936A03A0936B03B0936C034F
:101F3000089591110C94A20F803219F089508550A8
:101F4000C8F708959927882708952F923F924F92B6
:101F50005F926F927F928F929F92AF92BF92CF9239
:101F6000DF92EF92FF920F931F93CF93DF93CDB742
:101F7000DEB7CA1BDB0B0FB6F894DEBF0FBECDBFBA
:101F800009942A88398848885F846E847D848C848B
:101F90009B84AA84B984C884DF80EE80FD800C8194
:101FA0001B81AA81B981CE0FD11D0FB6F894DEBF77
:101FB0000FBECDBFED01089597FB072E16F40094D8
:101FC00007D077FD09D00E94F00F07FC05D03EF442
:101FD000909581959F4F0895709561957F4F0895D5
:101FE000AA1BBB1B51E107C0AA1FBB1FA617B7073F
:101FF00010F0A61BB70B881F991F5A95A9F780955B
:102000009095BC01CD010895EE0FFF1F0590F4914E
:10201000E02D09940F931F93CF93DF9382309105A6
:1020200010F482E090E0E091BC03F091BD0320E069
:1020300030E0A0E0B0E0309719F140815181028199
:10204000138148175907C8F08417950769F410974A
:1020500031F012960C93129713961C9327C000939D
:10206000BC031093BD0322C02115310519F042179E
:10207000530718F49A01BD01EF01DF01F801DBCF2E
:1020800021153105F9F0281B390B2430310580F476
:102090008A819B816115710521F0FB019383828305
:1020A00004C09093BD038093BC03FE01329644C0EC
:1020B000FE01E20FF31F819391932250310939837E
:1020C00028833AC02091BA033091BB03232B41F4FB
:1020D00020910201309103013093BB032093BA0396
:1020E00020910001309101012115310541F42DB7F6
:1020F0003EB74091040150910501241B350BE0913E
:10210000BA03F091BB03E217F307A0F42E1B3F0BB9
:102110002817390778F0AC014E5F5F4F2417350759
:1021200048F04E0F5F1F5093BB034093BA03819357
:10213000919302C0E0E0F0E0CF01DF91CF911F91D9
:102140000F910895CF93DF93009709F481C0FC01AC
:10215000329713821282A091BC03B091BD031097F5
:1021600081F420813181820F931F2091BA03309135
:10217000BB032817390751F5F093BB03E093BA036B
:1021800067C0ED0120E030E0CE17DF0740F44A8160
:102190005B819E0141155105F1F0EA01F5CFD38332
:1021A000C28340815181840F951FC817D90759F404
:1021B00088819981840F951F0296918380838A81FB
:1021C0009B81938382832115310529F4F093BD030C
:1021D000E093BC033DC0E901FB83EA834991599137
:1021E000C40FD51FEC17FD0761F480819181840F26
:1021F000951F0296E90199838883828193819B834D
:102200008A83E0E0F0E012968D919C9113970097FD
:1022100019F0FD01DC01F7CF8D919C9111979D0183
:102220002E5F3F4F820F931F2091BA033091BB0363
:102230002817390769F4309729F41092BD031092DA
:10224000BC0302C013821282B093BB03A093BA03F3
:10225000DF91CF910895A0E0B0E0E1E3F1E10C94CB
:10226000A90FEC01009721F4CB010E940A10B4C021
:10227000FC01E60FF71F9C0122503109E217F3071A
:1022800008F4A8C0D9010D911C91119706171707E2
:10229000B0F00530110508F49BC0C80104978617FB
:1022A000970708F495C002501109061B170B0193FC
:1022B00011936D937C93CF010E94A21089C05B01A2
:1022C000A01AB10A4C01800E911EA091BC03B091DE
:1022D000BD03612C712CE12CF12C109709F446C040
:1022E0008D919C911197A815B905B1F56C0142E04B
:1022F000C40ED11CCA14DB0478F14C018A189B0867
:10230000640142E0C40ED11C1296BC901297139641
:10231000AC91B5E0CB16D10440F0B282A383918298
:102320008082D9016D937C9309C00E5F1F4F800F8F
:10233000911FF90191838083EB2DFA2FE114F104B1
:1023400031F0D7011396FC93EE93129741C0F093AE
:10235000BD03E093BC033CC06816790608F43C0159
:102360007D0112960D90BC91A02DB7CF8091BA033C
:102370009091BB0388169906E1F466167706C8F4B7
:102380008091000190910101009741F48DB79EB7B3
:102390004091040150910501841B950BE817F90742
:1023A000C8F4F093BB03E093BA03F901718360832F
:1023B0000FC0CB010E940A107C01009759F0A801C0
:1023C000BE010E94F611CE010E94A210C70104C0F6
:1023D000CE0102C080E090E0CDB7DEB7EEE00C9415
:1023E000C50F81E090E0F8940C943712FB01DC01FA
:1023F00002C001900D9241505040D8F70895FB0162
:10240000DC018D91019080190110D9F3990B089589
:10241000FB01DC0101900D920020E1F70895FB0122
:10242000DC014150504030F08D910190801919F439
:102430000020B9F7881B990B0895FB015191552392
:10244000A9F0BF01DC014D9145174111E1F759F4A5
:10245000CD010190002049F04D9140154111C9F383
:10246000FB014111EFCF81E090E00197089510E06A
:10247000C2E6D0E004C0FE010E9404102196C336DB
:08248000D107C9F7F894FFCF62
:102488000000BE0380000000000011018E00DA0089
:10249800B800CC005801000000005D0341020000B4
:1024A80000009C018E00EC01040284018A020D0ADE
:1024B8000054696D656F75742E2E2E007379733A0A
:1024C800200053746172742073797374656D0041D0
:1024D80054007379733A2047534D206D6F64656DCE
:1024E800206973207265616479210041542B434C43
:1024F80049503D310041542B444445543D3100413D
:10250800542B434D47463D313B2657004F7072656B
:1025180064656C656E6965206E6F6D6572612056C5
:102528004B4C0041542B434D4744413D2244454CBC
:1025380020414C4C220074657374206D7367004110
:10254800542B434D47533D220052494E47002B43DD
:102558004C49503A2022004E756D6265723A20004F
:102568002B434D47533A004D657373616765207778
:1025780061732073656E742E204F4B004D65737325
:1025880061676520776173206E6F742073656E7460
:102598002E204572726F72007375626D6573736178
:1025A80067653A20002B44544D463A004B65793A0A
:1025B800200041544100415448002B33383039370A
:1025C800383235343036392C202B33383039787856
:1025D8007878787878782C202B3338303978787870
:1025E8007878787878002B33383039373832353482
:0E25F800303639005200636D643A20000D0049
:00000001FF
