:100000000C9473000C949B000C949B000C949B002C
:100010000C949B000C949B000C949B000C941C0E65
:100020000C949B000C949B000C949B000C949B00E4
:100030000C949B000C949B000C949B000C949B00D4
:100040000C94A70D0C949B000C949B000C949B00AB
:100050000C949B000C949B000C949B000C949B00B4
:100060000C941A020C949B00FB0308040D041E045C
:100070001E041E042B043C0430109E102611C811CF
:100080004112CD1280131B14000000002400270031
:100090002A000000000023002600290000000008BC
:1000A000000201000003040700000000000000003F
:1000B00001020408102040800102040810200102FF
:1000C0000408102000000000250028002B00040474
:1000D00004040404040402020202020203030303F0
:1000E00003030200A71411241FBECFEFD8E0DEBF28
:1000F000CDBF11E0A0E0B1E0E6E1FEE202C0059074
:100100000D92A23EB107D9F722E0A2EEB1E001C004
:100110001D92A43CB207E1F710E0C3E7D0E004C0B1
:100120002197FE010E94E916C237D107C9F70E9444
:10013000830E0C9409170C94000085ED8093BC008D
:100140008091BC0084FDFCCF109282020895409102
:100150003902262F30E0240F311D21323105DCF425
:10016000209182022430C9F4FC0180E090E08617DF
:1001700058F4309139022191DC01A75EBD4FA30FE5
:10018000B11D2C930196F3CF80913902680F6093D3
:10019000390280E0089581E0089582E0089508958D
:1001A00081E090E03091860220918502321710F4B0
:1001B00080E090E091958195910908958091860263
:1001C00090918502891730F48F5F8093860280E0DA
:1001D00090E008958FEF9FEF08958091850290E061
:1001E00020918602821B91090895CF92DF92EF92AF
:1001F000FF920F931F93CF93DF937C01CB018A0172
:1002000020911802222389F0EB016B01C40ED51E48
:10021000CC15DD0569F06991D701ED91FC91019054
:10022000F081E02DC7010995F3CF642F0E94A7004C
:10023000C801DF91CF911F910F91FF90EF90DF9058
:10024000CF900895CF93DF931F92CDB7DEB7698328
:10025000209118022223D1F020918302203240F015
:1002600021E030E0FC013383228380E090E015C080
:1002700080918402E82FF0E0E850FE4F998190834E
:100280008F5F809384028093830205C061E0CE017A
:1002900001960E94A70081E090E00F90DF91CF913E
:1002A0000895CF92DF92EF92FF921F93CF93DF9347
:1002B0007C0110E0C7E0D0E0CC24C394D12C60E0F6
:1002C000F70180810E94C90B8FE99FE00197F1F748
:1002D00000C00000F70181810E94A00B892B39F03A
:1002E000C6010C2E01C0880F0A94EAF7182B61E0B2
:1002F000F70180810E94C90B8FE99FE00197F1F718
:1003000000C000002197D8F6812FDF91CF911F9177
:10031000FF90EF90DF90CF9008950F931F93CF93AE
:10032000DF938C0160E0FC0182810E94C90B8FE9A0
:100330009FE00197F1F700C00000C8010E94510141
:10034000C82FD0E0DC2FCC27C8010E945101C82B58
:1003500061E0F80182810E94C90BC2FD11C0BE019B
:1003600083E0769567958A95E1F780E090E00E94BA
:10037000A31520E030E040E85EE30E945A1604C076
:1003800060E070E080EC9FE7DF91CF911F910F91CB
:1003900008958F929F92AF92BF92CF92DF92EF9289
:1003A000FF920E94710DC090E201D090E301E090B5
:1003B000E401F090E5019B01AC012C193D094E09C7
:1003C0005F0969017A01CA01B90128EE33E040E012
:1003D00050E00E94C71649015A012093EE01309364
:1003E000EF014093F0015093F101A8EEB3E00E94B9
:1003F000EF16C61AD70AE80AF90AC092EA01D092A3
:10040000EB01E092EC01F092ED0162E085E00E94E8
:100410001D0B4AE0C501B4010E94DC0A89E691E0A7
:10042000FF90EF90DF90CF90BF90AF909F908F9014
:100430000C94DA0A1F920F920FB60F9211242F9389
:100440003F934F935F936F937F938F939F93AF935C
:10045000BF93EF93FF938091B900887F803609F4B2
:100460009CC068F5883209F45BC090F4803109F4CF
:1004700054C038F4882309F4F2C0883009F44DC020
:10048000F2C0883109F44CC0803209F45DC0EBC081
:10049000803409F468C048F4803309F455C08833C7
:1004A00009F0E1C080935C02D4C0803509F44FC0EC
:1004B000883509F45DC0883409F0D5C0D2C08839C8
:1004C00009F4C3C0A8F4883709F467C038F4883643
:1004D00009F463C0803709F460C0C5C0883809F4E6
:1004E000B4C0803909F45FC0803809F0BCC05BC07B
:1004F000803B09F484C038F4803A09F466C0883A35
:1005000009F47DC0B0C0803C09F4A3C0883C09F464
:10051000A0C0883B09F486C0A6C080917F0210C0AD
:1005200090917E0280917D02981770F5E0917E0295
:1005300081E08E0F80937E02F0E0E35AFD4F8081D0
:100540008093BB0085EC82C080935C028AC0E091FE
:100550007E0281E08E0F80937E028091BB00F0E0EE
:10056000E35AFD4F808390917E0280917D026AC0A4
:10057000E0917E0281E08E0F80937E028091BB002D
:10058000F0E0E35AFD4F808380918102811169C0C0
:1005900081E08093800284EA5DC083E080938202E0
:1005A00010925B02CFCF80915B02803208F04DC089
:1005B000E0915B0281E08E0F80935B028091BB0033
:1005C000F0E0E55CFD4F8083BDCF85EC8093BC00FF
:1005D0001092820280915B02803230F4E0915B02E3
:1005E000F0E0E55CFD4F108260915B0270E08BE310
:1005F00092E0E0E0F0E0099510925B0234C084E004
:100600008093820210923A0210923902E0E0F0E008
:10061000099580913902811105C081E080933902EA
:1006200010921902E0913A0281E08E0F80933A0213
:10063000F0E0E75EFD4F80818093BB0090913A022D
:1006400080913902981708F47DCF85E88093BC002B
:100650000AC085EC8093BC001092820204C0109204
:100660005C020E949D00FF91EF91BF91AF919F911D
:100670008F917F916F915F914F913F912F910F904B
:100680000FBE0F901F901895CF93FC01C48121E0FD
:1006900020931802C093F7011092840210928302F3
:1006A0008385682B8BE992E00E942201909183025E
:1006B000913208F045C0809182028111FCCF82E026
:1006C0008093820281E0809381028FEF80935C02AD
:1006D00010927E0290937D02A8EFB1E0EDE5F2E08A
:1006E00080E0981721F02D9121938F5FFACF10921F
:1006F0007F0280917F02CC0FC82BC0937F02809134
:100700008002813061F41092800280917F02809398
:10071000BB008091BC0083FDF8CF85EC01C085EE65
:100720008093BC00809182028230E1F380915C0270
:100730008F3F31F080915C02803211F080915C0239
:10074000109284021092830210921802CF910895A1
:100750000F931F93CF938C01C62F0E9444036C2FDD
:100760006460C8010E9444036C2F6B7FC8010E9423
:10077000440383EC90E00197F1F7CF911F910F9123
:1007800008950F931F93CF93DF938C01C62FD42F1F
:10079000607F642B0E94A80380E1C89FB0011124F0
:1007A0006D2BC801DF91CF911F910F910C94A8037D
:1007B00041E00E94C10381E090E00895CF93C82FEB
:1007C00061E087E00E941D0B60918B0270E080E089
:1007D00090E04AE00E94DC0AC11162C0E0918B0205
:1007E0008E2F90E08830910508F05AC0FC01EC5C37
:1007F000FF4F0C94E916109244011092450110929B
:1008000046011092470180E090E0ACE0B3E440C0C4
:1008100080E090E0ABE3B3E404C080E090E0A8E6C1
:10082000B3E48093440190934501A0934601B093B3
:10083000470180E090E0A0E2B3E42AC080E090E0CD
:10084000ABE3B3E48093440190934501A093460148
:10085000B09347011DC080E090E0A8E6B3E4809328
:10086000440190934501A0934601B093470180E075
:1008700090E0A8E4B3E40CC010924401109245014A
:10088000109246011092470180E090E0ACE5B3E49D
:100890008093400190934101A0934201B0934301A2
:1008A00061E08BE00E941D0B609144017091450155
:1008B00080914601909147010E946D15CB010E94E5
:1008C0004C0B8AE691E00E94DA0A20E030E0A901B0
:1008D00060914401709145018091460190914701DA
:1008E0000E946815811104C08AE691E00E94DA0A2C
:1008F00061E08EE00E941D0B8CE691E00E94DA0A16
:1009000062E08BE00E941D0B6091400170914101FB
:1009100080914201909143010E946D15CB010E948C
:100920004C0B8AE691E00E94DA0A20E030E0A9014F
:100930006091400170914101809142019091430189
:100940000E946815811104C08AE691E00E94DA0ACB
:1009500062E08EE00E941D0B8CE691E0CF910C943A
:10096000DA0A0F931F93CF93DF93082F162F60E0BF
:100970008BE00E941D0BC9E0D0E06091F601662378
:1009800011F0011105C08AE691E00E94DA0A07C061
:10099000643009F06C5F8DEA92E00E94D8032197E1
:1009A00061F763E08BE00E941D0BC9E0D0E060912D
:1009B000F601662311F0111105C08AE691E00E944C
:1009C000DA0A04C08DEA92E00E94D803219779F7F1
:1009D0008091F6018F5F853018F48093F60102C094
:1009E0001092F601DF91CF911F910F910895CF9250
:1009F000DF92EF92FF920F931F930E94710D00916F
:100A0000E6011091E7012091E8013091E9016B01C5
:100A10007C01C01AD10AE20AF30A44EFC41641E08D
:100A2000D406E104F10450F06093E6017093E7010D
:100A30008093E8019093E90181E001C080E01F917B
:100A40000F91FF90EF90DF90CF9008958AEA92E0A7
:100A50000E948D016093F2017093F3018093F40181
:100A60009093F50187EA92E00E948D0160938702DE
:100A7000709388028093890290938A0261E08FE0EC
:100A80000E941D0B6091F2017091F3018091F401BD
:100A90009091F5010E946D15CB010E944C0B8AE6E6
:100AA00091E00E94DA0A61E082E10E941D0B60E0A1
:100AB0008DEA92E00E94D8038EE691E00E94DA0A65
:100AC00062E08FE00E941D0B6091870270918802A6
:100AD0008091890290918A020E946D15CB010E943B
:100AE0004C0B8AE691E00E94DA0A62E082E10E9401
:100AF0001D0B60E08DEA92E00E94D8038EE691E043
:100B00000C94DA0A1092EE011092EF011092F001AB
:100B10001092F1010E94710D6093E2017093E30164
:100B20008093E4019093E5010C94C9010F931F9306
:100B3000CF93DF938C01C0E0D0E0C017D107BCF4A5
:100B40000E94340C68EE73E080E090E00E94160D85
:100B50008AE00E94F10D61E08AE00E94C90B68EE14
:100B600073E080E090E00E94160D2196E6CFDF91C1
:100B7000CF911F910F9108952F923F924F925F92C4
:100B80006F927F928F929F92AF92BF92CF92DF929D
:100B9000EF92FF920F931F93CF93DF93CDB7DEB702
:100BA0006C970FB6F894DEBF0FBECDBF6D8B7E8BFA
:100BB0008F8B988F2B873C874D875E87E98EFA8EC7
:100BC0000B8F1C8F209344013093450140934601C5
:100BD00050934701A0924001B0924101C09242015E
:100BE000D092430181E00E94DE030E94260500911D
:100BF000F2011091F3018090F401E090F501F09082
:100C0000870290908802209189022F8730918A0272
:100C1000388B0E94C9018091EE019091EF01A09163
:100C2000F001B091F1018D839E83AF83B8871A865E
:100C3000198691E099830E94C9018091EA019091FF
:100C4000EB01A091EC01B091ED01843F9140A10531
:100C5000B10508F44EC14981442309F44AC10E94F8
:100C600026054090F2015090F3016090F4017090DD
:100C7000F501209144013091450140914601509188
:100C80004701C301B2010E94681587FF11C0980196
:100C9000482D5E2DC301B2010E94FB142D893E89AF
:100CA0004F89588D0E94681587FF02C061E001C01E
:100CB00060E088E00E94C90B8091870290918802D1
:100CC000A0918902B0918A0289839A83AB83BC8305
:100CD00020914001309141014091420150914301E6
:100CE000BC01CD010E94681587FF14C02F2D392D3E
:100CF0004F85588969817A818B819C810E94FB1480
:100D0000298D3A8D4B8D5C8D0E94681587FF02C03E
:100D100061E001C060E089E00E94C90B20E030E0A2
:100D2000A9016B857C858D859E850E9455161816B8
:100D30006CF59801482D5E2DC301B2010E94FB1491
:100D400020E030E040E85EE30E9468151816F4F0F9
:100D500099859F5F99879F30C8F060E088E00E9486
:100D6000C90B60E089E00E94C90B0E94950B61E00D
:100D700080E00E941D0B80E791E00E94DA0A62E0A9
:100D800080E00E941D0B8EE791E03CC020E030E047
:100D9000A901C601B5010E9455161816BCF52F2DE4
:100DA000392D4F8558896091870270918802809112
:100DB000890290918A020E94FB1420E030E040E812
:100DC0005EE30E94681518160CF1AA85AF5FAA872A
:100DD000A931E0F060E088E00E94C90B60E089E0A2
:100DE0000E94C90B0E94950B61E080E00E941D0BE0
:100DF0008AE891E00E94DA0A62E080E00E941D0B1E
:100E000088E991E00E94DA0A0E94780EA30192011B
:100E1000B801882D9E2D0E9468151816ECF020E070
:100E200030E0A9016B857C858D859E850E945516D5
:100E3000181694F49801482D5E2DC301B2010E944A
:100E4000FB1420E030E040E05FE30E945516880F7D
:100E5000880BB985B823B9874090870250908802E3
:100E60006090890270908A02A30192016F2D792D02
:100E70008F8598890E9468151816E4F020E030E00C
:100E8000A901C601B5010E94551618169CF42F2D14
:100E9000392D4F855889C301B2010E94FB1420E00F
:100EA00030E040E05FE30E945516880F880B2A85EA
:100EB00028232A876624639420E030E0A901C60134
:100EC000B5010E946815811101C0612C77247394CB
:100ED00020E030E0A9016B857C858D859E850E9490
:100EE0006815811101C0712C662D872D0E94B104F7
:100EF00019828091EE019091EF01A091F001B091E3
:100F0000F101898B9A8BAB8BBC8B2D813E814F81FC
:100F10005885281739074A075B0709F430C10E9432
:100F200026056090F2017090F3013091F40139834D
:100F30004091F5014D83209144013091450140914C
:100F4000460150914701B30189819D810E94681536
:100F500087FF14C09801482D5E2DB30189819D81C2
:100F60000E94FB149B01AC016D897E898F89988D4D
:100F70000E945516181614F461E001C060E088E084
:100F80000E94C90B2090870230908802409089020D
:100F900050908A02209140013091410140914201DC
:100FA00050914301C201B1010E94681587FF14C02E
:100FB0002F2D392D4F855889C201B1010E94FB1494
:100FC0009B01AC01698D7A8D8B8D9C8D0E9455168D
:100FD000181614F461E001C060E089E00E94C90BBA
:100FE00020E030E0A9016B857C858D859E850E947F
:100FF00055161816B4F49801482D5E2DB301898159
:101000009D810E94FB1420E030E040E85EE30E94F6
:101010006815181634F059855F5F59875F3008F0FE
:101020009CCE20E030E0A901C601B5010E94551612
:101030001816E4F42F2D392D4F85588960918702B9
:10104000709188028091890290918A020E94FB141B
:1010500020E030E040E85EE30E946815181634F0A6
:101060008A858F5F8A87893108F0B4CE93014981E0
:101070005D81B801882D9E2D0E9468151816F4F028
:1010800020E030E0A9016B857C858D859E850E94DE
:10109000551618169CF49801482D5E2DB3018981D0
:1010A0009D810E94FB1420E030E040E05FE30E945D
:1010B0005516880F880B9985982399870091870288
:1010C000109188024090890250908A029801A201F2
:1010D0006F2D792D8F8598890E9468151816E4F078
:1010E00020E030E0A901C601B5010E94551618168E
:1010F0009CF42F2D392D4F855889B801C2010E94CB
:10110000FB1420E030E040E05FE30E945516880FBA
:10111000880BAA85A823AA872091EE013091EF01C0
:101120004091F0015091F101298B3A8B4B8B5C8BF4
:10113000EE24E39420E030E0A901C601B5010E944D
:101140006815811101C0E12CFF24F39420E030E008
:10115000A9016B857C858D859E850E94681581110E
:1011600001C0F12C6E2D8F2D0E94B104F02E912E16
:101170004F86588A83018980ED8031E039836AE0A7
:1011800070E080E090E00E94160D81E10E94A00BCB
:10119000892B49F460E088E00E94C90B60E089E097
:1011A0000E94C90BC8C080E10E94A00B892B09F0E6
:1011B000CAC08091F2019091F301A091F401B09125
:1011C000F5018D839E83AF83B8874090870250904E
:1011D00088026090890270908A020E94710D60936B
:1011E000E6017093E7018093E8019093E90163E0E1
:1011F00089E00E941D0B88E891E00E94DA0A68EEFF
:1012000073E080E090E00E94160D0E94F7048823AE
:1012100001F10E9426052224239420E030E0A90158
:10122000C601B5010E946815811101C0212C33242B
:10123000339420E030E0A9016B857C858D859E8507
:101240000E946815811101C0312C622D832D0E94EE
:10125000B1042091F2013091F3014091F4015091D9
:10126000F5016D817E818F8198850E945516181633
:101270008CF420E030E0A9016091440170914501B7
:1012800080914601909147010E946815882311F0D2
:1012900061E001C060E088E00E94C90B20918702F4
:1012A000309188024091890250918A02C301B201B3
:1012B0000E94551618168CF420E030E0A9016091C8
:1012C00040017091410180914201909143010E943F
:1012D0006815882311F061E001C060E089E00E9498
:1012E000C90B80E10E94A00B892B79F463E089E0AF
:1012F0000E941D0B8AE691E00E94DA0A68EE73E014
:1013000080E090E00E94160D1EC081E10E94A00BBB
:10131000892B09F07ACF60E088E00E94C90B60E079
:1013200089E00E94C90B63E089E00E941D0B8AE6F8
:1013300091E00E94DA0A68EE73E080E090E00E949B
:10134000160D81E0BEC020914401309145014091CD
:101350004601509147016091F2017091F301809133
:10136000F4019091F5010E94551687FF09C0298963
:101370003A894B895C892D833E834F8358875BCCA8
:10138000209140013091410140914201509143012F
:1013900060918702709188028091890290918A02FF
:1013A0000E94551687FDE3CF4090EE015090EF016B
:1013B0006090F0017090F1010E94F704882309F415
:1013C00054C00E94C9010E94260501E020E030E0DF
:1013D000A901C601B5010E946815811101C000E094
:1013E00011E020E030E0A9016B857C858D859E852C
:1013F0000E946815811101C010E0602F812F0E94AA
:10140000B104209144013091450140914601509131
:1014100047016091F2017091F3018091F401909184
:10142000F5010E94681587FF02C061E001C060E01D
:1014300088E00E94C90B2091400130914101409108
:10144000420150914301609187027091880280911E
:10145000890290918A020E94681587FF02C061E0AC
:1014600001C060E089E00E94C90B8091EE0190917B
:10147000EF01A091F001B091F10184199509A6093D
:10148000B70929A93AA94BA95CA9281739074A071E
:101490005B0710F480E015C081E10E94A00B892B4E
:1014A00049F460E088E00E94C90B60E089E00E9496
:1014B000C90B47CF80E10E94A00B892B09F07CCF9C
:1014C000E9CF6C960FB6F894DEBF0FBECDBFDF91AB
:1014D000CF911F910F91FF90EF90DF90CF90BF9031
:1014E000AF909F908F907F906F905F904F903F90C4
:1014F0002F900895833081F028F4813099F0823064
:10150000A1F008958730A9F08830B9F08430D1F483
:10151000809180008F7D03C0809180008F778093C1
:101520008000089584B58F7702C084B58F7D84BD17
:1015300008958091B0008F7703C08091B0008F7DB7
:101540008093B00008953FB7F894809190029091F5
:101550009102A0919202B091930226B5A89B05C07A
:101560002F3F19F00196A11DB11D3FBFBA2FA92F22
:10157000982F8827820F911DA11DB11DBC01CD019F
:1015800042E0660F771F881F991F4A95D1F708958B
:10159000009769F0FC0101900020E9F73197AF0155
:1015A000481B590BBC018DEA92E00C947D0D80E044
:1015B00090E008950C94C80A8F929F92AF92BF92C8
:1015C0000F931F93CF93DF93CDB7DEB7A1970FB6DD
:1015D000F894DEBF0FBECDBF19A2423008F44AE036
:1015E0008E010F5D1F4F842E912CA12CB12CA501D3
:1015F00094010E94C716E62FB901CA0101501109D2
:10160000EA3014F4E05D01C0E95CD801EC93232BCF
:10161000242B252B61F7C8010E94C80AA1960FB69A
:10162000F894DEBF0FBECDBFDF91CF911F910F9118
:10163000BF90AF909F908F900895CF93DF93CDB7D9
:10164000DEB728970FB6F894DEBF0FBECDBF98E087
:10165000E9E4F1E0DE01119601900D929A95E1F72F
:101660009091B602961710F46FEF690FFE01319654
:10167000E60FF11DE60FF11D6081680F606840E024
:101680008DEA92E028960FB6F894DEBF0FBECDBF6C
:10169000DF91CF910C94C103CF92DF92EF92FF9232
:1016A0006C01990FEE08FF08F7FE16C041E06DE2ED
:1016B0008DEA92E00E94C10366277727CB016C195F
:1016C0007D098E099F094AE00E94DC0A0196FF907D
:1016D000EF90DF90CF9008954AE0C701B601FF90E8
:1016E000EF90DF90CF900C94DC0A0F931F93CF9371
:1016F000DF938B01877098E0899FB00111246064AB
:1017000040E08DEA92E00E94C103E801085F1F4FAC
:1017100069918DEA92E00E94D803C017D107C1F702
:10172000DF91CF911F910F91089540E061E08DEA24
:1017300092E00E94C1038BE39FE10197F1F70895C6
:10174000CF93DF93282F30E0F901E456FF4F8491C7
:10175000F901E055FF4FD491F901E253FF4FC491D5
:10176000CC2391F081110E947A0AEC2FF0E0EE0F69
:10177000FF1FEE56FF4FA591B491EC91ED2381E050
:1017800090E021F480E002C080E090E0DF91CF9112
:1017900008951F93CF93DF93282F30E0F901E4568B
:1017A000FF4F8491F901E055FF4FD491F901E253C5
:1017B000FF4FC491CC23C1F0162F81110E947A0AE9
:1017C000EC2FF0E0EE0FFF1FEC53FF4FA591B4910B
:1017D0009FB7F894111104C08C91D095D82302C002
:1017E000EC91DE2BDC939FBFDF91CF911F91089589
:1017F000CF93DF9390E0FC01E055FF4F2491FC0173
:10180000E253FF4F8491882361F190E0880F991F84
:10181000FC01E857FF4FC591D491FC01EC53FF4FF9
:10182000A591B491611109C09FB7F8948881209562
:1018300082238883EC912E230BC0623061F49FB722
:10184000F8948881322F309583238883EC912E2B56
:101850002C939FBF06C08FB7F894E8812E2B288366
:101860008FBFDF91CF910895CF93809148018A3047
:1018700021F08F3F09F0D8C004C0E2EEF0E0C4913F
:1018800075C08AE080934801E2EEF0E0E491EF3F1A
:1018900009F4CAC0E13009F446C048F1E23009F069
:1018A00064C01092B0001092B1008091B0008260CC
:1018B0008093B0008091B10081608093B100E8ED29
:1018C000F0E0E491F0E0EE0FFF1FEC53FF4F859145
:1018D00094919093960280939502EAEBF0E0E49164
:1018E000E093940261E08AE00E94F80B61C014BCAE
:1018F00015BC84B5826084BD85B5816085BDE8ED89
:10190000F0E0E491F0E0EE0FFF1FEC53FF4F859104
:101910009491EAEBF0E0E491E093BA0261E08AE0AE
:101920000E94F80B2EC010928000109281008091CE
:101930008100886080938100809181008160809324
:101940008100E8EDF0E0E491F0E0EE0FFF1FEC53D2
:10195000FF4F85919491EAEBF0E0E491E093B902B6
:1019600061E08AE00E94F80B2DC0CE2FC7FD5CC05D
:1019700061E08AE00E94F80BCC2319F0C23001F537
:1019800017C085B5887F826085BD89EF87BD8FEFE1
:101990009FEFDC018093BF029093C002A093C1022D
:1019A000B093C20280916E00826080936E003CC052
:1019B0008091B100887F82608093B10089EF22C05E
:1019C000C130E9F480918100887F8160809381003B
:1019D0008FEC97E090938900809388008FEF9FEFC2
:1019E000DC018093BB029093BC02A093BD02B09334
:1019F000BE0280916F00826080936F0015C0C2307C
:101A000099F48FEC8093B3008FEF9FEFDC0180930C
:101A1000970290939802A0939902B0939A028091B2
:101A20007000826080937000CF9108958F929F9292
:101A3000AF92BF92CF92DF92EF92FF926B017C0147
:101A40000E94A30A4B015C01C114D104E104F1041A
:101A5000F1F00E94A30ADC01CB0188199909AA09B7
:101A6000BB09883E9340A105B10570F321E0C21A7D
:101A7000D108E108F10888EE880E83E0981EA11CC9
:101A8000B11CC114D104E104F10419F7DDCFFF90BA
:101A9000EF90DF90CF90BF90AF909F908F90089580
:101AA0000E94340C68EE73E080E090E00E94160D16
:101AB00068EE73E080E090E00E94160D68EE73E03F
:101AC00080E090E00E94160D8AE00E94F10D61E036
:101AD0008AE00E94C90B68EE73E080E090E00C940D
:101AE000160D2FB7F89460918C0270918D02809141
:101AF0008E0290918F022FBF0895CF92DF92EF92C6
:101B0000FF920F931F93CF93DF936C017A018B01A8
:101B1000C0E0D0E0CE15DF0581F0D8016D918D01D8
:101B2000D601ED91FC910190F081E02DC60109955F
:101B3000892B11F02196EECF7E01C701DF91CF9165
:101B40001F910F91FF90EF90DF90CF9008951F921B
:101B50000F920FB60F9211242F933F938F939F9361
:101B6000AF93BF9380918C0290918D02A0918E02D1
:101B7000B0918F023091C30223E0230F2D3720F460
:101B80000196A11DB11D05C026E8230F0296A11DD7
:101B9000B11D2093C30280938C0290938D02A09379
:101BA0008E02B0938F028091900290919102A09149
:101BB0009202B09193020196A11DB11D80939002F3
:101BC00090939102A0939202B0939302BF91AF9130
:101BD0009F918F913F912F910F900FBE0F901F906B
:101BE000189590914801891324C0E2EEF0E0E49149
:101BF0009FEF90934801E130B9F098F0E230C9F4DA
:101C0000909170009D7F9093700091E09093B00050
:101C10009091B100987F94609093B1001092B300BE
:101C200008C010926E0005C090916F009D7F909348
:101C30006F0060E00C94C90B1F920F920FB60F92C9
:101C400011242F933F934F935F936F937F938F93C1
:101C50009F93AF93BF93EF93FF93809197029091DF
:101C60009802A0919902B0919A02892B8A2B8B2B12
:101C700051F190919402E0919502F0919602808149
:101C8000892780838091970290919802A091990270
:101C9000B0919A02181619061A061B06C4F4809110
:101CA000970290919802A0919902B0919A0201979F
:101CB000A109B1098093970290939802A093990289
:101CC000B0939A0204C0809148010E94F10DFF91E7
:101CD000EF91BF91AF919F918F917F916F915F91A4
:101CE0004F913F912F910F900FBE0F901F9018951D
:101CF00083E090E00E94960568EB7BE080E090E056
:101D00000E94160DF5CF789484B5826084BD84B5A9
:101D1000816084BD85B5826085BD85B5816085BDE6
:101D200080916E00816080936E001092810080919E
:101D30008100826080938100809181008160809326
:101D40008100809180008160809380008091B1004B
:101D500084608093B1008091B00081608093B00076
:101D600080917A00846080937A0080917A0082600A
:101D700080937A0080917A00816080937A008091CC
:101D80007A00806880937A001092C10061E088E058
:101D90000E94F80B61E089E00E94F80B60E088E0A7
:101DA0000E94C90B60E089E00E94C90B61E08DE0F0
:101DB0000E94F80B60E08DE00E94C90B61E08AE0B0
:101DC0000E94F80B61E08AE00E94C90B62E08FE09C
:101DD0000E94F80B62E08EE00E94F80B62E081E165
:101DE0000E94F80B62E080E10E94F80B10928602DC
:101DF0001092850210928402109283021092820245
:101E000081E0809381021092800261E082E10E9471
:101E1000C90B61E083E10E94C90B8091B9008E7FFC
:101E20008093B9008091B9008D7F8093B90088E4D8
:101E30008093B80085E48093BC001092B202809138
:101E4000B602823018F098E09093B2029091B702F7
:101E5000992339F0813029F48091B2028460809313
:101E6000B20262E370E080E090E00E94160D6091A3
:101E7000B8028DEA92E00E94440368EE73E080E0CD
:101E800090E00E94160D60E38DEA92E00E94A803A4
:101E9000CBE4D6E4CE010197F1F760E38DEA92E05E
:101EA0000E94A8032197F1F760E38DEA92E00E9477
:101EB000A80383E592E00197F1F760E28DEA92E0F2
:101EC0000E94A8036091B202606240E08DEA92E055
:101ED0000E94C10384E08093B30240E06CE08DEA8D
:101EE00092E00E94C1030E94950B82E08093B402AD
:101EF00040E066E08DEA92E00E94C10340E062E0CB
:101F00008DEA92E00E94C1038BE39FE10197F1F714
:101F10000E94950B88E08093B80260E08DEA92E021
:101F20000E94440361E080E00E941D0B85EA91E07D
:101F30000E94DA0A62E080E00E941D0B85EB91E0CE
:101F40000E94DA0A64EF71E080E090E00E94160DD2
:101F50000E94950B68E371E080E00E94750B60E3DE
:101F600071E081E00E94750B68E271E082E00E94FE
:101F7000750B60E271E083E00E94750B68E171E02F
:101F800084E00E94750B60E171E085E00E94750BB2
:101F900068E071E086E00E94750B60E071E087E028
:101FA0000E94750B60E080E00E941D0B84EC91E0C4
:101FB0000E94DA0A61E080E00E941D0B8DEC91E046
:101FC0000E94DA0A62E080E00E941D0B84ED91E03D
:101FD0000E94DA0A63E080E00E941D0B89ED91E027
:101FE0000E94DA0A80E00E94DE03412C512C7BE340
:101FF000672E73E4772ECAE060E0862E60E0962EAE
:102000000E94F70481110E9426058FE00E94A00B18
:10201000892B99F480918B028F5F883018F480931C
:102020008B0202C010928B0280E00E94DE0364EFFC
:1020300071E080E090E00E94160D8EE00E94A00BFF
:10204000892B09F077C4E0918B028E2F90E08830C5
:10205000910508F06FC4FC01E45CFF4F0C94E91695
:102060000E9482051092440110924501109246018F
:102070001092470180E090E0ACE0B3E4809340012F
:1020800090934101A0934201B09343011F921F928C
:102090001F921F925C016D01E12CF12C00E81FE3FF
:1020A00020E030E0A901CA01B9010E94BC050F90EF
:1020B0000F900F900F90882369F060E080E00E94FD
:1020C000B10461E08DE00E94C90B0E94710D6B01AB
:1020D0007C0126C081E090E00E9496051F921F922D
:1020E0001F921F92A12CB12C3CE0C32E33E4D32EBF
:1020F000E12CF12C00E81FE320E030E0A901CA0147
:10210000B9010E94BC050F900F900F900F9088238B
:1021100029F3D3CF81E10E94A00B892B09F489C058
:102120000E94710DDC01CB018C199D09AE09BF091C
:1021300080369A4EA105B10568F383C00E948205DE
:1021400010924401109245011092460110924701ED
:1021500080E090E0A0E2B3E48093400190934101DD
:10216000A0934201B09343011F921F921F921F92AE
:102170005C016D01E12CF12C00E81FE320E030E070
:10218000A901CA01B9010E94BC050F900F900F90E0
:102190000F90811188C04092440150924501609295
:1021A00046017092470180E090E0A0E2B3E48093A2
:1021B000400190934101A0934201B09343011F92CB
:1021C0001F921F92CF935C016D01E12CF12C00E86E
:1021D0001FE320E030E04BE353E460E070E080E494
:1021E0009FE30E94BC050F900F900F900F908111FC
:1021F0005AC00E94500D60E080E00E94B10461E08E
:102200008DE00E94C90B0E94710D6B017C010E9440
:10221000710DDC01CB018C199D09AE09BF09803617
:102220009A4EA105B10568F481E10E94A00B892BAB
:1022300071F760E088E00E94C90B60E089E00E94CD
:10224000C90B60E08DE00E94C90B74C30E94820537
:1022500010924401109245011092460110924701DC
:1022600080E090E0A0E2B3E48093400190934101CC
:10227000A0934201B09343011F921F921F921F929D
:102280005C016D01E12CF12C00E81FE320E030E05F
:10229000A901CA01B9010E94BC050F900F900F90CF
:1022A0000F90882329F060E080E00E94B10442C3CF
:1022B000409244015092450160924601709247015C
:1022C000A0924001B0924101C0924201D0924301DC
:1022D0001F921F921F921F9220E030E04BE353E4C5
:1022E00060E070E080E49FE30E94BC050F900F90D7
:1022F0000F900F908111D7CF81E090E00E9496055A
:1023000080E090E0A8E6B3E4809344019093450117
:10231000A0934601B0934701A0924001B0924101C1
:10232000C0924201D09243011F921F921F92CF93FD
:102330009C01AD0160E070E080E09FE30E94BC057D
:102340000F900F900F900F908111ADCF0E94500D04
:1023500060E080E00E94B10461E08DE00E94C90B62
:102360000E94710D6B017C010E94710DDC01CB019B
:102370008C199D09AE09BF0980369A4EA105B10599
:1023800008F05FCF81E10E94A00B892B69F751CF44
:102390000E9482051092440110924501109246015C
:1023A0001092470180E090E0A0EFB2E480934001FA
:1023B00090934101A0934201B09343011F921F9259
:1023C0001F921F925C016D01E12CF12C00E41FE3D0
:1023D00020E030E0A901CA01B9010E94BC050F90BC
:1023E0000F900F900F9081115ECF40924401509258
:1023F000450160924601709247014092400150921F
:10240000410160924201709243011F921F921F92FC
:10241000CF93A12CB12CABE3CA2EA3E4DA2EE12C8E
:10242000F12C00E01FE3A6019501C801B7010E944D
:10243000BC050F900F900F900F90811134CF0E9428
:10244000500D60E080E00E94B10461E08DE00E94E8
:10245000C90B0E94710D6B017C010E94710DDC01A2
:10246000CB018C199D09AE09BF0980369A4EA10592
:10247000B10508F0E6CE81E10E94A00B892B69F737
:10248000D8CE0E948205109244011092450110920C
:1024900046011092470180E090E0A6E1B3E480930A
:1024A000400190934101A0934201B09343011F92D8
:1024B0001F921F921F925C016D01E12CF12C00E430
:1024C0001FE320E030E0A901CA01B9010E94BC0568
:1024D0000F900F900F900F908111E5CE20E030E02B
:1024E00040EF52E4609187027091880280918902E6
:1024F00090918A020E94551618161CF40E94260517
:10250000EDCF409244015092450160924601709295
:102510004701409240015092410160924201709205
:1025200043011F921F921F92CF93A12CB12C7BE3EA
:10253000C72E73E4D72EE12CF12C00E01FE3A60197
:102540009501C801B7010E94BC050F900F900F9034
:102550000F908111A8CE0E94500D60E080E00E9493
:10256000B10461E08DE00E94C90B0E94710D6B0106
:102570007C010E94710DDC01CB018C199D09AE0913
:10258000BF0980369A4EA105B10508F05ACE81E107
:102590000E94A00B892B69F74CCE0E9482051092F5
:1025A000440110924501109246011092470180E0CB
:1025B00090E0A6E1B3E48093400190934101A093A1
:1025C0004201B09343011F921F921F921F925C0120
:1025D0006D01E12CF12C00E41FE320E030E0A901C3
:1025E000CA01B9010E94BC050F900F900F900F9087
:1025F000811159CE20E030E040EF52E46091870233
:10260000709188028091890290918A020E945516E9
:1026100018161CF40E942605EDCF1092440110926A
:102620004501109246011092470180E090E0A2E03F
:10263000B3E48093400190934101A0934201B09391
:1026400043011F921F921F921F925C016D01E12CAA
:10265000F12C00E01FE320E030E0A901CA01B9013C
:102660000E94BC050F900F900F900F9081111BCE10
:102670004092440150924501609246017092470198
:102680004092400150924101609242017092430198
:102690001F921F921F92CF93A12CB12C4BE3C42EFB
:1026A00043E4D42EA6019501C801B7010E94BC05E0
:1026B0000F900F900F900F908111F5CD0E94500D4B
:1026C00060E080E00E94B10461E08DE00E94C90BEF
:1026D0000E94710D6B017C010E94710DDC01CB0128
:1026E0008C199D09AE09BF0980369A4EA105B10526
:1026F00008F0A7CD81E10E94A00B892B69F799CD45
:102700000E948205109244011092450110924601E8
:102710001092470180E090E0A0E2B3E48093400192
:1027200090934101A0934201B09343011F921F92E5
:102730001F921F925C016D01E12CF12C00E01FE360
:1027400020E030E0A901CA01B9010E94BC050F9048
:102750000F900F900F908111A6CD80E090E0A8E43B
:10276000B3E48093440190934501A0934601B09354
:1027700047018093400190934101A0934201B0939F
:1027800043011F921F921F921F925C016D019C01D9
:10279000AD01C801B7010E94BC050F900F900F90CA
:1027A0000F90811180CD80E090E0A8E6B3E48093A3
:1027B000440190934501A0934601B0934701A09234
:1027C0004001B0924101C0924201D09243011F9258
:1027D0001F921F92CF9320E030E048E653E4C801F7
:1027E000B7010E94BC050F900F900F900F908111C0
:1027F0005ACD0E94500D60E080E00E94B10461E07B
:102800008DE00E94C90B0E94710D6B017C010E943A
:10281000710DDC01CB018C199D09AE09BF09803611
:102820009A4EA105B10508F00CCD81E10E94A00BE4
:10283000892B69F7FECC0E94820510924401109208
:102840004501109246011092470180E090E0A6E118
:10285000B3E48093400190934101A0934201B0936F
:1028600043011F921F921F921F925C016D01E12C88
:10287000F12C00E41FE320E030E0A901CA01B90116
:102880000E94BC050F900F900F900F9081110BCDFF
:102890001092440110924501109246011092470196
:1028A00080E090E0ACE5B3E4809340019093410177
:1028B000A0934201B09343011F921F921F928FE099
:1028C0008F93A12CB12C8CE5C82E83E4D82EE12C5B
:1028D000F12C00E01FE320E030E0A901CA01B901BA
:1028E0000E94BC050F900F900F900F908111DBCCD0
:1028F0000E94500D60E080E00E94B10461E08DE034
:102900000E94C90B0E94710D6B017C010E94710D28
:10291000DC01CB018C199D09AE09BF0980369A4EA6
:10292000A105B10508F08DCC81E10E94A00B892B97
:1029300069F77FCC6AE070E080E090E00E94160DBD
:102940008114910409F45CCB0E94000054CBCF9316
:10295000DF93EBE9F2E01382128288EE93E0A0E0CD
:10296000B0E084839583A683B78385E591E0918366
:102970008083EDEAF2E01382128285E691E0918392
:1029800080838FE3848384E1808784E0818712865B
:1029900098E09387CAEAD2E0888383E08A8382E062
:1029A000898361E083E00E94F80B61E088810E94E6
:1029B000F80B60E089810E94F80B61E08A810E9437
:1029C000C90BC7EAD2E087E0888386E08A8385E086
:1029D000898361E086E00E94F80B61E088810E94B3
:1029E000F80B60E089810E94F80B61E08A81DF9139
:1029F000CF910C94C90B5058BB27AA270E941315DE
:102A00000C941B160E940D1638F00E94141620F02C
:102A100039F49F3F19F426F40C940A160EF4E0954D
:102A2000E7FB0C940416E92F0E942C1658F3BA17F2
:102A3000620773078407950720F079F4A6F50C94D4
:102A40004E160EF4E0950B2EBA2FA02D0B01B901F6
:102A500090010C01CA01A0011124FF27591B99F014
:102A6000593F50F4503E68F11A16F040A22F232F20
:102A7000342F4427585FF3CF469537952795A79570
:102A8000F0405395C9F77EF41F16BA0B620B730B17
:102A9000840BBAF09150A1F0FF0FBB1F661F771F88
:102AA000881FC2F70EC0BA0F621F731F841F48F43D
:102AB000879577956795B795F7959E3F08F0B0CFC6
:102AC0009395880F08F09927EE0F979587950895AD
:102AD0000E94E01508F481E008950E94741568943E
:102AE000B1110C944F1608950E94341688F09F5728
:102AF00098F0B92F9927B751B0F0E1F0660F771F22
:102B0000881F991F1AF0BA95C9F714C0B13091F017
:102B10000E944E16B1E008950C944E16672F782F40
:102B20008827B85F39F0B93FCCF3869577956795DC
:102B3000B395D9F73EF490958095709561957F4F48
:102B40008F4F9F4F0895E89409C097FB3EF49095EE
:102B50008095709561957F4F8F4F9F4F9923A9F076
:102B6000F92F96E9BB279395F69587957795679505
:102B7000B795F111F8CFFAF4BB0F11F460FF1BC049
:102B80006F5F7F4F8F4F9F4F16C0882311F096E9DC
:102B900011C0772321F09EE8872F762F05C066238A
:102BA00071F096E8862F70E060E02AF09A95660F43
:102BB000771F881FDAF7880F9695879597F90895FC
:102BC000990F0008550FAA0BE0E8FEEF161617063E
:102BD000E807F907C0F012161306E407F50798F0A6
:102BE000621B730B840B950B39F40A2661F0232BBF
:102BF000242B252B21F408950A2609F4A140A6953B
:102C00008FEF811D811D089597F99F6780E870E01F
:102C100060E008959FEF80EC089500240A94161652
:102C2000170618060906089500240A9412161306BA
:102C3000140605060895092E0394000C11F4882348
:102C400052F0BB0F40F4BF2B11F460FF04C06F5F64
:102C50007F4F8F4F9F4F089557FD9058440F551F3A
:102C600059F05F3F71F04795880F97FB991F61F00E
:102C70009F3F79F087950895121613061406551F85
:102C8000F2CF4695F1DF08C0161617061806991FF1
:102C9000F1CF86957105610508940895E894BB27E6
:102CA00066277727CB0197F908950E94E01508F46D
:102CB0008FEF08950E946D160C941B160E940D163E
:102CC00038F00E94141620F0952311F00C9404168D
:102CD0000C940A1611240C944F160E942C1670F3B3
:102CE000959FC1F3950F50E0551F629FF001729FB1
:102CF000BB27F00DB11D639FAA27F00DB11DAA1FC0
:102D0000649F6627B00DA11D661F829F2227B00D0C
:102D1000A11D621F739FB00DA11D621F839FA00D97
:102D2000611D221F749F3327A00D611D231F849FE7
:102D3000600D211D822F762F6A2F11249F5750403E
:102D40009AF0F1F088234AF0EE0FFF1FBB1F661FB9
:102D5000771F881F91505040A9F79E3F510580F082
:102D60000C9404160C944F165F3FE4F3983ED4F392
:102D7000869577956795B795F795E7959F5FC1F726
:102D8000FE2B880F911D9695879597F90895A1E2DE
:102D90001A2EAA1BBB1BFD010DC0AA1FBB1FEE1FD5
:102DA000FF1FA217B307E407F50720F0A21BB30B20
:102DB000E40BF50B661F771F881F991F1A9469F79C
:102DC00060957095809590959B01AC01BD01CF01F8
:102DD0000895EE0FFF1F0590F491E02D09940E94D5
:102DE000FA16A59F900DB49F900DA49F800D911D84
:102DF00011240895A29FB001B39FC001A39F700D3D
:102E0000811D1124911DB29F700D811D1124911DF2
:062E10000895F894FFCFC5
:102E16001F1F1F1F1F1F00001F1F1F1F0000000076
:102E26001F1F0000000000001F1F1F1F1F1F1F1F66
:102E360000001F1F1F1F1F1F000000001F1F1F1F56
:102E46000000000000001F1F0C12120C0000000002
:102E560000002A4300002543FF00004000140054F0
:102E660000000000002201F500ED00DE00D000CFDA
:102E76000000000000D8037D0D2020003A0043002A
:102E8600202020202020207431206572720020200E
:102E960020202020202020555000202020202020E7
:102EA60020743220657272002020202020202020ED
:102EB600444F574E00202020202020534F4C44459D
:102EC60052494E47002020202020202053544154B0
:102ED600494F4E00546F7020486561740050726F00
:102EE60066696C0054696D650050726520486561BD
:022EF600740066
:00000001FF
