:100000000C9463000C948B000C948B000C948B006C
:100010000C948B000C948B000C948B000C946D074B
:100020000C948B000C948B000C948B000C948B0024
:100030000C948B000C948B000C948B000C948B0014
:100040000C9423070C948B000C94EF070C94C907B5
:100050000C948B000C948B000C948B000C948B00F4
:100060000C948B000C948B000000000023002600F1
:10007000290000000000240027002A0000000008DA
:10008000000201000003040700000000000000005F
:10009000010204081020408001020408102001021F
:1000A0000408102000000000250028002B00040494
:1000B0000404040404040202020202020303030310
:1000C00003030200E90911241FBECFEFD8E0DEBF11
:1000D000CDBF11E0A0E0B1E0EEE0F9E102C0059093
:1000E0000D92AA31B107D9F721E0AAE1B1E001C030
:1000F0001D92A33EB207E1F710E0C3E6D0E004C0D2
:100100002197FE010E947A0CC236D107C9F70E94DE
:1001100066080C94850C0C94000090E0FC01E458F7
:10012000FF4F3491FC01E057FF4F2491FC01E25551
:10013000FF4FE491EE2309F43BC0332339F1333010
:1001400091F038F43130A9F0323001F584B58F7D6B
:1001500012C0373091F03830A1F03430B9F48091CA
:1001600080008F7D03C0809180008F778093800016
:100170000DC084B58F7784BD09C08091B0008F77A2
:1001800003C08091B0008F7D8093B000F0E0EE0F4F
:10019000FF1FEC55FF4FA591B4918FB7F894EC91E8
:1001A000611103C020952E2301C02E2B2C938FBFED
:1001B0000895CF93DF9390E0FC01E057FF4F249127
:1001C000FC01E255FF4F8491882361F190E0880F94
:1001D000991FFC01EE58FF4FC591D491FC01EC55DD
:1001E000FF4FA591B491611109C09FB7F894888120
:1001F000209582238883EC912E230BC0623061F41A
:100200009FB7F8943881822F809583238883EC915F
:100210002E2B2C939FBF06C08FB7F894E8812E2B0E
:1002200028838FBFDF91CF9108958F929F92AF92D5
:10023000BF92CF92DF92EF92FF92CF939091000105
:10024000981721F09F3F09F0E9C104C0E2ECF0E00B
:10025000C4917DC080930001E2ECF0E0C491CF3FF7
:1002600009F4DCC1C13029F1C23009F449C0C1111F
:100270006EC014BC15BC94B5926094BD95B59160E8
:1002800095BD282F30E0F901E255FF4FE491F0E0F1
:10029000EE0FFF1FEC55FF4F4591549150933901DC
:1002A00040933801F901E057FF4FE491E0933701A3
:1002B00050C010928000109281009091810098604F
:1002C0009093810090918100916090938100282FFC
:1002D00030E0F901E255FF4FE491F0E0EE0FFF1F2F
:1002E000EC55FF4F459154915093360140933501A1
:1002F000F901E057FF4FE491E0933401C1E029C0D8
:100300001092B0001092B1009091B0009260909362
:10031000B0009091B10091609093B100282F30E02F
:10032000F901E255FF4FE491F0E0EE0FFF1FEC55AD
:10033000FF4F459154915093330140933201F9019D
:10034000E057FF4FE491E0933101C2E002C0C7FDE6
:1003500065C14B0161E00E94D900A12CB12C8C2F0A
:100360008D7F09F0A0C060E072E18AE790E0A5010E
:1003700094010E94720A69017A01DA01C9010197A8
:10038000A109B1098F3F9105A105B10509F008F454
:1003900042C060E472E48FE090E0A50194010E9405
:1003A000720ADA01C9010197A109B109C230E1F469
:1003B0008F3F9105A105B10509F008F42DC160E951
:1003C00070ED83E090E0A50194010E94720ADA01C9
:1003D000C9010197A109B1098F3F9105A105B10597
:1003E00009F088F523E058C08F3F9105A105B105BC
:1003F000A1F098F068E478EE81E090E0A501940126
:100400000E94720ADA01C9010197A109B109CC233E
:1004100009F4B6C0F9C021E001C022E0CC2371F09C
:100420003BC0D701C6012AE0B595A795979587955A
:100430002A95D1F70197A109B10925E035B5387F93
:10044000232B25BD61C068E478EE81E090E0A50132
:1004500094010E94720ADA01C9010197A109B10948
:100460008F3F9105A105B10509F008F487C064E24A
:1004700074EF80E090E0A50194010E94720ADA0115
:10048000C9010197A109B1098F3F9105A105B105E6
:1004900011F008F093C025E03091B100387F232B94
:1004A0002093B1002BC060E072E18AE790E0A501E3
:1004B00094010E94720ADA01C9010197A109B109E8
:1004C000009721E0A207B10578F068E478EE81E0BA
:1004D00090E0A50194010E94720ADA01C901019716
:1004E000A109B10933E001C031E0C13039F42091F4
:1004F0008100287F232B2093810018C0C130B1F0E8
:10050000C23049F1C1118AC087BD8FEF9FEFDC0176
:100510008093420190934301A0934401B09345011D
:1005200080916E00826080936E0078C09093890005
:10053000809388008FEF9FEFDC0180933E019093C2
:100540003F01A0934001B093410180916F00826010
:1005500080936F0063C08093B3008FEF9FEFDC0147
:1005600080933A0190933B01A0933C01B0933D01ED
:100570008091700082608093700050C024E08CCF26
:100580008F3F9105A105B105B9F0B0F062E17AE7BE
:1005900080E090E0A50194010E94720ADA01C9018D
:1005A0000197A109B1098F3F9105A105B10511F08E
:1005B00008F037CF24E042CF23E040CF62E17AE772
:1005C00080E090E0A50194010E94720ADA01C9015D
:1005D0000197A109B1098F3F9105A105B10591F0DE
:1005E00088F0D701C6013AE0B595A795979587950C
:1005F0003A95D1F70197A109B109CC2309F41DCF90
:1006000027E04ACF26E00ACF8F3F9105A105B1052B
:1006100009F0A0F624E002CF22E03ECFCF91FF9078
:10062000EF90DF90CF90BF90AF909F908F90089504
:100630001F93CF93DF93182FEB0161E00E94D90045
:10064000209711F460E004C0CF3FD10539F461E098
:10065000812FDF91CF911F910C948D00E12FF0E05D
:10066000E458FF4FE491E330F9F048F4E130B9F099
:10067000E230A1F584B5806284BDC8BD34C0E730E6
:10068000E9F0E83019F1E43049F5809180008062AA
:1006900080938000D0938B00C0938A0024C084B5DF
:1006A000806884BDC7BD1FC0809180008068809332
:1006B0008000D0938900C093880015C08091B0005D
:1006C00080688093B000C093B3000DC08091B000EB
:1006D00080628093B000C093B40005C0C038D105DB
:1006E0000CF0B5CFAFCFDF91CF911F9108958E3031
:1006F00008F08E508770806480937C0080917A002F
:10070000806480937A0080917A0086FDFCCF80918E
:1007100078002091790090E0922B08953FB7F894EB
:1007200080912D0190912E01A0912F01B091300167
:1007300026B5A89B05C02F3F19F00196A11DB11D3C
:100740003FBFBA2FA92F982F8827820F911DA11D77
:10075000B11DBC01CD0142E0660F771F881F991FB4
:100760004A95D1F708958F929F92AF92BF92CF9200
:10077000DF92EF92FF926B017C010E948E034B018E
:100780005C01C114D104E104F104F1F00E948E0374
:10079000DC01CB0188199909AA09BB09883E93405D
:1007A000A105B10570F321E0C21AD108E108F108F2
:1007B00088EE880E83E0981EA11CB11CC114D104E0
:1007C000E104F10419F7DDCFFF90EF90DF90CF90B7
:1007D000BF90AF909F908F900895CF93DF93EC01DF
:1007E0001C161D06B4F461E08DE00E948D0064EFDC
:1007F00071E080E090E00E94B30360E08DE00E9431
:100800008D0064EF71E080E090E00E94B3032197D7
:10081000E7CFDF91CF9108958F929F92AF92BF92D1
:10082000CF92DF92EF92FF92CF93DF93EC016B01B7
:10083000770FEE08FF084A01550FAA08BB081C16DF
:100840001D06E4F462E370E08AE00E94180362E3AC
:1008500070E089E00E941803C701B6010E94B3034B
:1008600060E08AE00E948D0060E089E00E948D00D7
:10087000C501B4010E94B3032197E1CFDF91CF916D
:10088000FF90EF90DF90CF90BF90AF909F908F90B0
:10089000089590910001981324C0E2ECF0E0E491F7
:1008A0009FEF90930001E130B9F098F0E230C9F485
:1008B000909170009D7F9093700091E09093B000B4
:1008C0009091B100987F94609093B1001092B30022
:1008D00008C010926E0005C090916F009D7F9093AC
:1008E0006F0060E00C948D00CF92DF92EF92FF9248
:1008F0000F931F93CF93DF936C017A018B01C0E0BC
:10090000D0E0CE15DF0589F0D8016D918D01D601BB
:10091000ED91FC910190F081E02DC6010995892BA4
:1009200011F47E0102C02196ECCFC701DF91CF9177
:100930001F910F91FF90EF90DF90CF900895089551
:1009400080E090E00895FC01538D448D252F30E028
:10095000842F90E0821B930B541710F0CF960895CC
:1009600001970895FC01918D828D981761F0828D19
:10097000DF01A80FB11D5D968C91928D9F5F9F73D3
:10098000928F90E008958FEF9FEF0895FC01918D75
:10099000828D981731F0828DE80FF11D858D90E0E2
:1009A00008958FEF9FEF0895FC01918D228D892F7F
:1009B00090E0805C9F4F821B91098F739927089567
:1009C00086E491E00E94D40421E0892B09F420E020
:1009D000822F0895FC01848DDF01A80FB11DA35A59
:1009E000BF4F2C91848D90E001968F739927848F4F
:1009F000A689B7892C93A089B1898C9180648C9346
:100A0000938D848D981306C00288F389E02D808130
:100A10008F7D80830895EF92FF920F931F93CF9362
:100A2000DF93EC0181E0888F9B8D8C8D981305C03E
:100A3000E889F989808185FD24C0F62E0B8D10E0B0
:100A40000F5F1F4F0F731127E02E8C8DE8120CC023
:100A50000FB607FCFACFE889F989808185FFF5CFC9
:100A6000CE010E94EA04F1CF8B8DFE01E80FF11D4B
:100A7000E35AFF4FF0820B8FEA89FB898081806205
:100A800007C0EE89FF896083E889F98980818064E5
:100A9000808381E090E0DF91CF911F910F91FF90D3
:100AA000EF900895CF93DF93EC01888D8823C9F0F0
:100AB000EA89FB89808185FD05C0A889B9898C9167
:100AC00086FD0FC00FB607FCF5CF808185FFF2CF02
:100AD000A889B9898C9185FFEDCFCE010E94EA04E7
:100AE000E7CFDF91CF91089580E090E0892B29F046
:100AF0000E94E00481110C940000089584E00E949B
:100B0000770390931B0180931A0124EF31E0DC01FD
:100B10000E94730C2FEF33E040E050E00E94720A15
:100B20003093250120932401C90108958F929F924B
:100B3000AF92BF920F931F93CF93DF93CDB7DEB7E2
:100B4000A1970FB6F894DEBF0FBECDBF19A24230F9
:100B500008F44AE08E010F5D1F4F842E912CA12CCA
:100B6000B12CA50194010E94A40AE62FB901CA0183
:100B700001501109EA3014F4E05D01C0E95CD801CC
:100B8000EC93232B242B252B61F70115110571F014
:100B9000F80101900020E9F73197AF01401B510B9C
:100BA000B80186E491E00E94740402C080E090E005
:100BB000A1960FB6F894DEBF0FBECDBFDF91CF91E7
:100BC0001F910F91BF90AF909F908F900895CF92FB
:100BD000DF92EF92FF92CF93DF936C01990FEE08B3
:100BE000FF08F7FE1AC0E0914601F091470101901D
:100BF000F081E02D6DE286E491E00995EC01662735
:100C00007727CB016C197D098E099F094AE00E9464
:100C100096057C01EC0EFD1E06C04AE0C701B60138
:100C20000E9496057C0142E050E067E171E086E4B5
:100C300091E00E9474048E0D9F1DDF91CF91FF9073
:100C4000EF90DF90CF900895CF93DF9385B1897FA8
:100C500085B964EF71E080E090E00E94B3030E94E8
:100C60007E05EC010E94E705C33781E0D8071CF43C
:100C700081E090E01EC0CE01835791400A9718F49E
:100C800082E090E016C0CE018D5791400A9718F48B
:100C900083E090E00EC0CE01875891400A9718F487
:100CA00084E090E006C0C159D1402F9730F485E030
:100CB00090E0DF91CF910C94ED030E947E05EC0152
:100CC0000E94E705CD3981E0D8070CF4BFCFCD599C
:100CD000D1406C9790F561E08DE00E948D000E94FC
:100CE0007E05EC010E94E705CD59D1406C9730F0AC
:100CF0000E94240660E08DE00E948D0068E873E1A8
:100D000080E090E00E94B303EACF8AE090E00E9486
:100D1000ED0364EF71E080E090E00E94B30344EFE4
:100D200051E064EF71E085E090E00E940C0464EF14
:100D300071E080E090E00E94B3030E947E05EC0128
:100D40000E94E705C93BD14004F70E94240668EBE6
:100D50007BE080E090E0EFCF0E94800CCF92DF92AA
:100D6000EF92FF920F931F9360E082E00E948D004C
:100D700083E090E00197F1F761E082E00E948D004E
:100D800083E290E00197F1F760E082E00E948D003D
:100D9000E3E9F0E06491E1EBF0E0E491F0E0EE0FE4
:100DA000FF1FE859FF4F8591949100E412E42FE072
:100DB00030E0462F0E9421086115710581059105DB
:100DC00049F0DC01CB010196A11DB11DBC01CD0193
:100DD0009F7003C060E070E0CB01609320017093CE
:100DE000210180932201909323010E947A0B2AE92A
:100DF00039E949ED5FE30E94060C2AE037ED43E252
:100E00005CE30E94060C20E030E040E85FE30E94D3
:100E1000D60A0E94420B6B017C0160931C01709307
:100E20001D0180931E0190931F016AE070E080E035
:100E300090E00E94B303C6011F910F91FF90EF90C5
:100E4000DF90CF9008951F920F920FB60F9211244A
:100E50002F933F938F939F93AF93BF9380912901DB
:100E600090912A01A0912B01B0912C013091280181
:100E700023E0230F2D3720F40196A11DB11D05C0DD
:100E800026E8230F0296A11DB11D2093280180930F
:100E9000290190932A01A0932B01B0932C018091FA
:100EA0002D0190912E01A0912F01B091300101965A
:100EB000A11DB11D80932D0190932E01A0932F01B0
:100EC000B0933001BF91AF919F918F913F912F913E
:100ED0000F900FBE0F901F9018951F920F920FB694
:100EE0000F9211242F933F934F935F936F937F93B0
:100EF0008F939F93AF93BF93EF93FF9380913A01AA
:100F000090913B01A0913C01B0913D01892B8A2B2E
:100F10008B2B51F180913101E0913201F09133013D
:100F200090818927808380913A0190913B01A09123
:100F30003C01B0913D01181619061A061B06C4F4AF
:100F400080913A0190913B01A0913C01B0913D010B
:100F50000197A109B10980933A0190933B01A093B5
:100F60003C01B0933D0104C0809100010E944904FE
:100F7000FF91EF91BF91AF919F918F917F916F9171
:100F80005F914F913F912F910F900FBE0F901F9047
:100F900018951F920F920FB60F9211242F933F9323
:100FA0004F935F936F937F938F939F93AF93BF9371
:100FB000EF93FF9386E491E00E94EA04FF91EF91A2
:100FC000BF91AF919F918F917F916F915F914F9161
:100FD0003F912F910F900FBE0F901F9018951F9269
:100FE0000F920FB60F9211242F938F939F93EF932D
:100FF000FF93E0915601F09157018081E0915C01EF
:10100000F0915D0182FD12C0908180915F018F5F40
:101010008F7320916001821751F0E0915F01F0E041
:10102000EA5BFE4F958F80935F0101C08081FF9145
:10103000EF919F918F912F910F900FBE0F901F9066
:101040001895CF92DF92EF92FF920F931F93E82FA4
:10105000F92F05C0015011092109310961F1908171
:1010600096239417B9F305C00150110921093109DC
:1010700011F1908196239413F7CFC12CD12CE12C40
:10108000F12C0AC08FEFC81AD80AE80AF80A0C1522
:101090001D052E053F0579F080818623841791F385
:1010A0006C2D7D2D8E2D9F2D1F910F91FF90EF9018
:1010B000DF90CF90089560E070E080E090E01F91B5
:1010C0000F91FF90EF90DF90CF900895789484B5C2
:1010D000826084BD84B5816084BD85B5826085BD34
:1010E00085B5816085BD80916E00816080936E00C2
:1010F00010928100809181008260809381008091B4
:101100008100816080938100809180008160809364
:1011100080008091B10084608093B1008091B00024
:1011200081608093B00080917A00846080937A001F
:1011300080917A00826080937A0080917A00816049
:1011400080937A0080917A00806880937A00109270
:10115000C10084B18F6084B985B1896085B985B1DA
:10116000897F85B9519A509861E082E00E94D90048
:1011700060E083E00E94D90061E08DE00E94D90028
:1011800080E00E947703BC01990F880B990B6115D1
:1011900071058105910511F00E94690AE0915601DF
:1011A000F091570182E08083E0915201F091530168
:1011B0001082E0915401F09155018FEC80831092E0
:1011C0005E01E0915A01F0915B0186E08083E0913D
:1011D0005801F0915901808180618083E09158012C
:1011E000F0915901808188608083E0915801F091ED
:1011F0005901808180688083E0915801F091590104
:1012000080818F7D80830E947E0580912401909152
:1012100025018D3991408CF068EE73E080E090E01C
:101220000E94B3034EE150E06EE170E08FE090E089
:101230000E940C040E9424062AC068EE73E08AE033
:101240000E94150166E970E080E090E00E94B3031F
:101250008AE00E94490460ED77E089E00E94150170
:1012600066E970E080E090E00E94B30389E00E94AC
:10127000490468EB7BE08AE00E94150166E970E0B2
:1012800080E090E00E94B3038AE00E944904C8E035
:101290008CED882E85E0982EA12CB12C95E0492E5E
:1012A000512C612C712C0E94AE06863091056CF495
:1012B00062E370E080E090E00E94B3030E94AE061B
:1012C00006975CF40E94240608C031E020E088976D
:1012D0000CF430E0832F922F02C080E090E025B123
:1012E000296025B9019721F485B1866085B968C068
:1012F00085B1897F85B962E370E080E090E00E946B
:10130000B303D1E00E94640A23E030E040E050E003
:101310000E94720A6B017C0182E0C816D104E104CC
:10132000F104A1F00E94640AA50194010E94720ACE
:101330006C507E4F8F4F9F4F10922701C114D104E4
:10134000E104F104D9F415B8289A23C0809127014B
:10135000811111C00E94640A24EF31E040E050E0A6
:101360000E94720A645D7E4F8F4F9F4FD09326017B
:10137000D093270103C060E070E0CB01CA94CD2870
:10138000CE28CF2819F4C5B9289803C025B1267FE7
:1013900025B925B1266025B90E94B30380912601A5
:1013A000882371F0109226010E94640AA301920121
:1013B0000E94720A16161706180619060CF4A2CF18
:1013C00062E370E080E090E00E94B3030E94740545
:1013D0006ACFE6E4F1E01382128288EE93E0A0E0A7
:1013E000B0E084839583A683B78389E091E09183FD
:1013F000808385EC90E09587848784EC90E09787E4
:10140000868780EC90E0918B808B81EC90E0938BD1
:10141000828B82EC90E0958B848B86EC90E0978BAE
:10142000868B118E128E138E148E08958F929F923A
:10143000AF92BF92CF92DF92EF92FF92CF93DF9362
:10144000EC01688179818A819B8161157105810533
:10145000910521F464E279ED8BE597E02DE133EF1E
:1014600041E050E00E94720A49015A019B01AC011F
:10147000A7EAB1E40E94910A6B017C01ACEEB4EFE3
:10148000A50194010E949F0ADC01CB018C0D9D1DDA
:10149000AE1DBF1DB7FF03C00197A109B0488883E7
:1014A0009983AA83BB83BC01CD019F77DF91CF9144
:1014B000FF90EF90DF90CF90BF90AF909F908F9074
:1014C00008950E94160A089581E091E00E94160A8C
:1014D000089560930101709302018093030190933A
:1014E00004010895052E97FB1EF400940E94890ABA
:1014F00057FD07D00E94A40A07FC03D04EF40C94B9
:10150000890A50954095309521953F4F4F4F5F4F39
:10151000089590958095709561957F4F8F4F9F4F5F
:1015200008950E94C60AA59F900DB49F900DA49F98
:10153000800D911D11240895B7FF0C94910A0E940B
:10154000910A821B930B0895A1E21A2EAA1BBB1BC2
:10155000FD010DC0AA1FBB1FEE1FFF1FA217B3077F
:10156000E407F50720F0A21BB30BE40BF50B661F95
:10157000771F881F991F1A9469F760957095809559
:1015800090959B01AC01BD01CF010895A29FB001D0
:10159000B39FC001A39F700D811D1124911DB29FA7
:1015A000700D811D1124911D08955058BB27AA2745
:1015B0000E94ED0A0C94CC0B0E94BE0B38F00E94E6
:1015C000C50B20F039F49F3F19F426F40C94BB0BA3
:1015D0000EF4E095E7FB0C94B50BE92F0E94DD0BB0
:1015E00058F3BA17620773078407950720F079F458
:1015F000A6F50C94FF0B0EF4E0950B2EBA2FA02D40
:101600000B01B90190010C01CA01A0011124FF27AF
:10161000591B99F0593F50F4503E68F11A16F040AA
:10162000A22F232F342F4427585FF3CF46953795A9
:101630002795A795F0405395C9F77EF41F16BA0B6E
:10164000620B730B840BBAF09150A1F0FF0FBB1F1C
:10165000661F771F881FC2F70EC0BA0F621F731F65
:10166000841F48F4879577956795B795F7959E3FC2
:1016700008F0B0CF9395880F08F09927EE0F979553
:10168000879508950E94490B6894B1110C94000C41
:1016900008950E94E50B88F09F5798F0B92F99277D
:1016A000B751B0F0E1F0660F771F881F991F1AF04D
:1016B000BA95C9F714C0B13091F00E94FF0BB1E0A8
:1016C00008950C94FF0B672F782F8827B85F39F0A7
:1016D000B93FCCF3869577956795B395D9F73EF4E6
:1016E00090958095709561957F4F8F4F9F4F08958E
:1016F000E89409C097FB3EF49095809570956195AC
:101700007F4F8F4F9F4F9923A9F0F92F96E9BB2761
:101710009395F695879577956795B795F111F8CFDD
:10172000FAF4BB0F11F460FF1BC06F5F7F4F8F4F48
:101730009F4F16C0882311F096E911C0772321F03E
:101740009EE8872F762F05C0662371F096E8862FD6
:1017500070E060E02AF09A95660F771F881FDAF72D
:10176000880F9695879597F9089597F99F6780E870
:1017700070E060E008959FEF80EC089500240A94E3
:101780001616170618060906089500240A9412165C
:101790001306140605060895092E0394000C11F48F
:1017A000882352F0BB0F40F4BF2B11F460FF04C03C
:1017B0006F5F7F4F8F4F9F4F089557FD9058440F95
:1017C000551F59F05F3F71F04795880F97FB991FA0
:1017D00061F09F3F79F0879508951216130614065D
:1017E000551FF2CF4695F1DF08C0161617061806EA
:1017F000991FF1CF86957105610508940895E894C5
:10180000BB2766277727CB0197F908950E94190C0B
:101810000C94CC0B0E94BE0B38F00E94C50B20F03C
:10182000952311F00C94B50B0C94BB0B11240C9464
:10183000000C0E94DD0B70F3959FC1F3950F50E0F3
:10184000551F629FF001729FBB27F00DB11D639F72
:10185000AA27F00DB11DAA1F649F6627B00DA11D18
:10186000661F829F2227B00DA11D621F739FB00DBE
:10187000A11D621F839FA00D611D221F749F33272E
:10188000A00D611D231F849F600D211D822F762FC7
:101890006A2F11249F5750409AF0F1F088234AF0A4
:1018A000EE0FFF1FBB1F661F771F881F9150504010
:1018B000A9F79E3F510580F00C94B50B0C94000CD9
:1018C0005F3FE4F3983ED4F3869577956795B79597
:1018D000F795E7959F5FC1F7FE2B880F911D9695B1
:1018E000879597F908950E94C60AB7FF0895821B4D
:1018F000930B0895EE0FFF1F0590F491E02D0994CE
:0E19000081E090E0F8940C94850CF894FFCFF1
:10190E00FF01000000000000000B057404A3045248
:0A191E0005D404B204C6040D0A004B
:00000001FF
