:100000000C9434000C9451000C9451000C94510049
:100010000C9451000C9451000C9451000C9451001C
:100020000C9451000C9451000C9451000C9451000C
:100030000C9451000C9451000C9451000C945100FC
:100040000C9453000C9451000C9451000C945100EA
:100050000C9451000C9451000C9451000C945100DC
:100060000C9451000C94510011241FBECFEFD8E026
:10007000DEBFCDBF11E0A0E0B1E0ECEEF1E002C0E8
:1000800005900D92A030B107D9F721E0A0E0B1E0D2
:1000900001C01D92A930B207E1F70E949D000C94A7
:1000A000F4000C9400001F920F920FB60F921124CF
:1000B0002F933F938F939F93AF93BF9380910501AD
:1000C00090910601A0910701B091080130910401BF
:1000D00023E0230F2D3720F40196A11DB11D05C08B
:1000E00026E8230F0296A11DB11D209304018093E1
:1000F000050190930601A0930701B0930801809138
:10010000000190910101A0910201B09103010196BB
:10011000A11DB11D8093000190930101A0930201E4
:10012000B0930301BF91AF919F918F913F912F9118
:100130000F900FBE0F901F901895789484B5826031
:1001400084BD84B5816084BD85B5826085BD85B57B
:10015000816085BD80916E00816080936E001092F9
:100160008100809181008260809381008091810074
:100170008160809381008091800081608093800005
:100180008091B10084608093B1008091B000816063
:100190008093B00080917A00846080937A0080918F
:1001A0007A00826080937A0080917A0081608093E7
:1001B0007A0080917A00806880937A001092C10062
:1001C00084B18F6084B985B1896085B985B1897F33
:1001D00085B9519A8AB150988AB1C0E0D0E0209791
:0C01E000F1F30E940000FBCFF894FFCF69
:00000001FF
