:100000000C9430010C9458010C9458010C94580134
:100010000C9458010C9458010C9458010C945801FC
:100020000C9458010C9458010C9458010C945801EC
:100030000C9458010C9458010C9458010C945801DC
:100040000C940B050C9458010C947B050C945505ED
:100050000C9458010C9458010C9458010C945801BC
:100060000C9458010C94580150415F4D4158005078
:10007000415F484947480050415F4C4F570050414D
:100080005F4D494E0031362062697473003820623A
:100090006974730044697361626C6564006E5246F2
:1000A00032344C30312B006E524632344C303100F9
:1000B0003235304B42505300324D42505300314D97
:1000C000425053005354415455530909203D2030A8
:1000D00078253032782052585F44523D257820549C
:1000E000585F44533D2578204D41585F52543D257B
:1000F000782052585F505F4E4F3D25782054585F0E
:1001000046554C4C3D25780D0A00504120506F77E4
:10011000657209203D2025530D0A007E0077006F8F
:10012000006800435243204C656E67746809203DA7
:100130002025530D0A0094008D0085004D6F6465E5
:100140006C0909203D2025530D0A00A7009D00449D
:10015000617461205261746509203D2025530D0AA8
:1001600000BE00B800B00044594E50442F464541EF
:100170005455524500434F4E464947090052465F89
:1001800053455455500052465F43480900454E5F61
:1001900052584144445200454E5F41410900525873
:1001A0005F50575F50302D360054585F41444452E1
:1001B000090052585F414444525F50322D3500527D
:1001C000585F414444525F50302D31000A0D524671
:1001D00032342F6578616D706C65732F7363616E57
:1001E0006E65722F00000000080002010000030489
:1001F00007000000000000000000000000250028AB
:10020000002B0000000000240027002A0004040442
:1002100004040404040202020202020303030303AF
:10022000030102040810204080010204081020018C
:1002300002040810200001020304050D0A00253005
:1002400032780020307800255309203D000D0A0047
:100250002030782530327800255309203D00AD0547
:1002600011241FBECFEFD8E0DEBFCDBF11E0A0E06C
:10027000B1E0E4EBFAE102C005900D92AC31B107B8
:10028000D9F722E0ACE1B1E001C01D92A336B2077C
:10029000E1F711E0C0E3D1E004C02197FE010E9424
:1002A000370DCF32D107C9F70E94F3050C94580DD2
:1002B0000C94000090E0FC01EF5DFD4F2491FC01E7
:1002C000E35FFD4F8491882399F090E0880F991F98
:1002D000FC01ED5FFD4FA591B491FC01E750FE4F8D
:1002E000859194918FB7F894EC91E22BEC938FBFAA
:1002F000089590E0FC01EB51FE4F2491FC01EF5D6D
:10030000FD4F3491FC01E35FFD4FE491EE2309F4CE
:100310003CC0222339F1233091F038F42130A9F088
:10032000223001F584B58F7D12C0273091F028303E
:10033000A1F02430B9F4809180008F7D03C08091BA
:1003400080008F77809380000DC084B58F7784BD47
:1003500009C08091B0008F7703C08091B0008F7D7D
:100360008093B000F0E0EE0FFF1FE750FE4FA59125
:10037000B4919FB7F894611104C08C9130953823E3
:1003800002C0EC913E2B3C939FBF089582309105B3
:1003900038F0880F991F880F991F05970197F1F77B
:1003A0000895CF93DF939CB59F7D9CBD9CB5937FB3
:1003B0009CBD9CB59C7F9CBD9DB591609DBDC1E4DD
:1003C000D2E0682F8A810E9479018C899D89DF9112
:1003D000CF910C94C6013FB7F8948091A001909101
:1003E000A101A091A201B091A30126B5A89B05C0CF
:1003F0002F3F19F00196A11DB11D3FBFBA2FA92FA4
:10040000982F8827820F911DA11DB11DBC01CD0120
:1004100042E0660F771F881F991F4A95D1F708950C
:100420008F929F92AF92BF92CF92DF92EF92FF9204
:100430000E94EB014B015C0185E0C82ED12CE12C20
:10044000F12C0E94EB01DC01CB0188199909AA0962
:10045000BB09883E9340A105B10598F321E0C21A7B
:10046000D108E108F10888EE880E83E0981EA11CEF
:10047000B11CC114D104E104F10419F7FF90EF900D
:10048000DF90CF90BF90AF909F908F900895CF92C4
:10049000DF92EF92FF920F931F93CF93DF936C0144
:1004A0007A018B01C0E0D0E0CE15DF0581F0D801E4
:1004B0006D918D01D601ED91FC910190F081E02DBF
:1004C000C6010995892B11F02196EECF7E01C70157
:1004D000DF91CF911F910F91FF90EF90DF90CF9020
:1004E000089542E050E066E171E084EA91E00C9406
:1004F0004702FC01918D828D981761F0828DDF019A
:10050000A80FB11D5D968C91928D9F5F9F73928F06
:1005100090E008958FEF9FEF0895FC01918D828DFB
:10052000981731F0828DE80FF11D858D90E00895C8
:100530008FEF9FEF0895FC01918D228D892F90E020
:10054000805C9F4F821B91098F739927089584EADD
:1005500091E00E949B0221E0892B09F420E0822F88
:100560000895FC01848DDF01A80FB11DA35ABF4F70
:100570002C91848D90E001968F739927848FA689A2
:10058000B7892C93A089B1898C9180648C93938DC9
:10059000848D981306C00288F389E02D80818F7DB9
:1005A00080830895EF92FF920F931F93CF93DF9371
:1005B000EC0181E0888F9B8D8C8D981305C0E889B4
:1005C000F989808185FD24C0F62E0B8D10E00F5F28
:1005D0001F4F0F731127E02E8C8DE8120CC00FB641
:1005E00007FCFACFE889F989808185FFF5CFCE0134
:1005F0000E94B102F1CF8B8DFE01E80FF11DE35A8D
:10060000FF4FF0820B8FEA89FB898081806207C0EF
:10061000EE89FF896083E889F9898081806480831D
:1006200081E090E0DF91CF911F910F91FF90EF90CB
:100630000895CF93DF93EC01888D8823C9F0EA8970
:10064000FB89808185FD05C0A889B9898C9186FDCB
:100650000FC00FB607FCF5CF808185FFF2CFA889C8
:10066000B9898C9185FFEDCFCE010E94B102E7CF11
:10067000DF91CF91089580E090E0892B29F00E94CE
:10068000A70281110C94000008958EBD00000DB4E6
:1006900007FEFDCF8EB50895CF93C82F80E00E944E
:1006A000D1018C2F8F710E9445038FEF0E9445036B
:1006B000C82F81E00E94D1018C2FCF910895CF9354
:1006C000C82F80E00E94D1018C2F0E944503C82FC3
:1006D00081E00E94D1018C2FCF910895CF93DF93B9
:1006E000C82FD62F80E00E94D1018C2F8F7180629D
:1006F0000E944503C82F8D2F0E94450381E00E9470
:10070000D1018C2FDF91CF9108958091410290917A
:10071000420220914302309144028217930719F05C
:1007200060E00E94790180915102909152020E94F2
:10073000C6018DE10E944C0381FF09C080915102E6
:10074000909152020E94C60181EE0E945F0380E0F8
:100750000E944C03682F6E7F80E00E946E0382E04F
:100760000E944C03E5E3F2E0E49161E070E001C037
:10077000660FEA95EAF7682B82E00C946E0380E03E
:100780000E944C0381FD07C0682F626080E00E94D8
:100790006E030C94100208950F931F93CF930E9441
:1007A000BF0380E00E944C03682F616080E00E94DC
:1007B0006E0360E787E00E946E0380914102909192
:1007C000420220914302309144028217930719F0AC
:1007D00061E00E94790180914A028823B9F0C091BA
:1007E0004F0280E00E94D1018AE20E9445030AE4A0
:1007F00012E0CC2339F0F80181918F010E9445036A
:10080000C150F7CF81E00E94D10112C082E00E9466
:100810004C03E5E3F2E0E49121E030E001C0220F77
:10082000EA95EAF72095622F682382E00E946E0322
:100830008DE10E944C0381FF06C081EECF911F9194
:100840000F910C945F03CF911F910F910895CF9357
:10085000C82F682F84EA91E00E94D2028C2FCC0F1F
:10086000990BCF910895FF920F931F93CF93DF932E
:10087000C62FD42F9F938F9388E592E09F938F93F9
:100880000E940509DC0F0F900F900F900F9000E56C
:1008900012E0CD1791F0FF24F394FC0E8C2F0E94F0
:1008A0004C031F928F931F930F930E9405090F9083
:1008B0000F900F900F90CF2DECCF8DE492E09F938F
:1008C0008F930E9405090F900F90DF91CF911F9198
:1008D0000F91FF9008952F923F924F925F926F92E7
:1008E0007F928F929F92AF92BF92CF92DF92EF92C0
:1008F000FF920F931F93CF93DF931F92CDB7DEB775
:10090000962E342E4DB65EB69F938F9387E492E079
:100910009F938F930E940509390C0F900F900F90B1
:100920000F9083E4C82E82E0D82E9EE3A92E92E099
:10093000B92E931409F44CC06DB67EB620904F02C8
:10094000022D10E08DB79EB7801B910B0FB6F89467
:100950009EBF0FBE8DBFEDB7FEB731967F01F1E0B0
:10096000F90DF98380E00E94D101892D8F710E94D9
:1009700045034701222041F08FEF0E944503F40117
:1009800081934F012A94F6CF81E00E94D101DF923A
:10099000CF920E9405090E0D1F1D0F900F90015060
:1009A00011090E151F0568F0F80180811F928F93C1
:1009B000BF92AF920E9405090F900F900F900F9079
:1009C000EECF0FB6F8947EBE0FBE6DBE9980B1CF4C
:1009D0008BE392E09F938F930E9405090F900F90F5
:1009E0000FB6F8945EBE0FBE4DBE0F90DF91CF9153
:1009F0001F910F91FF90EF90DF90CF90BF90AF903D
:100A00009F908F907F906F905F904F903F902F902E
:100A100008950E943D0D1F920F920FB60F92112460
:100A20002F933F938F939F93AF93BF9380919C019C
:100A300090919D01A0919E01B0919F0130919B01E9
:100A400023E0230F2D3720F40196A11DB11D05C011
:100A500026E8230F0296A11DB11D20939B018093D0
:100A60009C0190939D01A0939E01B0939F01809162
:100A7000A0019091A101A091A201B091A3010196C2
:100A8000A11DB11D8093A0019093A101A093A2018B
:100A9000B093A301BF91AF919F918F913F912F91FF
:100AA0000F900FBE0F901F9018951F920F920FB6C8
:100AB0000F9211242F933F934F935F936F937F93E4
:100AC0008F939F93AF93BF93EF93FF9384EA91E04B
:100AD0000E94B102FF91EF91BF91AF919F918F91D1
:100AE0007F916F915F914F913F912F910F900FBE2A
:100AF0000F901F9018951F920F920FB60F9211240E
:100B00002F938F939F93EF93FF93E091B401F09114
:100B1000B5018081E091BA01F091BB0182FD12C064
:100B200090818091BD018F5F8F732091BE018217EC
:100B300051F0E091BD01F0E0EC55FE4F958F8093B0
:100B4000BD0101C08081FF91EF919F918F912F9105
:100B50000F900FBE0F901F901895E4EAF1E01382FA
:100B6000128288EE93E0A0E0B0E084839583A683B0
:100B7000B7838AE091E09183808385EC90E095874C
:100B8000848784EC90E09787868780EC90E0918B57
:100B9000808B81EC90E0938B828B82EC90E0958B44
:100BA000848B86EC90E0978B868B118E128E138E41
:100BB000148EE1E4F2E089E090E0918380838AE0A2
:100BC00090E093838283168280E28783108685E09B
:100BD000868785E090E0A0E0B0E0848B958BA68BC3
:100BE000B78B11860895789484B5826084BD84B5EE
:100BF000816084BD85B5826085BD85B5816085BD18
:100C000080916E00816080936E00109281008091CF
:100C10008100826080938100809181008160809357
:100C20008100809180008160809380008091B1007C
:100C300084608093B1008091B00081608093B000A7
:100C400080917A00846080937A0080917A0082603B
:100C500080937A0080917A00816080937A008091FD
:100C60007A00806880937A001092C100E091B4010C
:100C7000F091B50182E08083E091B001F091B10183
:100C80001082E091B201F091B30187E0808310926D
:100C9000BC01E091B801F091B90186E08083E09158
:100CA000B601F091B701808180618083E091B60147
:100CB000F091B701808188608083E091B601F09166
:100CC000B701808180688083E091B601F091B7011F
:100CD00080818F7D808360E070E087E294E00E94F5
:100CE000BA08CCECD1E0FE016491611110C00E9401
:100CF0007102809141029091420220914302309111
:100D000044028217930759F00E945A0108C084EAEE
:100D100091E00E94D2022196892B29F7E8CF809199
:100D200043029091440220914102309142022817DF
:100D3000390711F00E945A01CFB7F89480911C0135
:100D4000811124C0E7E1F2E08491EBE2F2E09491BA
:100D5000E82FF0E0EE0FFF1FED5FFD4FA591B4917E
:100D6000EC91E92321F461E08AE00E9479018AE0B4
:100D70000E945A018CB580618CBD8CB580648CBD9D
:100D80008DE00E945A018BE00E945A0180911C0163
:100D90008F5F80931C01CFBF8091410290914202EE
:100DA00020914302309144028217930719F060E0CA
:100DB0000E94790181E00E94D1010E9410026CE042
:100DC00080E00E946E036FE584E00E946E0386E07F
:100DD0000E944C03877DC82FC0628BE990E0A0E0A1
:100DE000B0E08093510290935202A0935302B093CB
:100DF00054026C2F86E00E946E0386E00E944C0332
:100E0000C81709F4B3C186E00E944C0386E00E9433
:100E10004C0345E550E060E070E040935102509390
:100E200052026093530270935402682F677D86E0EC
:100E30000E946E0386E00E944C0380E00E94D10174
:100E400080E50E94450383E70E94450381E00E94FC
:100E5000D10160E08DE10E946E0360E08CE10E94B0
:100E60006E031092490260E787E00E946E036CE413
:100E700085E00E946E0382EE0E945F0381EE0E9475
:100E80005F030E94BF0380E00E944C03682F6E7FC7
:100E900080E00E946E0360E081E00E946E030E9489
:100EA000CC030E9485038FEF0E945F03282F30E060
:100EB000982F91701F929F93359527952770332710
:100EC0003F932F9384FB992790F91F929F9385FB63
:100ED000992790F91F929F9386FB992790F91F926B
:100EE0009F931F928F9384EC90E09F938F930E9427
:100EF000050942E06AE08FEB91E00E946B0444E058
:100F00006CE082EB91E00E94330441E060E189EA09
:100F100091E00E946B0446E061E18EE991E00E945D
:100F2000330441E061E087E991E00E94330441E04D
:100F300062E08DE891E00E94330441E065E086E8DC
:100F400091E00E94330441E066E08DE791E00E9469
:100F5000330441E060E085E791E00E94330442E021
:100F60006CE187E691E00E94330486E00E944C0326
:100F700088722DB73EB7225F3F4F0FB6F8943EBF41
:100F80000FBE2DBF803241F021E090E0883009F0A3
:100F900020E0E22FF92F02C0E2E0F0E0EE0FFF1FA9
:100FA000EF59FE4F859194919F938F938FE491E039
:100FB0009F938F930E940509E0914702F0E0EE0FA6
:100FC000FF1FE55BFE4F859194919F938F938CE378
:100FD00091E09F938F930E94050980E00E944C034B
:100FE000C82F81E00E944C03EDB7FEB738960FB6CC
:100FF000F894FEBF0FBEEDBFC3FD02C0882329F0E9
:10100000C2FD06C0E1E0F0E005C0E0E0F0E002C0B3
:10101000E2E0F0E0EE0FFF1FEA5CFE4F8591949155
:101020009F938F9383E291E09F938F930E94050992
:1010300086E00E944C038670E82FF0E0E55EFE4FEC
:10104000859194919F938F938AE091E09F938F93E2
:101050000E9405092DB73EB7285F3F4F0FB6F894A1
:101060003EBF0FBE2DBFC0E0D0E009E111E0CE01D0
:1010700054E0959587955A95E1F79F938F931F9329
:101080000F930E94420D21960F900F900F900F909A
:10109000CE37D10561F70E947102C0E0D0E009E1CE
:1010A00011E0CE018F7099279F938F931F930F9319
:1010B0000E94420D21960F900F900F900F90CE3707
:1010C000D10579F70E9471022DE1E22E21E0F22E86
:1010D0003EE7A32E4BEFC42EDD24D39409E111E0AB
:1010E000F7012A2D11922A95E9F795E6892E912C80
:1010F00031E0831A9108F1F0CAE9D1E08DE7B82E0A
:101100006B2D85E00E946E030E94CC03C6010197FF
:10111000F1F70E94850389E00E944C0380FD06C020
:10112000BA9421978FEFB812EBCFE2CF88818F5F0F
:101130008883F6CFCDE1D1E08991803110F490E041
:1011400002C08FE090E09F938F931F930F930E94B4
:10115000420D0F900F900F900F9091E0CB39D9076F
:1011600059F70E9471020E943B03BACF81E080933D
:10117000470249CE0F931F93CF93DF93009731F42B
:101180006115710519F480E090E03AC08B01EC0123
:101190006EE070E081E090E00E940C0BFC01892B76
:1011A00091F380E883830115110571F0138702879D
:1011B00081E883838091590290915A02892B21F40E
:1011C000F0935A02E09359022097C9F0D187C08763
:1011D00083818260838380915B0290915C02892B82
:1011E00071F4F0935C02E0935B0280915D02909158
:1011F0005E02892B21F4F0935E02E0935D02CF0141
:10120000DF91CF911F910F910895A0E0B0E0EBE046
:10121000F9E00C940E0DAE01495F5F4FDA016D915C
:101220007D91AD0109E512E0F80182819381DC0135
:1012300013962C911397286013962C930E942B09D8
:10124000D8011296ED91FC9113972381277F238378
:10125000E4E00C942A0DABE0B0E0E1E3F9E00C949B
:10126000000D6C017B018A01FC01178216828381CB
:1012700081FFCCC1CE0101963C01F6019381F701BB
:1012800093FD859193FF81917F01882309F4BAC171
:10129000853239F493FD859193FF81917F018532E9
:1012A00029F4B60190E00E94660CE7CF912C212C26
:1012B000312CFFE1F315D8F08B3279F038F480321D
:1012C00079F08332A1F4232D20611DC08D3261F0AD
:1012D000803369F4232D216016C0832D8260382E5F
:1012E000E32DE4603E2E2AC0F32DF8601DC037FCCC
:1012F0002DC020ED280F2A3040F08E32B9F436FC94
:1013000081C1232D2064322E19C036FE06C08AE02A
:10131000989E200D1124922E11C0EAE02E9E200DE1
:101320001124222EF32DF0623F2E08C08C3621F4BA
:10133000832D8068382E02C0883641F4F70193FD72
:10134000859193FF81917F018111B3CF982F9F7D6C
:101350009554933028F40C5F1F4F9FE399830DC081
:10136000833631F0833771F0833509F059C021C0DD
:10137000F801808189830E5F1F4F88248394912C0C
:10138000530113C02801F2E04F0E511CF801A08058
:10139000B18036FE03C0692D70E002C06FEF7FEFB1
:1013A000C5010E945B0C4C018201F32DFF773F2E9B
:1013B00016C0280122E0420E511CF801A080B18025
:1013C00036FE03C0692D70E002C06FEF7FEFC501EC
:1013D0000E94490C4C01F32DF0683F2E820133FC32
:1013E0001BC0822D90E088169906B0F4B60180E209
:1013F00090E00E94660C2A94F4CFF50137FC8591A9
:1014000037FE81915F01B60190E00E94660C2110C9
:101410002A9421E0821A91088114910471F7E8C09E
:10142000843611F0893641F5F80137FE07C0608136
:101430007181828193810C5F1F4F08C0608171812F
:10144000072E000C880B990B0E5F1F4FF32DFF76B4
:101450003F2E97FF09C090958095709561957F4FBD
:101460008F4F9F4FF0683F2E2AE030E0A3010E948B
:10147000A20C882E861845C0853731F4232D2F7E87
:10148000B22E2AE030E025C0932D997FB92E8F36F9
:10149000C1F018F4883579F0B5C0803719F0883775
:1014A00021F0B0C0E92FE061BE2EB4FE0DC0FB2DCF
:1014B000F460BF2E09C034FE0AC0292F2660B22E68
:1014C00006C028E030E005C020E130E002C020E1A5
:1014D00032E0F801B7FE07C060817181828193819B
:1014E0000C5F1F4F06C06081718180E090E00E5F4D
:1014F0001F4FA3010E94A20C882E8618FB2DFF7798
:101500003F2E36FE0DC0232D2E7FA22E891458F4B7
:1015100034FE0BC032FC09C0832D8E7EA82E05C080
:10152000B82CA32C03C0B82C01C0B92CA4FE0FC04A
:10153000FE01E80DF11D8081803321F49A2D997E02
:10154000A92E09C0A2FE06C0B394B39404C08A2D8C
:10155000867809F0B394A3FC11C0A0FE06C0B214B3
:1015600088F4280C922C9B180EC0B21460F4B601BB
:1015700080E290E00E94660CB394F7CFB21418F4A6
:101580002B1802C0982C212CA4FE10C0B60180E3B9
:1015900090E00E94660CA2FE17C0A1FC03C088E781
:1015A00090E002C088E590E0B6010CC08A2D8678F4
:1015B00059F0A1FE02C08BE201C080E2A7FC8DE2DF
:1015C000B60190E00E94660C891438F4B60180E3FD
:1015D00090E00E94660C9A94F7CF8A94F301E80D8C
:1015E000F11D8081B60190E00E94660C8110F5CF5C
:1015F000222009F442CEB60180E290E00E94660CFF
:101600002A94F6CFF6018681978102C08FEF9FEF73
:101610002B96E2E10C941C0D0F931F93CF93DF9355
:10162000869F8001879F100D969F100D1124C80181
:101630000E94280BEC01009729F0A80160E070E0FF
:101640000E94540CCE01DF91CF911F910F9108950C
:101650000F931F93CF93DF938230910510F482E0B4
:1016600090E0E0916102F091620220E030E0A0E0C1
:10167000B0E0309719F14081518102811381481700
:101680005907C8F08417950769F4109731F012963E
:101690000C93129713961C9327C00093610210932A
:1016A000620222C02115310519F04217530718F4C0
:1016B0009A01BD01EF01DF01F801DBCF21153105F2
:1016C000F9F0281B390B2430310580F48A819B8185
:1016D0006115710521F0FB019383828304C090930F
:1016E000620280936102FE01329644C0FE01E20F65
:1016F000F31F8193919322503109398328833AC093
:1017000020915F0230916002232B41F4209102016D
:10171000309103013093600220935F022091000119
:10172000309101012115310541F42DB73EB74091AB
:10173000040150910501241B350BE0915F02F091EB
:101740006002E217F307A0F42E1B3F0B281739079E
:1017500078F0AC014E5F5F4F2417350748F04E0F0D
:101760005F1F5093600240935F028193919302C088
:10177000E0E0F0E0CF01DF91CF911F910F9108954C
:10178000CF93DF93009709F481C0FC013297138255
:101790001282A0916102B0916202109781F42081BF
:1017A0003181820F931F20915F02309160022817D0
:1017B000390751F5F0936002E0935F0267C0ED01D5
:1017C00020E030E0CE17DF0740F44A815B819E01C4
:1017D00041155105F1F0EA01F5CFD383C283408171
:1017E0005181840F951FC817D90759F488819981B1
:1017F000840F951F0296918380838A819B819383B6
:1018000082832115310529F4F0936202E09361028D
:101810003DC0E901FB83EA8349915991C40FD51F6B
:10182000EC17FD0761F480819181840F951F02966A
:10183000E90199838883828193819B838A83E0E095
:10184000F0E012968D919C911397009719F0FD018D
:10185000DC01F7CF8D919C9111979D012E5F3F4F39
:10186000820F931F20915F02309160022817390781
:1018700069F4309729F4109262021092610202C05A
:1018800013821282B0936002A0935F02DF91CF9126
:101890000895FC010590615070400110D8F78095C3
:1018A00090958E0F9F1F0895DC0101C06D934150EC
:1018B0005040E0F70895FC01615070400190011024
:1018C000D8F7809590958E0F9F1F08950F931F93C3
:1018D000CF93DF93FB01238121FD03C08FEF9FEFA7
:1018E0002CC022FF16C046815781248135814217C2
:1018F000530744F4A081B1819D012F5F3F4F318395
:1019000020838C93268137812F5F3F4F3783268337
:1019100014C08B01EC01FB010084F185E02D0995D9
:10192000892BE1F6D80116968D919C911797019617
:1019300017969C938E931697CE01DF91CF911F91AE
:101940000F910895FA01AA27283051F1203181F131
:10195000E8946F936E7F6E5F7F4F8F4F9F4FAF4FB7
:10196000B1E03ED0B4E03CD0670F781F891F9A1FCA
:10197000A11D680F791F8A1F911DA11D6A0F711D7E
:10198000811D911DA11D20D009F468943F912AE08A
:10199000269F11243019305D3193DEF6CF01089572
:1019A000462F4770405D4193B3E00FD0C9F7F6CFA3
:1019B000462F4F70405D4A3318F0495D31FD40526B
:1019C000419302D0A9F7EACFB4E0A6959795879501
:1019D00077956795BA95C9F70097610571050895E0
:1019E0009B01AC010A2E069457954795379527958C
:1019F000BA95C9F7620F731F841F951FA01D089524
:101A00002F923F924F925F926F927F928F929F920E
:101A1000AF92BF92CF92DF92EF92FF920F931F93FC
:101A2000CF93DF93CDB7DEB7CA1BDB0B0FB6F894AD
:101A3000DEBF0FBECDBF09942A88398848885F84ED
:101A40006E847D848C849B84AA84B984C884DF805E
:101A5000EE80FD800C811B81AA81B981CE0FD11D42
:101A60000FB6F894DEBF0FBECDBFED010895EE0FA7
:101A7000FF1F0590F491E02D099481E090E0F89427
:101A80000C94580DA0E0B0E0E8E4FDE00C94100DDB
:101A9000AE014B5F5F4FFA0161917191AF0180918F
:101AA0005B0290915C020E942B09E2E00C942C0DE9
:041AB000F894FFCFD8
:101AB40000006302800000000000D20247029B0283
:0C1AC40079028D0219030D0A002578003C
:00000001FF
