:100000000C942F020C9460020C9460020C94600219
:100010000C9460020C9460020C9460020C946002D8
:100020000C9460020C9460020C9460020C946002C8
:100030000C9460020C9460020C9460020C946002B8
:100040000C9460020C9460020C9460020C946002A8
:100050000C9460020C9460020C9460020C94770C77
:100060000C9460020C9460020C9460020C94600288
:100070000C9460020C9460020C9460020C94600278
:100080000C9460020C9460020C9460020C94600268
:100090000C9460020C9460020C9460020C94C10CED
:1000A0000C9460020C9460020C9460020C94600248
:1000B0000C9460020C9460020C9460020C94600238
:1000C0000C9460020C9460020C9460020C94600228
:1000D0000C9460020C9460020C9460020C94600218
:1000E0000C9460020C9440040C9467050C94E10D90
:1000F0000C9409040C9438030C94D1030C941C0345
:100100000C9413030C94EB030C9490140C941603AE
:100110000C9462020C94B3040C944A040C942003D3
:100120000C94930B0C9407030C94FF030C94DB03C7
:100130000C94F5020C9434030C9446030C94E303E2
:100140000C94C7140C9422040C943C030C943604B5
:100150000C94CA140C9426030C9427050C94C70322
:100160000C94F5030C942A030C948D140C94B10395
:100170000C94BF160C94B8030C94F0020C940F036B
:100180000C9442030C94B8160C940B030C941805B1
:100190000C94E0040C94BA160C943A050C941804D0
:1001A0000C947F120C942E030C942C040C948A143F
:1001B0000C94BD030C94BD161F1C1F1E1F1E1F1F79
:1001C0001E1F1E1F4F4B0074656D70002020484C91
:1001D00043003A004400005EBCE2613FDD83C29C04
:1001E0007E20A3FD1F419DC3217FFCA2401E5F0115
:1001F000E3BD3E6082DC237D9FC1421CFEA0E1BFC7
:100200005D0380DE3C62BEE0025CDF81633D7C22F8
:10021000C09E1D43A1FF4618FAA427799BC584DA26
:100220003866E5BB5907DB856739BAE406581947D4
:10023000A5FB7826C49A653BD987045AB8E6A7F986
:100240001B45C6987A24F8A6441A99C7257B3A64B8
:1002500086D85B05E7B98CD2306EEDB3510F4E10E6
:10026000F2AC2F7193CD114FADF3702ECC92D38D94
:100270006F31B2EC0E50AFF1134DCE90722C6D3346
:10028000D18F0C52B0EE326C8ED0530DEFB1F0AE78
:100290004C1291CF2D73CA947628ABF517490856A6
:1002A000B4EA6937D58B5709EBB536688AD495CB54
:1002B0002977F4AA4816E9B7550B88D6346A2B7506
:1002C00097C94A14F6A8742AC896154BA9F7B6E838
:1002D0000A54D7896B35636F6E74726F6C6C65727C
:1002E000004249524420484F55534500534156451A
:1002F0000053415645440073656C65637420746F08
:1003000020736176650073657420646179004D45E2
:100310004E55006572002020202020002020202043
:10032000200030002020003000202000202000008D
:10033000002100240027002A002D00300033000196
:10034000010000040107010A010000220025002825
:10035000002B002E003100340002010000050108CE
:10036000010B01000302050003050104060204005D
:10037000000A0B02090C0D0E08070304010000001F
:10038000000000000000000000000000000000006D
:10039000000000000000000000000012111000002A
:1003A000000000000000000000000000000000004D
:1003B0000000000000000020002300260029002C7F
:1003C000002F0032000001000003010601090105B1
:1003D000050505070508080808020202020A0A08BE
:1003E00008040404040101010101010101030303E4
:1003F0000303030303040707070C0C0C0C0C0C0C81
:100400000C0202020206060606060606060B0B0B87
:100410000B0B0B0B0B0102102020080810204010C2
:1004200020408002010201080402010102040810B8
:1004300020408080402010080402018004020180D6
:1004400040201008040201080402010102040810FF
:10045000204080010204081020408000E10D11249A
:100460001FBECFEFD1E2DEBFCDBF00E00CBF15E075
:10047000A0E0B2E0E4E9F2E300E00BBF02C00790C5
:100480000D92A43EB107D9F727E0A4EEB5E001C074
:100490001D92A831B207E1F712E0CFE2D2E000E00E
:1004A00006C021970109802FFE010E942619CE3235
:1004B000D10780E00807A9F70E94590E0C9448194B
:1004C0000C94000008952091D20681E0213208F0BA
:1004D00044C08091AE068111FCCF8091D10692E09C
:1004E0009093AE0691E09093AD069FEF9093AC068B
:1004F0001092AB062093AA06A1EBB6E0EAE8F6E07C
:1005000090E0291331C01092890690918906880FD6
:10051000892B8093890680918806813049F5109255
:100520008806809189068093BB008091BC0083FD82
:10053000F8CF85EC8093BC008091AE068230E1F369
:100540008091AC068F3FB1F08091AC068032A1F073
:100550008091AC06803391F084E01092B006109246
:10056000D2061092AF0608953D9131939F5FC9CF97
:1005700085EEE0CF80E0F1CF82E0EFCF83E0EDCFFA
:10058000282F30E0F901E159FC4F9491F901EB5E1D
:10059000FB4F449121533C4FF9012491222309F44C
:1005A00035C0992311F191509231F8F4E92FF0E020
:1005B0008827E252FD4F8F4F0C9426190F03130327
:1005C000F00207030B03F50216031C0320032603A6
:1005D0002A032E0334033803F5023C034203460387
:1005E000809180008F7780938000E22FF0E0EE0F03
:1005F000FF1FE75BFC4FA591B4918FB7F894EC9186
:10060000611148C040954E234C938FBF089580914F
:1006100080008F7DE8CF80918000877FE4CF84B514
:100620008F7784BDE2CF84B58F7DFBCF8091B00002
:100630008F778093B000D9CF8091B0008F7DF9CFB4
:10064000809190008F7780939000CFCF8091900021
:100650008F7DF9CF80919000877FF5CF8091A000AA
:100660008F778093A000C1CF8091A0008F7DF9CFBC
:100670008091A000877FF5CF809120018F778093B4
:100680002001B3CF809120018F7DF9CF809120018F
:10069000877FF5CF4E2BB8CFCF93DF9390E0FC014F
:1006A000EB5EFB4F249181539C4FFC018491882386
:1006B000D1F090E0880F991FFC01E15DFC4FA591FE
:1006C000B491FC01E75BFC4FC591D49161110EC060
:1006D0009FB7F8948C91E22FE0958E238C9328811C
:1006E000E223E8839FBFDF91CF9108958FB7F894FD
:1006F000EC91E22BEC938FBFF6CFCF93DF93EC011D
:1007000061E08AE00E944C03209731F460E08AE0C7
:10071000DF91CF910C94C002CF3FD10511F461E07D
:10072000F6CFE9E7F3E0E491E150E23108F0B2C03E
:10073000F0E08827E156FC4F8F4F0C942619B10347
:10074000B803BD03C703D1034A04DB03E303EB0390
:10075000F503FF030904180422044A042C04360498
:10076000400484B5806884BDC7BDDF91CF910895F2
:1007700084B5806284BDC8BDF8CF80918000806858
:1007800080938000D0938900C0938800EECF809141
:100790008000806280938000D0938B00C0938A0099
:1007A000E4CF80918000886080938000D0938D009A
:1007B000C0938C00DACF8091B00080688093B00045
:1007C000C093B300D2CF8091B00080628093B0001C
:1007D000C093B400CACF809190008068809390004D
:1007E000D0939900C0939800C0CF80919000806210
:1007F00080939000D0939B00C0939A00B6CF8091D5
:100800009000886080939000D0939D00C0939C00DE
:10081000ACCF8091A00080688093A0008091A00060
:100820008F7B8093A000D093A900C093A8009DCF98
:100830008091A00080628093A000D093AB00C09311
:10084000AA0093CF8091A00088608093A000D093ED
:10085000AD00C093AC0089CF809120018068809367
:100860002001D0932901C09328017FCF80912001DE
:10087000806280932001D0932B01C0932A0175CF11
:1008800080912001886080932001D0932D01C09336
:100890002C016BCFC038D1050CF041CF37CF3FB71B
:1008A000F8948091560690915706A0915806B09101
:1008B000590626B5A89B05C02F3F19F00196A11D2A
:1008C000B11D3FBFBA2FA92F982F8827BC01CD019A
:1008D000620F711D811D911D42E0660F771F881FF9
:1008E000991F4A95D1F708958F929F92AF92BF9228
:1008F000CF92DF92EF92FF926B017C010E944F0436
:100900004B015C01C114D104E104F104B9F00E946F
:100910004F04681979098A099B09683E734081056B
:10092000910580F321E0C21AD108E108F10888EEB0
:10093000880E83E0981EA11CB11CE4CFFF90EF90BD
:10094000DF90CF90BF90AF909F908F9008952FB77A
:10095000F8946091520670915306809154069091DC
:1009600055062FBF0895AF92BF92CF92DF92EF92BC
:10097000FF920F931F93CF93DF936C017B018B0149
:10098000040F151FEB015E01AE18BF08C017D10799
:1009900059F06991D601ED91FC910190F081E02D23
:1009A000C6011995892B79F7C501DF91CF911F9168
:1009B0000F91FF90EF90DF90CF90BF90AF90089590
:1009C0008091660690916706891B990B089585EDC5
:1009D0008093BC008091BC0084FDFCCF1092AE06D9
:1009E000089520911006260F3327331F2132310539
:1009F000ECF42091AE06FC0190E080E0243069F038
:100A000082E00895A09110062191AC0140515A4F07
:100A1000A40FB52FB11D2C930196861798F38091E2
:100A20001006680F6093100680E0089581E0089535
:100A3000E091670680916606E81730F4F0E0E85927
:100A4000F94F808190E008958FEF9FEF0895909186
:100A50006706809166062FEF3FEF981748F4E92F5D
:100A6000F0E0E859F94F208130E09F5F90936706EE
:100A7000C9010895CF92DF92EF92FF920F931F93D7
:100A8000CF93DF937C01CB018A012091AF06222313
:100A900089F0EB016B01C40ED51ECC15DD0569F0A4
:100AA0006991D701ED91FC910190F081E02DC70192
:100AB0001995F3CF642F0E94F104C801DF91CF9103
:100AC0001F910F91FF90EF90DF90CF900895CF93FB
:100AD000DF931F92CDB7DEB769832091AF06222343
:100AE000F9F02091D206203258F021E030E0FC01EC
:100AF0003383228390E080E00F90DF91CF910895BF
:100B00008091B006E82FF0E0EF54F94F998190837F
:100B10008F5F8093B0068093D20681E090E0ECCFA7
:100B200061E0CE0101960E94F104F7CFCF92DF92EF
:100B3000EF92FF920F931F93CF93DF93EC01F62E6A
:100B4000D42EC22E81E08093AF0688E68093D10632
:100B50001092B0061092D20660E083ED96E00E94FB
:100B600067051AE08E2D612F0E94D0188295807F34
:100B7000682F690F83ED96E00E946705802F612F33
:100B80000E94D0188295807F682F690F83ED96E0D0
:100B90000E9467058C2D612F0E94D0188295807F5E
:100BA000682F690F83ED96E00E94670581E090E071
:100BB00022E02F1510F490E080E08E01081B190B45
:100BC0008F2D8150990BFC01ED59FC4FE491980158
:100BD0002D0D311DC8019695879596958795280FFF
:100BE000391FC80160E971E00E94DC18260F371F29
:100BF000C80164E670E00E94DC18C901861B970BEF
:100C00008E0F911D67E070E00E94DC18682F811143
:100C100001C067E083ED96E00E946705DAE08D2D64
:100C20006D2F0E94D0188295807F682F690F83ED09
:100C300096E00E9467058F2D6D2F0E94D018829537
:100C4000807F682F690F83ED96E00E9467058C2FE7
:100C5000805D6D2F0E94D0188295807F682F690F6C
:100C600083ED96E00E94670560E083ED96E00E94C8
:100C70006705DF91CF911F910F91FF90EF90DF906B
:100C8000CF900C946302DC0180E0615038F0ED916C
:100C9000E827F0E0EA52FE4F8491F7CF0895DC0197
:100CA0002C911196ED91FC91F8948181822B818396
:100CB0009281322F30959323928387E090E00197C1
:100CC000F1F781818323818383E290E00197F1F73B
:100CD00090817894EFECF0E03197F1F7922381E086
:100CE00009F480E00895FC0190810180F281E02DFB
:100CF000292F209560FF14C0F8948281822382837B
:100D00008181892B8183A3E2B0E01197F1F7828181
:100D1000982B9283789487ED90E00197F1F70895EE
:100D2000F8948281822382838181892B8183AFEF32
:100D3000B0E01197F1F78281982B928378948FE03D
:100D400090E0EBCFDF92EF92FF920F931F93CF9340
:100D5000DF93EC01D62EE42E08E010E0FF24F3949C
:100D600061E08D2D8F2109F460E0CE010E947306B1
:100D7000FF0C01501109A1F7E11010C0F894E981AE
:100D8000FA8191818881809589238183E981FA8123
:100D9000928188818095892382837894DF91CF9195
:100DA0001F910F91FF90EF90DF900895EF92FF92C7
:100DB0000F931F93CF93DF938C017B0140E065E598
:100DC0000E94A206E70188E0E80EF11C699140E06C
:100DD000C8010E94A206CE15DF05C1F7DF91CF91B1
:100DE0001F910F91FF90EF900895FC019081018079
:100DF000F281E02DF8948181292F2095822381832F
:100E000078943DE743E050E0315029F1DA01119741
:100E1000F1F780818923C1F3F89482818223828350
:100E20008181892B81837894ABE7B7E01197F1F743
:100E3000F894818182238183A3E1B1E01197F1F7D6
:100E40008081982381E009F080E07894E3E6F6E081
:100E50003197F1F7089580E00895AF92BF92CF9255
:100E6000DF92EF92FF920F931F93CF93DF938B014B
:100E7000BC018091E4069091E5060E94D60640E010
:100E80006EEB8091E4069091E5060E94A206E801CF
:100E9000680189E0C80ED11CA090E406B090E50678
:100EA00088E0E82EF12C10E001E0C5010E944F0619
:100EB0008111102B000F81E0E81AF108B1F71993A6
:100EC000CC16DD0649F78091E4069091E5060E9474
:100ED000F50691E0813009F090E0892FDF91CF9104
:100EE0001F910F91FF90EF90DF90CF90BF90AF9048
:100EF00008950F931F93CF93DF9300D000D000D0BD
:100F0000CDB7DEB78C018091E4069091E5060E9492
:100F1000F506811102C080E01FC0BE016F5F7F4FE8
:100F2000C8010E942D078823B1F368E0CE01019625
:100F30000E94430699858913EECF8D818F33B9F0D6
:100F400020F48F3141F789E007C08F3521F08F37CA
:100F500011F78CE001C08BE029960FB6F894DEBF44
:100F60000FBECDBFDF91CF911F910F9108958AE001
:100F7000F3CF80917B00877F80937B0080E4809318
:100F80007C0080917A00806480937A0080917A005E
:100F900086FDFCCF8091780020917900322F282F98
:100FA000233431058CF02D3D310584F02C3881E05F
:100FB000380774F02A3592E0390764F081E0293669
:100FC00033404CF080E0089585E0089584E0089572
:100FD00083E0089582E00895FC0101900020E9F784
:100FE0003197AF01481B590BBC0180E097E00C948E
:100FF000B3048F929F92AF92BF920F931F93CF93A0
:10100000DF93CDB7DEB7A1970FB6F894DEBF0FBE62
:10101000CDBF19A2423008F44AE08E010F5D1F4F88
:10102000842E912CB12CA12CA50194010E940419AD
:10103000E62FB901CA01EA30F4F4E05DD801EE937D
:101040008D01232B242B252B79F790E080E010973E
:1010500019F0CD010E94EC07A1960FB6F894DEBFFF
:101060000FBECDBFDF91CF911F910F91BF90AF9079
:101070009F908F900895E95CE1CFBF92CF92DF926D
:10108000EF92FF920F931F93CF93DF93EC01B62E55
:10109000C72EED84E11004C00E94F50681110EC038
:1010A0001B861D861C8680E0DF91CF911F910F91DA
:1010B000FF90EF90DF90CF90BF90089540E060EFF9
:1010C000CE010E94A206D12C01E011E0CE010E94C7
:1010D0004F06F82ECE010E944F0691E0F91218C07B
:1010E000813099F51134E0F2EB86E11002C081E025
:1010F0008D878B818823A1F22396EB2DFC2DCF01C8
:10110000089629912193E817F907D9F781E0CCCF08
:10111000ED2DF0E0F8120FC08B851817A0F4DE015A
:10112000AE0FBF1F13968C91802379F4F12C1930E8
:1011300008F41C87E12EEC0FFD1F8381902F909502
:10114000892383830AC08113F1CFFE01ED0DF11DC8
:101150008381802B8383FF24F3946F2DCE010E9423
:1011600073061F5F000F11F4D39401E087E08D1523
:1011700008F0ACCFB7CF9091AE069111FCCF282FDD
:1011800091E09093AE069093AD063FEF3093AC069E
:101190001092AB06380F3093AA069093890690916F
:1011A0008906906D9093890690918806913019F583
:1011B00010928806909189069093BB009091BC0094
:1011C00093FDF8CF95EC9093BC009091AE069130D2
:1011D000E1F39091AB06981710F42091AB06AAE8C2
:1011E000B6E0E8E6F6E080E0821307C010926706FA
:1011F00080936606089595EEE6CF9D9191938F5F5B
:10120000F3CF3F924F925F926F927F928F929F9215
:10121000AF92BF92CF92DF92EF92FF920F931F9304
:10122000CF93DF93CDB7DEB76A970FB6F894DEBFE2
:101230000FBECDBF81E08093AF0688E68093D106D4
:101240001092B0061092D20660E083ED96E00E9404
:1012500067050E94630287E090E00E94BB089091BE
:101260006606809167069817F1F38E01015F1F4FA4
:10127000CE0101967C015AE0D52E83ED96E00E94C6
:101280002705982F92959F708F709D9D800D11243A
:1012900090E0F801929382938F01EE16FF0669F7B2
:1012A0000E94630289819A814C01F0E38F1AF8EF62
:1012B0009F0A90925B0680925A066B807C80562D26
:1012C00060925C060D811E8100935D062F81209344
:1012D0006106E984FA845E2CE0925E06CB84DC84AD
:1012E0004C2CC0925F06AD84BE843A2CA09260065E
:1012F00011279801E8EBF1E041E0451730F46491E3
:10130000260F311D4F5F3196F8CF523039F4AC01C2
:1013100043705527452B11F42F5F3F4FF401ED5CCF
:10132000F740F695E795F695E7956DE671E0869FAF
:10133000A001879F500D969F500D1124E40FF51FBB
:1013400031972E0F3F1FA8E1B0E00E942E199B019C
:10135000AC01250D311D411D511DACE3B0E00E94D3
:101360003D199B01AC01240D311D411D511D0E94F1
:101370003D19630D711D811D911D60597A4C824983
:10138000974C609362067093630680936406909313
:1013900065068CE0EAE5F6E0DE011F9601900D920D
:1013A0008A95E1F78CE0FE013F96A4EEB5E001904E
:1013B0000D928A95E1F7BB24B0923406A0923306D1
:1013C000DD24D0921A02C0921902FF24F0923B064B
:1013D000E0923A0610934B0600934A0677247092E7
:1013E00036066092350690923806809237066A96E5
:1013F0000FB6F894DEBF0FBECDBFDF91CF911F9126
:101400000F91FF90EF90DF90CF90BF90AF909F90A3
:101410008F907F906F905F904F903F900895809154
:10142000E4069091E5060E94F50640E06CEC8091A0
:10143000E4069091E5060E94A2064091DF0664E46E
:101440008091E4069091E5060E94A2068091E10653
:101450008823A1F0E091E006E9506EEE72E0E330FF
:1014600038F4F0E0EE0FFF1FE954FA4F608171810C
:10147000072E000C880B990B0C9474040895CF93DD
:10148000DF93EC0160E08E810E94C00261E08E81FA
:101490000E94C00260E08E810E94C0028BE891E051
:1014A0000197F1F7DF91CF910895CF92DF92EF92FC
:1014B000FF920F931F93CF93DF936C017C0187E022
:1014C000E80EF11CD0E0C0E0062F10E0B8010C2EB1
:1014D00002C0759567950A94E2F76170F7018191F2
:1014E0007F010E94C0022196C430D10579F7C60160
:1014F000DF91CF911F910F91FF90EF90DF90CF90F0
:101500000C943F0ACF92DF92EF92FF920F931F93BA
:10151000CF93DF93EC01F62E642F8C810E94C002E2
:101520008D818F3F19F060E00E94C0020F2D10E006
:101530008F8584FF25C06E0187E0C80ED11CF12C79
:10154000E12CB8010E2C02C0759567950A94E2F75C
:101550006170F60181916F010E94C002FFEFEF1AE6
:10156000FF0A88E0E816F10461F7CE01DF91CF9120
:101570001F910F91FF90EF90DF90CF900C943F0A56
:10158000B80184E0759567958A95E1F7CE010E94D0
:10159000550A6F2DCE01DF91CF911F910F91FF90D2
:1015A000EF90DF90CF900C94550A40E0682F80E0D8
:1015B00097E00C94820A81E00E94D50A8BE39FE1B8
:1015C0000197F1F70895CF93DF93823029F490913A
:1015D0000F07986090930F078093130710921407DA
:1015E00080E48093150780E18093160780E580935F
:1015F000170761E0809104070E944C038091050762
:101600008F3F19F061E00E944C0361E08091060772
:101610000E944C03C0E0D7E09E01205037408091EB
:101620000F0784FD0BC084E090E02196281739074E
:1016300044F461E08E810E944C03EECF88E090E09C
:10164000F4CF8BE39DE00197F1F760E08091040710
:101650000E94C00260E0809106070E94C002809153
:1016600005078F3F19F060E00E94C00280910F07CC
:1016700084FD34C063E080E097E00E94550ACBE42B
:10168000D6E4CE010197F1F763E080E097E00E9495
:10169000550A2197F1F763E080E097E00E94550A30
:1016A00083E592E00197F1F762E080E097E00E9425
:1016B000550A80910F0780620E94D50A84E08093CA
:1016C00010078CE00E94D50A0E94DB0A82E080931A
:1016D000110786E0DF91CF910C94D50A80620E94B9
:1016E000D50A8BE496E40197F1F780910F078062A9
:1016F0000E94D50A83E592E00197F1F780910F07E8
:1017000080620E94D50AD5CF90911307691710F017
:101710006FEF690FE62FF0E0E050F94F9489890FE1
:1017200080680C94D50A41E00E94820A81E090E032
:1017300008950F931F93CF93DF938B0128E0829F2F
:10174000C001112480640E94D50AE801085F1F4F80
:10175000699180E097E00E94930BC017D107C1F711
:10176000DF91CF911F910F910895CF92DF92EF9269
:10177000FF926C01990FEE08FF08F7FE16C041E0DA
:101780006DE280E097E00E94820A66277727CB010E
:101790006C197D098E099F094AE00E94F90701969C
:1017A000FF90EF90DF90CF9008954AE0C701B60117
:1017B000FF90EF90DF90CF900C94F9070F931F9359
:1017C000CF93DF938C01D0E0C0E0F801EC0FFD1F58
:1017D0006491662339F041E080E097E00E94820A3C
:1017E0002196F3CFCE01DF91CF911F910F910895F4
:1017F0000E94DB0A60E080E00E94840B84ED91E0AF
:101800000E94DE0B60E088E00E94840B82ED91E094
:101810000E94DE0B60E08BE00E94840B8CEC91E078
:101820000E94DE0B61E080E00E94840B87EC91E077
:101830000C94DE0BEF92FF920F931F93CF93DF93E5
:101840007C018B01EA010E94DB0A60E080E00E94DB
:10185000840B65E080E097E00E94930B60E082E0FB
:101860000E94840BC7010E94B50B60E085E00E94D6
:10187000840BC8010E94B50B60E088E00E94840BD5
:10188000CE010E94B50B60E08EE00E94840B84ECD8
:1018900091E0DF91CF911F910F91FF90EF900C9409
:1018A000DE0B82E090E00E94E91660914A0670919A
:1018B0004B068617170621F082E090E00C94F11693
:1018C0000895CF93C091260290E080E00E94E9162F
:1018D0002C2F0C2E000C330B8217130631F06C2FBB
:1018E00090E080E0CF910C94F116CF9108951F9273
:1018F0000F920FB60F9211242F933F938F939F93C4
:10190000AF93BF938091520690915306A0915406D5
:10191000B09155063091510623E0230F2D3758F52D
:101920000196A11DB11D20935106809352069093FC
:101930005306A0935406B093550680915606909195
:101940005706A0915806B09159060196A11DB11DE8
:101950008093560690935706A0935806B093590665
:10196000BF91AF919F918F913F912F910F900FBE9B
:101970000F901F90189526E8230F0296A11DB11D08
:10198000D2CF1F920F920FB60F9211240BB60F9267
:101990002F933F934F935F936F937F938F939F9377
:1019A000AF93BF93EF93FF938091B900887F803608
:1019B00009F44DC008F040C0883209F4A7C028F5EA
:1019C000803109F49BC0C8F4882309F4F7C088303B
:1019D00009F494C0FF91EF91BF91AF919F918F91C6
:1019E0007F916F915F914F913F912F910F900BBE1F
:1019F0000F900FBE0F901F901895883109F486C084
:101A0000803241F78093AC0614C0803409F49BC047
:101A100040F48033B9F38833E9F68093AC0685EC63
:101A2000AEC0803509F483C0883509F494C0883489
:101A300089F60E94E704CECF883909F48AC038F5C8
:101A4000883729F050F4883611F0803719F683E092
:101A50008093AE061092320655C0883809F479C0DA
:101A6000803919F0803809F0B5CF80913206803284
:101A700008F06FC0E091320681E08E0F809332064D
:101A80008091BB00F0E0EE5EF94F80833BC0803B6D
:101A900039F0D0F4803A09F477C0883A09F09ACF47
:101AA00084E08093AE061092110610921006F0E0CA
:101AB000E0E019958091100681110FC081E08093BC
:101AC00010061092F00509C0803C09F4A8CF883CAC
:101AD00009F4A5CF883B09F07DCFE091110681E0A4
:101AE0008E0F80931106F0E0E051FA4F80818093D1
:101AF000BB00909111068091100629C08091890643
:101B00008093BB0085EC8093BC0064CF9091AB06C2
:101B10008091AA06981758F5E091AB0681E08E0FE8
:101B20008093AB06F0E0E657F94F8081E9CFE09172
:101B3000AB0681E08E0F8093AB068091BB00F0E096
:101B4000E657F94F80839091AB068091AA069817CB
:101B5000C8F285E8D8CFE091AB0681E08E0F809384
:101B6000AB068091BB00F0E0E657F94F808380918F
:101B7000AD0681115ECF81E08093880684EA809370
:101B8000BC001092AE0626CF85EC8093BC0010926C
:101B9000AE0680913206803230F4E0913206F0E0F9
:101BA000EE5EF94F10826091320670E082E196E0BD
:101BB000F0E0E0E01995109232060CCF1092AC06DE
:101BC00038CFCF93E3EDF6E01382128288EE93E0F4
:101BD000A0E0B0E084839583A683B78381EC95E091
:101BE00091838083E0E0F7E01382128281ED95E03B
:101BF0009183808388E084838FEF8583C9E0C683E7
:101C000084E0878385E0808786E0818787E082871C
:101C10001386148615861686178681E00E94E30ACD
:101C200060E083E00E944C03E8E1F4E0E491A2EF7D
:101C3000B6E0EC93E2EDF3E0E491F0E0EE0FFF1F8D
:101C4000EB54FC4F8591949112969C938E9311972F
:101C50001B961C921B971D961C921D971C961C92FE
:101C60001C971A961C921A9719961C9219971896F7
:101C70001C92189717961C92179716961C921697F7
:101C800015961C92159714961C92149713961C92F5
:101C90001397EFEDF6E082E692E0928B818BB683AC
:101CA000A58314821082C18381E082838383CF91D4
:101CB0000895CF93DF93CDB7DEB761970FB6F89451
:101CC000DEBF0FBECDBF789484B5826084BD84B57D
:101CD000816084BD85B5826085BD85B5816085BD27
:101CE00080916E00816080936E00109281008091DF
:101CF0008100826080938100809181008160809367
:101D00008100809180008160809380008091B1008B
:101D100084608093B1008091B00081608093B000B6
:101D20008091910082608093910080919100816008
:101D300080939100809190008160809390008091C9
:101D4000A10082608093A1008091A10081608093B6
:101D5000A1008091A00081608093A000809121016A
:101D60008260809321018091210181608093210113
:101D70008091200181608093200180917A008460AD
:101D800080937A0080917A00826080937A008091BB
:101D90007A00816080937A0080917A0080688093D5
:101DA0007A001092C10061E087E30E944C0361E079
:101DB00089E30E944C0361E088E30E944C0361E0E8
:101DC00087E30E94C00261E089E30E94C00261E0F3
:101DD00088E30E94C0021092670610926606109275
:101DE000B0061092D2061092AE0611E01093AD0626
:101DF0001092880661E084E10E94C00261E085E102
:101E00000E94C0028091B9008E7F8093B9008091BA
:101E1000B9008D7F8093B90088E48093B80085E491
:101E20008093BC001093AF0688E68093D106109291
:101E3000B0061092D2066EE083ED96E00E94670530
:101E40000E94630281E090E00E94BB0890916606C8
:101E5000809167069817F1F383ED96E00E942705BD
:101E6000082F0E94630211E01093AF061092B00693
:101E70001092D2066EE083ED96E00E946705602F17
:101E80006B7383ED96E00E9467050E94630280ED0C
:101E900097E090935B0680935A0610935C0610932C
:101EA0005D0610925E0610925F061092600686E054
:101EB0008093610680E795E3ADE6B8E38093620620
:101EC00090936306A0936406B093650690E080E06B
:101ED0000E94E916182F8093260260E08AE00E9493
:101EE0004C038FEF90E00E947D0360E172E083E09D
:101EF0000E94990B68E072E084E00E94990B60E018
:101F000072E085E00E94990B68EC70E080E090E060
:101F10000E94740482E00E94E30A68EC70E080E0B2
:101F200090E00E9474040E94DB0A60E083E00E945B
:101F3000840B81EE92E00E94DE0B61E083E00E9460
:101F4000840B86ED92E00E94DE0B68EE73E080E089
:101F500090E00E947404E091E406F091E506138697
:101F600015861486128611861086178216821582AF
:101F7000148213821092E306FF24F394BE016F5F74
:101F80007F4F8091E4069091E5060E943D088823EA
:101F900009F454C067E0CE0101960E94430698857B
:101FA0008913ECCF8091DF06811128C08091E4066F
:101FB0009091E5060E94F506BE016F5F7F4F80910C
:101FC000E4069091E5060E94D60640E064EB80911D
:101FD000E4069091E5060E94A2068091E4069091A5
:101FE000E5060E944F06082F8091E4069091E506D1
:101FF0000E94F506011102C0F092DF060091E00692
:102000008981803109F4E1C6CE0101960E947907E9
:10201000801750F48091E0068093E0068091E306FB
:102020008F5F8093E306AACF8981803111F48CE021
:10203000F3CFCE0101960E947907EECF61E082E0F6
:102040000E944C030E94010982E090E00E94E91680
:1020500080934C0660914A0670914B06082E000C46
:10206000990B8617970709F4D3C082E090E00E948D
:10207000F116809126028F5F809326020E94610CE8
:1020800080914A0680934C060E94F80B22242394E8
:10209000312C6BE3C62ED12C0E94B907182F882350
:1020A00009F451C268EC70E080E090E00E94740492
:1020B000113009F048C283E6809318020E94DB0ABF
:1020C00060E086E00E94840B8EE093E00E94DE0BCD
:1020D00068E873E180E090E00E9474040E94DB0AEB
:1020E00060E080E00E94840B86E093E00E94DE0BBB
:1020F00061E081E00E94840B87EF92E00E94DE0B9A
:1021000048E3F42E01E00E94B907182F882309F450
:102110008EC06CE271E080E090E00E9474041130A7
:1021200009F07EC00E94610C0E94DB0A60E085E03D
:102130000E94840B81EF92E00E94DE0B60ED77E05D
:1021400080E090E00E9474040E94010940913706EB
:1021500050913806609135067091360680914A0696
:1021600090914B060E941A0C61E080E00E94840B63
:1021700064E080E097E00E94930B412C5524539437
:102180003FE1632E712C0E94B9078823E1F381306F
:1021900009F07FC0852D8B7F813009F49FC126E037
:1021A000521699F04AE054129EC0E0903306009116
:1021B000190220913A0640914A06609135068091B5
:1021C0003706909138060E94960510E068EC70E0A2
:1021D00080E090E00E94740468EC70E080E090E0A1
:1021E0000E947404EFEFE50DEA3008F09BC3F0E0C5
:1021F0008827E250FF4E8F4F0C942619B8167F1295
:10220000BA168A148D14BD16BF169014C714CA14BA
:1022100011113ACF81E0809326020E94610C34CFE5
:1022200080912602123061F58150809326028091C0
:10223000260289334CF10093260280912602082E53
:10224000000C990B209118022817190609F45BCF8E
:1022500060E089E00E94840B85ED95E00E94EC0728
:1022600060E089E00E94840B80912602082E000C19
:10227000990B0E94B50B809126028093180243CFE0
:102280001530A9F68F5FD1CF1816BCF2F092260256
:10229000D4CF823069F45A94511002C0552453941B
:1022A00068EC70E080E090E00E94740411E094CF4C
:1022B000833009F08CC051E0551609F40FC182E05B
:1022C000581213C080914A0690914B060197181638
:1022D00019062CF490934B0680934A0604C0709222
:1022E0004B0660924A0611E071CF93E0591214C078
:1022F00080913506909136060197181619062CF430
:102300009093360680933506EECFECE0F0E0F09344
:102310003606E0933506E7CFF4E05F1215C08091F2
:102320003706909138060197803D27E092072CF000
:102330009093380680933706D6CF4EEA58E05093F4
:10234000380640933706CFCF55E0551609F4C6C07E
:1023500086E0581609F439CF97E0591212C08091DF
:102360003A0690913B06019790933B0680933A067C
:1023700097FFB9CFE7E1F0E0F0933B06E0933A0630
:10238000B2CFF8E05F1210C08091190290911A024A
:10239000019790931A028093190297FFA4CFD092CD
:1023A0001A02C09219029FCF29E05212FBCE8091EF
:1023B0003306909134060197909334068093330648
:1023C00097FF91CFD0923406C09233068CCF8430E1
:1023D00009F08AC051E0551207C068EC70E080E057
:1023E00090E00E9474047FCF82E058120EC080916A
:1023F0004A0690914B060196803291050CF46ACF03
:1024000030924B0620924A066ECF93E059120EC0CE
:10241000809135069091360601968D3091050CF429
:102420006FCF30923606209235065DCFE4E05E1223
:102430000DC0809137069091380601968F3AF8E0EA
:102440009F070CF475CF40ED57E079CF55E0551656
:1024500009F444C086E0581609F443C097E05912C5
:1024600011C080913A0690913B06019690933B06ED
:1024700080933A0648970CF436CF10923B061092A0
:102480003A0631CFE8E05E1211C0809119029091B6
:102490001A02019690931A0280931902CC970CF4B9
:1024A00022CF10921A02109219021DCFF9E05F128A
:1024B00011C08091330690913406019690933406B2
:1024C00080933306CC970CF40ECF10923406109202
:1024D000330609CF2AE0521206CF67CE26E0522EED
:1024E00002CF55245394FFCE853009F0DFCE5394AC
:1024F0004AE0451508F0DACE9AE0592ED7CE452CA1
:102500004091370650913806609135067091360635
:1025100080914A0690914B060E941A0C61E0842D2E
:102520000E94840B64E080E097E00E94930B55E0EA
:10253000551205C063E080E097E00E94930B1111F3
:1025400022CE0E94F80B60E082E00E94840B8CE2B5
:1025500093E00E94DE0B60E082E00E94840B809199
:102560002602082E000C990B0E94B50B60E086E055
:102570000E94840B89E293E00E94DE0B60E086E01B
:102580000E94840B00913A0610913B060A30110517
:1025900024F487E293E00E94DE0BC8010E94B50B91
:1025A00060E089E00E94840B84E293E00E94DE0BED
:1025B00060E089E00E94840B0091190210911A02D8
:1025C0000A30110524F482E293E00E94DE0BC80178
:1025D0000E94B50B61E08BE00E94840B8CE193E0DC
:1025E0000E94DE0B61E08DE00E94840B8091390631
:1025F00090E00E94B50B80913C0690E00E94B50BE4
:102600008091490690E00E94B50B61E086E00E944F
:10261000840B86E193E00E94DE0B61E086E00E947D
:10262000840B00914506109146060115110509F02D
:1026300048C280904D0690904E06A0904F06B090F4
:102640005006A5019401C501B4010E94CB1888234E
:1026500009F4A3C188ED95E00E94EC070E940109EE
:10266000F09026028F2D90E1890280011124095DEE
:102670001D4FF80180819181A281B3818093200256
:1026800090932102A0932202B0932302648175816A
:10269000868197810E94711770931D0260931C02BE
:1026A000F80160857185828593850E947817709303
:1026B000250260932402F8016485758586859785D7
:1026C0000E94781770931F0260931E0280911B0274
:1026D0008111FFC168EB74E280E090E00E94740415
:1026E00061E082E00E94C00264E670E080E090E079
:1026F0000E9474040E940F0A64EF71E080E090E091
:102700000E9474040E940F0AE091E406F091E5062D
:1027100013861586148612861186108617821682F5
:10272000158214821382BE01665F7F4F8091E4069A
:102730009091E5060E943D088111CEC1812C912C1B
:102740006EEFA62E62ECB62E60E082E00E94C00220
:1027500020E030E04AEA52E4C501B4010E946C175F
:10276000882351F020E030E04EEF52ECC501B40177
:102770000E946C17811112C2C501B4010E94711729
:10278000709346066093450681E090E00E947D03C9
:1027900060E971E080E090E00E9474048FEF90E0C7
:1027A0000E947D0360E971E080E090E00E94740483
:1027B00081E090E00E947D0360E971E080E090E0BC
:1027C0000E9474048FEF90E00E947D0360E971E045
:1027D00080E090E00E94740481E090E00E947D031C
:1027E00060E971E080E090E00E9474048FEF90E077
:1027F0000E947D0360E971E080E090E00E94740433
:1028000081E090E00E947D0360E971E080E090E06B
:102810000E9474048FEF90E00E947D0360E971E0F4
:1028200080E090E00E94740481E090E00E947D03CB
:1028300060E971E080E090E00E9474048FEF90E026
:102840000E947D0360E971E080E090E00E947404E2
:1028500081E090E00E947D0360E971E080E090E01B
:102860000E9474048FEF90E00E947D0380924D06D9
:1028700090924E06A0924F06B09250068091450667
:1028800090914606892B09F48EC161E087E30E948E
:10289000C00210923906F110A6C161E088E30E94DF
:1028A000C00210923C06FF2009F4BEC10091240230
:1028B000109125020115110509F0C8C161E089E3F5
:1028C0000E94C002109249061092480610924706D4
:1028D00020914A0630914B0680914C06082E000C40
:1028E000990B8217930709F4A9C120934C06F3941E
:1028F000F09226020E94610C0E94510C80912602E7
:1029000089330CF49BC1109226020E94610C0E9434
:10291000510C94C189E0482EF3CD0EE0402EF0CD4D
:10292000B5E04B2EE0903306F0903406A0901902EB
:10293000B0901A0280903A0690903B060E94DB0A03
:1029400060E080E00E94840B65E080E097E00E94F8
:10295000930B60E082E00E94840BC4010E94B50BDF
:1029600060E085E00E94840BC5010E94B50B60E029
:1029700088E00E94840BC7010E94B50B60E08CE0E8
:102980000E94840B8CEE92E00E94DE0BC7CDA8E083
:102990004A2EC8CFFDE04F2EC5CF24013501E89463
:1029A00077F82FEF3FEF4FE75FE7C301B2010E94D7
:1029B000CB1881110DC02FEF3FEF4FE75FE7C30149
:1029C000B2010E946C1718161CF48CED95E044CEF1
:1029D0002FEF3FEF4FE75FE4C501B4010E945918A4
:1029E00018161CF480EE95E037CE2FEF3FEF4FE73F
:1029F0005FECC501B4010E946C1787FDF3CF20E0A6
:102A000030E0A901C501B4010E946C1787FF0AC01C
:102A100041E06DE280E097E00E94820AB7FAB0944C
:102A2000B7F8B0942AE037ED43EA5BE3C501B4019F
:102A30000E9400172B013C010E9478174B015C019A
:102A40000E94A7179B01AC01C301B2010E94FF16AF
:102A50002B013C014AE0C501B4010E94F90741E0A5
:102A60006EE280E097E00E94820A20E030E040E2DF
:102A700051E4C301B2010E945E182B013C010E9487
:102A800078174B01B12CA12C4AE0C501B4010E947A
:102A9000F907C501B4010E94A7179B01AC01C3014E
:102AA000B2010E94FF1620E030E040E251E40E94B3
:102AB0005E180E94781790E080E04AE00E94F907D3
:102AC000CDCD83E193E00E94DE0BC8010E94B50BDF
:102AD000C5CD10921B0204CE67E0CE010A960E947B
:102AE0004306998989132ACE8091E4069091E506E0
:102AF0000E94F506882309F421CEBE016F5F7F4F47
:102B0000CE010A960E942D07882309F417CE68E0AB
:102B1000CE0101960E944306998589130FCE6A81E2
:102B200070E0762F6627770F770F770F2981F8E00F
:102B30002F9F90011124262B372B8A858031D1F4C9
:102B4000688570E08F81AB01481B5109CA019695D9
:102B5000982F8827979587950E94F018CB0140976A
:102B6000B90153E0660F771F5A95E1F760789C0131
:102B7000260F371F213854EE35070CF4DFCDB9018D
:102B8000330F880B990B0E94A91720E030E040E03A
:102B90005CE30E945E184B015C01D6CD10924606A4
:102BA0001092450663CEFF2009F46FCE40902002BC
:102BB00050902102609022027090230220E030E0C9
:102BC00040E05FE3C301B2010E94FF16A50194013A
:102BD0000E9459181816FCF460E087E30E94C002B6
:102BE00081E08093390690911C0289E1891B209134
:102BF0003A0630913B06121613062CF48217130680
:102C000011F00CF04ACE60E088E30E94C00281E03F
:102C100080933C064BCEA5019401C301B2010E94F2
:102C20006C17181604F331CE61E089E30E94C002EC
:102C300010924906109248061092470680E090E0F4
:102C4000892B09F429CA0E94000026CA809020021C
:102C500090902102A0902202B090230240904D0655
:102C600050904E0660904F067090500620E030E085
:102C700040E85FE3C501B4010E940017A30192017F
:102C80000E946C1787FF10C0809145069091460600
:102C9000892BC9F460E089E30E94C00281E080933F
:102CA00049068093480612CEA3019201C501B401E2
:102CB0000E94591887FF07C08091450690914606EB
:102CC000892B09F405CE80914806882361F061E0E4
:102CD00089E30E94C002109249061092480681E0E2
:102CE000809347063AC0409041065090420660905B
:102CF00043067090440680903D0690903E06A0905A
:102D00003F06B0904006809147068823D9F10E9483
:102D1000A7046419750986099709681579058A0554
:102D20009B0508F4D5CD20911E0230911F02A0E62C
:102D3000BAEE0E942E1960933D0670933E06809372
:102D40003F069093400661E089E30E94C002109222
:102D5000490610924806109247060E94A704609305
:102D60004106709342068093430690934406B0CD8B
:102D7000412CC6CB95E0492EC3CB412CD3CD82E06C
:102D8000482ED0CD0E94A7046419750986099709B9
:102D9000681579058A059B0508F49ACD9801A0E687
:102DA000BAEE0E942E1960933D0670933E06809302
:102DB0003F069093400660E089E30E94C00281E0F4
:102DC00080934906109248068BCF0D3008F022C937
:102DD0002EC9F999FECF92BD81BDF89A992780B589
:102DE0000895262FF999FECF1FBA92BD81BD20BD4F
:102DF0000FB6F894FA9AF99A0FBE019608955058B2
:102E0000BB27AA270E9417170C941F180E9411189D
:102E100038F00E94181820F039F49F3F19F426F476
:102E20000C940E180EF4E095E7FB0C940818E92FAB
:102E30000E94301858F3BA17620773078407950782
:102E400020F079F4A6F50C9452180EF4E0950B2EB0
:102E5000BA2FA02D0B01B90190010C01CA01A001EC
:102E60001124FF27591B99F0593F50F4503E68F147
:102E70001A16F040A22F232F342F4427585FF3CF88
:102E8000469537952795A795F0405395C9F77EF459
:102E90001F16BA0B620B730B840BBAF09150A1F0A2
:102EA000FF0FBB1F661F771F881FC2F70EC0BA0F28
:102EB000621F731F841F48F4879577956795B795B0
:102EC000F7959E3F08F0B0CF9395880F08F09927AB
:102ED000EE0F9795879508950E94E41708F481E016
:102EE00008950E9478176894B1110C9453180895AE
:102EF0000E94381888F09F5798F0B92F9927B7513A
:102F0000B0F0E1F0660F771F881F991F1AF0BA958D
:102F1000C9F714C0B13091F00E945218B1E0089581
:102F20000C945218672F782F8827B85F39F0B93F73
:102F3000CCF3869577956795B395D9F73EF4909540
:102F40008095709561957F4F8F4F9F4F0895E894BE
:102F500009C097FB3EF490958095709561957F4FE1
:102F60008F4F9F4F9923A9F0F92F96E9BB2793958F
:102F7000F695879577956795B795F111F8CFFAF49F
:102F8000BB0F11F460FF1BC06F5F7F4F8F4F9F4FD0
:102F900016C0882311F096E911C0772321F09EE82E
:102FA000872F762F05C0662371F096E8862F70E094
:102FB00060E02AF09A95660F771F881FDAF7880F6E
:102FC0009695879597F90895990F0008550FAA0BC4
:102FD000E0E8FEEF16161706E807F907C0F012162C
:102FE0001306E407F50798F0621B730B840B950B2F
:102FF00039F40A2661F0232B242B252B21F4089584
:103000000A2609F4A140A6958FEF811D811D089520
:1030100097F99F6780E870E060E008959FEF80EC8B
:10302000089500240A94161617061806090608952E
:1030300000240A9412161306140605060895092E94
:103040000394000C11F4882352F0BB0F40F4BF2B03
:1030500011F460FF04C06F5F7F4F8F4F9F4F089543
:1030600057FD9058440F551F59F05F3F71F0479539
:10307000880F97FB991F61F09F3F79F0879508951E
:10308000121613061406551FF2CF4695F1DF08C03D
:10309000161617061806991FF1CF8695710561055A
:1030A00008940895E894BB2766277727CB0197F902
:1030B00008950E94E41708F48FEF08950E94711894
:1030C0000C941F180E94111838F00E94181820F054
:1030D000952311F00C9408180C940E1811240C94DC
:1030E00053180E94301870F3959FC1F3950F50E06C
:1030F000551F629FF001729FBB27F00DB11D639FAA
:10310000AA27F00DB11DAA1F649F6627B00DA11D4F
:10311000661F829F2227B00DA11D621F739FB00DF5
:10312000A11D621F839FA00D611D221F749F332765
:10313000A00D611D231F849F600D211D822F762FFE
:103140006A2F11249F5750409AF0F1F088234AF0DB
:10315000EE0FFF1FBB1F661F771F881F9150504047
:10316000A9F79E3F510580F00C9408180C94531851
:103170005F3FE4F3983ED4F3869577956795B795CE
:10318000F795E7959F5FC1F7FE2B880F911D9695E8
:10319000879597F908950E94E417880B990B089575
:1031A000991B79E004C0991F961708F0961B881F99
:1031B0007A95C9F780950895AA1BBB1B51E107C0FA
:1031C000AA1FBB1FA617B70710F0A61BB70B881FB7
:1031D000991F5A95A9F780959095BC01CD01089546
:1031E00097FB072E16F4009407D077FD09D00E94B4
:1031F000DC1807FC05D03EF4909581959F4F08950B
:10320000709561957F4F0895A1E21A2EAA1BBB1BF2
:10321000FD010DC0AA1FBB1FEE1FFF1FA217B307A2
:10322000E407F50720F0A21BB30BE40BF50B661FB8
:10323000771F881F991F1A9469F76095709580957C
:1032400090959B01AC01BD01CF010895EE0FFF1FCA
:10325000881F8BBF0790F691E02D1994A29FB001B3
:10326000B39FC001A39F700D811D1124911DB29FBA
:10327000700D811D1124911D08950E942E19A59F86
:10328000900DB49F900DA49F800D911D1124089561
:04329000F894FFCFE0
:1032940000000E1517110E00040E1F00001F0E046F
:1032A400000004021F020400633D00011400050035
:1032B4000000C04101000100000000000000000007
:1032C40000000000000000000008420000C04100AF
:1032D40000000000000000000008420000C041009F
:1032E40000000000000000000008420000C041008F
:1032F40000000000000000000000420000C0410087
:1033040000803F00000041000000420000C0410076
:1033140000803F00000041000000420000C0410066
:1033240000803F00000041000000420000C0410056
:1033340000803F000000410000F0410000B841005F
:1033440000803F000000410000F0410000B841004F
:1033540000803F000000410000F0410000B841003F
:1033640000803F000000410000F0410000B841002F
:1033740000803F000000410000E0410000B0410037
:1033840000803F0000E0400000E0410000B0410048
:1033940000803F0000E0400000E0410000B0410038
:1033A40000803F0000E0400000E0410000B0410028
:1033B40000803F0000E0400000D0410000A0410038
:1033C40000803F0000E0400000D0410000A0410028
:1033D40000803F0000E0400000D0410000A0410018
:1033E40000803F0000E0400000D0410000A0410008
:1033F40000803F0000E0400000C0410000A0410008
:1034040000803F0000A0400000C0410000A0410037
:1034140000803F0000A0400000C0410000A0410027
:1034240000803F0000A0400000C0410000A0410017
:1034340000803F0000A0400000C0410000A0410007
:1034440000803F0000A0400000C0410000A04100F7
:1034540000803F0000A0400000B0410000A04100F7
:1034640000803F0000A0400000B0410000A04100E7
:1034740000803F0000A0400000B0410000A04100D7
:1034840000803F0000A0400000B0410000A04100C7
:1034940000803F0000A0400000B0410000A04100B7
:1034A40000803F0000A0400000B0410000A04100A7
:1034B40000803F0000A0400000B0410000A0410097
:1034C40000803F0000A0400000B0410000A0410087
:1034D40000803F0000A0400000B0410000A0410077
:1034E40000803F0000A0400000B0410000A0410067
:1034F40000803F0000A040000088410000B041006F
:1035040000803F00008040000088410000B041007E
:1035140000803F00008040000088410000B041006E
:1035240000803F00008040000088410000B041005E
:1035340000803F00008040000088410000B041004E
:1035440000803F00008040000088410000B041003E
:1035540000803F00008040000088410000B041002E
:1035640000803F00008040000088410000B041001E
:1035740000803F00008040000088410000B041000E
:1035840000803F00008040000088410000B04100FE
:1035940000803F00008040000088410000B04100EE
:1035A40000803F00008040000088410000B04100DE
:1035B40000803F00008040000088410000B04100CE
:1035C40000803F00008040000088410000B04100BE
:1035D40000803F00008040000080410000B84100AE
:1035E40000803F00008040000080410000B841009E
:1035F40000803F00008040000080410000B841008E
:1036040000803F00008040000080410000B841007D
:1036140000803F00008040000080410000B841006D
:1036240000803F00008040000080410000B841005D
:1036340000803F00008040000080410000B841004D
:1036440000803F000080405E00BC00770100000065
:103654000067053A05E0042705180562020000002A
:1036640000930BB3042020006E616E00696E660047
:043674006F76660007
:00000001FF
