:100000000C942E010C9456010C9456010C9456013C
:100010000C9456010C9456010C9456010C94560104
:100020000C9456010C9456010C9456010C945601F4
:100030000C9456010C9456010C9456010C945601E4
:100040000C940C0C0C9456010C9456010C94560113
:100050000C9456010C9456010C9456010C945601C4
:100060000C94DF060C945601131004103412071080
:100070000A102310011037120D101010636F6E74E8
:10008000726F6C6C6572004249524420484F555360
:100090004500534156450053415645440073656C35
:1000A00065637420746F20736176650073657420D6
:1000B000646179004D454E55006572002020202076
:1000C00020002020202020003000202000300020B0
:1000D000200020200000000000250028002B000048
:1000E00003020500030501040602040000000800E5
:1000F00002010000030407000000000000000000EF
:100100000000002300260029000404040404040461
:1001100004020202020202030303030303010204B6
:100120000810204080010204081020010204081079
:10013000201F1C1F1E1F1E1F1F1E1F1E1F4F4B0098
:1001400074656D70002020484C43003A0044000064
:100150005EBCE2613FDD83C29C7E20A3FD1F419D0A
:10016000C3217FFCA2401E5F01E3BD3E6082DC2311
:100170007D9FC1421CFEA0E1BF5D0380DE3C62BEEC
:10018000E0025CDF81633D7C22C09E1D43A1FF46EF
:1001900018FAA427799BC584DA3866E5BB5907DBD2
:1001A000856739BAE406581947A5FB7826C49A65CD
:1001B0003BD987045AB8E6A7F91B45C6987A24F8B4
:1001C000A6441A99C7257B3A6486D85B05E7B98CA3
:1001D000D2306EEDB3510F4E10F2AC2F7193CD11A2
:1001E0004FADF3702ECC92D38D6F31B2EC0E50AF79
:1001F000F1134DCE90722C6D33D18F0C52B0EE3284
:100200006C8ED0530DEFB1F0AE4C1291CF2D73CA5E
:10021000947628ABF517490856B4EA6937D58B5759
:1002200009EBB536688AD495CB2977F4AA4816E944
:10023000B7550B88D6346A2B7597C94A14F6A8743B
:100240002AC896154BA9F7B6E80A54D7896B35002A
:10025000000000240027002A0000821411241FBE81
:10026000CFEFD8E0DEBFCDBF14E0A0E0B1E0EAEC14
:10027000FEE202C005900D92A43EB107D9F726E038
:10028000A4EEB4E001C01D92A831B207E1F711E07D
:10029000CEE2D1E004C02197FE010E943E17CD328C
:1002A000D107C9F70E94560C0C9463170C940000F8
:1002B00040E0682F8AE995E00C94360881E00E94BE
:1002C00058018BE39FE10197F1F70895643008F03E
:1002D00063E09091AD05691710F06FEF690FE62F9D
:1002E000F0E0E656FA4F9489890F80680C94580123
:1002F000009769F0FC0101900020E9F73197AF0108
:10030000481B590BBC018AE995E00C94600B80E016
:1003100090E008958F929F92AF92BF920F931F9398
:10032000CF93DF93CDB7DEB7A1970FB6F894DEBFBA
:100330000FBECDBF19A2423008F44AE08E010F5D16
:100340001F4F842E912CA12CB12CA50194010E9449
:100350001C17E62FB901CA0101501109EA3014F443
:10036000E05D01C0E95CD801EC93232B242B252B05
:1003700061F7C8010E947801A1960FB6F894DEBF1C
:100380000FBECDBFDF91CF911F910F91BF90AF9066
:100390009F908F900895CF92DF92EF92FF926C0121
:1003A000990FEE08FF08F7FE16C041E06DE28AE9FA
:1003B00095E00E94360866277727CB016C197D09E6
:1003C0008E099F094AE00E948A010196FF90EF90F2
:1003D000DF90CF9008954AE0C701B601FF90EF90FB
:1003E000DF90CF900C948A01AF92BF92CF92DF92B0
:1003F000EF92FF920F931F93CF93DF938B01BC017A
:1004000080918C0590918D050E94230940E06EEB50
:1004100080918C0590918D050E94EF08E80168019C
:1004200089E0C80ED11CA0908C05B0908D0588E0A5
:10043000E82EF12C10E001E0C5010E949C0881111A
:10044000102B000F81E0E81AF108B1F71993CC16D0
:10045000DD0649F780918C0590918D050E94420937
:1004600091E0813009F090E0892FDF91CF911F91C9
:100470000F91FF90EF90DF90CF90BF90AF900895D5
:100480000F931F93CF93DF93CDB7DEB729970FB6A6
:10049000F894DEBF0FBECDBF8C0180918C0590918A
:1004A0008D050E944209882309F1BE016F5F7F4FCD
:1004B000C8010E94F4018823C9F068E0CE010196CA
:1004C0000E948F089985891311C08D818F3361F047
:1004D00020F48F3159F489E00CC08F3519F08F3733
:1004E00039F004C08BE005C08AE003C080E001C0A1
:1004F0008CE029960FB6F894DEBF0FBECDBFDF911A
:10050000CF911F910F910895BF92CF92DF92EF92FA
:10051000FF920F931F93CF93DF93EC016B018D85B7
:10052000811105C0CE010E944209811105C01B86C0
:100530001D861C8680E060C040E060EFCE010E9416
:10054000EF0801E0E12CB12C11E0CE010E949C08E3
:10055000F82ECE010E949C0891E0F91203C0813070
:10056000B1F434C02E2D30E0F8121BC08B85181763
:1005700038F4FE01E20FF31F8381802341F402C0AF
:10058000811729F0F12C193058F41C8709C0FE019D
:10059000EE0DF11D8381802B8383FF24F39409C02A
:1005A000B12EFE01E20FF31F9381802F80958923E6
:1005B00083836F2DCE010E94C0081F5F000F11F4CE
:1005C000E39401E087E08E1508F0BFCF113408F402
:1005D000AECFBB86B11002C081E08D878B818823AE
:1005E00009F4A5CFDE011396F6012B968D91819328
:1005F000CA17DB07D9F781E0DF91CF911F910F91E7
:10060000FF90EF90DF90CF90BF90089530917A05E2
:10061000313208F04BC0809156058111FCCF90918A
:10062000790522E02093560521E0209355052FEF10
:10063000209354051092530530935205E9E5F5E0F7
:10064000A2E3B5E020E0321721F041914D932F5FF6
:10065000FACF1092310520913105990F922B90938A
:10066000310590913005913061F4109230059091F0
:1006700031059093BB009091BC0093FDF8CF95ECB1
:1006800001C095EE9093BC00909156059230E1F335
:10069000909154059F3F79F080915405803241F04C
:1006A00080915405803331F084E005C081E003C0BF
:1006B00082E001C083E01092580510927A051092F2
:1006C00057050895909156059111FCCF982F8132CE
:1006D00008F090E281E080935605809355052FEF56
:1006E0002093540510925305290F209352058093AF
:1006F000310580913105806D809331058091300501
:10070000813061F410923005809131058093BB00F7
:100710008091BC0083FDF8CF85EC01C085EE80930D
:10072000BC00809156058130E1F380915305891713
:1007300010F490915305E2E3F5E0A0E1B5E080E02C
:10074000891721F021912D938F5FFACF10920F0519
:1007500080930E0508950F931F93CF93DF938C0121
:10076000C0E0D0E0F801EC0FFD1F6491662339F082
:1007700041E08AE995E00E9436082196F3CFCE0148
:10078000DF91CF911F910F9108950F931F93CF93F6
:10079000DF938B01877028E0829FC0011124806461
:1007A0000E945801E801085F1F4F69918AE995E0AE
:1007B0000E948908C017D107C1F7DF91CF911F911F
:1007C0000F91089580918C0590918D050E944209AA
:1007D00040E06CEC80918C0590918D050E94EF08B3
:1007E0004091870564E480918C0590918D050E946D
:1007F000EF08809189058823A9F0E0918805E950E8
:10080000E33040F4F0E0EE0FFF1FE954FB4F60814E
:10081000718102C06EEE72E0072E000C880B990BFE
:100820000C94C60B0895CF92DF92EF92FF920F9334
:100830001F93CF93DF93EC01162FF42EC22E81E08D
:100840008093570588E68093790510925805109299
:100850007A0560E08BE795E00E9498065AE0D52E75
:100860008E2D6D2D0E94E816692F20E1829F600D6C
:1008700011248BE795E00E949806802F6D2D0E9431
:10088000E816692F20E1829F600D11248BE795E027
:100890000E9498068C2D6D2D0E94E816692F20E18C
:1008A000829F600D11248BE795E00E94980681E0FD
:1008B00090E0133010F080E090E06E01C81AD90A81
:1008C000E12FF0E0E252FF4FE49196012F0D311D30
:1008D000C6019695879596958795280F391FC6016D
:1008E00060E971E00E94F416260F371FC60164E626
:1008F00070E00E94F416261B370BC9018E0F911D64
:1009000067E070E00E94F416882311F0682F01C0A0
:1009100067E08BE795E00E949806DAE08F2D6D2F57
:100920000E94E816692F20E1829F600D11248BE759
:1009300095E00E949806812F6D2F0E94E816692F7E
:1009400020E1829F600D11248BE795E00E949806BC
:100950008C2F805D6D2F0E94E816692F20E1829F09
:10096000600D11248BE795E00E94980660E08BE70C
:1009700095E00E949806DF91CF911F910F91FF9013
:10098000EF90DF90CF900C94060390E0FC01E551CE
:10099000FF4F2491FC01E35EFE4F3491FC01E75FC1
:1009A000FE4FE491EE2309F43CC0222339F12330B9
:1009B00091F038F42130A9F0223001F584B58F7D13
:1009C00012C0273091F02830A1F02430B9F4809182
:1009D00080008F7D03C0809180008F77809380009E
:1009E0000DC084B58F7784BD09C08091B0008F772A
:1009F00003C08091B0008F7D8093B000F0E0EE0FD7
:100A0000FF1FEB52FF4FA591B4919FB7F89461116E
:100A100004C08C913095382302C0EC913E2B3C935E
:100A20009FBF0895CF93DF93823028F09091A9055E
:100A300098609093A9058093AD051092AE0580E46F
:100A40008093AF0580E18093B00580E58093B10588
:100A500061E080919E050E948A0B80919F058F3FE7
:100A600019F061E00E948A0B61E08091A0050E946C
:100A70008A0BCAE9D5E09E012A5935408091A90523
:100A800084FD03C084E090E002C088E090E02196FD
:100A9000281739072CF461E08E810E948A0BEBCF76
:100AA0008BE39DE00197F1F760E080919E050E9445
:100AB000C50460E08091A0050E94C50480919F0557
:100AC0008F3F19F060E00E94C5048091A90584FD64
:100AD00020C063E08AE995E00E940908CBE4D6E4EF
:100AE000CE010197F1F763E08AE995E00E940908D9
:100AF0002197F1F763E08AE995E00E94090883E510
:100B000092E00197F1F762E08AE995E00E94090816
:100B100015C080620E9458018BE496E40197F1F7BA
:100B20008091A90580620E94580183E592E00197B7
:100B3000F1F78091A90580620E9458018091A90572
:100B400080620E94580184E08093AA058CE00E9494
:100B500058010E945E0182E08093AB0586E0DF9140
:100B6000CF910C945801CF93DF93EC0161E08AE0C0
:100B70000E948A0B209711F460E004C0CF3FD1059A
:100B800031F461E08AE0DF91CF910C94C504E5EF88
:100B9000F0E0E491E330F9F048F4E130B9F0E2300C
:100BA000A1F584B5806284BDC8BD34C0E730E9F0EA
:100BB000E83019F1E43049F580918000806280933B
:100BC0008000D0938B00C0938A0024C084B58068D5
:100BD00084BDC7BD1FC08091800080688093800065
:100BE000D0938900C093880015C08091B0008068C0
:100BF0008093B000C093B3000DC08091B0008062BC
:100C00008093B000C093B40005C0C038D1050CF08B
:100C1000B8CFB2CFDF91CF91089585ED8093BC001E
:100C20008091BC0084FDFCCF109256050895409140
:100C3000EC05262F30E0240F311D21323105DCF484
:100C4000209156052430C9F4FC0180E090E086171D
:100C500058F43091EC052191DC01A453BA4FA30F55
:100C6000B11D2C930196F3CF8091EC05680F609332
:100C7000EC0580E0089581E0089582E008950895EC
:100C8000E0910F0580910E05E81730F4F0E0E05F89
:100C9000FA4F808190E008958FEF9FEF0895909133
:100CA0000F0580910E05981750F4E92FF0E0E05FF2
:100CB000FA4F208130E09F5F90930F0502C02FEF25
:100CC0003FEFC901089580910E0590E020910F0536
:100CD000821B91090895CF92DF92EF92FF920F93BA
:100CE0001F93CF93DF937C01CB018A01209157059D
:100CF000222389F0EB016B01C40ED51ECC15DD0556
:100D000069F06991D701ED91FC910190F081E02D9E
:100D1000C7010995F3CF642F0E941706C801DF9120
:100D2000CF911F910F91FF90EF90DF90CF9008959A
:100D3000CF93DF931F92CDB7DEB76983209157051C
:100D40002223D1F020917A05203240F021E030E0DA
:100D5000FC013383228380E090E015C08091580528
:100D6000E82FF0E0E75AFA4F998190838F5F8093E4
:100D7000580580937A0505C061E0CE0101960E9476
:100D8000170681E090E00F90DF91CF9108950E94C7
:100D90005E17CF93DF93EC0160E08E810E94C50463
:100DA00061E08E810E94C50460E08E810E94C504CE
:100DB0008BE891E00197F1F7DF91CF9108951F92B1
:100DC0000F920FB60F9211242F933F934F935F937F
:100DD0006F937F938F939F93AF93BF93EF93FF9303
:100DE0008091B900887F803609F49CC068F588320C
:100DF00009F45BC090F4803109F454C038F48823BE
:100E000009F4F2C0883009F44DC0F2C0883109F409
:100E10004CC0803209F45DC0EBC0803409F468C076
:100E200048F4803309F455C0883309F0E1C0809359
:100E30005405D4C0803509F44FC0883509F45DC02D
:100E4000883409F0D5C0D2C0883909F4C3C0A8F4E9
:100E5000883709F467C038F4883609F463C08037EE
:100E600009F460C0C5C0883809F4B4C0803909F4F9
:100E70005FC0803809F0BCC05BC0803B09F484C00F
:100E800038F4803A09F466C0883A09F47DC0B0C0ED
:100E9000803C09F4A3C0883C09F4A0C0883B09F455
:100EA00086C0A6C08091310510C0909153058091F5
:100EB0005205981770F5E091530581E08E0F8093ED
:100EC0005305F0E0EE5CFA4F80818093BB0085EC27
:100ED00082C0809354058AC0E091530581E08E0F53
:100EE000809353058091BB00F0E0EE5CFA4F808365
:100EF00090915305809152056AC0E091530581E0BD
:100F00008E0F809353058091BB00F0E0EE5CFA4FAA
:100F1000808380915505811169C081E080933005FF
:100F200084EA5DC083E08093560510920E06CFCF11
:100F300080910E06803208F04DC0E0910E0681E0EF
:100F40008E0F80930E068091BB00F0E0E251FA4FC5
:100F50008083BDCF85EC8093BC00109256058091B4
:100F60000E06803230F4E0910E06F0E0E251FA4FC6
:100F7000108260910E0670E08EEE95E0E0E0F0E009
:100F8000099510920E0634C084E0809356051092A5
:100F9000ED051092EC05E0E0F0E009958091EC059C
:100FA000811105C081E08093EC051092CC05E091A1
:100FB000ED0581E08E0F8093ED05F0E0E453FA4FEC
:100FC00080818093BB009091ED058091EC0598178E
:100FD00008F47DCF85E88093BC000AC085EC80933F
:100FE000BC001092560504C0109254050E940D06D4
:100FF000FF91EF91BF91AF919F918F917F916F91F1
:101000005F914F913F912F910F900FBE0F901F90C6
:101010001895CF92DF92EF92FF920F931F93CF9389
:10102000DF936C017C0187E0E80EF11CC0E0D0E0AA
:10103000062F10E0B8010C2E02C0759567950A9432
:10104000E2F76170F70181917F010E94C50421964A
:10105000C430D10579F7C601DF91CF911F910F916F
:10106000FF90EF90DF90CF900C94C906CF92DF9263
:10107000EF92FF920F931F93CF93DF93EC01F62E25
:10108000642F8C810E94C5048D818F3F19F060E030
:101090000E94C5048F850F2D10E084FF25C06E01CE
:1010A00087E0C80ED11CE12CF12CB8010E2C02C037
:1010B000759567950A94E2F76170F60181916F0169
:1010C0000E94C504FFEFEF1AFF0A88E0E816F1045A
:1010D00061F7CE01DF91CF911F910F91FF90EF90BB
:1010E000DF90CF900C94C906B80184E075956795A0
:1010F0008A95E1F7CE010E9409086F2DCE01DF919C
:10110000CF911F910F91FF90EF90DF90CF900C94B3
:10111000090841E00E94360881E090E00895DC0172
:1011200080E0615040F09D91E82FE927F0E0E15B1D
:10113000FE4F8491F6CF0895FC0190810180F281E9
:10114000E02DF8948181892B81832281892F8095DC
:1011500028232283A7E0B0E01197F1F721818223B1
:101160008183A3E2B0E01197F1F780817894EFECEE
:10117000F0E03197F1F7982381E009F480E00895D9
:10118000FC0190810180F281E02D892F809560FF24
:1011900012C0F8942281822382838181892B8183EA
:1011A000A3E2B0E01197F1F78281982B92837894B3
:1011B00087ED90E011C0F89422818223828381819F
:1011C000892B8183AFEFB0E01197F1F78281982BE3
:1011D000928378948FE090E00197F1F70895DF9281
:1011E000EF92FF920F931F93CF93DF93EC01D62ED4
:1011F000E42E08E010E0FF24F39461E08D2D8F21B0
:1012000009F460E0CE010E94C008FF0C01501109F2
:10121000A1F7E11010C0F894E981FA8191818881E9
:10122000809589238183E981FA81928188818095E3
:10123000892382837894DF91CF911F910F91FF9042
:10124000EF90DF900895EF92FF920F931F93CF934B
:10125000DF938C017B0140E065E50E94EF08E70128
:1012600088E0E80EF11C699140E0C8010E94EF0897
:10127000CE15DF05C1F7DF91CF911F910F91FF9040
:10128000EF900895DC012C911196ED91FC9112974D
:10129000F8948181922F90958923818378948DE7AA
:1012A00043E050E0815021F1DA011197F1F73081EC
:1012B0003223C1F3F8948281892382838181822B36
:1012C00081837894ABE7B7E01197F1F7F8948181C7
:1012D0009823918383E191E00197F1F7808128239E
:1012E00081E009F080E07894E3E6F6E03197F1F7E9
:1012F00008950E945E0160E080E00E9466018DE436
:1013000091E00E94AB0360E088E00E9466018BE4FC
:1013100091E00E94AB0360E08BE00E94660185E4EF
:1013200091E00E94AB0361E080E00E94660180E4EE
:1013300091E00C94AB03EF92FF920F931F93CF9326
:10134000DF937C018B01EA010E945E0160E080E096
:101350000E94660165E08AE995E00E94890860E0E4
:1013600082E00E946601C7010E94CB0160E085E037
:101370000E946601C8010E94CB0160E088E00E94E3
:101380006601CE010E94CB0160E08EE00E94660102
:101390008DE391E0DF91CF911F910F91FF90EF903E
:1013A0000C94AB0382E090E00E9401156091EC0484
:1013B0007091ED0490E08617970721F082E090E0AD
:1013C0000C9409150895CF93C091260180E090E018
:1013D0000E9401152C2F0C2E000C330B90E02817C7
:1013E000390731F06C2F80E090E0CF910C94091513
:1013F000CF91089580E480937C0080917A0080648E
:1014000080937A0080917A0086FDFCCF209178004D
:101410008091790030E0382B233431058CF02D3D5C
:10142000310584F02C3881E0380774F02A3592E0D9
:10143000390764F081E0293633404CF080E00895AC
:1014400085E0089584E0089583E0089582E008959A
:101450003F924F925F926F927F928F929F92AF9244
:10146000BF92CF92DF92EF92FF920F931F93CF9391
:10147000DF93CDB7DEB76A970FB6F894DEBF0FBE25
:10148000CDBF81E08093570588E68093790510925F
:10149000580510927A0560E08BE795E00E94980667
:1014A0000E94060387E090E00E94620390910E057F
:1014B00080910F059817F1F38E01015F1F4FCE0148
:1014C00001967C018BE795E00E944F06982F92953C
:1014D0009F708F70EAE09E9F800D112490E0F801CC
:1014E000929382938F01EE16FF0661F70E94060326
:1014F00069817A814B01F0E38F1AF8EF9F0A90928D
:101500000305809202056B807C80962D6092040515
:10151000AD80BE80A09205058F8180930905098565
:101520001A85302E00930605EB84FC844E2CE09245
:101530000705CD84DE845C2CC0920805BB24A50180
:10154000E1E3F1E081E0891730F42491420F511D6D
:101550008F5F3196F8CF923031F4CB0183709927A9
:10156000892B09F485C0F401ED5CF740F695E79509
:10157000F695E7952DE631E0629FC001639F900DDF
:10158000729F900D11249F01280F391F215031099E
:10159000240F351FA8E1B0E00E9444179B01AC0165
:1015A000230D311D411D511DACE3B0E00E945317C6
:1015B0009B01AC01240D311D411D511D0E9453178B
:1015C000DC01CB01850D911DA11DB11D80599A4CE7
:1015D000A249B74C80930A0590930B05A0930C0584
:1015E000B0930D058CE0E2E0F5E0DE011F9601907E
:1015F0000D928A95E1F78CE0FE013F96A0ECB5E0F4
:1016000001900D928A95E1F7DD24D092E504C09215
:10161000E404FF24F0921A01E092190111271093BB
:10162000EB040093EA04B092ED04A092EC0477245A
:101630007092E7046092E6049092E9048092E804D4
:101640006A960FB6F894DEBF0FBECDBFDF91CF9183
:101650001F910F91FF90EF90DF90CF90BF90AF90D0
:101660009F908F907F906F905F904F903F900895E4
:101670004F5F5F4F78CF3FB7F894809114069091F9
:101680001506A0911606B091170626B5A89B05C0B1
:101690002F3F19F00196A11DB11D3FBFBA2FA92FF1
:1016A000982F8827820F911DA11DB11DBC01CD016E
:1016B00042E0660F771F881F991F4A95D1F708955A
:1016C000CF92DF92EF92FF920F931F93CF93DF930E
:1016D0006C017A018B01C0E0D0E0CE15DF0581F00E
:1016E000D8016D918D01D601ED91FC910190F081B1
:1016F000E02DC6010995892B11F02196EECF7E01D0
:10170000C701DF91CF911F910F91FF90EF90DF9074
:10171000CF900895CF93DF9390E0FC01E35EFE4FFE
:101720002491FC01E75FFE4F8491882361F190E0F2
:10173000880F991FFC01E15BFD4FC591D491FC011D
:10174000EB52FF4FA591B491611109C09FB7F89476
:101750008881209582238883EC912E230BC06230F0
:1017600061F49FB7F8948881322F30958323888362
:10177000EC912E2B2C939FBF06C08FB7F894E88175
:101780002E2B28838FBFDF91CF9108958F929F9248
:10179000AF92BF92CF92DF92EF92FF926B017C01EA
:1017A0000E943B0B4B015C01C114D104E104F10424
:1017B000F1F00E943B0BDC01CB0188199909AA09C1
:1017C000BB09883E9340A105B10570F321E0C21A20
:1017D000D108E108F10888EE880E83E0981EA11C6C
:1017E000B11CC114D104E104F10419F7DDCFFF905D
:1017F000EF90DF90CF90BF90AF909F908F90089523
:101800002FB7F8946091100670911106809112061E
:10181000909113062FBF08951F920F920FB60F924B
:1018200011242F933F938F939F93AF93BF938091F6
:10183000100690911106A0911206B09113063091F6
:101840000F0623E0230F2D3720F40196A11DB11DB3
:1018500005C026E8230F0296A11DB11D20930F0697
:101860008093100690931106A0931206B09313066E
:101870008091140690911506A0911606B091170656
:101880000196A11DB11D8093140690931506A09397
:101890001606B0931706BF91AF919F918F913F911C
:1018A0002F910F900FBE0F901F901895CF93DF933D
:1018B000CDB7DEB761970FB6F894DEBF0FBECDBFD0
:1018C000789484B5826084BD84B5816084BD85B51B
:1018D000826085BD85B5816085BD80916E00816027
:1018E00080936E00109281008091810082608093CD
:1018F00081008091810081608093810080918000CF
:101900008160809380008091B10084608093B100F9
:101910008091B00081608093B00080917A008460F3
:1019200080937A0080917A00826080937A0080911F
:101930007A00816080937A0080917A008068809339
:101940007A001092C10061E08FE00E948A0B61E092
:1019500081E10E948A0B61E080E10E948A0B61E0D4
:101960008FE00E94C50461E081E10E94C50461E04E
:1019700080E10E94C50410920F0510920E0510928E
:10198000580510927A051092560511E010935505EE
:101990001092300561E082E10E94C50461E083E1BC
:1019A0000E94C5048091B9008E7F8093B900809118
:1019B000B9008D7F8093B90088E48093B80085E4F6
:1019C0008093BC001093570588E6809379051092A8
:1019D000580510927A056EE08BE795E00E94980614
:1019E0000E94060381E090E00E94620390910E0540
:1019F00080910F059817F1F38BE795E00E944F0651
:101A0000082F0E94060311E01093570588E6809383
:101A100079051092580510927A056EE08BE795E0F3
:101A20000E949806602F6B738BE795E00E949806E2
:101A30000E94060380ED97E09093030580930205D2
:101A400010930405109305051092060510920705E2
:101A50001092080586E08093090580E795E3ADE6DE
:101A6000B8E380930A0590930B05A0930C05B093FF
:101A70000D0580E090E00E940115182F809326014B
:101A800060E08AE00E948A0B8FEF90E00E94B3052D
:101A900060E171E083E00E94C50368E071E084E0EA
:101AA0000E94C50360E071E085E00E94C50368EC18
:101AB00070E080E090E00E94C60B82E00E94120578
:101AC00068EC70E080E090E00E94C60B0E945E012E
:101AD00060E083E00E94660187E890E00E94AB032B
:101AE00061E083E00E9466018CE790E00E94AB0316
:101AF00068EE73E080E090E00E94C60BE0918C05F8
:101B0000F0918D05138615861486DF011B9633969A
:101B10001E92AE17BF07E1F710928B05FF24F394D6
:101B2000BE016F5F7F4F80918C0590918D050E9463
:101B30008402882309F453C067E0CE0101960E9415
:101B40008F0898858913ECCF80918705811127C074
:101B500080918C0590918D050E944209BE016F5FB6
:101B60007F4F80918C0590918D050E94230940E064
:101B700064EB80918C0590918D050E94EF08809117
:101B80008C0590918D050E949C08082F80918C05F2
:101B900090918D050E944209002309F43EC40091F2
:101BA00088058981803109F469C4CE0101960E94BB
:101BB0004002801718F48091880509C0898180311E
:101BC00011F48CE004C0CE0101960E944002809383
:101BD000880580918B058F5F80938B05A1CF61E095
:101BE00082E00E948A0B0E94280A82E090E00E9414
:101BF00001158093FD046091EC047091ED04082EB2
:101C0000000C990B8617970781F082E090E00E9404
:101C10000915809126018F5F809326010E94E309B8
:101C20008091EC048093FD0407C0111105C081E090
:101C3000809326010E94E3090E9479096624639437
:101C4000712C4BE3C42ED12C0E94FA09182F882343
:101C500009F444C268EC70E080E090E00E94C60B9A
:101C6000113009F03BC283E6809318010E945E01A7
:101C700060E086E00E94660184EB90E00E94AB0386
:101C800068E873E180E090E00E94C60B0E945E016C
:101C900060E080E00E9466018CEA90E00E94AB0365
:101CA00061E081E00E9466018DE990E00E94AB0353
:101CB00028E3F22E01E00E94FA09182F882309F484
:101CC00043C06CE271E080E090E00E94C60B1130EE
:101CD00081F50E94E3090E945E0160E085E00E94B8
:101CE000660187E990E00E94AB0360ED77E080E059
:101CF00090E00E94C60B0E94280A4091E80450918F
:101D0000E9046091E6047091E7048091EC049091FD
:101D1000ED040E949B0961E080E00E94660164E09E
:101D20008AE995E00E948908312C9FE1A92EB12C07
:101D300018C080912601123011F4815003C0153073
:101D400019F48F5F809326018091260189331CF05E
:101D50000093260165C318160CF462C3F0922601A5
:101D60005FC30E94FA098823E1F3813049F4812F8F
:101D70008B7F813009F421C1163009F00AC11BC1E3
:101D8000823051F4115009F411E068EC70E080E009
:101D900090E00E94C60B22C1833009F076C011305A
:101DA00009F40BC1123071F48091EC049091ED04B0
:101DB0000197181619060CF47EC0B092ED04A0929B
:101DC000EC04FEC0133081F48091E6049091E704A6
:101DD0000197181619060CF482C04CE050E050939D
:101DE000E7044093E604ECC0143081F48091E804E9
:101DF0009091E9040197803D57E0950714F48EEA2D
:101E000098E09093E9048093E804DAC0153009F46F
:101E1000D4C0163009F4CFC0173091F48091EA0491
:101E20009091EB0401979093EB048093EA0497FF61
:101E3000C7C0E7E1F0E0F093EB04E093EA04C0C030
:101E4000183081F48091190190911A0101979093B3
:101E50001A018093190197FFB3C0D0921A01C09262
:101E60001901AEC0193009F094C08091E40490913A
:101E7000E50401979093E5048093E40497FFA0C0E4
:101E8000D092E504C092E4049BC0843009F0A0C065
:101E9000113039F468EC70E080E090E00E94C60BED
:101EA0008FC0123091F48091EC049091ED04019672
:101EB000803291052CF49093ED048093EC0480C063
:101EC0007092ED046092EC047BC0133091F4809129
:101ED000E6049091E70401968D3091052CF49093DF
:101EE000E7048093E6046CC07092E7046092E60415
:101EF00067C0143089F48091E8049091E904019658
:101F00008F3AF8E09F070CF47CCF40ED57E05093F8
:101F1000E9044093E80454C0153009F44EC016306B
:101F200009F44DC0173089F48091EA049091EB04D4
:101F300001969093EB048093EA0448970CF440C018
:101F40001092EB041092EA043BC0183081F48091A7
:101F5000190190911A01019690931A018093190129
:101F6000CC9774F110921A011092190129C01930FE
:101F700081F48091E4049091E50401969093E50446
:101F80008093E404CC97E4F01092E5041092E4040A
:101F900017C01A30A9F4E090E404009119012091CF
:101FA000EA044091EC046091E6048091E804909189
:101FB000E9040E94130400E004C016E001C011E02F
:101FC00001E068EC70E080E090E00E94C60B07C082
:101FD000853021F41F5F1B3008F01AE001E068EC47
:101FE00070E080E090E00E94C60B812F90E0FC0141
:101FF0003197EA30F10508F03DC2EC5CFF4F0C94DC
:102000003E1782E0382E20C0B2E03B2E0DC0A9E082
:102010003A2E0AC0FEE03F2E07C0E8E03E2E14C074
:102020007DE0372E11C0312C4091E8045091E90435
:102030006091E6047091E7048091EC049091ED04C6
:102040000E949B0935C0312C4090E4045090E50477
:10205000E0901901F0901A018090EA049090EB044E
:102060000E945E0160E080E00E94660165E08AE90E
:1020700095E00E94890860E082E00E946601C40148
:102080000E94CB0160E085E00E946601C7010E94CA
:10209000CB0160E088E00E946601C2010E94CB0192
:1020A00060E08CE00E94660182E990E00E94AB0350
:1020B00061E0832D0E94660164E08AE995E00E9458
:1020C0008908153029F001114CCE0E94790906C00B
:1020D00063E08AE995E00E948908F5CF60E082E03C
:1020E0000E94660182ED90E00E94AB0360E082E016
:1020F0000E94660180912601082E000C990B0E9417
:10210000CB0160E086E00E9466018FEC90E00E94C7
:10211000AB0360E086E00E9466010091EA04109142
:10212000EB040A30110524F48DEC90E00E94AB031F
:10213000C8010E94CB0160E089E00E9466018AEC40
:1021400090E00E94AB0360E089E00E94660100918C
:10215000190110911A010A30110524F488EC90E05D
:102160000E94AB03C8010E94CB0161E08BE00E949A
:10217000660182EC90E00E94AB0361E08DE00E947A
:1021800066018091EE0490E00E94CB018091EF0403
:1021900090E00E94CB018091FA0490E00E94CB0174
:1021A00061E086E00E9466018CEB90E00E94AB0348
:1021B00061E086E00E9466010091FB041091FC043E
:1021C0000115110509F0A9C08090FE049090FF044C
:1021D000A0900005B0900105A5019401C501B401CE
:1021E0000E94E316882319F088ED94E01AC01401C8
:1021F0002501E89457F82FEF3FEF4FE75FE7C20163
:10220000B1010E94E31681110FC02FEF3FEF4FE79E
:102210005FE7C201B1010E94841518162CF48CED01
:1022200094E00E94780180C02FEF3FEF4FE75FE41A
:10223000C501B4010E94711618161CF480EE94E0DA
:10224000F0CF2FEF3FEF4FE75FECC501B4010E94E5
:10225000841587FDF3CF20E030E0A901C501B4016A
:102260000E94841587FF0AC041E06DE28AE995E08B
:102270000E943608B7FAB094B7F8B0942AE037ED68
:1022800043EA5BE3C501B4010E9418151B012C0150
:102290000E9490154B015C010E94BF159B01AC018F
:1022A000C201B1010E9417151B012C014AE0C501B2
:1022B000B4010E948A0141E06EE28AE995E00E9441
:1022C000360820E030E040E251E4C201B1010E9452
:1022D00076161B012C010E9490154B01A12CB12CEC
:1022E0004AE0C501B4010E948A01C501B4010E94FF
:1022F000BF159B01AC01C201B1010E94171520E07E
:1023000030E040E251E40E9476160E94901580E091
:1023100090E04AE00E948A0107C089EB90E00E94A9
:10232000AB03C8010E94CB010E94280A009126013C
:1023300050E1050280011124095D1E4FF8018081E2
:102340009181A281B3818093200190932101A09378
:102350002201B093230164817581868197810E9457
:10236000891570931D0160931C01F80160857185CA
:10237000828593850E9490157093250160932401B6
:10238000F80164857585868597850E949015709300
:102390001F0160931E0180911B01811107C068EB32
:1023A00074E280E090E00E94C60B02C010921B0114
:1023B00061E082E00E94C50464E670E080E090E0A5
:1023C0000E94C60B0E94E20364EF71E080E090E09F
:1023D0000E94C60B0E94E203E0918C05F0918D05EE
:1023E000138615861486DF011B96CF0103961E9275
:1023F0008A179B07E1F7BE01665F7F4FCF010E94FE
:102400008402882309F473C267E0CE010A960E9411
:102410008F08998989136BC235C0F0928705BFCBAD
:1024200020912601022E000C330B8091180190E0C0
:102430002817390709F43FCC60E089E00E94660163
:1024400085ED94E00E94780160E089E00E946601D9
:1024500080912601082E000C990B0E94CB018091DF
:1024600026018093180127CC25E0322EDDCD95E0A2
:10247000392EEACD163008F0E7CDD6CD0D3008F074
:102480009ACB9FCB80918C0590918D050E9442093B
:10249000882309F4CDC1BE016F5F7F4FCE010A963C
:1024A0000E94F401882309F4C3C168E0CE010196BB
:1024B0000E948F0899858913BBC12A8130E0C90128
:1024C000982F8827990F990F990F6981F8E06F9FCE
:1024D000B00111249C01262B372B8A858031C9F449
:1024E000688570E08F81AB01481B5109CA01969540
:1024F000982F8827979587950E9408176051710932
:10250000207F53E0220F331F5A95E1F7620F731FAC
:1025100001C0B901613854EE75070CF4E8C1072E0B
:10252000000C880B990B0E94C11520E030E040E0C0
:102530005CE30E9476164B015C0160E082E00E9441
:10254000C50420E030E04AEA52E4C501B4010E942B
:102550008415882351F020E030E04EEF52ECC501A5
:10256000B4010E948415811153C0C501B4010E94B9
:1025700089157093FC046093FB0481E090E00E9455
:10258000B30568EE73E080E090E00E94C60B8FEF29
:1025900090E00E94B30564EF71E080E090E00E945B
:1025A000C60B81E090E00E94B30564EF71E080E02B
:1025B00090E00E94C60B8FEF90E00E94B30564EF9D
:1025C00071E080E090E00E94C60B81E090E00E9404
:1025D000B30564EF71E080E090E00E94C60B8FEFDE
:1025E00090E00E94B30564EF71E080E090E00E940B
:1025F000C60B81E090E00E94B30568EE73E080E0D6
:1026000090E00E94C60B8FEF90E00E94B30504C0DB
:102610001092FC041092FB048092FE049092FF043E
:10262000A0920005B09201050091FB041091FC04FA
:102630000115110539F061E08FE00E94C504109288
:10264000EE042AC0809126018823A9F3209020015E
:1026500030902101409022015090230120E030E091
:1026600040E05FE3C201B1010E941715A50194018A
:102670000E947116181644F460E08FE00E94C504B1
:1026800081E08093EE0408C0A5019401C201B1016C
:102690000E94841518167CF6F0902601F11009C0EE
:1026A00061E080E10E94C5041092EF04012B01F16A
:1026B00018C090911C0189E1891B2091EA04309196
:1026C000EB041216130624F490E02817390744F39C
:1026D00060E080E10E94C50481E08093EF04012B5B
:1026E000A1F061E081E10E94C5041092FA0477C074
:1026F000F1100BC061E081E10E94C5041092FA0460
:102700001092F9041092F8046AC00091240110910B
:1027100025010115110571F3809020019090210190
:10272000A0902201B09023012090FE043090FF047D
:10273000409000055090010520E030E040E85FE364
:10274000C501B4010E941815A20191010E948415CF
:1027500087FF0CC060E081E10E94C50481E08093A6
:10276000FA048093F9041092F8043BC0A20191018D
:10277000C501B4010E94711687FD33C08091F90430
:10278000882351F061E081E10E94C5041092FA04AF
:102790001092F90481E09EC08091F804882309F426
:1027A00065C00E94000C0091F4041091F504209182
:1027B000F6043091F704DC01CB01801B910BA20BD6
:1027C000B30B0091F0041091F1042091F2043091C8
:1027D000F30480179107A207B30768F502C0FF2032
:1027E000F9F02091EC043091ED048091FD04082E65
:1027F000000C990B8217930799F02093FD04F39432
:10280000F09226010E94E3090E94D20980912601DC
:10281000893334F0109226010E94E3090E94D20904
:1028200080E090E0892B09F40FCA0E9400000CCAD6
:1028300060E874EE6FCE20911E0130911F01A0E67A
:10284000BAEE0E9444176093F0047093F1048093F1
:10285000F2049093F30461E081E10E94C5041092B8
:10286000FA041092F9041092F80436C00E94000C89
:102870008090F4049090F504A090F604B090F704D2
:10288000DC01CB0188199909AA09BB098090F004E1
:102890009090F104A090F204B090F304881599058B
:1028A000AA05BB0508F49DCF9801A0E6BAEE0E94E8
:1028B00044176093F0047093F1048093F2049093B2
:1028C000F30460E081E10E94C50481E08093FA0492
:1028D0001092F9048093F8040E94000C6093F404B1
:1028E0007093F5048093F6049093F7047ACF60E038
:1028F00082E00E94C504812C912C8EEFA82E82ECE0
:10290000B82E33CE10927E0510927D0588EE93E0AE
:10291000A0E0B0E080937F0590938005A0938105AF
:10292000B093820581EC94E090937C0580937B05C5
:1029300010929D0510929C0581ED94E090939B056B
:1029400080939A0588E080939E058FEF80939F0582
:1029500089E08093A00584E08093A10585E08093C1
:10296000A20586E08093A30587E08093A4051092DA
:10297000A5051092A6051092A7051092A805109221
:10298000A90581E00E94120560E083E00E948A0BA5
:10299000E0E2F1E0E491E093B205ECE0F1E0E491F3
:1029A000F0E0EE0FFF1FE150FF4F8591949190935F
:1029B000B4058093B3051092BD051092BF05109227
:1029C000BE05EDEBF5E0129285E0E53BF807D9F79F
:1029D0008FE396E0909399058093980582EB95E0BC
:1029E00090938D0580938C0510928B05109287052E
:1029F00089E08093880581E08093890580938A052A
:102A00000895F999FECF92BD81BDF89A992780B5B6
:102A10000895262FF999FECF1FBA92BD81BD20BD22
:102A20000FB6F894FA9AF99A0FBE01960895505885
:102A3000BB27AA270E942F150C9437160E9429162F
:102A400038F00E94301620F039F49F3F19F426F434
:102A50000C9426160EF4E095E7FB0C942016E92F53
:102A60000E94481658F3BA17620773078407950740
:102A700020F079F4A6F50C946A160EF4E0950B2E6E
:102A8000BA2FA02D0B01B90190010C01CA01A001C0
:102A90001124FF27591B99F0593F50F4503E68F11B
:102AA0001A16F040A22F232F342F4427585FF3CF5C
:102AB000469537952795A795F0405395C9F77EF42D
:102AC0001F16BA0B620B730B840BBAF09150A1F076
:102AD000FF0FBB1F661F771F881FC2F70EC0BA0FFC
:102AE000621F731F841F48F4879577956795B79584
:102AF000F7959E3F08F0B0CF9395880F08F099277F
:102B0000EE0F9795879508950E94FC1508F481E0D3
:102B100008950E9490156894B1110C946B16089555
:102B20000E94501688F09F5798F0B92F9927B751F7
:102B3000B0F0E1F0660F771F881F991F1AF0BA9561
:102B4000C9F714C0B13091F00E946A16B1E008953F
:102B50000C946A16672F782F8827B85F39F0B93F31
:102B6000CCF3869577956795B395D9F73EF4909514
:102B70008095709561957F4F8F4F9F4F0895E89492
:102B800009C097FB3EF490958095709561957F4FB5
:102B90008F4F9F4F9923A9F0F92F96E9BB27939563
:102BA000F695879577956795B795F111F8CFFAF473
:102BB000BB0F11F460FF1BC06F5F7F4F8F4F9F4FA4
:102BC00016C0882311F096E911C0772321F09EE802
:102BD000872F762F05C0662371F096E8862F70E068
:102BE00060E02AF09A95660F771F881FDAF7880F42
:102BF0009695879597F90895990F0008550FAA0B98
:102C0000E0E8FEEF16161706E807F907C0F01216FF
:102C10001306E407F50798F0621B730B840B950B02
:102C200039F40A2661F0232B242B252B21F4089557
:102C30000A2609F4A140A6958FEF811D811D0895F4
:102C400097F99F6780E870E060E008959FEF80EC5F
:102C5000089500240A941616170618060906089502
:102C600000240A9412161306140605060895092E68
:102C70000394000C11F4882352F0BB0F40F4BF2BD7
:102C800011F460FF04C06F5F7F4F8F4F9F4F089517
:102C900057FD9058440F551F59F05F3F71F047950D
:102CA000880F97FB991F61F09F3F79F087950895F2
:102CB000121613061406551FF2CF4695F1DF08C011
:102CC000161617061806991FF1CF8695710561052E
:102CD00008940895E894BB2766277727CB0197F9D6
:102CE00008950E94FC1508F48FEF08950E9489163C
:102CF0000C9437160E94291638F00E94301620F0E6
:102D0000952311F00C9420160C94261611240C9483
:102D10006B160E94481670F3959FC1F3950F50E013
:102D2000551F629FF001729FBB27F00DB11D639F7D
:102D3000AA27F00DB11DAA1F649F6627B00DA11D23
:102D4000661F829F2227B00DA11D621F739FB00DC9
:102D5000A11D621F839FA00D611D221F749F332739
:102D6000A00D611D231F849F600D211D822F762FD2
:102D70006A2F11249F5750409AF0F1F088234AF0AF
:102D8000EE0FFF1FBB1F661F771F881F915050401B
:102D9000A9F79E3F510580F00C9420160C946B16F9
:102DA0005F3FE4F3983ED4F3869577956795B795A2
:102DB000F795E7959F5FC1F7FE2B880F911D9695BC
:102DC000879597F908950E94FC15880B990B089533
:102DD000991B79E004C0991F961708F0961B881F6D
:102DE0007A95C9F780950895AA1BBB1B51E107C0CE
:102DF000AA1FBB1FA617B70710F0A61BB70B881F8B
:102E0000991F5A95A9F780959095BC01CD01089519
:102E100097FB072E16F4009407D077FD09D00E9487
:102E2000F41607FC05D03EF4909581959F4F0895C8
:102E3000709561957F4F0895A1E21A2EAA1BBB1BC6
:102E4000FD010DC0AA1FBB1FEE1FFF1FA217B30776
:102E5000E407F50720F0A21BB30BE40BF50B661F8C
:102E6000771F881F991F1A9469F760957095809550
:102E700090959B01AC01BD01CF010895EE0FFF1F9E
:102E80000590F491E02D0994A29FB001B39FC00179
:102E9000A39F700D811D1124911DB29F700D811D86
:102EA0001124911D08950E944417A59F900DB49F71
:102EB000900DA49F800D911D1124089581E090E054
:0A2EC000F8940C946317F894FFCF08
:102ECA0000000E1517110E00040E1F00001F0E043D
:102EDA00000004021F020400633D00011400050003
:102EEA000000C041010001000000000000000000D5
:102EFA0000000000000000000008420000C041007D
:102F0A0000000000000000000008420000C041006C
:102F1A0000000000000000000008420000C041005C
:102F2A0000000000000000000000420000C0410054
:102F3A0000803F00000041000000420000C0410044
:102F4A0000803F00000041000000420000C0410034
:102F5A0000803F00000041000000420000C0410024
:102F6A0000803F000000410000F0410000B841002D
:102F7A0000803F000000410000F0410000B841001D
:102F8A0000803F000000410000F0410000B841000D
:102F9A0000803F000000410000F0410000B84100FD
:102FAA0000803F000000410000E0410000B0410005
:102FBA0000803F0000E0400000E0410000B0410016
:102FCA0000803F0000E0400000E0410000B0410006
:102FDA0000803F0000E0400000E0410000B04100F6
:102FEA0000803F0000E0400000D0410000A0410006
:102FFA0000803F0000E0400000D0410000A04100F6
:10300A0000803F0000E0400000D0410000A04100E5
:10301A0000803F0000E0400000D0410000A04100D5
:10302A0000803F0000E0400000C0410000A04100D5
:10303A0000803F0000A0400000C0410000A0410005
:10304A0000803F0000A0400000C0410000A04100F5
:10305A0000803F0000A0400000C0410000A04100E5
:10306A0000803F0000A0400000C0410000A04100D5
:10307A0000803F0000A0400000C0410000A04100C5
:10308A0000803F0000A0400000B0410000A04100C5
:10309A0000803F0000A0400000B0410000A04100B5
:1030AA0000803F0000A0400000B0410000A04100A5
:1030BA0000803F0000A0400000B0410000A0410095
:1030CA0000803F0000A0400000B0410000A0410085
:1030DA0000803F0000A0400000B0410000A0410075
:1030EA0000803F0000A0400000B0410000A0410065
:1030FA0000803F0000A0400000B0410000A0410055
:10310A0000803F0000A0400000B0410000A0410044
:10311A0000803F0000A0400000B0410000A0410034
:10312A0000803F0000A040000088410000B041003C
:10313A0000803F00008040000088410000B041004C
:10314A0000803F00008040000088410000B041003C
:10315A0000803F00008040000088410000B041002C
:10316A0000803F00008040000088410000B041001C
:10317A0000803F00008040000088410000B041000C
:10318A0000803F00008040000088410000B04100FC
:10319A0000803F00008040000088410000B04100EC
:1031AA0000803F00008040000088410000B04100DC
:1031BA0000803F00008040000088410000B04100CC
:1031CA0000803F00008040000088410000B04100BC
:1031DA0000803F00008040000088410000B04100AC
:1031EA0000803F00008040000088410000B041009C
:1031FA0000803F00008040000088410000B041008C
:10320A0000803F00008040000080410000B841007B
:10321A0000803F00008040000080410000B841006B
:10322A0000803F00008040000080410000B841005B
:10323A0000803F00008040000080410000B841004B
:10324A0000803F00008040000080410000B841003B
:10325A0000803F00008040000080410000B841002B
:10326A0000803F00008040000080410000B841001B
:10327A0000803F000080405E00BC00770100000033
:10328A000098066B0663064F0640063F06000000DC
:10329A00008908600B2020006E616E00696E66006E
:0432AA006F766600D5
:00000001FF
