:100000000C9424010C944C010C944C010C944C0164
:100010000C944C010C944C010C944C010C944C012C
:100020000C944C010C944C010C944C010C944C011C
:100030000C944C010C944C010C944C010C944C010C
:100040000C94A70A0C944C010C944C010C944C0198
:100050000C944C010C944C010C944C010C944C01EC
:100060000C94F10A0C944C011F1C1F1E1F1E1F1F15
:100070001E1F1E1F4F4B0074656D70002020484CE2
:1000800043003A004400005EBCE2613FDD83C29C55
:100090007E20A3FD1F419DC3217FFCA2401E5F0166
:1000A000E3BD3E6082DC237D9FC1421CFEA0E1BF18
:1000B0005D0380DE3C62BEE0025CDF81633D7C224A
:1000C000C09E1D43A1FF4618FAA427799BC584DA78
:1000D0003866E5BB5907DB856739BAE40658194726
:1000E000A5FB7826C49A653BD987045AB8E6A7F9D8
:1000F0001B45C6987A24F8A6441A99C7257B3A640A
:1001000086D85B05E7B98CD2306EEDB3510F4E1037
:10011000F2AC2F7193CD114FADF3702ECC92D38DE5
:100120006F31B2EC0E50AFF1134DCE90722C6D3397
:10013000D18F0C52B0EE326C8ED0530DEFB1F0AEC9
:100140004C1291CF2D73CA947628ABF517490856F7
:10015000B4EA6937D58B5709EBB536688AD495CBA5
:100160002977F4AA4816E9B7550B88D6346A2B7557
:1001700097C94A14F6A8742AC896154BA9F7B6E889
:100180000A54D7896B35636F6E74726F6C6C6572CD
:10019000004249524420484F55534500534156456B
:1001A0000053415645440073656C65637420746F59
:1001B00020736176650073657420646179004D4534
:1001C0004E55006572002020202020002020202095
:1001D00020003000202000300020200020200000DF
:1001E000000000240027002A00000000002500284D
:1001F000002B0000030205000305010406020400B1
:1002000000000800020100000304070000000000D5
:100210000000000000000023002600290004040460
:10022000040404040402020202020203030303039F
:10023000030102040810204080010204081020017C
:100240000204081020000C0C11241FBECFEFD8E0D0
:10025000DEBFCDBF14E0A0E0B1E0E8E8FEE202C0FE
:1002600005900D92A43EB107D9F726E0A4EEB4E0C4
:1002700001C01D92A831B207E1F711E0C4E2D1E05C
:1002800004C02197FE010E942217C332D107C9F78B
:100290000E94840C0C9442170C9400000895209145
:1002A000D20581E0213208F044C08091AE05811171
:1002B000FCCF8091D10592E09093AE0591E09093B0
:1002C000AD059FEF9093AC051092AB052093AA0566
:1002D000A1EBB5E0EAE8F5E090E0291331C0109217
:1002E000890590918905880F892B809389058091D4
:1002F0008805813049F510928805809189058093A1
:10030000BB008091BC0083FDF8CF85EC8093BC00DE
:100310008091AE058230E1F38091AC058F3FB1F062
:100320008091AC058032A1F08091AC05803391F0D2
:1003300084E01092B0051092D2051092AF05089596
:100340003D9131939F5FC9CF85EEE0CF80E0F1CF43
:1003500082E0EFCF83E0EDCF90E0FC01E150FE4F73
:100360002491FC01EF5CFD4F3491FC01E35EFD4FF5
:10037000E491EE23C9F0222339F0233001F1A8F4EF
:10038000213019F1223029F1F0E0EE0FFF1FE75183
:10039000FE4FA591B4918FB7F894EC91611126C0EE
:1003A00030953E233C938FBF08952730A9F0283025
:1003B000C9F0243049F7809180008F7D03C080917F
:1003C00080008F7780938000DFCF84B58F7784BDE6
:1003D000DBCF84B58F7DFBCF8091B0008F7780938A
:1003E000B000D2CF8091B0008F7DF9CF3E2BDACF15
:1003F000CF93DF9390E0FC01EF5CFD4F2491835E8F
:100400009D4FFC0184918823D1F090E0880F991FC3
:10041000FC01E152FE4FA591B491FC01E751FE4F62
:10042000C591D49161110EC09FB7F8948C91E22FC1
:10043000E0958E238C932881E223E8839FBFDF9190
:10044000CF9108958FB7F894EC91E22BEC938FBF86
:10045000F6CFCF93DF93EC0161E08AE00E94F801D0
:10046000209731F460E08AE0DF91CF910C94AC01E9
:10047000CF3FD10511F461E0F6CFE9E0F2E0E4917D
:10048000E33029F140F4E130B1F0E230D9F0C03886
:10049000D1058CF7E7CFE73021F1E83051F1E430B6
:1004A000B1F780918000806280938000D0938B00B0
:1004B000C0938A0004C084B5806884BDC7BDDF9145
:1004C000CF91089584B5806284BDC8BDF8CF809176
:1004D0008000806880938000D0938900C09388005A
:1004E000EECF8091B00080688093B000C093B300DD
:1004F000E6CF8091B00080628093B000C093B400DA
:10050000DECF3FB7F8948091560590915705A091A2
:100510005805B091590526B5A89B05C02F3F19F085
:100520000196A11DB11D3FBFBA2FA92F982F882773
:10053000BC01CD01620F711D811D911D42E0660F4E
:10054000771F881F991F4A95D1F708958F929F9220
:10055000AF92BF92CF92DF92EF92FF926B017C013C
:100560000E9481024B015C01C114D104E104F10439
:10057000B9F00E948102681979098A099B09683ECD
:1005800073408105910580F321E0C21AD108E1088A
:10059000F10888EE880E83E0981EA11CB11CE4CF00
:1005A000FF90EF90DF90CF90BF90AF909F908F9093
:1005B00008952FB7F894609152057091530580917A
:1005C0005405909155052FBF0895AF92BF92CF92D9
:1005D000DF92EF92FF920F931F93CF93DF936C0103
:1005E0007B018B01040F151FEB015E01AE18BF08E4
:1005F000C017D10759F06991D601ED91FC91019096
:10060000F081E02DC6010995892B79F7C501DF91AD
:10061000CF911F910F91FF90EF90DF90CF90BF90FF
:10062000AF9008958091660590916705891B990B9D
:10063000089585ED8093BC008091BC0084FDFCCFC3
:100640001092AE05089520911005260F3327331F11
:1006500021323105ECF42091AE05FC0190E080E000
:10066000243069F082E00895A09110052191AC0139
:1006700040515B4FA40FB52FB11D2C9301968617E7
:1006800098F380911005680F6093100580E008953D
:1006900081E00895E091670580916605E81730F4E0
:1006A000F0E0E859FA4F808190E008958FEF9FEFD6
:1006B000089590916705809166052FEF3FEF981799
:1006C00048F4E92FF0E0E859FA4F208130E09F5FCD
:1006D00090936705C9010895CF92DF92EF92FF9240
:1006E0000F931F93CF93DF937C01CB018A0120915D
:1006F000AF05222389F0EB016B01C40ED51ECC158A
:10070000DD0569F06991D701ED91FC910190F081CF
:10071000E02DC7010995F3CF642F0E942303C80180
:10072000DF91CF911F910F91FF90EF90DF90CF90CD
:100730000895CF93DF931F92CDB7DEB769832091E1
:10074000AF052223F9F02091D205203258F021E0A4
:1007500030E0FC013383228390E080E00F90DF9152
:10076000CF9108958091B005E82FF0E0EF54FA4F53
:10077000998190838F5F8093B0058093D20581E04B
:1007800090E0ECCF61E0CE0101960E942303F7CF09
:10079000CF92DF92EF92FF920F931F93CF93DF934D
:1007A000EC01F62ED42EC22E81E08093AF0588E6B0
:1007B0008093D1051092B0051092D20560E083EDD0
:1007C00095E00E9499031AE08E2D612F0E94CC16AD
:1007D0008295807F682F690F83ED95E00E949903D1
:1007E000802F612F0E94CC168295807F682F690F21
:1007F00083ED95E00E9499038C2D612F0E94CC1609
:100800008295807F682F690F83ED95E00E949903A0
:1008100081E090E022E02F1510F490E080E08E015E
:10082000081B190B8F2D8150990BFC01ED50FE4FC9
:10083000E49198012D0D311DC801969587959695E7
:100840008795280F391FC80160E971E00E94D8160A
:10085000260F371FC80164E670E00E94D816C90150
:10086000861B970B8E0F911D67E070E00E94D816D3
:10087000682F811101C067E083ED95E00E94990324
:10088000DAE08D2D6D2F0E94CC168295807F682F27
:10089000690F83ED95E00E9499038F2D6D2F0E94C3
:1008A000CC168295807F682F690F83ED95E00E94BA
:1008B00099038C2F805D6D2F0E94CC168295807FCE
:1008C000682F690F83ED95E00E94990360E083ED46
:1008D00095E00E949903DF91CF911F910F91FF90B6
:1008E000EF90DF90CF900C944F01DC0180E06150DD
:1008F00038F0ED91E827F0E0EA57FF4F8491F7CF09
:100900000895DC012C911196ED91FC91F894818170
:10091000822B81839281322F30959323928387E0BB
:1009200090E00197F1F781818323818383E290E056
:100930000197F1F790817894EFECF0E03197F1F7BF
:10094000922381E009F480E00895FC019081018008
:10095000F281E02D292F209560FF14C0F894828148
:10096000822382838181892B8183A3E2B0E0119766
:10097000F1F78281982B9283789487ED90E001972C
:10098000F1F70895F8948281822382838181892BF3
:100990008183AFEFB0E01197F1F78281982B9283BA
:1009A00078948FE090E0EBCFDF92EF92FF920F937D
:1009B0001F93CF93DF93EC01D62EE42E08E010E0D6
:1009C000FF24F39461E08D2D8F2109F460E0CE01C6
:1009D0000E94A504FF0C01501109A1F7E11010C0FD
:1009E000F894E981FA8191818881809589238183B6
:1009F000E981FA8192818881809589238283789424
:100A0000DF91CF911F910F91FF90EF90DF900895AC
:100A1000EF92FF920F931F93CF93DF938C017B0193
:100A200040E065E50E94D404E70188E0E80EF11C8F
:100A3000699140E0C8010E94D404CE15DF05C1F7DA
:100A4000DF91CF911F910F91FF90EF900895FC01DE
:100A500090810180F281E02DF8948181292F2095E9
:100A60008223818378943DE743E050E0315029F1BF
:100A7000DA011197F1F780818923C1F3F89482811B
:100A8000822382838181892B81837894ABE7B7E0CD
:100A90001197F1F7F894818182238183A3E1B1E07A
:100AA0001197F1F78081982381E009F080E0789434
:100AB000E3E6F6E03197F1F7089580E00895AF920C
:100AC000BF92CF92DF92EF92FF920F931F93CF933B
:100AD000DF938B01BC018091E4059091E5050E94B4
:100AE000080540E06EEB8091E4059091E5050E94D9
:100AF000D404E801680189E0C80ED11CA090E40587
:100B0000B090E50588E0E82EF12C10E001E0C50189
:100B10000E9481048111102B000F81E0E81AF10876
:100B2000B1F71993CC16DD0649F78091E405909151
:100B3000E5050E94270591E0813009F090E0892FBA
:100B4000DF91CF911F910F91FF90EF90DF90CF90A9
:100B5000BF90AF9008950F931F93CF93DF93CDB7BE
:100B6000DEB729970FB6F894DEBF0FBECDBF8C015C
:100B70008091E4059091E5050E942705811102C04E
:100B800080E01FC0BE016F5F7F4FC8010E945F05FC
:100B90008823B1F368E0CE0101960E94750499851F
:100BA0008913EECF8D818F33B9F020F48F3141F767
:100BB00089E007C08F3521F08F3711F78CE001C035
:100BC0008BE029960FB6F894DEBF0FBECDBFDF9144
:100BD000CF911F910F9108958AE0F3CF80E4809325
:100BE0007C0080917A00806480937A0080917A0002
:100BF00086FDFCCF8091780020917900322F282F3C
:100C0000233431058CF02D3D310584F02C3881E002
:100C1000380774F02A3592E0390764F081E029360C
:100C200033404CF080E0089585E0089584E0089515
:100C300083E0089582E00895FC0101900020E9F727
:100C40003197AF01481B590BBC0180E096E00C9432
:100C5000E5028F929F92AF92BF920F931F93CF9313
:100C6000DF93CDB7DEB7A1970FB6F894DEBF0FBE06
:100C7000CDBF19A2423008F44AE08E010F5D1F4F2C
:100C8000842E912CB12CA12CA50194010E94001757
:100C9000E62FB901CA01EA30F4F4E05DD801EE9321
:100CA0008D01232B242B252B79F790E080E01097E2
:100CB00019F0CD010E941C06A1960FB6F894DEBF74
:100CC0000FBECDBFDF91CF911F910F91BF90AF901D
:100CD0009F908F900895E95CE1CFBF92CF92DF9211
:100CE000EF92FF920F931F93CF93DF93EC01B62EF9
:100CF000C72EED84E11004C00E94270581110EC0AB
:100D00001B861D861C8680E0DF91CF911F910F917D
:100D1000FF90EF90DF90CF90BF90089540E060EF9C
:100D2000CE010E94D404D12C01E011E0CE010E943A
:100D30008104F82ECE010E94810491E0F91218C0BE
:100D4000813099F51134E0F2EB86E11002C081E0C8
:100D50008D878B818823A1F22396EB2DFC2DCF016B
:100D6000089629912193E817F907D9F781E0CCCFAC
:100D7000ED2DF0E0F8120FC08B851817A0F4DE01FE
:100D8000AE0FBF1F13968C91802379F4F12C19308C
:100D900008F41C87E12EEC0FFD1F8381902F9095A6
:100DA000892383830AC08113F1CFFE01ED0DF11D6C
:100DB0008381802B8383FF24F3946F2DCE010E94C7
:100DC000A5041F5F000F11F4D39401E087E08D1597
:100DD00008F0ACCFB7CF9091AE059111FCCF282F82
:100DE00091E09093AE059093AD053FEF3093AC0545
:100DF0001092AB05380F3093AA0590938905909116
:100E00008905906D9093890590918805913019F529
:100E100010928805909189059093BB009091BC0039
:100E200093FDF8CF95EC9093BC009091AE05913076
:100E3000E1F39091AB05981710F42091AB05AAE867
:100E4000B5E0E8E6F5E080E0821307C010926705A0
:100E500080936605089595EEE6CF9D9191938F5FFF
:100E6000F3CF3F924F925F926F927F928F929F92B9
:100E7000AF92BF92CF92DF92EF92FF920F931F93A8
:100E8000CF93DF93CDB7DEB76A970FB6F894DEBF86
:100E90000FBECDBF81E08093AF0588E68093D1057A
:100EA0001092B0051092D20560E083ED95E00E94AB
:100EB00099030E944F0187E090E00E94EB06909119
:100EC0006605809167059817F1F38E01015F1F4F4A
:100ED000CE0101967C015AE0D52E83ED95E00E946B
:100EE0005903982F92959F708F709D9D800D1124AE
:100EF00090E0F801929382938F01EE16FF0669F756
:100F00000E944F0189819A814C01F0E38F1AF8EF1A
:100F10009F0A90925B0580925A056B807C80562DCB
:100F200060925C050D811E8100935D052F812093E9
:100F30006105E984FA845E2CE0925E05CB84DC8452
:100F40004C2CC0925F05AD84BE843A2CA092600503
:100F500011279801E8E6F0E041E0451730F464918C
:100F6000260F311D4F5F3196F8CF523039F4AC0166
:100F700043705527452B11F42F5F3F4FF401ED5C73
:100F8000F740F695E795F695E7956DE671E0869F53
:100F9000A001879F500D969F500D1124E40FF51F5F
:100FA00031972E0F3F1FA8E1B0E00E9428179B0148
:100FB000AC01250D311D411D511DACE3B0E00E9477
:100FC00037179B01AC01240D311D411D511D0E949D
:100FD0003717630D711D811D911D60597A4C82492F
:100FE000974C6093620570936305809364059093BA
:100FF00065058CE0EAE5F5E0DE011F9601900D92B3
:101000008A95E1F78CE0FE013F96A4EEB4E00190F2
:101010000D928A95E1F7BB24B0923405A092330576
:10102000DD24D0921A01C0921901FF24F0923B05F1
:10103000E0923A0510934B0500934A05772470928D
:1010400036056092350590923805809237056A968C
:101050000FB6F894DEBF0FBECDBFDF91CF911F91C9
:101060000F91FF90EF90DF90CF90BF90AF909F9047
:101070008F907F906F905F904F903F9008958091F8
:10108000E4059091E5050E94270540E06CEC809115
:10109000E4059091E5050E94D4044091DF0564E4E5
:1010A0008091E4059091E5050E94D4048091E105CA
:1010B0008823A1F0E091E005E9506EEE72E0E330A4
:1010C00038F4F0E0EE0FFF1FE954FB4F60817181AF
:1010D000072E000C880B990B0C94A6020895CF9351
:1010E000DF93EC0160E08E810E94AC0161E08E81B3
:1010F0000E94AC0160E08E810E94AC018BE891E01F
:101100000197F1F7DF91CF910895CF92DF92EF929F
:10111000FF920F931F93CF93DF936C017C0187E0C5
:10112000E80EF11CD0E0C0E0062F10E0B8010C2E54
:1011300002C0759567950A94E2F76170F701819195
:101140007F010E94AC012196C430D10579F7C60118
:10115000DF91CF911F910F91FF90EF90DF90CF9093
:101160000C946F08CF92DF92EF92FF920F931F9330
:10117000CF93DF93EC01F62E642F8C810E94AC019B
:101180008D818F3F19F060E00E94AC010F2D10E0BF
:101190008F8584FF25C06E0187E0C80ED11CF12C1D
:1011A000E12CB8010E2C02C0759567950A94E2F700
:1011B0006170F60181916F010E94AC01FFEFEF1A9F
:1011C000FF0A88E0E816F10461F7CE01DF91CF91C4
:1011D0001F910F91FF90EF90DF90CF900C946F08CC
:1011E000B80184E0759567958A95E1F7CE010E9474
:1011F00085086F2DCE01DF91CF911F910F91FF9048
:10120000EF90DF90CF900C94850840E0682F80E04D
:1012100096E00C94B20881E00E9405098BE39FE1FF
:101220000197F1F70895CF93DF93823029F49091DD
:101230000F06986090930F06809313061092140681
:1012400080E48093150680E18093160680E5809304
:10125000170661E0809104060E94F801809105065E
:101260008F3F19F061E00E94F80161E0809106066D
:101270000E94F801C0E0D6E09E01205036408091E7
:101280000F0684FD0BC084E090E0219628173907F3
:1012900044F461E08E810E94F801EECF88E090E096
:1012A000F4CF8BE39DE00197F1F760E080910406B5
:1012B0000E94AC0160E0809106060E94AC01809122
:1012C00005068F3F19F060E00E94AC0180910F0687
:1012D00084FD34C063E080E096E00E948508CBE4A2
:1012E000D6E4CE010197F1F763E080E096E00E943A
:1012F00085082197F1F763E080E096E00E94850879
:1013000083E592E00197F1F762E080E096E00E94C9
:10131000850880910F0680620E94050984E0809311
:1013200010068CE00E9405090E940B0982E0809360
:10133000110686E0DF91CF910C94050980620E942E
:1013400005098BE496E40197F1F780910F0680621E
:101350000E94050983E592E00197F1F780910F065D
:1013600080620E940509D5CF90911306691710F08D
:101370006FEF690FE62FF0E0E050FA4F9489890F84
:1013800080680C94050941E00E94B20881E090E079
:1013900008950F931F93CF93DF938B0128E0829FD3
:1013A000C001112480640E940509E801085F1F4FF5
:1013B000699180E096E00E94C309C017D107C1F788
:1013C000DF91CF911F910F910895CF92DF92EF920D
:1013D000FF926C01990FEE08FF08F7FE16C041E07E
:1013E0006DE280E096E00E94B20866277727CB0185
:1013F0006C197D098E099F094AE00E942906019611
:10140000FF90EF90DF90CF9008954AE0C701B601BA
:10141000FF90EF90DF90CF900C9429060F931F93CD
:10142000CF93DF938C01D0E0C0E0F801EC0FFD1FFB
:101430006491662339F041E080E096E00E94B208B2
:101440002196F3CFCE01DF91CF911F910F91089597
:101450000E940B0960E080E00E94B40984E890E0FB
:101460000E940E0A60E088E00E94B40982E890E0E1
:101470000E940E0A60E08BE00E94B4098CE790E0C5
:101480000E940E0A61E080E00E94B40987E790E0C4
:101490000C940E0AEF92FF920F931F93CF93DF935A
:1014A0007C018B01EA010E940B0960E080E00E9450
:1014B000B40965E080E096E00E94C30960E082E044
:1014C0000E94B409C7010E94E50960E085E00E941E
:1014D000B409C8010E94E50960E088E00E94B409EF
:1014E000CE010E94E50960E08EE00E94B40984E725
:1014F00090E0DF91CF911F910F91FF90EF900C94AE
:101500000E0A82E090E00E94E51460914A05709115
:101510004B058617170621F082E090E00C94ED143D
:101520000895CF93C091260190E080E00E94E514D9
:101530002C2F0C2E000C330B8217130631F06C2F5E
:1015400090E080E0CF910C94ED14CF9108951F921C
:101550000F920FB60F9211242F933F938F939F9367
:10156000AF93BF938091520590915305A09154057C
:10157000B09155053091510523E0230F2D3758F5D3
:101580000196A11DB11D20935105809352059093A2
:101590005305A0935405B09355058091560590913D
:1015A0005705A0915805B09159050196A11DB11D8F
:1015B0008093560590935705A0935805B09359050D
:1015C000BF91AF919F918F913F912F910F900FBE3F
:1015D0000F901F90189526E8230F0296A11DB11DAC
:1015E000D2CF1F920F920FB60F9211242F933F93D9
:1015F0004F935F936F937F938F939F93AF93BF931B
:10160000EF93FF938091B900887F803609F44AC038
:10161000F0F5883209F4A5C018F5803109F499C0B5
:10162000B8F4882309F4F5C0883009F492C0FF911A
:10163000EF91BF91AF919F918F917F916F915F914A
:101640004F913F912F910F900FBE0F901F901895C3
:10165000883109F486C0803251F78093AC0514C0FC
:10166000803409F49BC040F48033B9F38833F9F631
:101670008093AC0585ECAEC0803509F483C0883515
:1016800009F494C0883499F60E941903D0CF8839A0
:1016900009F48AC038F5883729F050F4883611F0FB
:1016A000803729F683E08093AE051092320555C04D
:1016B000883809F479C0803919F0803809F0B7CF3B
:1016C00080913205803208F06FC0E091320581E0F0
:1016D0008E0F809332058091BB00F0E0EE5EFA4FF2
:1016E00080833BC0803B39F0D0F4803A09F477C066
:1016F000883A09F09CCF84E08093AE0510921105E2
:1017000010921005F0E0E0E009958091100581113C
:101710000FC081E0809310051092F00409C0803C56
:1017200009F4A8CF883C09F4A5CF883B09F07FCF06
:10173000E091110581E08E0F80931105F0E0E051FA
:10174000FB4F80818093BB00909111058091100523
:1017500029C0809189058093BB0085EC8093BC00F3
:1017600066CF9091AB058091AA05981758F5E09146
:10177000AB0581E08E0F8093AB05F0E0E657FA4FA2
:101780008081E9CFE091AB0581E08E0F8093AB05BE
:101790008091BB00F0E0E657FA4F80839091AB0553
:1017A0008091AA059817C8F285E8D8CFE091AB05DB
:1017B00081E08E0F8093AB058091BB00F0E0E6578F
:1017C000FA4F80838091AD0581115ECF81E08093D7
:1017D000880584EA8093BC001092AE0528CF85EC82
:1017E0008093BC001092AE0580913205803230F4B7
:1017F000E0913205F0E0EE5EFA4F10826091320522
:1018000070E082E195E0F0E0E0E0099510923205A9
:101810000ECF1092AC0538CFCF93E3EDF5E01382F5
:10182000128288EE93E0A0E0B0E084839583A683E3
:10183000B78381EC94E091838083E0E0F6E013824B
:10184000128281ED94E09183808388E084838FEF1E
:101850008583C9E0C68384E0878385E0808786E04E
:10186000818787E0828713861486158616861786F9
:1018700081E00E94130960E083E00E94F801E4E344
:10188000F2E0E491A2EFB5E0EC93E0E2F2E0E49163
:10189000F0E0EE0FFF1FED5EFD4F859194911296E3
:1018A0009C938E9311971B961C921B971D961C92CE
:1018B0001D971C961C921C971A961C921A971996A3
:1018C0001C92199718961C92189717961C921797A6
:1018D00016961C92169715961C92159714961C92A4
:1018E000149713961C921397EFEDF5E08EE491E0B8
:1018F000928B818BB683A58314821082C18381E091
:1019000082838383CF910895CF93DF93CDB7DEB7E2
:1019100061970FB6F894DEBF0FBECDBF789484B543
:10192000826084BD84B5816084BD85B5826085BDDB
:1019300085B5816085BD80916E00816080936E0069
:10194000109281008091810082608093810080915B
:10195000810081608093810080918000816080930C
:1019600080008091B10084608093B1008091B000CC
:1019700081608093B00080917A00846080937A00C7
:1019800080917A00826080937A0080917A008160F1
:1019900080937A0080917A00806880937A00109218
:1019A000C10061E08FE00E94F80161E081E10E94E6
:1019B000F80161E080E10E94F80161E08FE00E949F
:1019C000AC0161E081E10E94AC0161E080E10E9434
:1019D000AC0110926705109266051092B005109246
:1019E000D2051092AE0511E01093AD051092880556
:1019F00061E082E10E94AC0161E083E10E94AC0100
:101A00008091B9008E7F8093B9008091B9008D7F5D
:101A10008093B90088E48093B80085E48093BC008B
:101A20001093AF0588E68093D1051092B00510920F
:101A3000D2056EE083ED95E00E9499030E944F016C
:101A400081E090E00E94EB06909166058091670529
:101A50009817F1F383ED95E00E945903082F0E9437
:101A60004F0111E01093AF051092B0051092D2050E
:101A70006EE083ED95E00E949903602F6B7383ED18
:101A800095E00E9499030E944F0180ED97E09093AA
:101A90005B0580935A0510935C0510935D051092C9
:101AA0005E0510925F051092600586E080936105E7
:101AB00080E795E3ADE6B8E3809362059093630514
:101AC000A0936405B093650590E080E00E94E51462
:101AD000182F8093260160E08AE00E94F8018FEFC2
:101AE00090E00E94290260E171E083E00E94C90950
:101AF00068E071E084E00E94C90960E071E085E07F
:101B00000E94C90968EC70E080E090E00E94A602A3
:101B100082E00E94130968EC70E080E090E00E948F
:101B2000A6020E940B0960E083E00E94B40981E9EB
:101B300091E00E940E0A61E083E00E94B40986E809
:101B400091E00E940E0A68EE73E080E090E00E944F
:101B5000A602E091E405F091E5051386158614864A
:101B600012861186108617821682158214821382BD
:101B70001092E305FF24F394BE016F5F7F4F8091C5
:101B8000E4059091E5050E946D06882309F454C090
:101B900067E0CE0101960E94750498858913ECCF09
:101BA0008091DF05811128C08091E4059091E505C1
:101BB0000E942705BE016F5F7F4F8091E4059091E1
:101BC000E5050E94080540E064EB8091E4059091F2
:101BD000E5050E94D4048091E4059091E5050E94FA
:101BE0008104082F8091E4059091E5050E94270566
:101BF000011102C0F092DF050091E005898180317A
:101C000009F4DFC6CE0101960E94AB05801750F49F
:101C10008091E0058093E0058091E3058F5F8093DC
:101C2000E305AACF8981803111F48CE0F3CFCE0196
:101C300001960E94AB05EECF61E082E00E94F801C0
:101C40000E94310782E090E00E94E51480934C05E9
:101C500060914A0570914B05082E000C990B861770
:101C6000970709F4D1C082E090E00E94ED148091C2
:101C700026018F5F809326010E94910A80914A0578
:101C800080934C050E94280A22242394312C6BE374
:101C9000C62ED12C0E94EE05182F882309F44FC2BE
:101CA00068EC70E080E090E00E94A602113009F03C
:101CB00046C283E6809318010E940B0960E086E02B
:101CC0000E94B4098EEB91E00E940E0A68E873E16D
:101CD00080E090E00E94A6020E940B0960E080E094
:101CE0000E94B40986EB91E00E940E0A61E081E057
:101CF0000E94B40987EA91E00E940E0A48E3F42E9C
:101D000001E00E94EE05182F882309F48CC06CE2D4
:101D100071E080E090E00E94A602113009F07CC0E2
:101D20000E94910A0E940B0960E085E00E94B409BC
:101D300081EA91E00E940E0A60ED77E080E090E099
:101D40000E94A6020E943107409137055091380544
:101D5000609135057091360580914A0590914B054B
:101D60000E944A0A61E080E00E94B40964E080E0D9
:101D700096E00E94C309412C552453943FE1632E01
:101D8000712C0E94EE058823E1F3813009F07DC0BB
:101D9000852D8B7F813009F49DC126E0521699F084
:101DA0004AE054129CC0E090330500911901209143
:101DB0003A0540914A05609135058091370590912B
:101DC00038050E94C80310E068EC70E080E090E005
:101DD0000E94A60268EC70E080E090E00E94A602FB
:101DE000EFEFE50DEA3008F099C3F0E0E650F14F6F
:101DF0000C942217B4147B10B61486128912B914ED
:101E0000BB148C12C312C61211113CCF81E0809317
:101E100026010E94910A36CF80912601123061F589
:101E20008150809326018091260189334CF10093E3
:101E3000260180912601082E000C990B2091180193
:101E40002817190609F45DCF60E089E00E94B40903
:101E500085ED94E00E941C0660E089E00E94B409D0
:101E600080912601082E000C990B0E94E5098091B3
:101E700026018093180145CF1530A9F68F5FD1CF89
:101E80001816BCF2F0922601D4CF823069F45A942D
:101E9000511002C05524539468EC70E080E090E04B
:101EA0000E94A60211E096CF833009F08CC051E069
:101EB000551609F40FC182E0581213C080914A05EB
:101EC00090914B050197181619062CF490934B0529
:101ED00080934A0504C070924B0560924A0511E058
:101EE00073CF93E0591214C0809135059091360557
:101EF0000197181619062CF4909336058093350532
:101F0000EECFECE0F0E0F0933605E0933505E7CF57
:101F1000F4E05F1215C08091370590913805019764
:101F2000803D27E092072CF0909338058093370589
:101F3000D6CF4EEA58E05093380540933705CFCFBF
:101F400055E0551609F4C6C086E0581609F43BCF93
:101F500097E0591212C080913A0590913B05019784
:101F600090933B0580933A0597FFB9CFE7E1F0E006
:101F7000F0933B05E0933A05B2CFF8E05F1210C052
:101F80008091190190911A01019790931A01809301
:101F9000190197FFA4CFD0921A01C09219019FCFC7
:101FA00029E05212FDCE80913305909134050197BE
:101FB000909334058093330597FF91CFD0923405E9
:101FC000C09233058CCF843009F08AC051E055129D
:101FD00007C068EC70E080E090E00E94A6027FCF2E
:101FE00082E058120EC080914A0590914B050196EF
:101FF000803291050CF46ACF30924B0520924A054D
:102000006ECF93E059120EC0809135059091360540
:1020100001968D3091050CF46FCF309236052092E9
:1020200035055DCFE4E05E120DC0809137059091DB
:10203000380501968F3AF8E09F070CF475CF40ED14
:1020400057E079CF55E0551609F444C086E058169C
:1020500009F443C097E0591211C080913A0590915C
:102060003B05019690933B0580933A0548970CF405
:1020700036CF10923B0510923A0531CFE8E05E1260
:1020800011C08091190190911A01019690931A0143
:1020900080931901CC970CF422CF10921A01109260
:1020A00019011DCFF9E05F1211C0809133059091A5
:1020B000340501969093340580933305CC970CF446
:1020C0000ECF109234051092330509CF2AE0521238
:1020D00006CF69CE26E0522E02CF55245394FFCE70
:1020E000853009F0DFCE53944AE0451508F0DACE8A
:1020F0009AE0592ED7CE452C40913705509138059E
:10210000609135057091360580914A0590914B0597
:102110000E944A0A61E0842D0E94B40964E080E0D4
:1021200096E00E94C30955E0551205C063E080E0C7
:1021300096E00E94C309111124CE0E94280A60E093
:1021400082E00E94B4098CED91E00E940E0A60E0EA
:1021500082E00E94B40980912601082E000C990BA0
:102160000E94E50960E086E00E94B40989ED91E0F3
:102170000E940E0A60E086E00E94B40900913A05D0
:1021800010913B050A30110524F487ED91E00E947F
:102190000E0AC8010E94E50960E089E00E94B409C6
:1021A00084ED91E00E940E0A60E089E00E94B4098B
:1021B0000091190110911A010A30110524F482EDE1
:1021C00091E00E940E0AC8010E94E50961E08BE0DF
:1021D0000E94B4098CEC91E00E940E0A61E08DE04F
:1021E0000E94B4098091390590E00E94E509809130
:1021F0003C0590E00E94E5098091490590E00E942D
:10220000E50961E086E00E94B40986EC91E00E9455
:102210000E0A61E086E00E94B40900914505109124
:1022200046050115110509F048C280904D059090B2
:102230004E05A0904F05B0905005A5019401C50131
:10224000B4010E94C716882309F4A3C188ED94E065
:102250000E941C060E943107F09026018F2D90E10C
:10226000890280011124095D1E4FF801808191814E
:10227000A281B3818093200190932101A093220138
:10228000B093230164817581868197810E946D15C9
:1022900070931D0160931C01F80160857185828532
:1022A00093850E9474157093250160932401F801B1
:1022B00064857585868597850E94741570931F01C6
:1022C00060931E0180911B018111FFC168EB74E2D4
:1022D00080E090E00E94A60261E082E00E94AC01F2
:1022E00064E670E080E090E00E94A6020E943F0851
:1022F00064EF71E080E090E00E94A6020E943F0837
:10230000E091E405F091E5051386158614861286A2
:102310001186108617821682158214821382BE01DE
:10232000665F7F4F8091E4059091E5050E946D0600
:102330008111CEC1812C912C6EEFA62E62ECB62EAF
:1023400060E082E00E94AC0120E030E04AEA52E422
:10235000C501B4010E946815882351F020E030E0E7
:102360004EEF52ECC501B4010E946815811112C2F2
:10237000C501B4010E946D15709346056093450533
:1023800081E090E00E94290260E971E080E090E045
:102390000E94A6028FEF90E00E94290260E971E09E
:1023A00080E090E00E94A60281E090E00E94290275
:1023B00060E971E080E090E00E94A6028FEF90E07B
:1023C0000E94290260E971E080E090E00E94A6028C
:1023D00081E090E00E94290260E971E080E090E0F5
:1023E0000E94A6028FEF90E00E94290260E971E04E
:1023F00080E090E00E94A60281E090E00E94290225
:1024000060E971E080E090E00E94A6028FEF90E02A
:102410000E94290260E971E080E090E00E94A6023B
:1024200081E090E00E94290260E971E080E090E0A4
:102430000E94A6028FEF90E00E94290260E971E0FD
:1024400080E090E00E94A60281E090E00E942902D4
:1024500060E971E080E090E00E94A6028FEF90E0DA
:102460000E94290280924D0590924E05A0924F0540
:10247000B09250058091450590914605892B09F44D
:102480008EC161E08FE00E94AC0110923905F1101D
:10249000A6C161E080E10E94AC0110923C05FF20E2
:1024A00009F4BEC100912401109125010115110507
:1024B00009F0C8C161E081E10E94AC0110924905B8
:1024C000109248051092470520914A0530914B051E
:1024D00080914C05082E000C990B8217930709F484
:1024E000A9C120934C05F394F09226010E94910A11
:1024F0000E94810A8091260189330CF49BC11092BD
:1025000026010E94910A0E94810A94C189E0482E06
:10251000F3CD0EE0402EF0CDB5E04B2EE09033052C
:10252000F0903405A0901901B0901A0180903A05FE
:1025300090903B050E940B0960E080E00E94B40986
:1025400065E080E096E00E94C30960E082E00E94BE
:10255000B409C4010E94E50960E085E00E94B40965
:10256000C5010E94E50960E088E00E94B409C70146
:102570000E94E50960E08CE00E94B4098CE991E0DA
:102580000E940E0AC7CDA8E04A2EC8CFFDE04F2E0C
:10259000C5CF24013501E89477F82FEF3FEF4FE7DF
:1025A0005FE7C301B2010E94C71681110DC02FEF72
:1025B0003FEF4FE75FE7C301B2010E9468151816AD
:1025C0001CF48CED94E044CE2FEF3FEF4FE75FE437
:1025D000C501B4010E94551618161CF480EE94E053
:1025E00037CE2FEF3FEF4FE75FECC501B4010E94FC
:1025F000681587FDF3CF20E030E0A901C501B401E3
:102600000E94681587FF0AC041E06DE280E096E015
:102610000E94B208B7FAB094B7F8B0942AE037ED48
:1026200043EA5BE3C501B4010E94FC142B013C01A9
:102630000E9474154B015C010E94A3159B01AC0123
:10264000C301B2010E94FB142B013C014AE0C50109
:10265000B4010E94290641E06EE280E096E00E940B
:10266000B20820E030E040E251E4C301B2010E9430
:102670005A162B013C010E9474154B01B12CA12C60
:102680004AE0C501B4010E942906C501B4010E94B7
:10269000A3159B01AC01C301B2010E94FB1420E011
:1026A00030E040E251E40E945A160E94741590E016
:1026B00080E04AE00E942906CDCD83EC91E00E94A3
:1026C0000E0AC8010E94E509C5CD10921B0104CE77
:1026D00067E0CE010A960E947504998989132ACE73
:1026E0008091E4059091E5050E942705882309F46F
:1026F00021CEBE016F5F7F4FCE010A960E945F051B
:10270000882309F417CE68E0CE0101960E94750473
:10271000998589130FCE6A8170E0762F6627770F2F
:10272000770F770F2981F8E02F9F90011124262B36
:10273000372B8A858031D1F4688570E08F81AB01B9
:10274000481B5109CA019695982F88279795879518
:102750000E94EC16CB014097B90153E0660F771F3A
:102760005A95E1F760789C01260F371F213854EE07
:1027700035070CF4DFCDB901330F880B990B0E949C
:10278000A51520E030E040E05CE30E945A164B01C2
:102790005C01D6CD109246051092450563CEFF2010
:1027A00009F46FCE409020015090210160902201E9
:1027B0007090230120E030E040E05FE3C301B2010C
:1027C0000E94FB14A50194010E9455161816FCF4F2
:1027D00060E08FE00E94AC0181E080933905909128
:1027E0001C0189E1891B20913A0530913B051216A5
:1027F00013062CF48217130611F00CF04ACE60E099
:1028000080E10E94AC0181E080933C054BCEA501A4
:102810009401C301B2010E946815181604F331CE69
:1028200061E081E10E94AC011092490510924805D7
:102830001092470580E090E0892B09F42BCA0E9492
:10284000000028CA8090200190902101A0902201D0
:10285000B090230140904D0550904E0560904F057B
:102860007090500520E030E040E85FE3C501B4011E
:102870000E94FC14A30192010E94681587FF10C0FA
:102880008091450590914605892BC9F460E081E16E
:102890000E94AC0181E0809349058093480512CEE7
:1028A000A3019201C501B4010E94551687FF07C01C
:1028B0008091450590914605892B09F405CE8091BC
:1028C0004805882361F061E081E10E94AC0110922B
:1028D00049051092480581E0809347053AC0409031
:1028E00041055090420560904305709044058090EA
:1028F0003D0590903E05A0903F05B0904005809129
:1029000047058823D9F10E94D902641975098609FF
:102910009709681579058A059B0508F4D5CD20919E
:102920001E0130911F01A0E6BAEE0E9428176093A5
:102930003D0570933E0580933F059093400561E00F
:1029400081E10E94AC011092490510924805109255
:1029500047050E94D9026093410570934205809318
:10296000430590934405B0CD412CC6CB95E0492E4C
:10297000C3CB412CD3CD82E0482ED0CD0E94D902CA
:102980006419750986099709681579058A059B05F3
:1029900008F49ACD9801A0E6BAEE0E942817609339
:1029A0003D0570933E0580933F059093400560E0A0
:1029B00081E10E94AC0181E08093490510924805B5
:1029C0008BCF0D3008F024C930C9F999FECF92BDE4
:1029D00081BDF89A992780B50895262FF999FECFE1
:1029E0001FBA92BD81BD20BD0FB6F894FA9AF99A2C
:1029F0000FBE019608955058BB27AA270E941315B1
:102A00000C941B160E940D1638F00E94141620F02C
:102A100039F49F3F19F426F40C940A160EF4E0954D
:102A2000E7FB0C940416E92F0E942C1658F3BA17F2
:102A3000620773078407950720F079F4A6F50C94D4
:102A40004E160EF4E0950B2EBA2FA02D0B01B901F6
:102A500090010C01CA01A0011124FF27591B99F014
:102A6000593F50F4503E68F11A16F040A22F232F20
:102A7000342F4427585FF3CF469537952795A79570
:102A8000F0405395C9F77EF41F16BA0B620B730B17
:102A9000840BBAF09150A1F0FF0FBB1F661F771F88
:102AA000881FC2F70EC0BA0F621F731F841F48F43D
:102AB000879577956795B795F7959E3F08F0B0CFC6
:102AC0009395880F08F09927EE0F979587950895AD
:102AD0000E94E01508F481E008950E94741568943E
:102AE000B1110C944F1608950E94341688F09F5728
:102AF00098F0B92F9927B751B0F0E1F0660F771F22
:102B0000881F991F1AF0BA95C9F714C0B13091F017
:102B10000E944E16B1E008950C944E16672F782F40
:102B20008827B85F39F0B93FCCF3869577956795DC
:102B3000B395D9F73EF490958095709561957F4F48
:102B40008F4F9F4F0895E89409C097FB3EF49095EE
:102B50008095709561957F4F8F4F9F4F9923A9F076
:102B6000F92F96E9BB279395F69587957795679505
:102B7000B795F111F8CFFAF4BB0F11F460FF1BC049
:102B80006F5F7F4F8F4F9F4F16C0882311F096E9DC
:102B900011C0772321F09EE8872F762F05C066238A
:102BA00071F096E8862F70E060E02AF09A95660F43
:102BB000771F881FDAF7880F9695879597F90895FC
:102BC000990F0008550FAA0BE0E8FEEF161617063E
:102BD000E807F907C0F012161306E407F50798F0A6
:102BE000621B730B840B950B39F40A2661F0232BBF
:102BF000242B252B21F408950A2609F4A140A6953B
:102C00008FEF811D811D089597F99F6780E870E01F
:102C100060E008959FEF80EC089500240A94161652
:102C2000170618060906089500240A9412161306BA
:102C3000140605060895092E0394000C11F4882348
:102C400052F0BB0F40F4BF2B11F460FF04C06F5F64
:102C50007F4F8F4F9F4F089557FD9058440F551F3A
:102C600059F05F3F71F04795880F97FB991F61F00E
:102C70009F3F79F087950895121613061406551F85
:102C8000F2CF4695F1DF08C0161617061806991FF1
:102C9000F1CF86957105610508940895E894BB27E6
:102CA00066277727CB0197F908950E94E01508F46D
:102CB0008FEF08950E946D160C941B160E940D163E
:102CC00038F00E94141620F0952311F00C9404168D
:102CD0000C940A1611240C944F160E942C1670F3B3
:102CE000959FC1F3950F50E0551F629FF001729FB1
:102CF000BB27F00DB11D639FAA27F00DB11DAA1FC0
:102D0000649F6627B00DA11D661F829F2227B00D0C
:102D1000A11D621F739FB00DA11D621F839FA00D97
:102D2000611D221F749F3327A00D611D231F849FE7
:102D3000600D211D822F762F6A2F11249F5750403E
:102D40009AF0F1F088234AF0EE0FFF1FBB1F661FB9
:102D5000771F881F91505040A9F79E3F510580F082
:102D60000C9404160C944F165F3FE4F3983ED4F392
:102D7000869577956795B795F795E7959F5FC1F726
:102D8000FE2B880F911D9695879597F908950E94BF
:102D9000E015880B990B0895991B79E004C0991FE1
:102DA000961708F0961B881F7A95C9F780950895A5
:102DB000AA1BBB1B51E107C0AA1FBB1FA617B70761
:102DC00010F0A61BB70B881F991F5A95A9F780957D
:102DD0009095BC01CD01089597FB072E16F4009441
:102DE00007D077FD09D00E94D81607FC05D03EF425
:102DF000909581959F4F0895709561957F4F0895A7
:102E0000A1E21A2EAA1BBB1BFD010DC0AA1FBB1FEE
:102E1000EE1FFF1FA217B307E407F50720F0A21B60
:102E2000B30BE40BF50B661F771F881F991F1A94CD
:102E300069F760957095809590959B01AC01BD01F7
:102E4000CF010895EE0FFF1F0590F491E02D099436
:102E5000A29FB001B39FC001A39F700D811D1124DB
:102E6000911DB29F700D811D1124911D08950E9426
:102E70002817A59F900DB49F900DA49F800D911DC4
:082E800011240895F894FFCF1E
:102E880000000E1517110E00040E1F00001F0E047F
:102E9800000004021F020400633D00011400050045
:102EA8000000C04101000100000000000000000017
:102EB80000000000000000000008420000C04100BF
:102EC80000000000000000000008420000C04100AF
:102ED80000000000000000000008420000C041009F
:102EE80000000000000000000000420000C0410097
:102EF80000803F00000041000000420000C0410087
:102F080000803F00000041000000420000C0410076
:102F180000803F00000041000000420000C0410066
:102F280000803F000000410000F0410000B841006F
:102F380000803F000000410000F0410000B841005F
:102F480000803F000000410000F0410000B841004F
:102F580000803F000000410000F0410000B841003F
:102F680000803F000000410000E0410000B0410047
:102F780000803F0000E0400000E0410000B0410058
:102F880000803F0000E0400000E0410000B0410048
:102F980000803F0000E0400000E0410000B0410038
:102FA80000803F0000E0400000D0410000A0410048
:102FB80000803F0000E0400000D0410000A0410038
:102FC80000803F0000E0400000D0410000A0410028
:102FD80000803F0000E0400000D0410000A0410018
:102FE80000803F0000E0400000C0410000A0410018
:102FF80000803F0000A0400000C0410000A0410048
:1030080000803F0000A0400000C0410000A0410037
:1030180000803F0000A0400000C0410000A0410027
:1030280000803F0000A0400000C0410000A0410017
:1030380000803F0000A0400000C0410000A0410007
:1030480000803F0000A0400000B0410000A0410007
:1030580000803F0000A0400000B0410000A04100F7
:1030680000803F0000A0400000B0410000A04100E7
:1030780000803F0000A0400000B0410000A04100D7
:1030880000803F0000A0400000B0410000A04100C7
:1030980000803F0000A0400000B0410000A04100B7
:1030A80000803F0000A0400000B0410000A04100A7
:1030B80000803F0000A0400000B0410000A0410097
:1030C80000803F0000A0400000B0410000A0410087
:1030D80000803F0000A0400000B0410000A0410077
:1030E80000803F0000A040000088410000B041007F
:1030F80000803F00008040000088410000B041008F
:1031080000803F00008040000088410000B041007E
:1031180000803F00008040000088410000B041006E
:1031280000803F00008040000088410000B041005E
:1031380000803F00008040000088410000B041004E
:1031480000803F00008040000088410000B041003E
:1031580000803F00008040000088410000B041002E
:1031680000803F00008040000088410000B041001E
:1031780000803F00008040000088410000B041000E
:1031880000803F00008040000088410000B04100FE
:1031980000803F00008040000088410000B04100EE
:1031A80000803F00008040000088410000B04100DE
:1031B80000803F00008040000088410000B04100CE
:1031C80000803F00008040000080410000B84100BE
:1031D80000803F00008040000080410000B84100AE
:1031E80000803F00008040000080410000B841009E
:1031F80000803F00008040000080410000B841008E
:1032080000803F00008040000080410000B841007D
:1032180000803F00008040000080410000B841006D
:1032280000803F00008040000080410000B841005D
:1032380000803F000080405E00BC00770100000075
:103248000099036C03120359034A034E010000005E
:1032580000C309E5022020006E616E00696E6600F9
:043268006F76660017
:00000001FF
