:100000000C9466000C948E000C948E000C948E0060
:100010000C948E000C948E000C948E000C948E0028
:100020000C948E000C948E000C948E000C948E0018
:100030000C948E000C948E000C948E000C948E0008
:100040000C94C7040C948E000C9437050C94110585
:100050000C948E000C948E000C948E000C948E00E8
:100060000C948E000C948E001112131415160A0BAA
:100070000C0D0E0F00000008000201000003040731
:100080000000000000000000000000002500280023
:100090002B0000000000240027002A0004040404B0
:1000A0000404040402020202020203030303030322
:1000B00001020408102040800102040810200102FF
:1000C00004081020000102030405690511241FBE65
:1000D000CFEFD8E0DEBFCDBF22E0A2E6B1E001C0A5
:1000E0001D92A832B207E1F711E0A0E0B1E0EEE521
:1000F000F8E102C005900D92A236B107D9F710E0E1
:10010000C6E6D0E004C02197FE010E94220AC5364F
:10011000D107C9F70E94AF050C942D0C0C94000078
:1001200090E0FC01E055FF4F2491FC01E456FF4FA5
:100130008491882399F090E0880F991FFC01EE5676
:10014000FF4FA591B491FC01E857FF4F8591949121
:100150008FB7F894EC91E22BEC938FBF089590E069
:10016000FC01EC58FF4F2491FC01E055FF4F349106
:10017000FC01E456FF4FE491EE2309F43CC0222336
:1001800039F1233091F038F42130A9F0223001F513
:1001900084B58F7D12C0273091F02830A1F0243033
:1001A000B9F4809180008F7D03C0809180008F77AB
:1001B000809380000DC084B58F7784BD09C0809185
:1001C000B0008F7703C08091B0008F7D8093B00026
:1001D000F0E0EE0FFF1FE857FF4FA591B4919FB7D6
:1001E000F894611104C08C913095382302C0EC91D1
:1001F0003E2B3C939FBF089520910C0230910D023D
:1002000040910E0250910F022417350721F0682FFC
:10021000822F0C94AF0008958230910538F0880F3A
:10022000991F880F991F05970197F1F70895CF93AC
:10023000DF939CB59F7D9CBD9CB5937F9CBD9CB579
:100240009C7F9CBD9DB591609DBDCCE0D2E0682FA8
:100250008A810E94AF008C899D89DF91CF910C9497
:100260000C0181E00C94170180E00C9417013FB75A
:10027000F8948091670190916801A0916901B09113
:100280006A0126B5A89B05C02F3F19F00196A11D54
:10029000B11D3FBFBA2FA92F982F8827820F911D1C
:1002A000A11DB11DBC01CD0142E0660F771F881F63
:1002B000991F4A95D1F708958F929F92AF92BF925E
:1002C000CF92DF92EF92FF926B017C010E94370187
:1002D0004B015C01C114D104E104F104F1F00E946E
:1002E0003701DC01CB0188199909AA09BB09883EAD
:1002F0009340A105B10570F321E0C21AD108E108CD
:10030000F10888EE880E83E0981EA11CB11CC11470
:10031000D104E104F10419F7DDCFFF90EF90DF90F5
:10032000CF90BF90AF909F908F900895CF92DF9223
:10033000EF92FF920F931F93CF93DF936C017A019B
:100340008B01C0E0D0E0CE15DF0581F0D8016D91C2
:100350008D01D601ED91FC910190F081E02DC60157
:100360000995892B11F02196EECF7E01C701DF910F
:10037000CF911F910F91FF90EF90DF90CF90089554
:10038000FC01918D828D981761F0828DDF01A80F9D
:10039000B11D5D968C91928D9F5F9F73928F90E0BF
:1003A00008958FEF9FEF0895FC01918D828D98172E
:1003B00031F0828DE80FF11D858D90E008958FEF6B
:1003C0009FEF08952FB7F89480916B0190916C0185
:1003D000A0916D01B0916E012FBF80937701909332
:1003E0007801A0937901B0937A018FE691E00E94A1
:1003F000D40197FF26C02FB7F89480916B0190919C
:100400006C01A0916D01B0916E012FBF40917701F9
:10041000509178016091790170917A01841B950B5C
:10042000A60BB70B40917301509174016091750157
:100430007091760184179507A607B707B0F28FEF82
:100440009FEF0895CF92DF92EF92FF92CF930E9499
:10045000E201FC0197FD0BC08D32910561F0C09760
:100460000A9748F08FE691E00E94C001F0CF60E06B
:1004700070E0CB0140C0C12CD12C7601C0E0E1304E
:10048000F10501F1ED32F105E1F0CF01C0970A97D6
:10049000C8F4AAE0B0E0A70196010E94D1096F015B
:1004A000FF0FEE08FF08DC01CB018C0D9D1DAE1D7A
:1004B000BF1D6C017D0120E3C21AD108E108F108DB
:1004C00001C0C1E08FE691E00E94C0010E94E201FC
:1004D000FC01C0970A9798F2E130F10581F2CC2334
:1004E00041F066277727CB016C197D098E099F099A
:1004F00002C0C701B601CF91FF90EF90DF90CF907F
:1005000008958F929F92AF92BF92CF92DF92EF9217
:10051000FF92CF93DF930E94E201FC0197FD0EC092
:100520008D32910579F0C0970A9760F0EE32F105AF
:1005300049F08FE691E00E94C001EDCF60E070E0ED
:10054000CB016CC0812C912C80E8A82E8FE3B82EB3
:10055000C12CD12C7601C0E0D0E0E130F10569F189
:10056000ED32F10539F1EE32F10531F1CF01C097ED
:100570000A9718F5AAE0B0E0A70196010E94D109F8
:100580006F01FF0FEE08FF08C60ED71EE81EF91E0A
:1005900080E3C81AD108E108F108CC2371F02DECF2
:1005A0003CEC4CEC5DE3C501B4010E9413094B0126
:1005B0005C0103C0D1E001C0C1E08FE691E00E9480
:1005C000C0010E94E201FC01C0970A9730F2EE32AE
:1005D000F10519F4C1111FC0C0CFE130F10509F4D4
:1005E000BCCFDD2341F0F094E094D094C094C11CC2
:1005F000D11CE11CF11CCC2349F0C701B6010E94BB
:10060000D808A50194010E94130908C0C701B601CA
:100610000E94D80803C0D111E6CFEFCFDF91CF9170
:10062000FF90EF90DF90CF90BF90AF909F908F9012
:100630000895FC01918D228D892F90E0805C9F4F61
:10064000821B91098F73992708958FE691E00E948C
:10065000190321E0892B09F420E0822F0895FC0181
:10066000848DDF01A80FB11DA35ABF4F2C91848D3B
:1006700090E001968F739927848FA689B7892C9370
:10068000A089B1898C9180648C93938D848D98130B
:1006900006C00288F389E02D80818F7D80830895D4
:1006A000EF92FF920F931F93CF93DF93EC0181E0C2
:1006B000888F9B8D8C8D981305C0E889F98980817E
:1006C00085FD24C0F62E0B8D10E00F5F1F4F0F73BA
:1006D0001127E02E8C8DE8120CC00FB607FCFACF64
:1006E000E889F989808185FFF5CFCE010E942F032B
:1006F000F1CF8B8DFE01E80FF11DE35AFF4FF08221
:100700000B8FEA89FB898081806207C0EE89FF89AF
:100710006083E889F98980818064808381E090E04A
:10072000DF91CF911F910F91FF90EF900895CF939C
:10073000DF93EC01888D8823C9F0EA89FB898081E9
:1007400085FD05C0A889B9898C9186FD0FC00FB6BB
:1007500007FCF5CF808185FFF2CFA889B9898C91FC
:1007600085FFEDCFCE010E942F03E7CFDF91CF9120
:10077000089580E090E0892B29F00E9425038111E3
:100780000C94000008958EBD00000DB407FEFDCF4F
:100790008EB50895CF930E94340181EE0E94C30369
:1007A000C82F0E9431018C2FCF910895CF93C82F6D
:1007B0000E9434018C2F8F710E94C3038FEF0E941F
:1007C000C303C82F0E9431018C2FCF910895CF937E
:1007D000DF93C82FD62F0E9434018C2F8F71806237
:1007E0000E94C303C82F8D2F0E94C3030E943101B2
:1007F0008C2FDF91CF91089580E00E94D60381FD78
:100800000BC0682F626080E00E94E70365E070E043
:1008100080E090E00C945C0108950F931F93CF93B8
:100820008C0186E00E94D603C82FC77D02301105D7
:1008300031F4C0628BE990E0A0E0B0E00DC001307F
:10084000110529F085E590E0A0E0B0E005C0C860A2
:1008500081E490E0A0E0B0E080931C0290931D0240
:10086000A0931E02B0931F026C2F86E00E94E70344
:1008700086E00E94D60391E0C81390E0892FCF91C3
:100880001F910F910895EF92FF920F931F93CF93B3
:10089000DF93182F7B01C42F0E943401812F8F71A9
:1008A00080620E94C303D82F8701CC2339F0F8015E
:1008B00081918F010E94C303C150F7CF0E94310183
:1008C0008D2FDF91CF911F910F91FF90EF900895A1
:1008D0000E94FC0380E00E94D603682F616080E0E4
:1008E0000E94E70360E787E00E94E70381E00E943F
:1008F000FC0080911502882341F040911A0265E1C5
:1009000072E08AE00E94430412C082E00E94D60393
:10091000E4ECF0E0E49121E030E001C0220FEA9540
:10092000EAF72095622F682382E00E94E7038DE1B9
:100930000E94D60381FD0C94CA0308950E940F0CF7
:100940000F931F93CF93DF93EC01888199810097D8
:1009500029F02A813B812617370788F48B016F5FC6
:100960007F4F0E94490B009761F0998388831B8316
:100970000A832C813D81232B11F4FC01108281E03C
:1009800001C080E0DF91CF911F910F9108951F92D8
:100990000F920FB60F9211242F933F938F939F9333
:1009A000AF93BF9380916B0190916C01A0916D0109
:1009B000B0916E013091660123E0230F2D3720F4B2
:1009C0000196A11DB11D05C026E8230F0296A11DA9
:1009D000B11D2093660180936B0190936C01A093ED
:1009E0006D01B0936E018091670190916801A091B3
:1009F0006901B0916A010196A11DB11D8093670143
:100A000090936801A0936901B0936A01BF91AF917F
:100A10009F918F913F912F910F900FBE0F901F903C
:100A200018951F920F920FB60F9211242F933F9398
:100A30004F935F936F937F938F939F93AF93BF93E6
:100A4000EF93FF938FE691E00E942F03FF91EF91C8
:100A5000BF91AF919F918F917F916F915F914F91D6
:100A60003F912F910F900FBE0F901F9018951F92DE
:100A70000F920FB60F9211242F938F939F93EF93A2
:100A8000FF93E0917F01F09180018081E0918501E9
:100A9000F091860182FD12C09081809188018F5F64
:100AA0008F7320918901821751F0E0918801F0E065
:100AB000E159FE4F958F8093880101C08081FF919D
:100AC000EF919F918F912F910F900FBE0F901F90DC
:100AD0001895EFE6F1E01382128288EE93E0A0E031
:100AE000B0E084839583A683B7838EE491E09183FD
:100AF000808385EC90E09587848784EC90E09787ED
:100B0000868780EC90E0918B808B81EC90E0938BDA
:100B1000828B82EC90E0958B848B86EC90E0978BB7
:100B2000868B118E128E138E148EECE0F2E089E02B
:100B300090E0918380838AE090E0938382831682A1
:100B400080E28783108685E0868785E090E0A0E0DC
:100B5000B0E0848B958BA68BB78B11860895CF93CD
:100B6000DF93CDB7DEB728970FB6F894DEBF0FBE80
:100B7000CDBF789484B5826084BD84B5816084BD26
:100B800085B5826085BD85B5816085BD80916E002B
:100B9000816080936E00109281008091810082605C
:100BA0008093810080918100816080938100809199
:100BB00080008160809380008091B1008460809388
:100BC000B1008091B00081608093B00080917A0084
:100BD000846080937A0080917A00826080937A00AA
:100BE00080917A00816080937A0080917A00806899
:100BF00080937A001092C100E0917F01F091800112
:100C000082E08083E0917B01F0917C011082E09191
:100C10007D01F0917E0187E0808310928701E09151
:100C20008301F091840186E08083E0918101F0915D
:100C30008201808180618083E0918101F091820155
:100C4000808188608083E0918101F09182018081C0
:100C500080688083E0918101F091820180818F7DA5
:100C600080836AE070E080E090E00E945C01809107
:100C70000C0290910D0220910E0230910F0282170A
:100C8000930711F00E94900080910E0290910F0244
:100C900020910C0230910D022817390711F00E94A3
:100CA00090001FB7F89480916201811124C0E6EA98
:100CB000F0E08491EAEBF0E09491E82FF0E0EE0FA1
:100CC000FF1FEE56FF4FA591B491EC91E92321F45B
:100CD00061E08AE00E94AF008AE00E9490008CB53B
:100CE00080618CBD8CB580648CBD8DE00E949000CD
:100CF0008BE00E949000809162018F5F809362017F
:100D00001FBF80E00E94FC0081E00E94170165E0A7
:100D100070E080E090E00E945C016CE080E00E9466
:100D2000E7036FE584E00E94E70382E090E00E9421
:100D30000D04882319F081E08093120286E00E945E
:100D4000D60380E090E00E940D040E94340180E50B
:100D50000E94C30383E70E94C3030E94310160E045
:100D60008DE10E94E70360E08CE10E94E7031092AE
:100D7000140260E787E00E94E7036CE485E00E94CC
:100D8000E7030E94340182EE0E94C3030E943101F6
:100D90000E94CA030E94FC0380E00E94D603682FD1
:100DA0006E7F80E00E94E7036FE381E00E94E7032B
:100DB0006FE084E00E94E7038DE10E94D603682F74
:100DC00066608DE10E94E7038CE10E94D603682FE4
:100DD00063608CE10E94E70381E08093140280E26B
:100DE0008093130240911A0266E071E08AE00E944B
:100DF000430440911A0266E071E080E10E944304DE
:100E00006091130281E10E94E703EFE6F0E0849134
:100E100040911A0260E071E00E944304E9E6F0E0CC
:100E20008491609113020E94E70382E00E94D6033E
:100E3000E5ECF0E0E49161E070E001C0660FEA9556
:100E4000EAF7682B82E00E94E70360E685E00E94F3
:100E5000E70386E00E94D603682F676086E00E9461
:100E6000E70382E090E00E940D040E94FC030E94D0
:100E700068046EED73E080E090E00E945C018824DD
:100E8000839434ECE32E30E0F32ECC24C394D12CA5
:100E90009924939453E6752E8FE691E00E941903EE
:100EA000181619060CF03BC11A8219821C821B828B
:100EB0001E821D8260E070E0CE0101960E94A004B7
:100EC00029813A81811110C02115310519F0C9011C
:100ED0000E94C00A1A8219821E821D821C821B82F5
:100EE00023E0A22EB12C0CC01E821D826DE571E0A4
:100EF000C9010E94260CF4CF81E0A81AB108F9F0CC
:100F00008FE691E00E94C0018F8318860D811E81BB
:100F10000F5F1F4FB801CE0101960E94A0048823E5
:100F200059F329813A818D819E81BE01695F7F4F8E
:100F3000820F931F0E94260C1E830D83DDCF8D81AF
:100F40009E81892B09F4E7C06AE571E089819A8165
:100F50000E941D0C892B09F0DEC00E948102609363
:100F600026017093270180932801909329010E9404
:100F7000810260932A0170932B0180932C0190933E
:100F80002D010E94810260932E0170932F018093A6
:100F90003001909331010E9481026093320170937D
:100FA000330180933401909335010E9422027093A3
:100FB0003701609336010E9481026093380170937B
:100FC000390180933A0190933B010E948102609322
:100FD0003C0170933D0180933E0190933F010E943C
:100FE000220270934101609340010E942202162F59
:100FF000609324010E942202609343018091630167
:10100000811103C09092250103C092E090932501C5
:1010100088258093630180912501813019F4109314
:10102000420104C0823011F4709242019092250175
:1010300080E00E94FC0080911C0290911D020E94A1
:101040000C018DE10E94D60381FF08C080911C0233
:1010500090911D020E940C010E94CA0380E00E9430
:10106000D603682F6E7F80E00E94E70382E00E9433
:10107000D603F7019491960101C0220F9A95EAF7E1
:10108000682F622B82E00E94E70310911302A12EC9
:10109000103210F09FE1A92E80911402811103C03B
:1010A000B12EBA1801C0B12C0E94340180EA0E940E
:1010B000C30305E211E0AA94FFEFAF1202C01B2D9B
:1010C00006C0F80181918F010E94C303F4CF112360
:1010D00029F080E00E94C3031150F9CF0E94310132
:1010E00081E00E94FC000E9434018FEF0E94C30344
:1010F000182F0E9431011073B1F380E00E94FC00B0
:1011000060E787E00E94E70384FD0E94CA030E9413
:1011100068041092250189819A810E94C00A87E1A2
:101120000E94D60380FF1BC006C00E94310160E709
:1011300087E00E94E7038091640190916501019727
:1011400009F0AACE109265011092640143E050E0CC
:101150006EE571E08FE691E00E9496019DCE1091C0
:101160001302123008F102E080911402811102C0D2
:10117000101B01C010E00E94340181E60E94C303ED
:1011800084E6A82E81E0B82E015038F08FEF0E943F
:10119000C303F50181935F01F7CF112331F28FEF84
:1011A0000E94C3031150F9CF012FDECFE89409C08C
:1011B00097FB3EF490958095709561957F4F8F4F8A
:1011C0009F4F9923A9F0F92F96E9BB279395F695A0
:1011D000879577956795B795F111F8CFFAF4BB0F1E
:1011E00011F460FF1BC06F5F7F4F8F4F9F4F16C082
:1011F000882311F096E911C0772321F09EE8872F0C
:10120000762F05C0662371F096E8862F70E060E0C7
:101210002AF09A95660F771F881FDAF7880F969540
:10122000879597F908950E9426090C9497090E94C2
:10123000890938F00E94900920F0952311F00C9450
:1012400080090C94860911240C94CB090E94A809EA
:1012500070F3959FC1F3950F50E0551F629FF00109
:10126000729FBB27F00DB11D639FAA27F00DB11D22
:10127000AA1F649F6627B00DA11D661F829F2227AB
:10128000B00DA11D621F739FB00DA11D621F839F32
:10129000A00D611D221F749F3327A00D611D231F08
:1012A000849F600D211D822F762F6A2F11249F5756
:1012B00050409AF0F1F088234AF0EE0FFF1FBB1F59
:1012C000661F771F881F91505040A9F79E3F510518
:1012D00080F00C9480090C94CB095F3FE4F3983EB6
:1012E000D4F3869577956795B795F795E7959F5FC2
:1012F000C1F7FE2B880F911D9695879597F9089554
:1013000097F99F6780E870E060E008959FEF80ECB8
:10131000089500240A94161617061806090608955B
:1013200000240A9412161306140605060895092EC1
:101330000394000C11F4882352F0BB0F40F4BF2B30
:1013400011F460FF04C06F5F7F4F8F4F9F4F089570
:1013500057FD9058440F551F59F05F3F71F0479566
:10136000880F97FB991F61F09F3F79F0879508954B
:10137000121613061406551FF2CF4695F1DF08C06A
:10138000161617061806991FF1CF86957105610587
:1013900008940895E894BB2766277727CB0197F92F
:1013A00008950E94130AA59F900DB49F900DA49FCD
:1013B000800D911D112408952F923F924F925F92BC
:1013C0006F927F928F929F92AF92BF92CF92DF9255
:1013D000EF92FF920F931F93CF93DF93CDB7DEB7BA
:1013E000CA1BDB0B0FB6F894DEBF0FBECDBF09944E
:1013F0002A88398848885F846E847D848C849B84A5
:10140000AA84B984C884DF80EE80FD800C811B81B2
:10141000AA81B981CE0FD11D0FB6F894DEBF0FBEE1
:10142000CDBFED010895A29FB001B39FC001A39F5E
:10143000700D811D1124911DB29F700D811D11240D
:10144000911D0895EE0FFF1F0590F491E02D099472
:101450000F931F93CF93DF938230910510F482E0B6
:1014600090E0E0912602F091270220E030E0A0E039
:10147000B0E0309719F14081518102811381481702
:101480005907C8F08417950769F4109731F0129640
:101490000C93129713961C9327C000932602109367
:1014A000270222C02115310519F04217530718F4FD
:1014B0009A01BD01EF01DF01F801DBCF21153105F4
:1014C000F9F0281B390B2430310580F48A819B8187
:1014D0006115710521F0FB019383828304C0909311
:1014E000270280932602FE01329644C0FE01E20FDD
:1014F000F31F8193919322503109398328833AC095
:101500002091240230912502232B41F420914601A1
:101510003091470130932502209324022091440109
:10152000309145012115310541F42DB73EB7409169
:10153000480150914901241B350BE0912402F091A0
:101540002502E217F307A0F42E1B3F0B28173907DB
:1015500078F0AC014E5F5F4F2417350748F04E0F0F
:101560005F1F50932502409324028193919302C000
:10157000E0E0F0E0CF01DF91CF911F910F9108954E
:10158000CF93DF93009709F481C0FC013297138257
:101590001282A0912602B0912702109781F4208137
:1015A0003181820F931F2091240230912502281748
:1015B000390751F5F0932502E093240267C0ED014D
:1015C00020E030E0CE17DF0740F44A815B819E01C6
:1015D00041155105F1F0EA01F5CFD383C283408173
:1015E0005181840F951FC817D90759F488819981B3
:1015F000840F951F0296918380838A819B819383B8
:1016000082832115310529F4F0932702E093260205
:101610003DC0E901FB83EA8349915991C40FD51F6D
:10162000EC17FD0761F480819181840F951F02966C
:10163000E90199838883828193819B838A83E0E097
:10164000F0E012968D919C911397009719F0FD018F
:10165000DC01F7CF8D919C9111979D012E5F3F4F3B
:10166000820F931F209124023091250228173907F9
:1016700069F4309729F4109227021092260202C0D2
:1016800013821282B0932502A0932402DF91CF919E
:101690000895A0E0B0E0EFE4FBE00C94E009EC0179
:1016A000009721F4CB010E94280AB4C0FC01E60F88
:1016B000F71F9C0122503109E217F30708F4A8C074
:1016C000D9010D911C91119706171707B0F005303D
:1016D000110508F49BC0C80104978617970708F402
:1016E00095C002501109061B170B019311936D93BE
:1016F0007C93CF010E94C00A89C05B01A01AB10A85
:101700004C01800E911EA0912602B0912702612CFF
:10171000712CE12CF12C109709F446C08D919C910D
:101720001197A815B905B1F56C0142E0C40ED11CA2
:10173000CA14DB0478F14C018A189B08640142E06A
:10174000C40ED11C1296BC9012971396AC91B5E0C2
:10175000CB16D10440F0B282A38391828082D9015A
:101760006D937C9309C00E5F1F4F800F911FF9018D
:1017700091838083EB2DFA2FE114F10431F0D7012E
:101780001396FC93EE93129741C0F0932702E093D7
:1017900026023CC06816790608F43C017D011296C9
:1017A0000D90BC91A02DB7CF80912402909125027D
:1017B00088169906E1F466167706C8F4809144010C
:1017C00090914501009741F48DB79EB74091480133
:1017D00050914901841B950BE817F907C8F4F09361
:1017E0002502E0932402F901718360830FC0CB01CD
:1017F0000E94280A7C01009759F0A801BE010E94AE
:10180000140CCE010E94C00AC70104C0CE0102C060
:1018100080E090E0CDB7DEB7EEE00C94FC0981E00B
:1018200090E0F8940C942D0CFB01DC0102C00190B7
:101830000D9241505040D8F70895FB01DC018D9185
:10184000019080190110D9F3990B0895FB01DC0177
:0E18500001900D920020E1F70895F894FFCF6B
:10185E00314E6F646500324E6F646500334E6F64B7
:10186E006500344E6F646500354E6F646500364E0C
:10187E006F6465000A0000803B4500803B45008098
:10188E003B4500803B45B80B00803B4500803B4507
:10189E00000032000000280280000000000050030B
:1018AE0096011903C001D4019703736E640062633D
:0218BE006800C0
:00000001FF
