:100000000C948F010C94C0010C94C0010C94C0019D
:100010000C94C0010C94C0010C94C0010C94C0015C
:100020000C94C0010C9497060C9497060C949706B8
:100030000C94C0010C94C0010C94C0010C94C0013C
:100040000C94C0010C94C0010C94C0010C94C0012C
:100050000C94C0010C94C0010C94C0010C94ED05EB
:100060000C94C0010C9461060C9437060C94C001EA
:100070000C94C0010C94C0010C94C0010C94C001FC
:100080000C94C0010C94C0010C94C0010C94C001EC
:100090000C94C0010C94C0010C94C0010C94C001DC
:1000A0000C94C0010C94C0010C94C0010C94C001CC
:1000B0000C94C0010C94C0010C94C0010C94C001BC
:1000C0000C94C0010C94C0010C94C0010C94C001AC
:1000D0000C94C0010C94C0010C94C0010C94C0019C
:1000E0000C94C001CD02D002BF02C302C7020703B5
:1000F000D402D802DE02E202E602EC02F002F402CE
:100100000703FA02FE02020308000000BE9224491F
:10011000123EABAAAA2ABECDCCCC4C3E0000008039
:10012000BEABAAAAAA3E00000000BF000000803FAC
:100130000000000000084178D3BB4387D1133D196C
:100140000E3CC3BD4282AD2B3E68EC8276BED98F99
:10015000E1A93E4C80EFFFBE01C4FF7F3F000000DD
:1001600000000C94D4020C9415070C94F5040C9424
:10017000D8020C94C3020C9402030C94BF020C949A
:1001800081040C94DE020C9449050C94E2020C9458
:1001900003040C94E1030C943A040C946E0B0C943D
:1001A000C7020C94F5030C94FE020C94F0020C941C
:1001B000DC040C94FA020C94B6030C94CD020C945B
:1001C000D0020C94F4040C9407030C94EC020C94ED
:1001D00061050C94F4020C94E602005EBCE2613FFF
:1001E000DD83C29C7E20A3FD1F41009D23BE46DB14
:1001F00065F88C11AF32CA57E97400002100240061
:1002000027002A002D003000330001010000040106
:1002100007010A0100000A0B02090C0D0E08070372
:1002200004010000000000000000000000000000C9
:1002300000000000000000000000000000000000BE
:10024000121110000000000000000000000000007B
:100250000000000000000000000000002200250057
:1002600028002B002E00310034000201000005019F
:1002700008010B01000020002300260029002C00AB
:100280002F003200000100000301060109010505ED
:100290000505070508080808020202020A0A0808FC
:1002A000040404040101010101010101030303032A
:1002B00003030303040707070C0C0C0C0C0C0C0CB9
:1002C0000202020206060606060606060B0B0B0BCA
:1002D0000B0B0B0B010210202008081020401020EF
:1002E00040800201020108040201010204081020FA
:1002F00040808040201008040201800402018040F8
:100300002010080402010804020101020408102060
:100310004080010204081020408015076E0B112454
:100320001FBECFEFD1E2DEBFCDBF00E00CBF12E0B9
:10033000A0E0B2E0EEEDFCE100E00BBF02C00790F0
:100340000D92A633B107D9F723E0A6E3B2E001C0CE
:100350001D92A736B207E1F711E0CEE8D1E000E048
:1003600006C021970109802FFE010E943C0ECD3866
:10037000D10780E00807A9F70E94E4070C945D0EFE
:100380000C94000080913A03E0913B03F0913C0310
:10039000F8949181982B91832281982F909529230D
:1003A0002283A7E0B0E01197F1F721819223918396
:1003B000A3E2B0E01197F1F790817894EFECF0E0D0
:1003C0003197F1F7982381E009F480E00895909146
:1003D0003A03E0913B03F0913C03392F309580FFC5
:1003E00013C0F8942281832F822382838181892BF9
:1003F0008183A3E2B0E01197F1F78281982B928379
:10040000789487ED90E012C0F8942281832F8223A4
:1004100082838181892B8183AFEFB0E01197F1F75F
:100420008281982B928378948FE090E00197F1F786
:1004300008950F931F93CF93DF93082FC8E0D0E068
:1004400011E081E0912F902309F480E00E94E70100
:10045000110F2197B1F7F894E0913B03F0913C0321
:10046000918180913A03809598239183E0913B0399
:10047000F0913C039281892382837894DF91CF911C
:100480001F910F910895EF92FF920F931F93CF93B7
:10049000DF931F92CDB7DEB7182F85E599830E94B1
:1004A0001902E12E9981F92E8701085F1F4FF7018C
:1004B00081917F010E941902E016F106C1F70F90A9
:1004C000DF91CF911F910F91FF90EF900895909140
:1004D0003A03E0913B03F0913C03F8948181292F8A
:1004E00020958223818378948DE743E050E081500A
:1004F00021F1DA011197F1F730813923C1F3F89432
:100500008281822382838181892B81837894ABE7E6
:10051000B7E01197F1F7F894818128232183A3E1B3
:10052000B1E01197F1F78081982381E009F080E034
:100530007894E3E6F6E03197F1F70895362F90E0EE
:10054000FC01EC5EFD4F4491FC01EC52FD4F249107
:10055000FC01E257FD4F9491992309F46BC04423A9
:1005600009F455C050E0FA013197E231F10508F085
:100570004EC08827EE58FF4F8F4F0C943C0E809151
:1005800080008F7707C0809180008F7D03C08091AD
:100590008000877F809380003AC084B58F7702C047
:1005A00084B58F7D84BD33C08091B0008F7703C048
:1005B0008091B0008F7D8093B00029C08091900021
:1005C0008F7707C0809190008F7D03C0809190004D
:1005D000877F809390001BC08091A0008F7707C019
:1005E0008091A0008F7D03C08091A000877F8093C1
:1005F000A0000DC0809120018F7707C0809120015D
:100600008F7D03C080912001877F80932001E92F97
:10061000F0E0EE0FFF1FE65AFD4FA591B4918FB7A2
:10062000F894EC91311103C020952E2301C02E2B9C
:100630002C938FBF0895CF93DF9390E0FC01EC5291
:10064000FD4F2491FC01E257FD4F8491882361F115
:1006500090E0880F991FFC01E650FE4FC591D491A0
:10066000FC01E65AFD4FA591B491611109C09FB7F5
:10067000F8948881209582238883EC912E230BC0E7
:10068000623061F49FB7F8943881822F809583237C
:100690008883EC912E2B2C939FBF06C08FB7F894C4
:1006A000E8812E2B28838FBFDF91CF9108953FB72C
:1006B000F8948091990290919A02A0919B02B09136
:1006C0009C0226B5A89B05C02F3F19F00196A11DDD
:1006D000B11D3FBFBA2FA92F982F8827820F911DD8
:1006E000A11DB11DBC01CD0142E0660F771F881F1F
:1006F000991F4A95D1F708958F929F92AF92BF921A
:10070000CF92DF92EF92FF926B017C010E94570320
:100710004B015C01C114D104E104F104F1F00E9429
:100720005703DC01CB0188199909AA09BB09883E46
:100730009340A105B10570F321E0C21AD108E10888
:10074000F10888EE880E83E0981EA11CB11CC1142C
:10075000D104E104F10419F7DDCFFF90EF90DF90B1
:10076000CF90BF90AF909F908F900895CF92DF92DF
:10077000EF92FF920F931F93CF93DF936C017A0157
:100780008B01C0E0D0E0CE15DF0589F0D8016D9176
:100790008D01D601ED91FC910190F081E02DC60113
:1007A0001995892B11F47E0102C02196ECCFC70167
:1007B000DF91CF911F910F91FF90EF90DF90CF903D
:1007C0000895FC01918D828D981761F0828DDF0173
:1007D000A80FB11D5D968C91928D9F5F9F73928F34
:1007E00090E008958FEF9FEF0895FC01918D828D29
:1007F000981731F0828DE80FF11D858D90E00895F6
:100800008FEF9FEF0895FC01918D228D892F90E04D
:10081000805C9F4F821B91098F73992708958DE902
:1008200092E00E94030421E0892B09F420E0822F4A
:100830000895FC01848DDF01A80FB11DA35ABF4F9D
:100840002C91848D90E001968F739927848FA689CF
:10085000B7892C93A089B1898C9180648C93938DF6
:10086000848D981306C00288F389E02D80818F7DE6
:1008700080830895EF92FF920F931F93CF93DF939E
:10088000EC0181E0888F9B8D8C8D981305C0E889E1
:10089000F989808185FD24C0F62E0B8D10E00F5F55
:1008A0001F4F0F731127E02E8C8DE8120CC00FB66E
:1008B00007FCFACFE889F989808185FFF5CFCE0161
:1008C0000E941904F1CF8B8DFE01E80FF11DE35A50
:1008D000FF4FF0820B8FEA89FB898081806207C01D
:1008E000EE89FF896083E889F9898081806480834B
:1008F00081E090E0DF91CF911F910F91FF90EF90F9
:100900000895CF93DF93EC01888D8823C9F0EA899D
:10091000FB89808185FD05C0A889B9898C9186FDF8
:100920000FC00FB607FCF5CF808185FFF2CFA889F5
:10093000B9898C9185FFEDCFCE010E941904E7CFD4
:10094000DF91CF91089580E090E0892B21F00E9403
:100950000F04811125C080E090E0892B41F080E0F8
:1009600090E0892B21F00E94000081111CC080E0E2
:1009700090E0892B41F080E090E0892B21F00E94EB
:100980000000811113C080E090E0892BA1F080E08D
:1009900090E0892B81F00E94000081110AC0089527
:1009A0000E940000D8CF0E940000E1CF0E9400000A
:1009B000EACF0C94000008952091780230917902DA
:1009C0002817390771F49091760280917702981771
:1009D00041F0E0917602F0E0EA5CFD4F808190E02A
:1009E00008958FEF9FEF089508951F93CF93DF939E
:1009F000DC015C962D913C915D972115310539F410
:100A000081E090E013969C938E9312973DC051968F
:100A1000ED91FC91529750969C915097892F80951B
:100A20001FB75E964C915E9741FB772770F941FDA9
:100A30006095F8944081772311F0492B01C0482339
:100A40004083E9012197F1F748E0508160FF02C03F
:100A5000592B01C058235083E9012197F1F766957E
:100A6000415099F7772321F090818923808303C037
:100A70008081982B90831FBF5C968D919C915D9790
:100A80000197F1F721E030E0C901DF91CF911F918B
:100A9000089520917802309179022817390771F46E
:100AA000809177022091760290E0805C9F4F821BBC
:100AB000910960E470E00E94060E089580E090E0E5
:100AC0000895209178023091790228173907B9F4F6
:100AD0009091760280917702981789F0E0917602E2
:100AE000F0E0EA5CFD4F80812091760230E02F5FDC
:100AF0003F4F2F7333272093760290E008958FEFB6
:100B00009FEF0895E0917802F0917902E817F907D4
:100B100069F4A389B4899C918589809589238C93F4
:100B2000109279021092780281E0089580E0089591
:100B3000009769F0FC0101900020E9F73197AF01BF
:100B4000481B590BBC0188E493E00C94B60380E089
:100B500090E008958F929F92AF92BF920F931F9350
:100B6000CF93DF93CDB7DEB7A1970FB6F894DEBF72
:100B70000FBECDBF19A2423008F44AE08E010F5DCE
:100B80001F4F842E912CA12CB12CA50194010E9401
:100B90001A0EE62FB901CA0101501109EA3014F406
:100BA000E05D01C0E95CD801EC93232B242B252BBD
:100BB00061F7C8010E949805A1960FB6F894DEBFB0
:100BC0000FBECDBFDF91CF911F910F91BF90AF901E
:100BD0009F908F9008950E94580E1F920F920FB60B
:100BE0000F9211242F933F938F939F93AF93BF93B3
:100BF0008091950290919602A0919702B0919802EF
:100C00003091940223E0230F2D3720F40196A11D8B
:100C1000B11D05C026E8230F0296A11DB11D20932A
:100C200094028093950290939602A0939702B093BA
:100C300098028091990290919A02A0919B02B091A2
:100C40009C020196A11DB11D8093990290939A0276
:100C5000A0939B02B0939C02BF91AF919F918F9103
:100C60003F912F910F900FBE0F901F9018951F92DC
:100C70000F920FB60F9211240BB60F922F933F9342
:100C80004F935F936F937F938F939F93AF93BF9394
:100C9000EF93FF938DE992E00E941904FF91EF9189
:100CA000BF91AF919F918F917F916F915F914F9184
:100CB0003F912F910F900BBE0F900FBE0F901F9082
:100CC00018951F920F920FB60F9211240BB60F9228
:100CD0002F938F939F93EF93FF93E091AD02F09149
:100CE000AE028081E091B302F091B40282FD12C0A5
:100CF00090818091B6028F5F8F732091B702821727
:100D000051F0E091B602F0E0E356FD4F958F8093ED
:100D1000B60201C08081FF91EF919F918F912F9139
:100D20000F900BBE0F900FBE0F901F9018951F9243
:100D30000F920FB60F9211240BB60F922F933F9381
:100D40004F935F936F937F938F939F93AF93BF93D3
:100D5000EF93FF93E0917802F0917902309709F4D4
:100D600051C0968DA685B785858591FF04C09C915D
:100D7000892329F447C09C91892309F043C0A389A2
:100D8000B4899C918589809589238C9386899789DC
:100D90000197F1F7608D718DA685B785558538E08F
:100DA00020E0CB010197F1F7822F90E09595879590
:100DB000282F4C91452309F02068315091F7868DFA
:100DC00081FD20958091770290E001968F7399279D
:100DD00030917602381749F0A0917702B0E0AA5C12
:100DE000BD4F2C938093770203C0868D8160868FE0
:100DF000828D938D0197F1F7A389B4899C918589A0
:100E0000892B8C93FF91EF91BF91AF919F918F911F
:100E10007F916F915F914F913F912F910F900BBEFA
:100E20000F900FBE0F901F9018951092A002109275
:100E30009F0288EE93E0A0E0B0E08093A10290933F
:100E4000A202A093A302B093A4022BE032E030935D
:100E50009E0220939D0225EC30E03093AA0220935D
:100E6000A90224EC30E03093AC022093AB0220ECDA
:100E700030E03093AE022093AD0221EC30E03093AD
:100E8000B0022093AF0222EC30E03093B202209304
:100E9000B10226EC30E03093B4022093B3021092FA
:100EA000B6021092B7021092B8021092B9021092D4
:100EB0004B0310924A0380934C0390934D03A093ED
:100EC0004E03B0934F038BE192E0909349038093DC
:100ED000480310925F0310925E0310926103109218
:100EE00060031092630310926203109265031092E4
:100EF0006403609166036E7F6D7F60936603669501
:100F0000617081E068278BE00E949E0261E08BE0C7
:100F10000E941B03EFEDF2E0E491E0935803E9E94E
:100F2000F2E0E491F0E0EE0FFF1FE65AFD4F8591ED
:100F3000949190935A038093590360E08AE00E9451
:100F40001B038091660381FD04C061E08AE00E947A
:100F50009E028AE080935403EEEDF2E0E491E09388
:100F60005503E8E9F2E0E491F0E0EE0FFF1FEC58E2
:100F7000FD4F85919491909357038093560360E0C1
:100F800082E00E941B03E6EDF2E0E491E0933A0375
:100F9000E0E9F2E0E491F0E0EE0FFF1FEC58FD4FC6
:100FA0008591949190933C0380933B031092450369
:100FB0001092470310924603E5E4F3E0129283E0B7
:100FC000ED33F807D9F70895CF93DF93CDB7DEB7A8
:100FD00065970FB6F894DEBF0FBECDBF789484B589
:100FE000826084BD84B5816084BD85B5826085BD25
:100FF00085B5816085BD80916E00816080936E00B3
:1010000010928100809181008260809381008091A4
:101010008100816080938100809180008160809355
:1010200080008091B10084608093B1008091B00015
:1010300081608093B00080919100826080939100E4
:1010400080919100816080939100809190008160F7
:10105000809390008091A10082608093A100809194
:10106000A10081608093A1008091A00081608093A5
:10107000A000809121018260809321018091210153
:101080008160809321018091200181608093200103
:1010900080917A00846080937A0080917A008260E7
:1010A00080937A0080917A00816080937A008091A9
:1010B0007A00806880937A001092C100E091AD02BE
:1010C000F091AE0282E08083E091A902F091AA0241
:1010D0001082E091AB02F091AC028FEC8083109211
:1010E000B502E091B102F091B20286E08083E09116
:1010F000AF02F091B002808180618083E091AF0205
:10110000F091B002808188608083E091AF02F0911D
:10111000B002808180688083E091AF02F091B002DC
:1011200080818F7D808310926303109262031092FE
:1011300061031092600310925F0310925E038DE9C9
:1011400091E090936503809364038091540396EF3C
:10115000980F943048F02EEC280F243028F022EC21
:10116000280F283008F06EC02DEB30E030935F037D
:1011700020935E032BE931E03093610320936003F9
:101180002CE231E03093630320936203943060F0EB
:101190002EEC280F243040F022EC280F283008F4E1
:1011A00095C2A0E0B0E094C2A8E6B0E0E8E6F0E0C6
:1011B0002081943018F08E53883010F081E001C007
:1011C00084E0822B8C938091540396EF980F943097
:1011D00058F02EEC280F243038F022EC280F28305D
:1011E00030F020E030E005C02BE630E002C02DE614
:1011F00030E030935C0320935B03943010F49AEF5B
:101200000BC0823381F0833381F0843381F092EC20
:10121000980F983070F492EC980F81E001C0880F1D
:101220009A95EAF707C088E005C084E003C082E031
:1012300001C081E080935D03809164039091650318
:101240000197F1F78091620390916303892B21F15B
:10125000809178029091790223E088349207E1F03E
:10126000009711F00E948205809166038E7F809323
:101270006603109277021092760288E493E09093CE
:10128000790280937802E0915B03F0915C03908196
:1012900080915D03892B808383E393E1A5E9B3E427
:1012A00080937E0290937F02A0938002B09381028C
:1012B00061E08DE00E941B0360E08DE00E949E02D1
:1012C00080E092E037E0B32EB80E8E01035F1F4F2F
:1012D0007E0185E1E80EF11C47E0A42EA00E6E0110
:1012E0009AE0C90ED11C8FEF8093020220E0822E7B
:1012F00022E0922E8DE992E00E940304892BD1F026
:101300006AE070E080E090E00E947C038DE992E06A
:101310000E94E103F40181934F01682F70E080E0A7
:1013200090E04AE00E94AA0587E292E00E949805B8
:10133000B810E0CF809102028F3F41F08DE292E041
:101340000E9498058BE292E00E949805809102022B
:101350008F3F51F0813011F461E003C0823021F4FD
:1013600060E08DE00E949E0280914703811104C0DD
:101370000E946702811108C0109245031092470332
:10138000109246036EEF62C080EF0E94190288241B
:101390008394712C612C992493940E94C2018D8BAB
:1013A0000E94C2019D89913019F48130D1F437C077
:1013B000E72DF0E098131FC080914503981640F484
:1013C000DF01A65CBC4F13968C91882151F402C0BA
:1013D000981639F090E028E0291560F090924603C5
:1013E00009C0E72DF0E0E65CFC4F83818829838308
:1013F00091E008C0692CE65CFC4F2381882D809524
:1014000082238383892F0E94E7019394880C19F427
:1014100073948824839487E0871508F0BECF90E406
:10142000991508F0A9CF609245036110D1C081E001
:1014300080934703CDC08C89E81709F4F9C068EEA2
:1014400073E080E090E00E947C036FEF6093930272
:1014500080917B00877F80937B0080E480937C0079
:1014600080917A00806480937A0080917A0086FD72
:10147000FCCF609178008091790070E0782B072E86
:10148000000C880B990B0E94880C2AE038E240EA95
:101490005BE30E94640D2B013C0160938E0270930C
:1014A0008F0280939002909391029B01AC0160E0C7
:1014B00070E080EA90E40E94780B60938A02709357
:1014C0008B0280938C0290938D0220E030E44CE1FB
:1014D00056E40E94E50B9B01AC01C301B2010E94DE
:1014E000E50B609386027093870280938802909345
:1014F000890220E030E44CE156E40E94E50B0E94B2
:101500001C0D6093820270938302809384029093F7
:10151000850220E030E948E755E40E94E50B2B0105
:101520003C0120917E0230917F02409180025091D7
:10153000810260E070E080E89FE30E94E50B9B0180
:10154000AC01C301B2010E94790B9B01AC0160E0C8
:1015500070E080E89FE30E94E50B23E333E948E86D
:1015600053E40E94780B60937A0270937B0280931D
:101570007C0290937D020E94570C609392028EE24F
:1015800092E00E9498056091930270E080E090E004
:101590004AE00E94AA0587E292E00E94980582E351
:1015A00092E00E9498056091920270E080E090E0E5
:1015B0004AE00E94AA058BE292E00E94980568EE3C
:1015C00073E080E090E00E947C030E94A3048BCE35
:1015D00080913D03882309F4CFCEADE3B3E0F80159
:1015E0008D918193EE15FF05D9F710924503109266
:1015F000470310924603E5E4F3E0129223E0ED3353
:10160000F207D9F7D801E0E0AA1609F414CF8D91BA
:101610008E27E82FEF70F0E0E652FE4F949182950E
:101620008F70E82FF0E0E651FE4FE491E927ECCF10
:101630000E946702C8010E94430284E40E941902CA
:1016400068EE73E080E090E00E947C030E946702F5
:10165000C8010E9443028EEB0E941902CE0101963E
:101660002C0198E0692E712C88248394912C0E947F
:10167000C20181119828880C91E0691A7108B9F7A4
:10168000F20191922F01EC15FD0559F76A8170E086
:10169000762F66278981682B8885803141F42F81D8
:1016A0008CE090E0821B9109607F680F791F072E04
:1016B000000C880B990B0E94880C20E030E040E879
:1016C0005DE30E94640D0E94570CC0CEA8E6B0E016
:1016D000283008F46BCDE0E0F0E06ACD8BE192E0D9
:1016E000909349038093480388E493E00C94820527
:1016F0005058BB27AA270E94900B0C94DA0C0E942A
:10170000CC0C38F00E94D30C20F039F49F3F19F430
:1017100026F40C94C90C0EF4E095E7FB0C94C30C72
:10172000E92F0E94EB0C58F3BA176207730784077E
:10173000950720F079F4A6F50C940D0D0EF4E095C4
:101740000B2EBA2FA02D0B01B90190010C01CA017B
:10175000A0011124FF27591B99F0593F50F4503E26
:1017600068F11A16F040A22F232F342F4427585F18
:10177000F3CF469537952795A795F0405395C9F730
:101780007EF41F16BA0B620B730B840BBAF09150E8
:10179000A1F0FF0FBB1F661F771F881FC2F70EC087
:1017A000BA0F621F731F841F48F48795779567955A
:1017B000B795F7959E3F08F0B0CF9395880F08F046
:1017C0009927EE0F9795879508950E94F90B0C9431
:1017D000DA0C0E94D30C58F00E94CC0C40F029F493
:1017E0005F3F29F00C94C30C51110C940E0D0C9416
:1017F000C90C0E94EB0C68F39923B1F3552391F3C4
:10180000951B550BBB27AA2762177307840738F06F
:101810009F5F5F4F220F331F441FAA1FA9F335D0CC
:101820000E2E3AF0E0E832D091505040E695001C80
:10183000CAF72BD0FE2F29D0660F771F881FBB1F3A
:10184000261737074807AB07B0E809F0BB0B802D18
:10185000BF01FF2793585F4F3AF09E3F510578F044
:101860000C94C30C0C940E0D5F3FE4F3983ED4F33C
:10187000869577956795B795F7959F5FC9F7880F18
:10188000911D9695879597F90895E1E0660F771F6A
:10189000881FBB1F621773078407BA0720F0621BFB
:1018A000730B840BBA0BEE1F88F7E09508950E9426
:1018B000F30C88F09F5798F0B92F9927B751B0F0E3
:1018C000E1F0660F771F881F991F1AF0BA95C9F7C4
:1018D00014C0B13091F00E940D0DB1E008950C9448
:1018E0000D0D672F782F8827B85F39F0B93FCCF3FB
:1018F000869577956795B395D9F73EF49095809541
:10190000709561957F4F8F4F9F4F0895E89409C060
:1019100097FB3EF490958095709561957F4F8F4F22
:101920009F4F9923A9F0F92F96E9BB279395F69538
:10193000879577956795B795F111F8CFFAF4BB0FB6
:1019400011F460FF1BC06F5F7F4F8F4F9F4F16C01A
:10195000882311F096E911C0772321F09EE8872FA4
:10196000762F05C0662371F096E8862F70E060E060
:101970002AF09A95660F771F881FDAF7880F9695D9
:10198000879597F9089597F99F6780E870E060E080
:1019900008959FEF80EC089500240A941616170608
:1019A00018060906089500240A9412161306140650
:1019B00005060895092E0394000C11F4882352F0B3
:1019C000BB0F40F4BF2B11F460FF04C06F5F7F4F6B
:1019D0008F4F9F4F089557FD9058440F551F59F052
:1019E0005F3F71F04795880F97FB991F61F09F3F0C
:1019F00079F087950895121613061406551FF2CF35
:101A00004695F1DF08C0161617061806991FF1CF84
:101A100086957105610508940895E894BB276627AB
:101A20007727CB0197F9089516F00C94D10D0C94FB
:101A3000C90C68940C94C30C0E94F30CA8F399236E
:101A4000C1F3AEF3DF93CF931F930F93FF92C92F90
:101A5000DD2788232AF02197660F771F881FDAF782
:101A600020E030E040E85FEB9FE3883920F0803EE3
:101A700038F021968F770E94790BE8E0F1E004C0FE
:101A80000E94790BE5E3F1E00E94DF0D8B01BE01BE
:101A9000EC01FB2E6F5771097595771F880B990B19
:101AA0000E94880C28E132E741E35FE30E94770D52
:101AB000AF2D9801AE01FF900F911F91CF91DF9153
:101AC0000E94900B0C94DA0C0E94770D0C94DA0CA7
:101AD0000E94CC0C38F00E94D30C20F0952311F01A
:101AE0000C94C30C0C94C90C11240C940E0D0E9480
:101AF000EB0C70F3959FC1F3950F50E0551F629F5B
:101B0000F001729FBB27F00DB11D639FAA27F00D56
:101B1000B11DAA1F649F6627B00DA11D661F829F7D
:101B20002227B00DA11D621F739FB00DA11D621F62
:101B3000839FA00D611D221F749F3327A00D611D7F
:101B4000231F849F600D211D822F762F6A2F112461
:101B50009F5750409AF0F1F088234AF0EE0FFF1F94
:101B6000BB1F661F771F881F91505040A9F79E3FEB
:101B7000510580F00C94C30C0C940E0D5F3FE4F300
:101B8000983ED4F3869577956795B795F795E79541
:101B90009F5FC1F7FE2B880F911D9695879597F94A
:101BA00008959F3F31F0915020F487957795679580
:101BB000B795880F911D9695879597F90895DF93AE
:101BC000CF931F930F93FF92EF92DF927B018C01D3
:101BD000689406C0DA2EEF010E94770DFE01E894AA
:101BE000A5912591359145915591A6F3EF010E945C
:101BF000900BFE019701A801DA9469F7DF90EF904E
:101C0000FF900F911F91CF91DF91089597FB072EC1
:101C100016F4009407D077FD09D00E94440E07FC0B
:101C200005D03EF4909581959F4F089570956195EC
:101C30007F4F0895A1E21A2EAA1BBB1BFD010DC008
:101C4000AA1FBB1FEE1FFF1FA217B307E407F5076C
:101C500020F0A21BB30BE40BF50B661F771F881F48
:101C6000991F1A9469F760957095809590959B01DE
:101C7000AC01BD01CF010895EE0FFF1F881F8BBF80
:101C80000790F691E02D1994AA1BBB1B51E107C0E8
:101C9000AA1FBB1FA617B70710F0A61BB70B881FFC
:101CA000991F5A95A9F780959095BC01CD0108958B
:101CB00081E090E0F8940C945D0E11E0CEE8D1E064
:101CC00000E006C0802FFE010E943C0E2196011DFF
:0E1CD000CF38D10780E00807A9F7F894FFCFBE
:101CDE00FFFFFFFFFFFFFF000000003A04B6030303
:101CEE0004E103F503810400000000F504B6034986
:101CFE00056105DC04F404202020000D0A00543197
:061D0E0020005432200009
:00000001FF
