:100000000C9466000C948E000C948E000C948E0060
:100010000C948E000C948E000C948E000C948E0028
:100020000C948E000C948E000C948E000C948E0018
:100030000C948E000C948E000C948E000C948E0008
:100040000C946F030C948E000C94DF030C94B90392
:100050000C948E000C948E000C948E000C948E00E8
:100060000C948E000C948E001112131415160A0BAA
:100070000C0D0E0F00000008000201000003040731
:100080000000000000000000000000002500280023
:100090002B0000000000240027002A0004040404B0
:1000A0000404040402020202020203030303030322
:1000B00001020408102040800102040810200102FF
:1000C00004081020000102030405110411241FBEBE
:1000D000CFEFD8E0DEBFCDBF11E0A0E0B1E0EEE4AD
:1000E000FEE002C005900D92A435B107D9F722E0D9
:1000F000A4E5B1E001C01D92A431B207E1F710E020
:10010000C6E6D0E004C02197FE010E941A07C5365A
:10011000D107C9F70E9457040C9425070C940000DE
:1001200090E0FC01E055FF4F2491FC01E456FF4FA5
:100130008491882399F090E0880F991FFC01EE5676
:10014000FF4FA591B491FC01E857FF4F8591949121
:100150008FB7F894EC91E22BEC938FBF089590E069
:10016000FC01EC58FF4F2491FC01E055FF4F349106
:10017000FC01E456FF4FE491EE2309F43CC0222336
:1001800039F1233091F038F42130A9F0223001F513
:1001900084B58F7D12C0273091F02830A1F0243033
:1001A000B9F4809180008F7D03C0809180008F77AB
:1001B000809380000DC084B58F7784BD09C0809185
:1001C000B0008F7703C08091B0008F7D8093B00026
:1001D000F0E0EE0FFF1FE857FF4FA591B4919FB7D6
:1001E000F894611104C08C913095382302C0EC91D1
:1001F0003E2B3C939FBF08952091FC013091FD015F
:100200004091FE015091FF012417350721F0682F1E
:10021000822F0C94AF0008958230910538F0880F3A
:10022000991F880F991F05970197F1F70895CF93AC
:10023000DF939CB59F7D9CBD9CB5937F9CBD9CB579
:100240009C7F9CBD9DB591609DBDCCEFD1E0682F9A
:100250008A810E94AF008C899D89DF91CF910C9497
:100260000C013FB7F89480915B0190915C01A091E3
:100270005D01B0915E0126B5A89B05C02F3F19F026
:100280000196A11DB11D3FBFBA2FA92F982F882716
:10029000820F911DA11DB11DBC01CD0142E0660F71
:1002A000771F881F991F4A95D1F708958F929F92C3
:1002B000AF92BF92CF92DF92EF92FF926B017C01DF
:1002C0000E9431014B015C01C114D104E104F1042D
:1002D000F1F00E943101DC01CB0188199909AA09CA
:1002E000BB09883E9340A105B10570F321E0C21A15
:1002F000D108E108F10888EE880E83E0981EA11C61
:10030000B11CC114D104E104F10419F7DDCFFF9051
:10031000EF90DF90CF90BF90AF909F908F90089517
:10032000CF92DF92EF92FF920F931F93CF93DF93C1
:100330006C017A018B01C0E0D0E0CE15DF0581F0C1
:10034000D8016D918D01D601ED91FC910190F08164
:10035000E02DC6010995892B11F02196EECF7E0183
:10036000C701DF91CF911F910F91FF90EF90DF9028
:10037000CF900895FC01918D828D981761F0828D48
:10038000DF01A80FB11D5D968C91928D9F5F9F73C9
:10039000928F90E008958FEF9FEF0895FC01918D6B
:1003A000828D981731F0828DE80FF11D858D90E0D8
:1003B00008958FEF9FEF0895FC01918D228D892F75
:1003C00090E0805C9F4F821B91098F73992708955D
:1003D0008FE591E00E94DC0121E0892B09F420E007
:1003E000822F0895FC01848DDF01A80FB11DA35A4F
:1003F000BF4F2C91848D90E001968F739927848F45
:10040000A689B7892C93A089B1898C9180648C933B
:10041000938D848D981306C00288F389E02D808126
:100420008F7D80830895EF92FF920F931F93CF9358
:10043000DF93EC0181E0888F9B8D8C8D981305C034
:10044000E889F989808185FD24C0F62E0B8D10E0A6
:100450000F5F1F4F0F731127E02E8C8DE8120CC019
:100460000FB607FCFACFE889F989808185FFF5CFBF
:10047000CE010E94F201F1CF8B8DFE01E80FF11D3C
:10048000E35AFF4FF0820B8FEA89FB8980818062FB
:1004900007C0EE89FF896083E889F98980818064DB
:1004A000808381E090E0DF91CF911F910F91FF90C9
:1004B000EF900895CF93DF93EC01888D8823C9F0E6
:1004C000EA89FB89808185FD05C0A889B9898C915D
:1004D00086FD0FC00FB607FCF5CF808185FFF2CFF8
:1004E000A889B9898C9185FFEDCFCE010E94F201D8
:1004F000E7CFDF91CF91089580E090E0892B29F03C
:100500000E94E80181110C94000008958EBD000046
:100510000DB407FEFDCF8EB50895CF93C82F80E0B0
:100520000E9417018C2F0E948602C82F81E00E9432
:1005300017018C2FCF91089581EE0C948D02CF93EB
:10054000C82F80E00E9417018C2F8F710E948602B5
:100550008FEF0E948602C82F81E00E9417018C2F26
:10056000CF910895CF93DF93C82FD62F80E00E94BC
:1005700017018C2F8F7180620E948602C82F8D2FE9
:100580000E94860281E00E9417018C2FDF91CF919B
:10059000089580E00E949F0281FD0BC0682F626079
:1005A00080E00E94B20265E070E080E090E00C9490
:1005B000560108950F931F93CF938C0186E00E94FC
:1005C0009F02C82FC77D0230110531F4C0628BE94C
:1005D00090E0A0E0B0E00DC00130110529F085E504
:1005E00090E0A0E0B0E005C0C86081E490E0A0E049
:1005F000B0E080930C0290930D02A0930E02B09392
:100600000F026C2F86E00E94B20286E00E949F02D9
:1006100091E0C81390E0892FCF911F910F91089519
:10062000EF92FF920F931F93CF93DF93182F7B01CD
:10063000C42F80E00E941701812F8F7180620E9479
:100640008602D82F8701CC2339F0F80181918F01E0
:100650000E948602C150F7CF81E00E9417018D2FC2
:10066000DF91CF911F910F91FF90EF9008950E941D
:10067000C90280E00E949F02682F616080E00E94B2
:10068000B20260E787E00E94B20281E00E94FC00B3
:1006900080910502882341F040910A0265E072E0F2
:1006A0008AE00E94100312C082E00E949F02E4ECE4
:1006B000F0E0E49121E030E001C0220FEA95EAF792
:1006C0002095622F682382E00E94B2028DE10E9491
:1006D0009F0281FD0C949C0208950E9420071F92A6
:1006E0000F920FB60F9211242F933F938F939F93E6
:1006F000AF93BF938091570190915801A0915901F8
:10070000B0915A013091560123E0230F2D3720F488
:100710000196A11DB11D05C026E8230F0296A11D5B
:10072000B11D209356018093570190935801A093D7
:100730005901B0935A0180915B0190915C01A091A5
:100740005D01B0915E010196A11DB11D80935B0119
:1007500090935C01A0935D01B0935E01BF91AF9156
:100760009F918F913F912F910F900FBE0F901F90EF
:1007700018951F920F920FB60F9211242F933F934B
:100780004F935F936F937F938F939F93AF93BF9399
:10079000EF93FF938FE591E00E94F201FF91EF91BB
:1007A000BF91AF919F918F917F916F915F914F9189
:1007B0003F912F910F900FBE0F901F9018951F9291
:1007C0000F920FB60F9211242F938F939F93EF9355
:1007D000FF93E0916F01F09170018081E0917501CC
:1007E000F091760182FD12C09081809178018F5F37
:1007F0008F7320917901821751F0E0917801F0E038
:10080000E15AFE4F958F8093780101C08081FF915E
:10081000EF919F918F912F910F900FBE0F901F908E
:100820001895EFE5F1E01382128288EE93E0A0E0E4
:10083000B0E084839583A683B78388E491E09183B5
:10084000808385EC90E09587848784EC90E097879F
:10085000868780EC90E0918B808B81EC90E0938B8D
:10086000828B82EC90E0958B848B86EC90E0978B6A
:10087000868B118E128E138E148EECEFF1E089E0D0
:1008800090E0918380838AE090E093838283168254
:1008900080E28783108685E0868785E090E0A0E08F
:1008A000B0E0848B958BA68BB78B118608957894D6
:1008B00084B5826084BD84B5816084BD85B5826065
:1008C00085BD85B5816085BD80916E008160809316
:1008D0006E0010928100809181008260809381007F
:1008E000809181008160809381008091800081608F
:1008F000809380008091B10084608093B1008091EA
:10090000B00081608093B00080917A008460809311
:100910007A0080917A00826080937A0080917A00D8
:10092000816080937A0080917A00806880937A0059
:100930001092C100E0916F01F091700182E080831C
:10094000E0916B01F0916C011082E0916D01F091EA
:100950006E0187E0808310927701E0917301F0913E
:10096000740186E08083E0917101F09172018081D1
:1009700080618083E0917101F091720180818860D3
:100980008083E0917101F0917201808180688083A1
:10099000E0917101F091720180818F7D80836AE026
:1009A00070E080E090E00E9456018091FC019091FF
:1009B000FD012091FE013091FF018217930711F094
:1009C0000E9490008091FE019091FF012091FC0116
:1009D0003091FD012817390711F00E949000CFB720
:1009E000F89480915401811124C0E6EAF0E08491EA
:1009F000EAEBF0E09491E82FF0E0EE0FFF1FEE56E7
:100A0000FF4FA591B491EC91E92321F461E08AE0D4
:100A10000E94AF008AE00E9490008CB580618CBD7E
:100A20008CB580648CBD8DE00E9490008BE00E94AC
:100A30009000809154018F5F80935401CFBF80E07C
:100A40000E94FC0081E00E94170165E070E080E0F8
:100A500090E00E9456016CE080E00E94B2026FE5D7
:100A600084E00E94B20282E090E00E94DA028823D1
:100A700019F081E08093020286E00E949F0280E0EC
:100A800090E00E94DA0280E00E94170180E50E9457
:100A9000860283E70E94860281E00E94170160E0DF
:100AA0008DE10E94B20260E08CE10E94B2021092DD
:100AB000040260E787E00E94B2026CE485E00E94D5
:100AC000B20282EE0E948D020E949C020E94C90224
:100AD00080E00E949F02682F6E7F80E00E94B20239
:100AE0006FE381E00E94B2026FE084E00E94B202F4
:100AF0008DE10E949F02682F66608DE10E94B20224
:100B00008CE10E949F02682F63608CE10E94B20218
:100B100081E08093040280E28093030240910A0204
:100B200066E071E08AE00E94100340910A0266E0EC
:100B300071E080E10E9410036091030281E10E9454
:100B4000B202EFE6F0E0849140910A0260E071E0C9
:100B50000E941003E9E6F0E08491609103020E9494
:100B6000B20282E00E949F02E5ECF0E0E49161E0D5
:100B700070E001C0660FEA95EAF7682B82E00E94F8
:100B8000B20260E685E00E94B20286E00E949F0207
:100B9000887F682F616086E00E94B20282E090E068
:100BA0000E94DA020E94C9020E9437036EED73E0D0
:100BB00080E090E00E945601CC24CA9483E0D82EB5
:100BC000E12CF12C92E3492E512C612C712C332411
:100BD00033942BE4222E34ECA32E30E0B32E882461
:100BE0008394912C80E480937C0080917A008064CF
:100BF00080937A0080917A0086FDFCCFA0917800E6
:100C000080917900B0E0B82B24EF31E00E94130707
:100C1000A70196010E94B806223791E039073CF0FF
:100C2000253AE1E03E072CF024EA31E002C022E759
:100C300031E0C901330FAA0BBB0B9C01AD01225758
:100C4000314041095109A4E6B0E00E94D706A30152
:100C500092010E94B80620932401809155018111D0
:100C600003C03092250103C0F2E0F09325018325F3
:100C70008093550180912501813019F42093420120
:100C800004C0823011F42092420180E00E94FC00F6
:100C900080910C0290910D020E940C018DE10E9446
:100CA0009F0281FF08C080910C0290910D020E946A
:100CB0000C010E949C0280E00E949F02682F6E7FC0
:100CC00080E00E94B20282E00E949F02F5019491AE
:100CD000940101C0220F9A95EAF7682F622B82E0F7
:100CE0000E94B202C0910302DC2FC03208F0DFE1A3
:100CF00080910402811102C0CD1B01C0C0E080E0E0
:100D00000E94170180EA0E94860205E211E0D1509C
:100D100030F0F80181918F010E948602F8CFCC2338
:100D200029F080E00E948602C150F9CF81E00E9444
:100D3000170181E00E94FC008FEF0E948D028073FA
:100D4000D9F380E00E94FC0060E787E00E94B202D5
:100D500084FD0E949C020E9437031092250168EED8
:100D600073E080E090E00E9456010E947C023ACF3E
:100D7000052E97FB1EF400940E94CF0657FD07D066
:100D80000E94E20607FC03D04EF40C94CF06509567
:100D90004095309521953F4F4F4F5F4F0895909567
:100DA0008095709561957F4F8F4F9F4F08950E945A
:100DB0000407A59F900DB49F900DA49F800D911DD9
:100DC00011240895A1E21A2EAA1BBB1BFD010DC020
:100DD000AA1FBB1FEE1FFF1FA217B307E407F507EB
:100DE00020F0A21BB30BE40BF50B661F771F881FC7
:100DF000991F1A9469F760957095809590959B015D
:100E0000AC01BD01CF010895A29FB001B39FC00105
:100E1000A39F700D811D1124911DB29F700D811D26
:100E20001124911D08950E940407B7FF0895821BA5
:100E3000930B0895EE0FFF1F0590F491E02D099498
:0E0E400081E090E0F8940C942507F894FFCF21
:100E4E00314E6F646500324E6F646500334E6F64D1
:100E5E006500344E6F646500354E6F646500364E26
:100E6E006F6465000A0000C0794400C07944000038
:100E7E00C0400000CA42D107000020C1000020413E
:100E8E0000000A000000000013029001DC01BA010C
:040E9E00CE015A0225
:00000001FF
