:100000000C945D000C9485000C9485000C94850084
:100010000C9485000C9485000C9485000C9485004C
:100020000C9485000C9485000C9485000C9485003C
:100030000C9485000C9485000C9485000C9485002C
:100040000C949C030C9485000C940C040C94E60313
:100050000C9485000C9485000C9485000C9485000C
:100060000C9485000C94850000000008000201003B
:100070000003040700000000000000000000000072
:10008000250028002B0000000000240027002A0083
:10009000040404040404040402020202020203032E
:1000A0000303030301020408102040800102040836
:1000B0001020010204081020E00511241FBECFEF1C
:1000C000D8E0DEBFCDBF11E0A0E0B1E0E8E0FDE0A8
:1000D00002C005900D92AC31B107D9F721E0ACE137
:1000E000B1E001C01D92A83DB207E1F710E0CDE5F7
:1000F000D0E004C02197FE010E947706CC35D107DD
:10010000C9F70E943E040C9482060C94000090E013
:10011000FC01EC55FF4F2491FC01E057FF4F849107
:10012000882399F090E0880F991FFC01EA57FF4F50
:10013000A591B491FC01E458FF4F859194918FB73C
:10014000F894EC91E22BEC938FBF08952FB7F894BD
:100150008091370190913801A0913901B0913A0115
:100160002FBF8093430190934401A0934501B09326
:100170004601E0913B01F0913C010084F185E02DC6
:100180008BE391E0099597FF26C02FB7F8948091F3
:10019000370190913801A0913901B0913A012FBFF8
:1001A0004091430150914401609145017091460195
:1001B000841B950BA60BB70B40913F01509140015A
:1001C000609141017091420184179507A607B70716
:1001D00080F28FEF9FEF0895FF920F931F93CF93BD
:1001E000DF9300D000D0CDB7DEB70E94A600FC019F
:1001F00097FD11C08D32910591F0C0970A9778F064
:10020000E0913B01F0913C010680F781E02D8BE30A
:1002100091E00995EACF60E070E0CB014CC020E0AE
:1002200030E0A901F12CE130F105F1F0ED32F105FA
:10023000C9F0CF01C0970A97B8F4AAE0B0E00E94D5
:100240002C068F01FF0F220B330BDC01CB01800F3B
:10025000911FA21FB31F9C01AD0120533109410919
:10026000510902C0FF24F394E0913B01F0913C015D
:100270000680F781E02D8BE391E029833A834B835D
:100280005C8309950E94A600FC01C09729813A81F0
:100290004B815C810A9738F2E130F10521F2FF20B1
:1002A00041F066277727CB01621B730B840B950BFC
:1002B00002C0CA01B9010F900F900F900F90DF910B
:1002C000CF911F910F91FF90089590E0FC01E859A4
:1002D000FF4F3491FC01EC55FF4F2491FC01E05796
:1002E000FF4FE491EE2309F43BC0332339F133305F
:1002F00091F038F43130A9F0323001F584B58F7DBA
:1003000012C0373091F03830A1F03430B9F4809118
:1003100080008F7D03C0809180008F778093800064
:100320000DC084B58F7784BD09C08091B0008F77F0
:1003300003C08091B0008F7D8093B000F0E0EE0F9D
:10034000FF1FE458FF4FA591B4918FB7F894EC913B
:10035000611103C020952E2301C02E2B2C938FBF3B
:1003600008951F93CF93DF93182FEB010E9487000E
:10037000209711F460E004C0CF3FD10539F461E06B
:10038000812FDF91CF911F910C946501E12FF0E057
:10039000E859FF4FE491E330F9F048F4E130B9F067
:1003A000E230A1F584B5806284BDC8BD34C0E730B9
:1003B000E9F0E83019F1E43049F58091800080627D
:1003C00080938000D0938B00C0938A0024C084B5B2
:1003D000806884BDC7BD1FC0809180008068809305
:1003E0008000D0938900C093880015C08091B00030
:1003F00080688093B000C093B3000DC08091B000BE
:1004000080628093B000C093B40005C0C038D105AD
:100410000CF0B5CFAFCFDF91CF911F910895CF9260
:10042000DF92EF92FF920F931F93CF93DF936C01B4
:100430007A018B01C0E0D0E0CE15DF0589F0D8014C
:100440006D918D01D601ED91FC910190F081E02D2F
:10045000C6010995892B11F47E0102C02196ECCFCB
:10046000C701DF91CF911F910F91FF90EF90DF9027
:10047000CF900895FC01918D828D981761F0828D47
:10048000DF01A80FB11D5D968C91928D9F5F9F73C8
:10049000928F90E008958FEF9FEF0895FC01918D6A
:1004A000828D981731F0828DE80FF11D858D90E0D7
:1004B00008958FEF9FEF0895FC01918D228D892F74
:1004C00090E0805C9F4F821B91098F73992708955C
:1004D0008BE391E00E945C0221E0892B09F420E08B
:1004E000822F0895FC01848DDF01A80FB11DA35A4E
:1004F000BF4F2C91848D90E001968F739927848F44
:10050000A689B7892C93A089B1898C9180648C933A
:10051000938D848D981306C00288F389E02D808125
:100520008F7D80830895EF92FF920F931F93CF9357
:10053000DF93EC0181E0888F9B8D8C8D981305C033
:10054000E889F989808185FD24C0F62E0B8D10E0A5
:100550000F5F1F4F0F731127E02E8C8DE8120CC018
:100560000FB607FCFACFE889F989808185FFF5CFBE
:10057000CE010E947202F1CF8B8DFE01E80FF11DBA
:10058000E35AFF4FF0820B8FEA89FB8980818062FA
:1005900007C0EE89FF896083E889F98980818064DA
:1005A000808381E090E0DF91CF911F910F91FF90C8
:1005B000EF900895CF93DF93EC01888D8823C9F0E5
:1005C000EA89FB89808185FD05C0A889B9898C915C
:1005D00086FD0FC00FB607FCF5CF808185FFF2CFF7
:1005E000A889B9898C9185FFEDCFCE010E94720256
:1005F000E7CFDF91CF91089580E090E0892B29F03B
:100600000E94680281110C9400000895009769F01F
:10061000FC0101900020E9F73197AF01481B590B0D
:10062000BC018BE391E00C940F0280E090E0089510
:100630008F929F92AF92BF92CF92DF92EF92FF92F2
:100640000F931F93CF93DF93CDB7DEB7A1970FB66C
:10065000F894DEBF0FBECDBF6C01990FEE08FF0806
:10066000F7FE31C0E0913B01F0913C010190F08137
:10067000E02D6DE28BE391E009958C012227332771
:10068000A9012C193D094E095F0919A2CE018196D5
:100690007C019AE0892E912CA12CB12CCA01B901C0
:1006A000A50194010E943706605DF70162937F0106
:1006B000211531054105510589F7CF010E94060337
:1006C000080F191F1EC0A701960119A28E010F5D08
:1006D0001F4F8AE0C82ED12CE12CF12CCA01B901A0
:1006E000A70196010E943706605DF80162938F01B1
:1006F000211531054105510589F7CF010E940603F7
:100700008C0182E191E00E940603800F911FA19667
:100710000FB6F894DEBF0FBECDBFDF91CF911F9112
:100720000F91FF90EF90DF90CF90BF90AF909F9090
:100730008F9008950E947D061F920F920FB60F9220
:1007400011242F933F938F939F93AF93BF938091E7
:10075000370190913801A0913901B0913A0130915F
:10076000360123E0230F2D3720F40196A11DB11D82
:1007700005C026E8230F0296A11DB11D2093360166
:100780008093370190933801A0933901B0933A01D7
:100790008091320190913301A0913401B0913501E3
:1007A0000196A11DB11D8093320190933301A09356
:1007B0003401B0933501BF91AF919F918F913F91DB
:1007C0002F910F900FBE0F901F9018951F920F92B0
:1007D0000FB60F9211242F933F934F935F936F9314
:1007E0007F938F939F93AF93BF93EF93FF938BE38D
:1007F00091E00E947202FF91EF91BF91AF919F91A2
:100800008F917F916F915F914F913F912F910F90B9
:100810000FBE0F901F9018951F920F920FB60F9258
:1008200011242F938F939F93EF93FF93E0914B01AC
:10083000F0914C018081E0915101F091520182FDD3
:1008400012C09081809154018F5F8F732091550168
:10085000821751F0E0915401F0E0E55CFE4F958F76
:100860008093540101C08081FF91EF919F918F91FE
:100870002F910F900FBE0F901F901895789484B50C
:10088000826084BD84B5816084BD85B5826085BD8C
:1008900085B5816085BD80916E00816080936E001A
:1008A000109281008091810082608093810080910C
:1008B00081008160809381008091800081608093BD
:1008C00080008091B10084608093B1008091B0007D
:1008D00081608093B00080917A00846080937A0078
:1008E00080917A00826080937A0080917A008160A2
:1008F00080937A0080917A00806880937A001092C9
:10090000C1008BE00E94870088E00E9487008AE097
:100910000E94870089E00E94870061E08BE00E94CE
:10092000650161E088E00E94650160E08AE00E9464
:10093000650160E089E00E946501E0914B01F09162
:100940004C0182E08083E0914701F09148011082E0
:10095000E0914901F0914A018FEC8083109253019C
:10096000E0914F01F091500186E08083E0914D01CC
:10097000F0914E01808180618083E0914D01F09182
:100980004E01808188608083E0914D01F0914E019D
:10099000808180688083E0914D01F0914E018081DB
:1009A0008F7D808302E711E0C12CD12C7601CA949F
:1009B0008824839499249A94A92CB92C24E4322E67
:1009C00044244A9433E0532E612C712C8BE391E044
:1009D0000E945C02892B61F18BE391E00E943A0254
:1009E00080933101883539F40E94EC007093300116
:1009F00060932F011DC0833539F40E94EC00709381
:100A00002E0160932D0114C0863429F41093010146
:100A10001093000106C0823439F410920101109243
:100A2000000110932C0104C00093310110922C019D
:100A300020912F0130913001C0912D01D0912E01D4
:100A40002115310541F41C161D06D4F5D0932B0158
:100A5000C0932A0117C037FF1AC01C161D0684F563
:100A6000DE010E946806A50194010E940D063093E4
:100A7000270120932601CE01821B930B90932B011B
:100A800080932A01D0932901C093280119C01C1614
:100A90001D06B4F4DE010E946806A70196010E94BB
:100AA0000D063093250120932401CE01821B930B68
:100AB0009093290180932801D0932B01C0932A01A0
:100AC00080912C018823C9F0609101018BE00E9484
:100AD00065016091000188E00E94650160912A0132
:100AE00070912B018AE00E94B10160912801709100
:100AF000290189E00E94B10108C060E08AE00E94FB
:100B0000650160E089E00E94650180912201909179
:100B10002301883E23E0920734F401969093230149
:100B2000809322012FC030927C0080917A008064F3
:100B300080937A0080917A0086FDFCCFA0917800A6
:100B400080917900B0E0B82BB0932101A0932001EF
:100B500024EF31E00E947006A30192010E940D066D
:100B600030931F0120931E0185E191E00E9406034E
:100B700080911E0190911F010E9418031092230181
:100B80001092220180911C0190911D0184369105E3
:100B900034F4019690931D0180931C010EC088E1EE
:100BA00091E00E94060380912D0190912E010E94F8
:100BB000180310921D0110921C010E94FC0206CF26
:100BC000EBE3F1E01382128288EE93E0A0E0B0E064
:100BD00084839583A683B78386E091E091838083A5
:100BE00085EC90E09587848784EC90E097878687F2
:100BF00080EC90E0918B808B81EC90E0938B828BEA
:100C000082EC90E0958B848B86EC90E0978B868BC2
:100C1000118E128E138E148E0895052E97FB1EF4DE
:100C200000940E94240657FD07D00E94370607FC57
:100C300003D04EF40C9424065095409530952195A0
:100C40003F4F4F4F5F4F08959095809570956195F8
:100C50007F4F8F4F9F4F08950E945906A59F900D7B
:100C6000B49F900DA49F800D911D11240895A1E2C1
:100C70001A2EAA1BBB1BFD010DC0AA1FBB1FEE1F16
:100C8000FF1FA217B307E407F50720F0A21BB30B61
:100C9000E40BF50B661F771F881F991F1A9469F7DD
:100CA00060957095809590959B01AC01BD01CF0139
:100CB0000895A29FB001B39FC001A39F700D811D35
:100CC0001124911DB29F700D811D1124911D089555
:100CD0000E945906332312F48A1B9B0B0C94720654
:100CE0000E945906B7FF0895821B930B0895EE0FDB
:100CF000FF1F0590F491E02D099481E090E0F894B5
:080D00000C948206F894FFCF69
:100D080001010000000093020F025C023A024E0249
:0C0D1800DA020D0A002A76002A7300009F
:00000001FF
