:100000000C9441010C9472010C9472010C947201D5
:100010000C9472010C9472010C9472010C94720194
:100020000C9472010C9472010C9472010C94720184
:100030000C9472010C9472010C9472010C94720174
:100040000C9472010C9472010C9472010C94720164
:100050000C9472010C9472010C9472010C945D0466
:100060000C9472010C94D1040C94A7040C947201AA
:100070000C9472010C9472010C9472010C94720134
:100080000C9472010C9472010C9472010C94720124
:100090000C9472010C9472010C9472010C94720114
:1000A0000C9472010C9472010C9472010C94720104
:1000B0000C9472010C9472010C9472010C947201F4
:1000C0000C9472010C9472010C9472010C947201E4
:1000D0000C9472010C9472010C9472010C947201D4
:1000E0000C947201C201C501B401B801BC01FC014C
:1000F000C901CD01D301D701DB01E101E501E9012E
:10010000FC01EF01F301F7010C948D020C94DB016B
:100110000C94B8010C94EF010C94E1010C94D30100
:100120000C9457030C9407050C94C2010C94E9013C
:100130000C94D9020C94D7010C9410030C94E50193
:100140000C94B7020C94FC010C94C9010C94C501E9
:100150000C94CB020C94CD010C94F3010C94BC01D3
:100160000C94F7010C94B4011112131415160A0B18
:100170000C0D0E0F00010203040500000A0B02091A
:100180000C0D0E0807030401000000000000000031
:10019000000000000000000000000000000000005F
:1001A000000000000000121110000000000000001C
:1001B000000000000000000000000000000000003F
:1001C00000002200250028002B002E003100340002
:1001D00002010000050108010B01000021002400BC
:1001E00027002A002D003000330001010000040127
:1001F00007010A01050505050705080808080202A8
:1002000002020A0A080804040404010101010101B0
:1002100001010303030303030303040707070C0C93
:100220000C0C0C0C0C0C020202020606060606065A
:1002300006060B0B0B0B0B0B0B0B010210202008FF
:100240000810204010204080020102010804020131
:1002500001020408102040808040201008040201A0
:1002600080040201804020100804020108040201F9
:100270000102040810204080010204081020408080
:10028000070511241FBECFEFD1E2DEBFCDBF00E0D6
:100290000CBF23E0A4E3B2E001C01D92A730B20777
:1002A000E1F712E0A0E0B2E0ECECFEE000E00BBF12
:1002B00002C007900D92A433B107D9F711E0C1E451
:1002C000D1E000E006C021970109802FFE010E94C5
:1002D0005707C034D10780E00807A9F70E946305DB
:1002E0000C9464070C94000090E0FC01E65CFD4F68
:1002F0002491FC01EC50FE4F8491882399F090E00A
:10030000880F991FFC01E652FE4FA591B491FC01A4
:10031000E054FE4F859194918FB7F894EC91E22BC5
:10032000EC938FBF0895362F90E0FC01E658FE4F06
:100330004491FC01E65CFD4F2491FC01EC50FE4F22
:100340009491992309F46CC0442309F455C050E0FA
:10035000FA013197E231F10508F04EC08827EE58D6
:10036000FF4F8F4F0C945707809180008F7707C005
:10037000809180008F7D03C080918000877F809373
:1003800080003AC084B58F7702C084B58F7D84BD6C
:1003900033C08091B0008F7703C08091B0008F7D13
:1003A0008093B00029C0809190008F7707C0809122
:1003B00090008F7D03C080919000877F8093900094
:1003C0001BC08091A0008F7707C08091A0008F7D17
:1003D00003C08091A000877F8093A0000DC0809112
:1003E00020018F7707C0809120018F7D03C080910D
:1003F0002001877F80932001E92FF0E0EE0FFF1F9F
:10040000E054FE4FA591B4919FB7F894311104C008
:100410008C912095282302C0EC912E2B2C939FBF0A
:1004200008959CB59F7D9CBD9CB5937F9CBD9CB55C
:100430009C7F9CBD9DB591609DBD682F8091F10210
:100440000E949301809103039091040382309105EF
:1004500038F0880F991F880F991F05970197F1F7BA
:1004600008953FB7F89480913A0290913B02A09191
:100470003C02B0913D0226B5A89B05C02F3F19F064
:100480000196A11DB11D3FBFBA2FA92F982F882714
:10049000820F911DA11DB11DBC01CD0142E0660F6F
:1004A000771F881F991F4A95D1F708958F929F92C1
:1004B000AF92BF92CF92DF92EF92FF920E943102F1
:1004C0004B015C0185E0C82ED12CE12CF12C0E945F
:1004D0003102DC01CB0188199909AA09BB09883EC0
:1004E0009340A105B10598F321E0C21AD108E108B3
:1004F000F10888EE880E83E0981EA11CB11CC1147F
:10050000D104E104F10419F7FF90EF90DF90CF9050
:10051000BF90AF909F908F900895CF92DF92EF920F
:10052000FF920F931F93CF93DF936C017A018B019E
:10053000C0E0D0E0CE15DF0581F0D8016D918D01CE
:10054000D601ED91FC910190F081E02DC601199545
:10055000892B11F02196EECF7E01C701DF91CF915B
:100560001F910F91FF90EF90DF90CF900895FC01C5
:10057000918D828D981761F0828DDF01A80FB11DDA
:100580005D968C91928D9F5F9F73928F90E00895FE
:100590008FEF9FEF0895FC01918D828D981731F0B8
:1005A000828DE80FF11D858D90E008958FEF9FEF0C
:1005B0000895FC01918D228D892F90E0805C9F4FE2
:1005C000821B91098F73992708958EE392E00E9410
:1005D000D90221E0892B09F420E0822F0895FC0143
:1005E000848DDF01A80FB11DA35ABF4F2C91848DBC
:1005F00090E001968F739927848FA689B7892C93F1
:10060000A089B1898C9180648C93938D848D98138B
:1006100006C00288F389E02D80818F7D8083089554
:10062000EF92FF920F931F93CF93DF93EC0181E042
:10063000888F9B8D8C8D981305C0E889F9898081FE
:1006400085FD24C0F62E0B8D10E00F5F1F4F0F733A
:100650001127E02E8C8DE8120CC00FB607FCFACFE4
:10066000E889F989808185FFF5CFCE010E94EF02EC
:10067000F1CF8B8DFE01E80FF11DE35AFF4FF082A1
:100680000B8FEA89FB898081806207C0EE89FF8930
:100690006083E889F98980818064808381E090E0CB
:1006A000DF91CF911F910F91FF90EF900895CF931D
:1006B000DF93EC01888D8823C9F0EA89FB8980816A
:1006C00085FD05C0A889B9898C9186FD0FC00FB63C
:1006D00007FCF5CF808185FFF2CFA889B9898C917D
:1006E00085FFEDCFCE010E94EF02E7CFDF91CF91E2
:1006F000089580E090E0892B21F00E94E5028111AD
:1007000025C080E090E0892B41F080E090E0892BCB
:1007100021F00E94000081111CC080E090E0892B34
:1007200041F080E090E0892B21F00E9400008111CF
:1007300013C080E090E0892BA1F080E090E0892B4D
:1007400081F00E94000081110AC008950E940000FB
:10075000D8CF0E940000E1CF0E940000EACF0C94A5
:10076000000008958EBD00000DB407FEFDCF8EB5CC
:100770000895CF9380E00E94110281EE0E94B2039F
:10078000C82F81E00E9411028C2FCF910895CF9342
:10079000C82F80E00E9411028C2F8F710E94B2033B
:1007A0008FEF0E94B203C82F81E00E9411028C2FAC
:1007B000CF910895CF93DF93C82FD62F80E00E946A
:1007C00011028C2F8F7180620E94B203C82F8D2F6F
:1007D0000E94B20381E00E9411028C2FDF91CF9121
:1007E000089580E00E94C70381FD07C0682F626002
:1007F00080E00E94DA030C94560208950F931F9331
:10080000CF938C0186E00E94C703C82FC77D0230BA
:10081000110531F4C0628BE990E0A0E0B0E00DC0BA
:100820000130110529F085E590E0A0E0B0E005C0B9
:10083000C86081E490E0A0E0B0E08093FF02909374
:100840000003A0930103B09302036C2F86E00E9483
:10085000DA0386E00E94C70391E0C81390E0892F75
:10086000CF911F910F910895EF92FF920F931F93D5
:10087000CF93DF93182F7B01C42F80E00E941102D9
:10088000812F8F7180620E94B203D82F8701CC2301
:1008900039F0F80181918F010E94B203C150F7CF66
:1008A00081E00E9411028D2FDF91CF911F910F9156
:1008B000FF90EF9008950E945F071F920F920FB66E
:1008C0000F9211242F933F938F939F93AF93BF93D6
:1008D0008091360290913702A0913802B09139028E
:1008E0003091350223E0230F2D3720F40196A11D0E
:1008F000B11D05C026E8230F0296A11DB11D20934E
:1009000035028093360290933702A0933802B09359
:10091000390280913A0290913B02A0913C02B09141
:100920003D020196A11DB11D80933A0290933B02B6
:10093000A0933C02B0933D02BF91AF919F918F91E4
:100940003F912F910F900FBE0F901F9018951F92FF
:100950000F920FB60F9211240BB60F922F933F9365
:100960004F935F936F937F938F939F93AF93BF93B7
:10097000EF93FF938EE392E00E94EF02FF91EF91DD
:10098000BF91AF919F918F917F916F915F914F91A7
:100990003F912F910F900BBE0F900FBE0F901F90A5
:1009A00018951F920F920FB60F9211240BB60F924B
:1009B0002F938F939F93EF93FF93E0914E02F091CB
:1009C0004F028081E0915402F091550282FD12C0E5
:1009D0009081809157028F5F8F7320915802821708
:1009E00051F0E0915702F0E0E25CFD4F958F80936B
:1009F000570201C08081FF91EF919F918F912F91BC
:100A00000F900BBE0F900FBE0F901F901895EEE346
:100A1000F2E01382128288EE93E0A0E0B0E08483DB
:100A20009583A683B78388E292E09183808385ECE7
:100A300090E09587848784EC90E09787868780ECA8
:100A400090E0918B808B81EC90E0938B828B82EC99
:100A500090E0958B848B86EC90E0978B868B118E43
:100A6000128E138E148EEFEEF2E089E090E0918307
:100A7000808385E390E093838283168280E287837C
:100A8000108685E0868785E090E0A0E0B0E0848B6A
:100A9000958BA68BB78B1186EBEDF2E01482158255
:100AA0001682178280E090E0AAE7B4E480879187FD
:100AB000A287B3871486158616861786808B918B3E
:100AC000A28BB38B0895789484B5826084BD84B57D
:100AD000816084BD85B5826085BD85B5816085BD39
:100AE00080916E00816080936E00109281008091F1
:100AF0008100826080938100809181008160809379
:100B00008100809180008160809380008091B1009D
:100B100084608093B1008091B00081608093B000C8
:100B2000809191008260809391008091910081601A
:100B300080939100809190008160809390008091DB
:100B4000A10082608093A1008091A10081608093C8
:100B5000A1008091A00081608093A000809121017C
:100B60008260809321018091210181608093210125
:100B70008091200181608093200180917A008460BF
:100B800080937A0080917A00826080937A008091CD
:100B90007A00816080937A0080917A0080688093E7
:100BA0007A001092C100E0914E02F0914F0282E073
:100BB0008083E0914A02F0914B021082E0914C0256
:100BC000F0914D0287E0808310925602E09152022C
:100BD000F091530286E08083E0915002F09151023F
:100BE000808180618083E0915002F0915102808188
:100BF00088608083E0915002F0915102808180688A
:100C00008083E0915002F091510280818F7D80833A
:100C10008091EF029091F0022091F1023091F20266
:100C20008217930711F00E9474018091F102909154
:100C3000F2022091EF023091F0022817390711F0EB
:100C40000E947401CFB7F89480913402811124C0BE
:100C5000E9E2F2E08491EFE6F2E09491E82FF0E02F
:100C6000EE0FFF1FE652FE4FA591B491EC91E923E0
:100C700021F461E085E30E94930185E30E94740101
:100C80008CB580618CBD8CB580648CBD84E30E9482
:100C9000740183E30E947401809134028F5F80931A
:100CA0003402CFBF8091EF029091F0022091F102C7
:100CB0003091F2028217930719F060E00E949301CD
:100CC00081E00E9411020E9456026CE080E00E94C6
:100CD000DA036FE584E00E94DA0382E090E00E948C
:100CE000FE03882319F081E08093F50286E00E94DC
:100CF000C70380E090E00E94FE0380E00E941102A2
:100D000080E50E94B20383E70E94B20381E00E9463
:100D1000110260E08DE10E94DA0360E08CE10E9444
:100D2000DA031092F70260E787E00E94DA036CE4CE
:100D300085E00E94DA0380E00E94110282EE0E94A8
:100D4000B20381E00E9411020E94B9030E94F103E4
:100D500080E00E94C703682F6E7F80E00E94DA0364
:100D60006FE381E00E94DA036FE084E00E94DA031F
:100D70008DE10E94C703682F66608DE10E94DA034F
:100D80008CE10E94C703682F63608CE10E94DA0344
:100D900081E08093F70280E28093F6024091FD02A9
:100DA00060E072E08AE00E9434044091FD0260E05D
:100DB00072E080E10E9434046091F60281E10E94B9
:100DC000DA03EFE6F1E084914091FD0266E072E023
:100DD0000E943404E9E6F1E084916091F6020E94F9
:100DE000DA0382E00E94C703E5E7F1E0E49161E005
:100DF00070E001C0660FEA95EAF7682B82E00E9476
:100E0000DA0360E685E00E94DA0386E00E94C70309
:100E1000887F682F616086E00E94DA0382E090E0BC
:100E20000E94FE030E94F1030E94F10380E00E94F1
:100E3000C703682F616080E00E94DA0360E787E003
:100E40000E94DA038091EF029091F0022091F1026A
:100E50003091F2028217930719F061E00E9493012A
:100E60008091F802882341F04091FD0268EF72E022
:100E70008AE00E94340412C082E00E94C703E4E7C3
:100E8000F1E0E49121E030E001C0220FEA95EAF7B9
:100E90002095622F682382E00E94DA038DE10E9490
:100EA000C70381FD0E94B9030E947903FDCFEE0FB5
:100EB000FF1F881F8BBF0790F691E02D199481E0EA
:0C0EC00090E0F8940C946407F894FFCFC5
:100ECC00314E6F646500324E6F646500334E6F6453
:100EDC006500344E6F646500354E6F646500364EA8
:100EEC006F6465000000000010038D02D902B70288
:040EFC00CB025703CB
:00000001FF
