:100000000C9407020C9438020C9438020C943802B9
:100010000C9438020C9438020C9438020C94380278
:100020000C9438020C9438020C9438020C94380268
:100030000C9438020C941B1E0C9438020C94380259
:100040000C9438020C9438020C9438020C94380248
:100050000C9438020C9438020C9438020C944F1D06
:100060000C9438020C949A0F0C94700F0C94380274
:100070000C9438020C9438020C9438020C94380218
:100080000C9438020C9438020C9438020C94380208
:100090000C94460F0C941C0F0C9438020C944D22B7
:1000A0000C9438020C9438020C9438020C943802E8
:1000B0000C9438020C9438020C9438020C943802D8
:1000C0000C9438020C9438020C9438020C94F20E02
:1000D0000C94C80E0C9438020C949E0E0C94740E62
:1000E0000C94380283168616751679167F16BD167F
:1000F0008A168E16941698169C16A216A616AA167E
:10010000BD16B016B416B8160C9475160C94901F44
:100110000C94A6160C943D1F0C94F41E0C94E51E32
:100120000C94B0160C943D020C9418250C944302C8
:100130000C94E41E0C943E0D0C9498160C944A02F8
:100140000C94B4160C94BF240C94A10D0C94223A78
:100150000C944C0D0C946D020C94AD1E0C947916FD
:100160000C9421050C94081F0C9446020C948316E1
:100170000C94E80D0C94741F0C948E160C94A2161B
:100180000C949C160C948A160C94BD160C94DE04E8
:100190000C94B8160C94CE1E0C9486160C947F16F4
:1001A0000C9490130C942A0D0C9494160C94370E06
:1001B0000C943A020C94101F0C94B5240C94AA16BB
:1001C0000C94E8270C946C1F00407A10F35A00A09E
:1001D000724E18090010A5D4E80000E87648170010
:1001E00000E40B54020000CA9A3B000000E1F50550
:1001F000000080969800000040420F000000A0869A
:1002000001000000102700000000E80300000000CB
:100210006400000000000A0000000000010000006F
:1002200000002C76D888DC674F0823DFC1DFAE5989
:10023000E1B1B796E5E3E453C63AE651997696E81C
:10024000E6C28426EB898C9B62ED407C6FFCEFBCA0
:100250009C9F40F2BAA56FA5F490055A2AF75C93CB
:100260006B6CF9676DC11BFCE0E40D47FEF520E601
:10027000B500D0ED902E0300943577050080841EE4
:10028000080000204E0A000000C80C333333330F3F
:10029000986E12831141EF8D2114893BE65516CFDC
:1002A000FEE6DB18D1844B381BF77C1D901DA4BBE8
:1002B000E424203284725E228100C9F124ECA1E59D
:1002C0003D270003020500030501040602041F1C6C
:1002D0001F1E1F1E1F1F1E1F1E1F7C3C3E5E2B3D30
:1002E0003F2F5B5D3B2C2A225C0000002100240094
:1002F00027002A002D003000330001010000040116
:1003000007010A0100002200250028002B002E0012
:100310003100340002010000050108010B0100005A
:1003200020002300260029002C002F0032000001AD
:100330000000030106010901050505050705080878
:100340000808020202020A0A08080404040401015F
:100350000101010101010303030303030303040774
:1003600007070C0C0C0C0C0C0C0C0202020206060B
:100370000606060606060B0B0B0B0B0B0B0B0102FE
:1003800010202008081020401020408002010201A7
:10039000080402010102040810204080804020105F
:1003A00008040201800402018040201008040201B8
:1003B0000804020101020408102040800102040820
:1003C0001020408000000A0B02090C0D0E080703E4
:1003D0000401000000000000000000000000000018
:1003E000000000000000000000000000000000000D
:1003F00012111000000000000000000000000000CA
:10040000000000000000000000000200223A112459
:100410001FBECFEFD1E2DEBFCDBF00E00CBF15E0C5
:10042000A0E0B2E0EEEEF6E800E00BBF02C00790FD
:100430000D92AE3FB107D9F72CE0AEEFB5E001C0A9
:100440001D92A336B207E1F712E0C7E0D2E000E068
:1004500006C021970109802FFE010E941B41C63072
:10046000D10780E00807A9F70E948F280C947543F4
:100470000C94000080E991E00895E1E0F1E08081D2
:1004800080628083089580E090E00895FC01858576
:1004900096850895CF93DF9300D000D0CDB7DEB717
:1004A000AB011C821D821E82DC01ED91FC9101904A
:1004B000F081E02D19821A821B829E012F5F3F4F2F
:1004C000BE016C5F7F4F199526960FB6F894DEBF7C
:1004D0000FBECDBFDF91CF9108956F927F928F9223
:1004E0009F92AF92BF92CF92DF92EF92FF920F93C3
:1004F0001F93CF93DF933C01EB010E94CA1BF301D2
:1005000027853089621B730B6A307105B0F3F8944C
:10051000E881F981509102015062409102014F7DC2
:1005200040930201E9848E812E2D281B822F2E8379
:10053000DF84AA81BB816C857D85FE846F5F7F5FD0
:10054000F3949F813885BA84AB84108120E0C32E58
:10055000022F322F3081112788943111380F08F47F
:100560003FEF8195889460FD130F1795889461FD86
:10057000130F1795889462FD130F1795889463FDE8
:10058000130F1795889464FD130F1795889465FDD4
:10059000130F1795889466FD130F1795889467FDC0
:1005A000130F17958894232F6111212F8E0D122F71
:1005B000002C50930201002C17FF4093020131815F
:1005C0002227889400C000C0409302013111390FE6
:1005D00000C050930201002C16FF4093020108F462
:1005E0003FEF9195889400C000C04093020170FDD8
:1005F000230F00C050930201002C15FF409302010D
:100600002795889471FD230F00C000C0409302011C
:100610002795889400C050930201002C14FF40934A
:10062000020172FD230F2795889400C000C04093FB
:10063000020173FD230F00C050930201002C13FF31
:10064000409302012795889474FD230F00C000C0D9
:10065000409302012795889400C050930201002C1A
:1006600012FF4093020175FD230F2795889400C067
:1006700000C04093020176FD230F00C05093020199
:10068000002C11FF409302012795889477FD230FDA
:1006900000C000C0409302012795889400C0509389
:1006A0000201002C10FF40930201132F7111122F31
:1006B0009B0D00C000C04093020100C000C05093D9
:1006C0000201002C17FF40930201328122278894F7
:1006D00000C000C04093020131113C0D00C0509396
:1006E0000201002C16FF4093020108F43FEFED0DCC
:1006F000F11D00C000C040930201F0FC230F00C0B8
:1007000050930201002C15FF409302012795889415
:10071000F1FC230F00C000C040930201279588948C
:1007200000C050930201002C14FF40930201F2FC20
:10073000230F2795889400C000C040930201F3FC6A
:10074000230F00C050930201002C13FF40930201BD
:1007500027958894F4FC230F00C000C04093020149
:100760002795889400C050930201002C12FF4093FB
:100770000201F5FC230F2795889400C000C0409328
:100780000201F6FC230F00C050930201002C11FF60
:100790004093020127958894F7FC230F00C000C006
:1007A000409302012795889400C050930201002CC9
:1007B00010FF40930201132FF110122FC19400C0BB
:1007C00000C040930201CA0C00C0002C50930201EB
:1007D000002C17FF4093020130812227889400C02B
:1007E00000C0409302013111380F00C05093020144
:1007F000002C16FF4093020108F43FEF8195889486
:1008000000C000C04093020160FD230F00C0509360
:100810000201002C15FF409302012795889461FD89
:10082000230F00C000C0409302012795889400C0A8
:1008300050930201002C14FF4093020162FD230F2C
:100840002795889400C000C04093020163FD230FE8
:1008500000C050930201002C13FF40930201279522
:10086000889464FD230F00C000C0409302012795C7
:10087000889400C050930201002C12FF40930201A3
:1008800065FD230F2795889400C000C040930201A6
:1008900066FD230F00C050930201002C11FF40930E
:1008A00002012795889467FD230F00C000C0409384
:1008B00002012795889400C050930201002C10FF7C
:1008C00040930201132F6111122F8E0D00C000C042
:1008D00040930201119709F06CCE4A815B8120EEB2
:1008E00031E0DA010E942341DC01CB01F4E0B6954E
:1008F000A79597958795FA95D1F720E030E0B90153
:10090000EAE94E9F040E611D5E9F600D711D11246A
:10091000650F711D860F971FA11DB11D893E43E014
:100920009407A105B10508F434C0885E9340A1097D
:10093000B10942E0B695A795979587954A95D1F765
:1009400047E0849F080E211D949F200D311D112426
:10095000290F311D60916C0670E0860F971F820F82
:10096000931F4091790650917A0660917B067091B1
:100970007C06292F3327420F531F611D711D4093A1
:10098000790650937A0660937B0670937C06809379
:100990006C0678940E94CA1BF301708B6787DF9105
:1009A000CF911F910F91FF90EF90DF90CF90BF906C
:1009B000AF909F908F907F906F9008950F931F93AB
:1009C000CF93DF93CDB7DEB762970FB6F894DEBF53
:1009D0000FBECDBF8C01F901DC011C968C917A838E
:1009E00069835C834B835E834D8390819D87918176
:1009F0009E8792819F87813029F4CE0101960E94C3
:100A0000192506C01C861B861A86198618861F8221
:100A1000188A1A8A198AD801ED91FC910484F58507
:100A2000E02DBE016F5F7F4FC801199562960FB62A
:100A3000F894DEBF0FBECDBFDF91CF911F910F9114
:100A400008950F931F93CF93DF93CDB7DEB76297CF
:100A50000FB6F894DEBF0FBECDBF8C01F901DC01EB
:100A60001C968C917A8369835C834B835E834D8370
:100A700090819D8791819E8792819F87813029F403
:100A8000CE0101960E94192506C01C861B861A8677
:100A9000198618861F8283E0888B1A8A198AD801E2
:100AA000ED91FC910484F585E02DBE016F5F7F4FD1
:100AB000C801199562960FB6F894DEBF0FBECDBF80
:100AC000DF91CF911F910F9108953F924F925F92C6
:100AD0006F927F928F929F92AF92BF92CF92DF924E
:100AE000EF92FF920F931F93CF93DF93CDB7DEB7B3
:100AF0006A970FB6F894DEBF0FBECDBF81E080933A
:100B00001F0988E68093410910922009109242093A
:100B100060E082E09CE00E943D1F0E94A62687E0E4
:100B200090E00E94D41890917F08809180089817D7
:100B3000F1F38E01015F1F4FCE0101967C0182E02F
:100B40009CE00E94F41E982F92959F708F70EAE0AF
:100B50009E9F800D112490E0F801929382938F0163
:100B6000EE16FF0661F70E94A62669817A814B0185
:100B7000F0E38F1AF8EF9F0A909213068092120604
:100B80006B807C80962D60921406AD80BE80A09212
:100B900015068F818093190609851A85302E0093DA
:100BA0001606EB84FC844E2CE0921706CD84DE847E
:100BB0005C2CC0921806BB24A501EEECF2E081E0AB
:100BC000891730F42491420F511D8F5F3196F8CF71
:100BD000923031F4CB0183709927892B09F485C0B9
:100BE000F401ED5CF740F695E795F695E7952DE66F
:100BF00031E0629FC001639F900D729F900D1124A0
:100C00009F01280F391F21503109240F351FA8E1FA
:100C1000B0E00E94A93F9B01AC01230D311D411D95
:100C2000511DACE3B0E00E947C3F9B01AC01240D60
:100C3000311D411D511D0E947C3FDC01CB01850D02
:100C4000911DA11DB11D80599A4CA249B74C8093AA
:100C50001A0690931B06A0931C06B0931D068CE009
:100C6000E2E1F6E0DE011F9601900D928A95E1F730
:100C70008CE0FE013F96A0E6B6E001900D928A95C9
:100C8000E1F7DD24D0921106C0921006FF24F09205
:100C90000506E09204061127109307060093060646
:100CA000B0920B06A0920A06772470920906609211
:100CB00008069092FF058092FE056A960FB6F8949A
:100CC000DEBF0FBECDBFDF91CF911F910F91FF907F
:100CD000EF90DF90CF90BF90AF909F908F907F90DC
:100CE0006F905F904F903F9008954F5F5F4F78CF28
:100CF0008F929F92AF92BF92CF92DF92EF92FF922C
:100D0000CF93DF93C6E3DCE06B817C816368716E17
:100D100088810E940227698170E080E090E00E9453
:100D2000EF1B88810E94E9240A8002C0969587956E
:100D30000A94E2F7BC01990F880B990B0E942A3E96
:100D400020E030E040E45EE30E94893E20E030E0B5
:100D50004AE754E40E9425406B017C0160EF74E097
:100D60008AE19BE00E94A426C701B6010E94952655
:100D700020E030E0A901C701B6010E94893E4B0185
:100D80005C0120E030E04AEF54E4C701B6010E9464
:100D9000893E9B01AC01C501B4010E94B83F20E02F
:100DA00030E048E454E40E94B93F2DEC3CEC4CECBC
:100DB0005FEB0E9425406B017C010E94974070937D
:100DC0002A0260932902C701B601DF91CF91FF90FB
:100DD000EF90DF90CF90BF90AF909F908F9008954D
:100DE0008F929F92AF92BF92CF92DF92EF92FF923B
:100DF0000F931F93CF93DF93C6E3DCE06B817C817D
:100E00006368716D88810E940227698170E080E0CB
:100E100090E00E94EF1B88810E94E92409E112E022
:100E20000A8002C0969587950A94E2F7BC01990F53
:100E3000880B990B0E942A3E20E030E040E45EE3FC
:100E40000E94893E20E030E04AE754E40E942540B9
:100E5000F801608771878287938767EF74E08AE182
:100E60009BE00E94A426F8016085718582859385A8
:100E70000E949526F801C084D184E284F38420E0A6
:100E800030E0A901C701B6010E94893E4B015C0117
:100E900020E030E040E850E4C701B6010E94893EFE
:100EA0009B01AC01C501B4010E94B83F2DEC3CECA4
:100EB0004CEC5FE30E94B93F2DEC3CEC4CEC5FEB5B
:100EC0000E942540F8016087718782879387DF91B0
:100ED000CF911F910F91FF90EF90DF90CF90BF9037
:100EE000AF909F908F900895CF92DF92EF92FF92F4
:100EF000CF930E94291C6B017C0160E780EE99E092
:100F00000E947C2580EE99E00E947928C2E780EE5D
:100F100099E00E944C0D181619069CF480EE99E099
:100F20000E942A0DC82F893661F480EE99E00E9454
:100F3000101760932B0270932C0280932D029093D4
:100F40002E020E94291CDC01CB018C199D09AE09DF
:100F5000BF0985369105A105B10518F4C936B9F662
:100F600004C08EEF94E00E94C318C53659F180EE9C
:100F700099E00E944C0D181619069CF480EE99E039
:100F80000E942A0DC82F853661F480EE99E00E94F8
:100F9000101760932F027093300280933102909368
:100FA00032020E94291CDC01CB018C199D09AE097B
:100FB000BF09893C9105A105B105B8F28EEF94E017
:100FC0000E94C31820912F023091300240913102CB
:100FD0005091320260912B0270912C0280912D026F
:100FE00090912E020E94B93F20E030E040E05FE3A4
:100FF0000E94893ECF91FF90EF90DF90CF900895AF
:10100000CF93DF9360E080914A0C0E94021B8FE92E
:101010009FE00197F1F700C000000E94311BC82F2C
:10102000D0E0DC2FCC270E94311BC82B61E08091DF
:101030004A0C0E94021BC2FD11C0BE0183E07695DE
:1010400067958A95E1F780E090E00E94283E20E0D5
:1010500030E040E85EE30E94893E04C060E070E05A
:1010600080EC9FE760931D0270931E0280931F0225
:1010700090932002DF91CF910895CF92DF92EF926B
:10108000FF920E94291C6B017C0164E78DE79AE0C6
:101090000E947C258DE79AE00E944C0D18161906D7
:1010A0009CF48DE79AE00E942A0D8D3669F48DE755
:1010B0009AE00E9410176093190270931A028093AD
:1010C0001B0290931C0211C00E94291CDC01CB0161
:1010D0008C199D09AE09BF0985369105A105B10599
:1010E000C8F282E295E00E94C318FF90EF90DF9073
:1010F000CF9008958F929F92AF92BF92CF92DF923E
:10110000EF92FF920F931F93CF93DF93CBE3DCE03B
:1011100060E08A810E94021B65E070E080E090E060
:101120000E94EF1B0E9463270E942A3E6B017C01F4
:1011300020E030E0A9010E94893E4B015C0120E0E3
:1011400030E040E252E4C701B6010E94893E9B01B3
:10115000AC01C501B4010E94B83F20E030E0A90114
:101160000E94B93F20E030E040E850EB0E94893E09
:101170006B017C0160935C0670935D0680935E0654
:1011800090935F0609E112E020E030E0A9010E949F
:10119000893E4B015C0120E030E048EC52E4C7019D
:1011A000B6010E94893E9B01AC01C501B4010E94B9
:1011B000B83F20E030E041E654E40E94B93F20E02F
:1011C00030E040E85EEB0E94893EF8016487758755
:1011D0008687978760E08A810E94021B61E08A818E
:1011E0000E94021B6FE375E08AE19BE00E94A42647
:1011F00060915C0670915D0680915E0690915F063D
:101200000E949526F8016485758586859785DF910E
:10121000CF911F910F91FF90EF90DF90CF90BF90F3
:10122000AF909F908F900895CF92DF92EF92FF92B0
:101230000F931F93CF93DF9300D01F92CDB7DEB7EC
:10124000880F991F880F991F6E0125E0C20ED11CCF
:101250008E010F5F1F4F7C01E01AF10AC701800F5A
:10126000911F0E94473FF80181938F01EC15FD0506
:10127000A9F769817A818B819C810F900F900F90E3
:101280000F90DF91CF911F910F91FF90EF90DF9022
:10129000CF9008958F929F92AF92BF92CF92DF929C
:1012A000EF92FF920F931F93CF93DF9300D01F9283
:1012B000CDB7DEB74A015B017C01EE0CFF1CEE0CE2
:1012C000FF1CC7010E941409A50194010E94233E3E
:1012D0008823B1F089829A82AB82BC82CE010196CA
:1012E0006C0100E010E0F60161916F01C701800F11
:1012F000911F0E944F3F0F5F1F4F0430110599F758
:101300000F900F900F900F90DF91CF911F910F9141
:10131000FF90EF90DF90CF90BF90AF909F908F9015
:1013200008956F927F928F929F92AF92BF92CF92C9
:10133000DF92EF92FF920F931F93CF93DF938BE88F
:10134000882E82E0982E9BE7A92E92E0B92E2BE6FC
:10135000C22E22E0D22E3BE4E32E32E0F32E0BE548
:1013600012E04BE3642E42E0742EC0E0D0E0F401C2
:1013700041915191619171914F01CE010E944A09B1
:10138000F50141915191619171915F01CE010496F6
:101390000E944A09F60141915191619171916F0149
:1013A000CE0108960E944A09F7014191519161913D
:1013B00071917F01CE010C960E944A09F80141917A
:1013C0005191619171918F01CE0140960E944A091D
:1013D000F30141915191619171913F01CE01449688
:1013E0000E944A092196C430D10509F6DF91CF91B8
:1013F0001F910F91FF90EF90DF90CF90BF90AF9033
:101400009F908F907F906F900895EF92FF920F932F
:101410001F93CF93DF93CDB7DEB767970FB6F894DE
:10142000DEBF0FBECDBF8C017B010E94B61865EFF9
:1014300075E0C8010E94991D1B8A1A8A1D8A1C8AA0
:101440001F8A1E8A4AE0BE016F5F7F4FC7010E945C
:10145000AA3BBE016F5F7F4FCE0142960E94991D4D
:10146000BE016E5E7F4FC8010E94AF18CE0142964A
:101470000E94161E66E475E0C8010E94A018C8010B
:1014800067960FB6F894DEBF0FBECDBFDF91CF9148
:101490001F910F91FF90EF9008952F923F924F92DE
:1014A0005F926F927F928F929F92AF92BF92CF92F4
:1014B000DF92EF92FF920F931F93CF93DF93CDB7FD
:1014C000DEB7C158D1090FB6F894DEBF0FBECDBF4D
:1014D0008FEF80930C0680930D0680930E060E947A
:1014E000351C84E00E94122861E084E00E94021B07
:1014F00080910F0681112DC281E080930F068AE151
:101500009BE00E9479288BE495E00E94C318CE01ED
:1015100087589F4F0E94B61810920006109201063D
:10152000109202061092030680910002909101022F
:10153000893E934008F005C29DED692E92E0792E18
:101540004E013BE3830E911CCE0101967C0160911C
:10155000000270910102CE018D589F4F0E94050A32
:10156000E596AEACBFACE5971EAE1DAE7CAE6BAEE5
:1015700021961FAE219719A218A27F8E6E8E1BA2F4
:10158000412C512CC158DF4F8882CF57D040392C85
:1015900083EEC82E8BE0D82EF501E40DF51D808179
:1015A0008F3219F4FFEF4F1A5F0AD501A40DB51D54
:1015B000FE01E85AFF4F80E090E08F012D912F321D
:1015C00051F0222341F001963FEF431A530A219331
:1015D0008C30910599F7F801E80FF91F1082F50199
:1015E000E40DF51D80818F3219F48FEF481A580AE7
:1015F000F501E40DF51D20801C821B827A82698230
:101600001E8221E0A801B601C7010E949E14882312
:1016100031F0C7010E945C1621100BC030C093EE60
:10162000C9169BE0D90619F0C6010E945C16D12CA0
:1016300030C021E0A801B601C158DF4F8881CF57E3
:10164000D040932D0E949E14282EE3EECE16EBE0A0
:10165000DE0609F4F8C1C6010E945C16222039F3A7
:101660009C2D8D2DC158DF4FC880CF57D040D32C33
:10167000C158DF4F9883CF57D040382E8DCFF3EE2F
:10168000CF16FBE0DF0619F0C6010E945C16DD24D0
:10169000D394CE018D589F4F0E94161EDD2051F02D
:1016A0008091000290910102019690930102809333
:1016B00000024DCF67E575E0CE0187589F4F0E942D
:1016C000A0186BE474E0CE0187589F4F0E94A018C9
:1016D0006091000270910102CE018D589F4F0E94CF
:1016E000050AE5966EAC7FACE5976E012EE1C20E61
:1016F000D11C63EE7BE0C6010E947B231C821B820F
:101700008DED92E09A8389831E82530127013C2C40
:101710002D2C6FE270E0C5010E944B430097C9F188
:10172000F50120812F3221F4FFEFAF1ABF0AF1CF6C
:101730008A198D3008F08CE0C82ED12CA601B50195
:10174000C8010E946643F801EC0DFD1D1082C20124
:101750000E945C1621E0A801632D722DC2010E9437
:101760009E1481110AC01EAE1DAE8DED92E09CAF9D
:101770008BAF21961FAE21971AC0AC0CBD1C832DD8
:10178000922D0E945C16C101342C252C492E582E16
:10179000C0CF950126193709C058DF4F39832883F8
:1017A000C058D040632D722DC4010E947B23C058C5
:1017B000DF4F88819981C058D040680E791EF301AF
:1017C0008081811107C0B401C7010E947B2347EAD1
:1017D00055E046C019A218A28DED92E09F8F8E8F22
:1017E0001BA221968FAD2197811113C0F80113829E
:1017F000128288EE93E0A0E0B0E084839583A68314
:10180000B7838DE093E091838083128E118E1486CE
:101810002BC0825023E1A301823048F463EE7BE0C9
:10182000CE014E960E949E1481110BC0DFCFB401F1
:10183000CE014E960E949E148823C1F2C4010E94DC
:101840005C1649A95AA96BA97CA9CE014E960E94A3
:101850006A11BE01625E7F4FC7010E947B23A30114
:10186000B701C8010E94D417F80182819381909337
:101870001E0C80931D0C84819581A681B781809375
:101880001F0C9093200CA093210CB093220C808508
:101890009185A285B3858093230C9093240CA0930B
:1018A000250CB093260CD8011C96E7E2FCE08D9144
:1018B00081932CE0E433F207D1F7F801818D928D0A
:1018C0009093350C8093340CCE018D589F4F0E941D
:1018D000161EE091340CF091350C3097B9F08581EB
:1018E0008823A1F0BE0167587F4F8BE19CE00E94E6
:1018F0007D288AE19BE00E94792889EA95E00E9490
:10190000C3188AE19BE00E94792815C060EC75E05D
:101910008DE79AE00E94A426609100027091010276
:10192000C7010E94050AB7018DE79AE00E947D2851
:10193000C7010E94161E0E94650510923402109283
:101940003302CE0187589F4F0E94161E86ED95E008
:101950001EC010920F068AE19BE00E9479288BE45A
:1019600095E00E94C3188091340C9091350C00973B
:1019700061F00E945C168091340C9091350C0E94AD
:10198000C2411092350C1092340C83EE95E00E9407
:10199000C3188AE19BE00E94792860E084E00E94FD
:1019A000021B64E670E080E090E00E94EF1B61E0C3
:1019B00084E00E94021B64E670E080E090E00E94F8
:1019C000EF1B60E084E00E94021B64E670E080E0B0
:1019D00090E00E94EF1B61E084E00E94021B64E63D
:1019E00070E080E090E00E94EF1B60E084E00E94E5
:1019F000021B64E670E080E090E00E94EF1B61E073
:101A000084E00E94021B64E670E080E090E00E94A7
:101A1000EF1BCF57DF4F0FB6F894DEBF0FBECDBF21
:101A2000DF91CF911F910F91FF90EF90DF90CF90BA
:101A3000BF90AF909F908F907F906F905F904F90EE
:101A40003F902F900895882309F4F1CDFE017E96F2
:101A50006F0106CEFC01918D828D981761F0828D09
:101A6000DF01A80FB11D5D968C91928D9F5F9F73D2
:101A7000928F90E008958FEF9FEF0895FC01918D74
:101A8000828D981731F0828DE80FF11D858D90E0E1
:101A900008958FEF9FEF0895FC01918D228D892F7E
:101AA00090E0805C9F4F821B91098F739927089566
:101AB00083E499E00E944C0D21E0892B09F420E099
:101AC000822F089580EE99E00E944C0D21E0892B31
:101AD00009F420E0822F08958DE79AE00E944C0DD2
:101AE00021E0892B09F420E0822F08958AE19BE010
:101AF0000E944C0D21E0892B09F420E0822F0895EB
:101B0000FC01848DDF01A80FB11DA35ABF4F2C919A
:101B1000848D90E001968F739927848FA689B78969
:101B20002C93A089B1898C9180648C93938D848D42
:101B3000981306C00288F389E02D80818F7D808311
:101B40000895EF92FF920F931F93CF93DF93EC01D1
:101B500081E0888F9B8D8C8D981305C0E889F98969
:101B6000808185FD24C0F62E0B8D10E00F5F1F4F86
:101B70000F731127E02E8C8DE8120CC00FB607FCF6
:101B8000FACFE889F989808185FFF5CFCE010E94DF
:101B9000800DF1CF8B8DFE01E80FF11DE35AFF4F51
:101BA000F0820B8FEA89FB898081806207C0EE8911
:101BB000FF896083E889F98980818064808381E07E
:101BC00090E0DF91CF911F910F91FF90EF900895DA
:101BD000CF93DF93EC01888D8823C9F0EA89FB89D4
:101BE000808185FD05C0A889B9898C9186FD0FC0CB
:101BF0000FB607FCF5CF808185FFF2CFA889B989A0
:101C00008C9185FFEDCFCE010E94800DE7CFDF9153
:101C1000CF91089580E090E0892B21F00E94760D0D
:101C2000811119C080E090E0892B21F00E946C0D99
:101C3000811114C080E090E0892B21F00E94620D98
:101C400081110FC080E090E0892B81F00E94580D37
:101C500081110AC008950E940000E4CF0E94000094
:101C6000E9CF0E940000EECF0C94000008950E947E
:101C7000304380916D068823A9F140919B025091D9
:101C80009C0260919D0270919E022DE736E080914A
:101C90007D0890917E080E94E121811102C080E0C0
:101CA000089540916E0650916F0660917006709194
:101CB0007106411551056105710591F02DE736E07A
:101CC00080917D0890917E080E94E121882339F35C
:101CD00010926E0610926F061092700610927106A6
:101CE00010926D0681E008951F920F920FB60F9229
:101CF00011240BB60F922F933F934F935F936F93E3
:101D00007F938F939F93AF93BF93EF93FF9383E45E
:101D100099E00E94800DFF91EF91BF91AF919F914B
:101D20008F917F916F915F914F913F912F910F9084
:101D30000BBE0F900FBE0F901F9018951F920F9221
:101D40000FB60F9211240BB60F922F933F934F9320
:101D50005F936F937F938F939F93AF93BF93EF9313
:101D6000FF9383E499E00E94C01AFF91EF91BF9125
:101D7000AF919F918F917F916F915F914F913F9123
:101D80002F910F900BBE0F900FBE0F901F901895C4
:101D90001F920F920FB60F9211240BB60F922F9332
:101DA0003F934F935F936F937F938F939F93AF93E3
:101DB000BF93EF93FF9380EE99E00E94800DFF9117
:101DC000EF91BF91AF919F918F917F916F915F91B3
:101DD0004F913F912F910F900BBE0F900FBE0F9020
:101DE0001F9018951F920F920FB60F9211240BB6E9
:101DF0000F922F933F934F935F936F937F938F93A4
:101E00009F93AF93BF93EF93FF9380EE99E00E946F
:101E1000C01AFF91EF91BF91AF919F918F917F91E8
:101E20006F915F914F913F912F910F900BBE0F904B
:101E30000FBE0F901F9018951F920F920FB60F9222
:101E400011240BB60F922F933F934F935F936F9391
:101E50007F938F939F93AF93BF93EF93FF938DE700
:101E60009AE00E94800DFF91EF91BF91AF919F91F9
:101E70008F917F916F915F914F913F912F910F9033
:101E80000BBE0F900FBE0F901F9018951F920F92D0
:101E90000FB60F9211240BB60F922F933F934F93CF
:101EA0005F936F937F938F939F93AF93BF93EF93C2
:101EB000FF938DE79AE00E94C01AFF91EF91BF91C6
:101EC000AF919F918F917F916F915F914F913F91D2
:101ED0002F910F900BBE0F900FBE0F901F90189573
:101EE0001F920F920FB60F9211240BB60F922F93E1
:101EF0003F934F935F936F937F938F939F93AF9392
:101F0000BF93EF93FF938AE19BE00E94800DFF91C6
:101F1000EF91BF91AF919F918F917F916F915F9161
:101F20004F913F912F910F900BBE0F900FBE0F90CE
:101F30001F9018951F920F920FB60F9211240BB697
:101F40000F922F933F934F935F936F937F938F9352
:101F50009F93AF93BF93EF93FF938AE19BE00E941F
:101F6000C01AFF91EF91BF91AF919F918F917F9197
:101F70006F915F914F913F912F910F900BBE0F90FA
:101F80000FBE0F901F9018958F929F92AF92BF92A5
:101F9000EF92FF920F931F93CF934B015C01C42FDD
:101FA00080919B0290919C02A0919D02B0919E0213
:101FB00088159905AA05BB0501F10E94390E81110A
:101FC00002C080E020C08DE7E82E86E0F82E00E019
:101FD00012E020E030E0B501A40180917D089091ED
:101FE0007E080E944D21882361F380929B0290928B
:101FF0009C02A0929D02B0929E0280916D06C82B19
:10200000C0936D0681E0CF911F910F91FF90EF90EB
:10201000BF90AF909F908F9008954F925F926F9274
:102020007F928F929F92AF92BF92CF92DF92EF9268
:10203000FF920F931F93CF93DF93EC014230510532
:102040006105710510F480E078C089859A85AB85BB
:10205000BC850196A11DB11D84179507A607B7077A
:1020600090F3CB88DC88ED88FE888F89803129F455
:10207000BB27A72F962F852F09C0DB01CA01E7E0F8
:10208000B695A79597958795EA95D1F74801590197
:102090002A013B01C80ED91EEA1EFB1E80919B023D
:1020A00090919C02A0919D02B0919E02C816D90603
:1020B000EA06FB0681F48F898031A9F4B301A201FD
:1020C000552766277727440F551FFA01E358F94F24
:1020D0009182808219C040E0C701B6010E94C40FFE
:1020E0008111E9CFB0CFB301A2014F775527662701
:1020F0007727440F551F440F551FFA01E358F94F36
:1021000080829182A282B38280916D0681608093E9
:102110006D068A89823080F08D819E81AF81B8857D
:10212000C80ED91EEA1EFB1EC0926E06D0926F0624
:10213000E0927006F092710681E0DF91CF911F91DD
:102140000F91FF90EF90DF90CF90BF90AF909F9056
:102150008F907F906F905F904F9008958F929F9295
:10216000AF92BF92CF92DF92EF92FF920F931F93A5
:10217000CF93DF93FC0181859285A385B485019679
:10218000A11DB11D84179507A607B70710F480E0BD
:102190005BC083889488A588B6888789803129F4B4
:1021A000BB27A72F962F852F09C0DB01CA01C7E0E7
:1021B000B695A79597958795CA95D1F7E9016A01D4
:1021C0007B018F01BC01CD01680D791D8A1D9B1D0E
:1021D00080909B0290909C02A0909D02B0909E02E5
:1021E000681579058A059B0591F4F8018789803186
:1021F000A1F4DD24EE24FF24C601880F991FFC0101
:10220000E358F94F80819181A0E0B0E018C040E030
:102210000E94C40F8111E9CFBACFE894C7F8DD243A
:10222000EE24FF24C601880F991F880F991FFC0117
:10223000E358F94F80819181A281B381BF70888377
:102240009983AA83BB8381E0DF91CF911F910F9186
:10225000FF90EF90DF90CF90BF90AF909F908F90C6
:102260000895CF93DF93EC018D81882379F18C81E0
:1022700087FF28C06E857F858889998941E00E9403
:10228000C40F882319F1EA8980E2E89FF001112444
:10229000E358F94F3097D1F08D81823040F48B892B
:1022A0009C89AD89BE89848F958FA68FB78F8F89C2
:1022B000988DA98DBA8D938F828FB58BA48B8C81CD
:1022C0008F778C83DF91CF910C94390E80E0DF9172
:1022D000CF9108958F929F92AF92BF92CF92DF924B
:1022E000EF92FF920F931F93CF93DF93EC018D81B9
:1022F000811102C080E078C00B891C892D893E893C
:102300000417150726073707A8F36A017B018230F7
:1023100029F4CA86DB86EC86FD860DC0C114D10483
:10232000E104F10451F41E821F82188619861A8670
:102330001B861C861D8681E057C08A849B84AC84E2
:10234000BD84EB8DFC8D258530E0275F3F4FB501C7
:10235000A4014150510961097109022E04C076950A
:102360006795579547950A94D2F7D701C60101970B
:10237000A109B10904C0B695A795979587952A95A7
:10238000D2F784179507A607B70720F089288A286F
:102390008B2871F44F89588D698D7A8D4E835F83B8
:1023A000688779874C015D018E010A5F1F4F16C057
:1023B000841B950BA60BB70BF5CF4E815F8168850B
:1023C000798598018B8D9C8D0E94AE1091E0891AC1
:1023D0009108A108B108882309F48CCF81149104D5
:1023E000A104B10451F795CFDF91CF911F910F91C7
:1023F000FF90EF90DF90CF90BF90AF909F908F9025
:1024000008952F923F924F925F926F927F928F9298
:102410009F92AF92BF92CF92DF92EF92FF920F9373
:102420001F93CF93DF9300D01F92CDB7DEB78C01FF
:102430005B011A01DC0115968C9115978130C9F466
:1024400014968C9181FF15C082FF1DC0F80143894D
:1024500054896589768982859385A485B585841795
:102460009507A607B70779F0C8010E946A11811184
:102470000AC081E090E0D80113969C938E93129746
:1024800080E090E036C1610183C05B968D919C91A4
:102490005C97FC0174802FEF270D2A013B0139E086
:1024A00076946794579447943A95D1F7722E742096
:1024B0007A01F1E0FF22772009F476C080E092E013
:1024C0008E199F0946018C159D0508F44C01D80111
:1024D0005B962D913C915C9716968D919D910D90F8
:1024E000BC91A02D0297A109B109F901058404C08E
:1024F000880F991FAA1FBB1F0A94D2F746855785DC
:1025000060897189840F951FA61FB71F9C01AD01BB
:10251000270D311D411D511D29013A01811432E061
:10252000930609F088C080919B0290919C02A09133
:102530009D02B0919E02481659066A067B0659F420
:102540008FEF9FEFDC0180939B0290939C02A093FE
:102550009D02B0939E029501B301A20180917D0876
:1025600090917E080E94E121882309F482CF9EEF9A
:10257000B91AC818D908F80182859385A485B5854C
:10258000880D991DA11DB11D82879387A487B587EA
:10259000D8011A964D915D916D917C911D97C11452
:1025A000D10409F072CF87C0E114F10409F086CF9D
:1025B00016964D915D916D917C911997411551053C
:1025C0006105710559F457968D919D910D90BC91BF
:1025D000A02D0097A105B10541F521C09E012F5FF7
:1025E0003F4F0E94AE10882309F44BCF89819A8116
:1025F000AB81BC81F801238D348DF901278920310D
:1026000029F048EF5FEF6FEF7FE004C048EF5FEF26
:1026100060E070E084179507A607B70730F0C8019F
:102620000E94921F81114ACF24CFF801868397839D
:10263000A087B18743CFE114F10429F5D8011A9698
:102640004D915D916D917C911D9753968D919D91CA
:102650000D90BC91A02D481759076A077B0798F089
:102660000E94390E882309F404CF40929B025092B5
:102670009C0260929D0270929E0280916D06816024
:1026800080936D0608C041E0C301B2010E94C40FEF
:10269000882309F4EECED501F701E358F94F9F01E5
:1026A000280D391D2E173F0719F08D918193FACF10
:1026B000A80CB91C5ECFF80183899489A589B689D5
:1026C00084179507A607B70738F4438B548B658B9F
:1026D000768B848180688483F801848183FD02C0C5
:1026E000C10107C0C8010E943111882309F4C1CE7D
:1026F000F7CF0F900F900F900F90DF91CF911F9118
:102700000F91FF90EF90DF90CF90BF90AF909F9090
:102710008F907F906F905F904F903F902F90089593
:10272000CF93DF931F92CDB7DEB7698341E050E0CE
:10273000BE016F5F7F4F0E9401120F90DF91CF911A
:1027400008958F929F92AF92BF92CF92DF92EF92B5
:10275000FF920F931F93CF93DF9300D01F92CDB7BB
:10276000DEB77C0180E2689FF0011124E358F94F45
:102770009385917121F0842F827409F08FC0142FFA
:10278000D70152966C93529740919B0250919C02B4
:1027900060919D0270919E021E964D935D936D9384
:1027A0007C9351974489558960E070E0BA015527C0
:1027B0004427828D938DA0E0B0E0482B592B6A2BE3
:1027C0007B2BD70157964D935D936D937C935A97CE
:1027D0008385887159F4848D958DA68DB78DF70109
:1027E000838B948BA58BB68B81E012C0803109F06E
:1027F00055C097012D5E3F4FD7015B968D919C91FF
:102800005C970E940918882309F448C084E0F70106
:102810008583812F8F70D70114968C931497F701BD
:1028200016821782108611861A961D921D921D928D
:102830001C921D9716FF34C015968C91813071F54E
:1028400011FF2CC0F7014389548965897689452B8E
:10285000462B472B09F461C040E050E0BA01C701A4
:102860000E946A118823D1F0F7018788908CA18C8F
:10287000B28CC38CD48C82E090E0A0E0B0E0F60192
:1028800080839183A283B3839E012F5F3F4FB50165
:10289000A401C6010E94AE10811104C080E03DC0B9
:1028A00081E03BC000E010E09801B501A401C60141
:1028B0000E940D10882391F389809A80AB80BC80A0
:1028C000D60157968C91803129F088EF9FEFAFEFBA
:1028D000BFE004C088EF9FEFA0E0B0E08816990643
:1028E000AA06BB0688F2D70157961D921D921D922B
:1028F0001C925A97F701138A148A158A168A8481C2
:1029000080688483C7010E943111882339F240E036
:1029100050E0BA01C7010E946A110F900F900F900A
:102920000F90DF91CF911F910F91FF90EF90DF906B
:10293000CF90BF90AF909F908F9008952F923F922D
:102940004F925F926F927F928F929F92AF92BF92BF
:10295000CF92DF92EF92FF920F931F93CF93DF936B
:10296000CDB7DEB72C970FB6F894DEBF0FBECDBF44
:102970007C01DC0115962C9021107FC1FE0131965F
:10298000CE010C966F0130E23193E817F907E1F7B9
:10299000DA0130E087E09D91992331F19E3231F4E4
:1029A0008A3009F46FC138E08AE0F5CFEAEDF2E051
:1029B0004491442321F031969413FACF63C18317D5
:1029C00008F460C14FED490F4E3508F05BC141E09E
:1029D000430FF601E30FF11D3FE9390F3A3108F4D7
:1029E00090529083342FD7CF8981803209F44AC125
:1029F0002C878B01FB01838D948DD7015C969C9372
:102A00008E935B9716821782108611861286138624
:102A100014861586B12CF80182859385A485B58529
:102A2000438954896589768984179507A607B7076E
:102A300008F05BC025E0B695A795979587952A95F0
:102A4000D1F7F82FFF70AF2ED80115968C918230F8
:102A500008F418C1C8010E94CC2397FD13C1F801E6
:102A600082859385A485B5854F96A11DB11D82876A
:102A70009387A487B587F0E2AF9EB0011124635815
:102A8000794F6115710509F4FDC0DB018C91882334
:102A900019F0853EC1F4F3C0B1100EC0F701A28A4F
:102AA00080919B0290919C02A0919D02B0919E0208
:102AB00086879787A08BB18BDB018C91882399F057
:102AC000BB24B394A8CF4BE050E0C6010E9435432D
:102AD000892B09F0A0CF8C858073803309F4D2C094
:102AE0004C856A2DC5C0BB24B3948C85827182311C
:102AF00009F0C8C0BB20C1F0F701668577858089E1
:102B0000918941E00E94C40F882309F4BBC0D7011A
:102B100052968C91B0E28B9FC00111248358994F3B
:102B2000009709F079C0AEC0F8018581823009F4C0
:102B3000A9C0C8010E94921F882309F4A3C0D8012C
:102B40005B96ED91FC915C9716968D909D90AD9063
:102B5000BC901997B2E08B1A9108A108B1080584BE
:102B600004C0880C991CAA1CBB1C0A94D2F7868549
:102B70009785A089B189880E991EAA1EBB1E348034
:102B8000E1E08E1A9108A108B108332011F1240167
:102B90003501430C511C611C711C0E94390E8823A5
:102BA00009F470C0EDE7F6E011928DE798E08E171A
:102BB0009F07D1F740929B0250929C0260929D0227
:102BC00070929E0280916D06816080936D063A94AA
:102BD000DCCFD8015B96ED91FC915C9780E092E0B0
:102BE000A0E0B0E0058404C0880F991FAA1FBB1F96
:102BF0000A94D2F7F8014389548965897689840F4C
:102C0000951FA61FB71F838B948BA58BB68BD701FF
:102C100052961C928DE796E020E2FC0111922A95D3
:102C2000E9F72BE0F601DC0101900D922A95E1F71E
:102C300021E238E2DC0151963C932E93509740E01C
:102C400058E01F965C934E931E9753963C932E9399
:102C5000529759963C932E93589757965C934E9360
:102C600056970E94390E882369F04C85F7016289D6
:102C7000C7010E94A113282E05C0212C03C0B1104A
:102C80001FCF0CCF822D2C960FB6F894DEBF0FBE4F
:102C9000CDBFDF91CF911F910F91FF90EF90DF900B
:102CA000CF90BF90AF909F908F907F906F905F90EC
:102CB0004F903F902F900895CF93DF93EC010E94A7
:102CC0003111882311F01D8281E0DF91CF910895A9
:102CD00090E0FC013197E231F10508F04EC0882701
:102CE000EE58FF4F8F4F0C941B41809180008F77DF
:102CF00003C0809180008F7D809380000895809133
:102D00008000877FF9CF84B58F7702C084B58F7D2F
:102D100084BD08958091B0008F7703C08091B0008A
:102D20008F7D8093B0000895809190008F7707C0C9
:102D3000809190008F7D03C080919000877F809369
:102D4000900008958091A0008F7707C08091A00027
:102D50008F7D03C08091A000877F8093A00008959D
:102D6000809120018F7707C0809120018F7D03C063
:102D700080912001877F8093200108950F931F93F6
:102D8000CF93DF93EC0188819981009729F02A8104
:102D90003B812617370788F48B016F5F7F4F0E94B6
:102DA0004B42009761F0998388831B830A832C81AF
:102DB0003D81232B11F4FC01108281E001C080E0F1
:102DC000DF91CF911F910F910895EF92FF920F9392
:102DD0001F93CF93DF93EC017B018A01BA010E941C
:102DE000BE162881398181110DC02115310519F0D8
:102DF000C9010E94C241198218821D821C821B8255
:102E00001A8206C01D830C83B701C9010E945F436B
:102E1000CE01DF91CF911F910F91FF90EF90089518
:102E20008F929F92AF92BF92CF92DF92EF92FF92DA
:102E30000F931F93CF93DF93EC01CE010E94BC2729
:102E4000FC0197FD0DC08D32910571F0C0970A9776
:102E500058F0EE32F10541F0CE010E942A0DEDCF7F
:102E600060E070E0CB016CC0812C912C80E8A82E32
:102E70008FE3B82EC12CD12C760110E000E0E130B8
:102E8000F10569F1ED32F10539F1EE32F10531F17B
:102E9000CF01C0970A9718F5AAE0B0E0A701960104
:102EA0000E947C3F6F01FF0FEE08FF08C60ED71E81
:102EB000E81EF91E80E3C81AD108E108F1081123C1
:102EC00071F02DEC3CEC4CEC5DE3C501B4010E94CB
:102ED000893E4B015C0103C001E001C011E0CE015D
:102EE0000E942A0DCE010E94BC27FC01C0970A97C0
:102EF00030F2EE32F10519F411111FC0C0CFE130EC
:102F0000F10509F4BCCF002341F0F094E094D09493
:102F1000C094C11CD11CE11CF11C112349F0C70154
:102F2000B6010E942A3EA50194010E94893E08C074
:102F3000C701B6010E942A3E03C00111E6CFEFCFC0
:102F4000DF91CF911F910F91FF90EF90DF90CF9085
:102F5000BF90AF909F908F900895FC01A089B18998
:102F600082E08C93A485B5851C92A685B78587E001
:102F70008C93108EA489B58986E08C93A289B3893D
:102F80008C9180618C93A289B3898C9188608C9399
:102F9000A289B3898C9180688C930288F389E02D93
:102FA00080818F7D80830895EF92FF920F931F930E
:102FB000CF93DF93EC017B018A011B821A8288EE9A
:102FC00093E0A0E0B0E08C839D83AE83BF838DE06F
:102FD00093E0998388838DE190E00E942A419A8F43
:102FE000898F009779F02DE1F701DC0101900D92B6
:102FF0002A95E1F74CE050E0B801CE010C960E9412
:103000006643188EDF91CF911F910F91FF90EF9043
:1030100008954F925F926F927F92AF92BF92CF923C
:10302000DF92EF92FF920F931F93CF93DF9300D025
:103030001F92CDB7DEB78C0149835A836B837C83A3
:103040005901C12CD12C7601412C82E0582E612CE3
:10305000712C49815A816B817C819E012F5F3F4F8A
:10306000C8010E94AE10882351F1D301C201F801BA
:10307000058404C0880F991FAA1FBB1F0A94D2F7AA
:10308000C80ED91EEA1EFB1E49815A816B817C81C4
:103090008789803129F088EF9FEFAFEFBFE004C050
:1030A00088EF9FEFA0E0B0E0481759076A077B0759
:1030B00080F2F501C082D182E282F38281E00F903A
:1030C0000F900F900F90DF91CF911F910F91FF9074
:1030D000EF90DF90CF90BF90AF907F906F905F9018
:1030E0004F900895EF92FF920F931F93CF93DF932A
:1030F0006115710511F480E01CC041155105C1F046
:103100007B01EC018C819D818A01080F191FB80198
:10311000CE010E94BE16882371F3288139818C81EB
:103120009D81B701820F931F0E945F431D830C8313
:1031300081E0DF91CF911F910F91FF90EF90089563
:103140006115710551F0FB0101900020E9F73197FD
:10315000AF01461B570B0C94721880E00895FB01D9
:1031600044815581608171810C947218FC01118237
:103170001082138212821582148240E050E06CEEBD
:1031800073E00C94E516CF93DF93BC018AE19BE0DA
:103190000E946428EC018AE19BE00E9479288C0F50
:1031A0009D1FDF91CF910895813208F080E2682F52
:1031B00088E60E9421271092800880937F08089556
:1031C0008F929F92AF92BF92CF92DF92EF92FF9237
:1031D000CF93DF93C82F89EB9BE090937E08809379
:1031E0007D08CC2369F1C53010F080E00CC140E0CF
:1031F00060E070E0CB010E94C40F8823B1F320E1AE
:10320000C29FC00111248359994FFC01E254FE4F23
:1032100020812F7751F73C964081518162817381E3
:10322000443651056105710500F33497C080D180A3
:10323000E280F380C114D104E104F10421F4D5CF7C
:10324000C12CD12C760140E0C701B6010E94C40F09
:10325000882359F2809188069091890681159240C1
:1032600021F6A0918D06AA2309F4BFCF60918B06A9
:1032700070918C066115710509F4B7CF20918A060B
:10328000222309F4B2CFA093D70B2093C90B80E07F
:1032900030E041E050E0C82FFA01082E02C0EE0FE6
:1032A000FF1F0A94E2F72E173F0739F08F5FC830EF
:1032B00091F789E08093D20B98CF8093D20B209125
:1032C0009306309194062115310519F040E050E045
:1032D00008C02091A1063091A2064091A30650910A
:1032E000A4062093CA0B3093CB0B4093CC0B509386
:1032F000CD0B46015701860E971EA11CB11C809272
:10330000D80B9092D90BA092DA0BB092DB0BE09124
:103310008E06F0918F06F093DE0BE093DD0BB0E0AC
:103320000E947C3F860E971EA81EB91E8092DF0B5E
:103330009092E00BA092E10BB092E20B85E0EE0FD1
:10334000FF1F8A95E1F7E150FE4FEF2FFF27E6952B
:103350008E0E9F1EA11CB11C8092D30B9092D40B99
:10336000A092D50BB092D60B209190063091910689
:103370002115310521F0A90160E070E008C04091FD
:103380009D0650919E0660919F067091A006D70100
:10339000C60188199909AA09BB09840F951FA61FA0
:1033A000B71F04C0B695A79597958795CA95D2F78C
:1033B0008093CE0B9093CF0BA093D00BB093D10BF7
:1033C000853F2FE09207A105B10510F48CE018C0ED
:1033D000853F9F4FA105B10510F480E111C0809198
:1033E000A9069091AA06A091AB06B091AC06809375
:1033F000DF0B9093E00BA093E10BB093E20B80E224
:103400008093DC0B81E0DF91CF91FF90EF90DF9014
:10341000CF90BF90AF909F908F900895CF92DF9202
:10342000EF92FF92CF93DF936C01990FEE08FF08A4
:10343000F7FE19C06DE28AE19BE00E947C25EC0159
:1034400066277727CB016C197D098E099F094AE011
:103450000E947E258C0F9D1FDF91CF91FF90EF90F2
:10346000DF90CF9008954AE0C701B601DF91CF9178
:10347000FF90EF90DF90CF900C947E25FC0124818B
:103480003581232B31F421E061157105A1F0FB0199
:1034900008C0FC01808191816115710531F421E042
:1034A000FC018081882339F005C00E94564321E049
:1034B000892B09F020E0822F0895CF92DF92EF92BE
:1034C000FF92CF938AE19BE00E94BC27FC0197FD0D
:1034D0000BC08D32910561F0C0970A9748F08AE1E0
:1034E0009BE00E942A0DEECF60E070E0CB0142C06D
:1034F000C12CD12C7601C0E0E130F10501F1ED32B3
:10350000F105E1F0CF01C0970A97C8F4AAE0B0E056
:10351000A70196010E947C3F6F01FF0FEE08FF0894
:10352000DC01CB018C0D9D1DAE1DBF1D6C017D010D
:1035300020E3C21AD108E108F10801C0C1E08AE124
:103540009BE00E942A0D8AE19BE00E94BC27FC01BF
:10355000C0970A9788F2E130F10571F2CC2341F06F
:1035600066277727CB016C197D098E099F0902C058
:10357000C701B601CF91FF90EF90DF90CF900895F3
:10358000FC01A089B1898C91A689B78982FD0FC001
:103590009C91818D8F5F8F73228D821749F0218DD1
:1035A000DF01A20FB11D5D969C93818F08958C91D0
:1035B0000895CF93DF93282F30E0F901EC53FC4FAF
:1035C0008491F901E258FC4FD491F901E85CFC4F79
:1035D000C491CC2391F081110E946816EC2FF0E089
:1035E000EE0FFF1FE25EFC4FA591B491EC91ED232D
:1035F00081E090E021F480E002C080E090E0DF9183
:10360000CF9108951F93CF93DF93282F30E0F901D6
:10361000EC53FC4F8491F901E258FC4FD491F9012D
:10362000E85CFC4FC491CC23C1F0162F81110E949D
:103630006816EC2FF0E0EE0FFF1FEC5FFC4FA5913A
:10364000B4919FB7F894111104C08C91D095D823F0
:1036500002C0EC91DE2BDC939FBFDF91CF911F91D5
:103660000895EF92FF921F93CF93DF9310E0C7E08E
:10367000D0E0EE24E394F12C60E08091480C0E94AD
:10368000021B8FE99FE00197F1F700C000008091D5
:10369000490C0E94D91A892B39F0C7010C2E01C0A0
:1036A000880F0A94EAF7182B61E08091480C0E9479
:1036B000021B8FE99FE00197F1F700C000002197FE
:1036C000D8F6812FDF91CF911F91FF90EF90089551
:1036D0001092800810927F081092200910924209DF
:1036E00010921E0981E080931D091092F80861E094
:1036F00084E10E94021B61E085E10E94021BE9EB6C
:10370000F0E080818E7F808380818D7F808388E45C
:103710008093B80085E48093BC000895CF93DF9335
:1037200090E0FC01E258FC4F2491FC01E85CFC4F66
:103730008491882361F190E0880F991FFC01E65184
:10374000FD4FC591D491FC01EC5FFC4FA591B49164
:10375000611109C09FB7F8948881209582238883DE
:10376000EC912E230BC0623061F49FB7F8948881EE
:10377000322F309583238883EC912E2B2C939FBF7F
:1037800006C08FB7F894E8812E2B28838FBFDF9176
:10379000CF9108953FB7F89480918408909185085F
:1037A000A0918608B091870826B5A89B05C02F3F39
:1037B00019F00196A11DB11D3FBFBA2FA92F982F57
:1037C0008827820F911DA11DB11DBC01CD0142E0D2
:1037D000660F771F881F991F4A95D1F708958F921A
:1037E0009F92AF92BF92CF92DF92EF92FF926B01C6
:1037F0007C010E94CA1B4B015C01C114D104E1048D
:10380000F104F1F00E94CA1BDC01CB01881999096F
:10381000AA09BB09883E9340A105B10570F321E0D8
:10382000C21AD108E108F10888EE880E83E0981EDC
:10383000A11CB11CC114D104E104F10419F7DDCFBE
:10384000FF90EF90DF90CF90BF90AF909F908F90C0
:1038500008952FB7F8946091790670917A06809157
:103860007B0690917C062FBF08953F924F925F9206
:103870006F927F928F929F92AF92BF92CF92DF9280
:10388000EF92FF920F931F93CF93DF9300D0CDB7AA
:10389000DEB7F0900E0C8091110C9091120CA0915B
:1038A000130CB091140C892B8A2B8B2BE9F00E94FE
:1038B000CA1B00918E0810918F08209190083091BA
:1038C0009108DC01CB01801B910BA20BB30B009183
:1038D000110C1091120C2091130C3091140C8017C4
:1038E0009107A207B307B8F20E94CA1B60938E0823
:1038F00070938F088093900890939108E091190C31
:10390000F0911A0C309759F04091150C5091160C0B
:103910006091170C7091180C8F2D1995F82E00914D
:103920008108109182084F2C512C612C712C0115AB
:10393000110509F45FC0D8011C96EC901C9780918A
:103940000F0C9091100C8436910510F41C961C926B
:10395000D801ED91FC91A280B38019821A821B825A
:10396000F11014C0F80145855685628173819E016E
:103970002F5F3F4FC801F5011995D8011C96EC92B5
:103980001C9714960D911C911597D1CFF80136967E
:10399000CE0101966C01480199E0890E911C21919C
:1039A000222309F132803320F1F0822F90E0A0E051
:1039B000B0E09C01AD012F5F3F4F4F4F5F4FC30100
:1039C000B2010E94D7409B01AC01832D90E0A0E0A2
:1039D000B0E0BC01CD016F5F7F4F8F4F9F4F0E94C2
:1039E000D740D6018C93BFEFCB1ADB0AE815F90557
:1039F000B1F6B8CF80918C0890918D088C010F5F43
:103A00001F4F10938D0800938C0849979CF10E94DA
:103A1000291C4B015C0188EE93E0089FB001099FCF
:103A2000700D189F700D1124072E000C880B990B38
:103A3000C0908808D0908908E0908A08F0908B08A0
:103A4000A50194012C193D094E095F090E94873F89
:103A50003093100C20930F0C10928D0810928C084C
:103A60000E94291C609388087093890880938A08B3
:103A700090938B080F900F900F90DF91CF911F9133
:103A80000F91FF90EF90DF90CF90BF90AF909F90FD
:103A90008F907F906F905F904F903F9008951F920E
:103AA0000F920FB60F9211242F933F938F939F93F2
:103AB000AF93BF938091790690917A06A0917B068F
:103AC000B0917C063091830823E0230F2D3720F43A
:103AD0000196A11DB11D05C026E8230F0296A11D68
:103AE000B11D209383088093790690937A06A09362
:103AF0007B06B0937C068091840890918508A09104
:103B00008608B09187080196A11DB11D8093840895
:103B100090938508A0938608B0938708BF91AF91D2
:103B20009F918F913F912F910F900FBE0F901F90FB
:103B30001895CF93DF93EC016115710559F0FB01E6
:103B400001900020E9F73197AF01461B570B0E9407
:103B5000E5160CC088819981009711F00E94C2413E
:103B6000198218821D821C821B821A82CE01DF916B
:103B7000CF910895EF92FF920F931F93CF93DF930E
:103B8000CDB7DEB7A1970FB6F894DEBF0FBECDBF9D
:103B90007C01CB01BA01F7011182108213821282DB
:103BA000158214828E010F5F1F4F22E044E00E94B5
:103BB0005D3BBC01C7010E94991DA1960FB6F89408
:103BC000DEBF0FBECDBFDF91CF911F910F91FF9050
:103BD000EF9008950F931F93CF93DF93CDB7DEB788
:103BE00062970FB6F894DEBF0FBECDBF8C01CB013C
:103BF000F8011182108213821282158214824AE027
:103C0000BE016F5F7F4F0E947D3BBE016F5F7F4FA4
:103C1000C8010E94991D62960FB6F894DEBF0FBED0
:103C2000CDBFDF91CF911F910F910895FC0180814D
:103C300091810C94C2411F920F920FB60F921124E2
:103C40000BB60F922F933F934F935F936F937F9396
:103C50008F939F93AF93BF93EF93FF9380917506DC
:103C600090917606A0917706B0917806892B8A2BE1
:103C70008B2B51F190917406E0917206F0917306CE
:103C80008081892780838091750690917606A09126
:103C90007706B0917806181619061A061B06C4F4A2
:103CA0008091750690917606A0917706B09178067E
:103CB0000197A109B1098093750690937606A093A8
:103CC0007706B093780604C080919F020E94122864
:103CD000FF91EF91BF91AF919F918F917F916F91E4
:103CE0005F914F913F912F910F900BBE0F900FBEA0
:103CF0000F901F90189585ED8093BC008091BC00BB
:103D000084FDFCCF10921E0908954091B308262F20
:103D100030E0240F311D21323105DCF420911E09E1
:103D20002430C9F4FC0180E090E0861758F430910B
:103D3000B3082191DC01AD56B74FA30FB11D2C93F1
:103D40000196F3CF8091B308680F6093B30880E0C9
:103D5000089581E0089582E00895DC015996ED917F
:103D6000FC915A973097B9F083899489A589B689CF
:103D70004285538564857585841B950BA60BB70B0F
:103D8000811520E89207A105B10538F08FEF9FE774
:103D9000A0E0B0E0089580E090E00895CF93DF9335
:103DA0001F92CDB7DEB76983DC01ED91FC910280F3
:103DB000F381E02D41E050E0BE016F5F7F4F199528
:103DC0000F90DF91CF9108950895E0918008809140
:103DD0007F08E81730F4F0E0E852F74F808190E078
:103DE00008958FEF9FEF08959091800880917F084C
:103DF000981750F4E92FF0E0E852F74F208130E0B7
:103E00009F5F9093800802C02FEF3FEFC901089594
:103E100080917F0890E020918008821B910908958D
:103E2000CF92DF92EF92FF920F931F93CF93DF9386
:103E30007C01CB018A0120911F09222389F0EB012B
:103E40006B01C40ED51ECC15DD0569F06991D70153
:103E5000ED91FC910190F081E02DC7011995F3CF10
:103E6000642F0E94851EC801DF91CF911F910F9191
:103E7000FF90EF90DF90CF900895CF93DF931F9244
:103E8000CDB7DEB7698320911F092223D1F020919D
:103E90004209203240F021E030E0FC0133832283EC
:103EA00080E090E015C080912009E82FF0E0EF5D00
:103EB000F64F998190838F5F809320098093420908
:103EC00005C061E0CE0101960E94851E81E090E070
:103ED0000F90DF91CF910895FC01818D928D009715
:103EE00011F00C9431110895CF93DF93EC01898D7B
:103EF0009A8D009739F481E090E09B838A8380E07B
:103F000090E00BC0FC01138212820E940112E98D25
:103F1000FA8D22813381232B71F7DF91CF910895A0
:103F20000C94C2413F924F925F926F927F928F9218
:103F30009F92AF92BF92CF92DF92EF92FF920F9338
:103F40001F93CF93DF93CDB7DEB72C970FB6F894BE
:103F5000DEBF0FBECDBF5C01DC015B968D909C90F7
:103F60005C971696CD90DD90ED90FC901997C1145A
:103F7000D104E104F10439F0BFEFCB1ADB0AEB0AFC
:103F8000FB0A312C07C0F401C080D180E280F380AD
:103F900033243394F40181859285A385B4859C01F3
:103FA000AD012F5F3F4F4F4F5F4F29873A874B87B8
:103FB0005C87260137011D821E821F821886F4014C
:103FC00081859285A385B4852D813E814F81588559
:103FD000281739074A075B0708F063C089859A8567
:103FE000AB85BC858C159D05AE05BF0550F482E000
:103FF000C82ED12CE12CF12C92E0492E512C612CB1
:10400000712C9E012F5F3F4FB701A601C4010E9492
:10401000AE10882309F445C089819A81AB81BC81A7
:10402000892B8A2B8B2B41F0260137019FEF491AF0
:10403000590A690A790A05C0C414D504E604F704CC
:1040400091F02D813E814F8158852F5F3F4F4F4F1B
:104050005F4F2D833E834F8358873FEFC31AD30AA8
:10406000E30AF30AACCF0FEF1FEF2FEF3FE0B301EE
:10407000A201C4010E940D10882399F0D501169663
:104080004D915D916D917C91199741155105610597
:10409000710549F093018201C4010E940D10811144
:1040A00002C080E02AC0D50116964D925D926D92B5
:1040B0007C921997332051F0D301C2010196A11DC2
:1040C000B11DF40180839183A283B383F5018789B5
:1040D000908DA18DB28D892B8A2B8B2B69F4D50104
:1040E00057964D925D926D927C925A9714968C9150
:1040F0001497806814968C9381E02C960FB6F894F0
:10410000DEBF0FBECDBFDF91CF911F910F91FF900A
:10411000EF90DF90CF90BF90AF909F908F907F9067
:104120006F905F904F903F9008958FB7F894809173
:10413000D7088FBF089561E0FC0184810E94021BB3
:104140008091D60881111092D60808958EBD000086
:104150000DB407FEFDCF8EB508958FEF0C94A62009
:104160000F931F93CF93DF93EB010E94291C8B01C8
:104170000E94AD208F3F49F00E94291C601B710BEB
:104180006C177D07A8F380E001C081E0DF91CF913B
:104190001F910F910895CF93DF93EC018E818823B7
:1041A00089F08F8198859C012F5F3F4F38872F833F
:1041B0008230924018F40E94AD20F3CFCE010E94CD
:1041C0009B201E82DF91CF9108958CBD9DBD0895E7
:1041D000CF93DF93EC018091D608811109C081E073
:1041E0008093D6088091B70B9091B80B0E94E52080
:1041F00060E08C81DF91CF910C94021B8F929F9293
:10420000AF92BF92FF920F931F93CF93DF93EC0176
:10421000F62E49015A010E94CB20CE010E94E820CF
:104220006CE271E0CE010E94B0208F2D80640E946C
:10423000A62008E110E0D501C401002E04C0B69507
:10424000A795979587950A94D2F70E94A6200850C3
:104250001109083F8FEF180771F7FF2029F088E058
:10426000F81204C087E803C085E901C08FEF0E94FF
:10427000A62010E00E94AD208A8787FF04C01F3F60
:1042800011F01F5FF7CFDF91CF911F910F91FF903A
:10429000BF90AF909F908F900895AF92BF92CF92B2
:1042A000DF92EF92FF920F931F93CF93DF93EC0176
:1042B0006901C801820F931F8130924008F070C0DD
:1042C0008E81882371F088819981AA81BB818417AE
:1042D0009507A607B70729F48F819885C816D906D0
:1042E000B0F5488359836A837B838B85833039F0AB
:1042F00089E0440F551F661F771F8A95D1F79A01F1
:10430000AB0161E1CE010E94FE20882319F083E019
:104310008D8346C00E94291C5B010E94AD208A87C4
:104320008F3F49F40E94291C6A197B096D32714044
:10433000A0F38FE003C08E3F31F08DE08D83CE017E
:104340000E949B202DC018861F8281E08E838F8162
:1043500098858C159D0540F40E94AD208F8198852D
:10436000019698878F83F3CF6701E00EF11EEC145E
:10437000FD0431F00E94AD20F60181936F01F7CF6B
:104380008F819885080F191F18870F8389858823C7
:1043900019F00115124048F0CE010E94CB2005C053
:1043A000CE010E949B2080E001C081E0DF91CF918F
:1043B0001F910F91FF90EF90DF90CF90BF90AF9043
:1043C0000895EF92FF920F931F93CF93DF93EC0129
:1043D0007901411551056105710511F482E13CC077
:1043E0008B85833039F089E0440F551F661F771F96
:1043F0008A95D1F79A01AB0168E1CE010E94FE20B7
:10440000882311F084E028C08EEF0E94A620870147
:104410008EEFF81AF80181918F010E94A620E01614
:10442000F106C1F78FEF0E94A6208FEF0E94A62011
:104430000E94AD208A878F71853031F081E18D83B4
:10444000CE010E949B2009C068E572E0CE010E9467
:10445000B020811107C085E18D83CE010E949B2091
:1044600080E014C020E030E0A9016DE0CE010E94A0
:10447000FE20811109C00E94AD20811105C0CE012E
:104480000E949B2081E002C084E1E6CFDF91CF91C2
:104490001F910F91FF90EF9008951F920F920FB60A
:1044A0000F9211240BB60F922F933F934F935F936C
:1044B0006F937F938F939F93AF93BF93EF93FF93EC
:1044C0008091B900887F803609F49CC068F58832F5
:1044D00009F45BC090F4803109F454C038F48823A7
:1044E00009F4F2C0883009F44DC0F2C0883109F4F3
:1044F0004CC0803209F45DC0EBC0803409F468C060
:1045000048F4803309F455C0883309F0E1C0809342
:104510001C09D4C0803509F44FC0883509F45DC04A
:10452000883409F0D5C0D2C0883909F4C3C0A8F4D2
:10453000883709F467C038F4883609F463C08037D7
:1045400009F460C0C5C0883809F4B4C0803909F4E2
:104550005FC0803809F0BCC05BC0803B09F484C0F8
:1045600038F4803A09F466C0883A09F47DC0B0C0D6
:10457000803C09F4A3C0883C09F4A0C0883B09F43E
:1045800086C0A6C08091F90810C090911B09809147
:104590001A09981770F5E0911B0981E08E0F80933E
:1045A0001B09F0E0E650F74F80818093BB0085EC5B
:1045B00082C080931C098AC0E0911B0981E08E0FA4
:1045C00080931B098091BB00F0E0E650F74F808399
:1045D00090911B0980911A096AC0E0911B0981E042
:1045E0008E0F80931B098091BB00F0E0E650F74FDF
:1045F000808380911D09811169C081E08093F80852
:1046000084EA5DC083E080931E091092D508CFCF65
:104610008091D508803208F04DC0E091D50881E046
:104620008E0F8093D5088091BB00F0E0EB54F74FDC
:104630008083BDCF85EC8093BC0010921E098091D1
:10464000D508803230F4E091D508F0E0EB54F74F14
:1046500010826091D50870E085EB98E0E0E0F0E032
:1046600019951092D50834C084E080931E091092E9
:10467000B4081092B308E0E0F0E019958091B30817
:10468000811105C081E08093B30810929308E091F6
:10469000B40881E08E0F8093B408F0E0ED56F74F38
:1046A00080818093BB009091B4088091B3089817E3
:1046B00008F47DCF85E88093BC000AC085EC809328
:1046C000BC0010921E0904C010921C090E947B1E9F
:1046D000FF91EF91BF91AF919F918F917F916F91DA
:1046E0005F914F913F912F910F900BBE0F900FBE96
:1046F0000F901F901895FC01DB0112968D919C91F3
:104700001397938382838DED92E091838083149637
:104710008C911497848315968C91159785831696A2
:104720004D915D916D917C91199746835783608778
:1047300071871A964D915D916D917C911D9742877D
:104740005387648775871E964D915D916D917C911D
:10475000519746875787608B718B52968C915297F1
:10476000828B53964D915D916D917C915697438BC1
:10477000548B658B768B57964D915D916D917C91A5
:104780005A97478B508F618F728F5B968D919C915A
:104790005C97948F838F08954F925F926F927F9270
:1047A000AF92BF92CF92DF92EF92FF920F931F933F
:1047B000CF93DF931F92CDB7DEB7FC012581222373
:1047C00009F4C1C0848180FFBEC083899489A58912
:1047D000B689428453846484758484159505A6053E
:1047E000B70509F4B0C06F015201F1E0BF22D60154
:1047F0005B968D919C915C97B301A20139E076950F
:104800006795579547953A95D1F7223071F4FC0199
:10481000828D938DA48DB58D8A019B01080F191F80
:104820002A1F3B1FC901B8014AC0DC0114961C9124
:1048300011501423A114B104F9F411111DC045281D
:104840004628472851F4F6018789908DA18DB28DB5
:1048500086839783A087B1870FC0D60116964D91A6
:104860005D916D917C91199796012A5F3F4F0E944F
:10487000AE10882309F467C0F601238D348D86813C
:104880009781A085B1850297A109B109AC01BD014D
:10489000F901058404C0440F551F661F771F0A9451
:1048A000D2F786859785A089B189840F951FA61FA9
:1048B000B71FBC01CD01610F711D811D911DD60176
:1048C00014962C9126FF0DC040909B0250909C02A4
:1048D00060909D0270909E02461657066806790603
:1048E00099F440E00E94C40F882369F1F501E35870
:1048F000F94FDE0111969F012F5F3F4F2E173F07A3
:1049000099F081918D93FACFFE0131967F0101E0FC
:1049100010E09501AB01BC0180917D0890917E086B
:104920000E944D21882379F0F60182859385A48524
:10493000B5850196A11DB11D82879387A487B58790
:10494000898190E002C08FEF9FEF0F90DF91CF91B0
:104950001F910F91FF90EF90DF90CF90BF90AF909D
:104960007F906F905F904F900895FC01818D928DA4
:10497000009711F00C94CC238FEF9FEF08950F93C5
:104980001F93CF93DF93FC01818D928D0097B9F037
:10499000EF010E94CC238C010F3F8FEF180791F09D
:1049A000898D9A8DFC0142855385648575854150BA
:1049B0005109610971090E946A11C80105C080E0AE
:1049C00090E002C08FEF9FEFDF91CF911F910F9189
:1049D00008951F93CF93DF93182F81E080931F09D1
:1049E00010934109109220091092420960E082E080
:1049F0009CE00E943D1F0E94A62662E0812F0E943B
:104A000021271092800880937F0882E09CE00E941A
:104A1000F41E182F82E09CE00E94F41ED12F20E0AB
:104A2000C22F9E01282BC901DF91CF911F910895BC
:104A300008950F931F93CF93DF93209192082F5FD8
:104A4000322F37703093920820FF02C020E801C057
:104A500020E031FD2064347009F02062205FFC0109
:104A6000EC01239600E011E06485662331F070E0EC
:104A7000C8010E9407416F5F01C060E06187322F6B
:104A8000369F030E30E0311D1124311102C0168211
:104A900002C031503683662311F061506187319630
:104AA000CE17DF0709F7DF91CF911F910F9108957E
:104AB000FF920F931F93CF93DF93F82E062FC7E03B
:104AC000D0E010E061E0802F0E94021B8F2D0E9439
:104AD000D91A0C2E01C0880F0A94EAF7182B60E04F
:104AE000802F0E94021B219768F7812FDF91CF91C1
:104AF0001F910F91FF9008950C94A10D8F929F929A
:104B0000AF92BF920F931F93CF93DF93CDB7DEB7D2
:104B1000A1970FB6F894DEBF0FBECDBF19A24230E9
:104B200008F44AE08E010F5D1F4F842E912CA12CBA
:104B3000B12CA50194010E94873FE62FB901CA015B
:104B400001501109EA3014F4E05D01C0E95CD801BC
:104B5000EC93232B242B252B61F7B8018AE19BE0F2
:104B60000E946428A1960FB6F894DEBF0FBECDBF99
:104B7000DF91CF911F910F91BF90AF909F908F9039
:104B800008958F929F92AF92BF92CF92DF92EF9251
:104B9000FF920F931F93CF93DF936B017C01142F30
:104BA0009B01AC010E94D240882319F06FEE75E0A2
:104BB00027C046015701E894B7F82FEF3FEF4FE7C2
:104BC0005FE7C501B4010E94D24081110DC02FEFF3
:104BD0003FEF4FE75FE7C501B4010E94233E18167F
:104BE0001CF463EF75E00CC02FEF3FEF4FE75FE47D
:104BF000C701B6010E94CD40181694F467EF75E026
:104C00008AE19BE0DF91CF911F910F91FF90EF9090
:104C1000DF90CF90BF90AF909F908F900C946428BE
:104C20002FEF3FEF4FE75FECC701B6010E94233E35
:104C300087FDE4CF20E030E0A901C701B6010E9462
:104C4000233E87FF0BC06DE28AE19BE00E947C253A
:104C5000EC01F7FAF094F7F8F09402C0C0E0D0E06D
:104C600000E060E070E080E09FE3101741F020E09A
:104C700030E040E251E40E9425400F5FF6CFA701EB
:104C800096010E94B93F6B017C010E949E404B013E
:104C90005C014AE00E947E25C80FD91F1123B9F19B
:104CA000C501B4010E94283E9B01AC01C701B601B9
:104CB0000E94B83F6B017C016EE28AE19BE00E949A
:104CC0007C25C80FD91F20E030E040E251E4C70145
:104CD000B6010E94893E4B015C010E949E406B011F
:104CE000E12CF12C4AE0C701B6010E947E25C80FD5
:104CF000D91FC701B6010E94283E9B01AC01C50126
:104D0000B4010E94B83F6B017C011150E1F6CE0165
:104D1000DF91CF911F910F91FF90EF90DF90CF9097
:104D2000BF90AF909F908F900895CF93DF9347E00F
:104D30000E94C125EC018AE19BE00E9479288C0F3A
:104D40009D1FDF91CF9108950C9464283091420902
:104D5000313208F04BC080911E098111FCCF909137
:104D6000410922E020931E0921E020931D092FEF25
:104D700020931C0910921B0930931A09E1E2F9E013
:104D8000AAEFB8E020E0321721F041914D932F5F58
:104D9000FACF1092F9082091F908990F922B90936D
:104DA000F9089091F808913061F41092F808909108
:104DB000F9089093BB009091BC0093FDF8CF95EC5F
:104DC00001C095EE9093BC0090911E099230E1F3E2
:104DD00090911C099F3F79F080911C09803241F02D
:104DE00080911C09803331F084E005C081E003C06C
:104DF00082E001C083E010922009109242091092D3
:104E00001F090895CF93DF93EB0191E090931F0961
:104E100080934109109220091092420961E082E0DA
:104E20009CE00E943D1F6D2F82E09CE00E943D1F90
:104E30006C2F82E09CE00E943D1FDF91CF910C948B
:104E4000A62690911E099111FCCF91E090931E0926
:104E500090931D092FEF20931C0910921B09260F18
:104E600020931A099093F9089091F908880F892BDB
:104E70008093F9088091F808813061F41092F80865
:104E80008091F9088093BB008091BC0083FDF8CF2E
:104E900085EC01C085EE8093BC0080911E098130B5
:104EA000E1F380911B09861710F460911B09AAEFAA
:104EB000B8E0E8EDF8E080E0861721F09D9191934D
:104EC0008F5FFACF0895FF920F931F93CF93DF93D5
:104ED00080913E0C0E94D91A892BD1F760913D0C2C
:104EE00080913E0C0E945825C82F60913D0C809106
:104EF0003E0C0E945825D82F60913D0C80913E0CAD
:104F00000E945825F82E00E010E080913F0C90E0C0
:104F10000817190768F461E080913D0C0E94021B9C
:104F200060E080913D0C0E94021B0F5F1F4FEDCF90
:104F30008D2F90E0A0E0B0E0BA2FA92F982F8827FE
:104F4000AC2BAC01BD014F298C2F880F880B90E052
:104F5000A0E0B0E0B82FAA27992788278A019B01F3
:104F6000082B192B2A2B3B2BC901B801DF91CF91BC
:104F70001F910F91FF9008950F931F93CF93DF938D
:104F8000EC010E94291C688779878A879B87CE015C
:104F90000E943E0D97FF17C00E94291C08851985A5
:104FA0002A853B85DC01CB01801B910BA20BB30B47
:104FB0000C811D812E813F8180179107A207B307C5
:104FC00030F38FEF9FEFDF91CF911F910F910895F5
:104FD000CF92DF92EF92FF920F931F93CF93DF93C5
:104FE0006C017A018B01C0E0D0E0CE15DF0581F0C5
:104FF000D8016D918D01D601ED91FC910190F08168
:10500000E02DC6011995892B11F02196EECF7E0176
:10501000C701DF91CF911F910F91FF90EF90DF902B
:10502000CF90089590919F0289133DC0EAE0F4E08B
:10503000E4919FEF90939F02E230C9F050F4EE2389
:1050400099F0E13081F590916F009D7F90936F0012
:105050002AC0E43019F1E0F0E53029F590917300B1
:105060009D7F909373001FC010926E001CC09091A2
:1050700070009D7F9093700091E09093B0009091AC
:10508000B100987F94609093B1001092B3000BC070
:10509000909171009D7F9093710005C09091720076
:1050A0009D7F9093720060E00C94021BDB011496CC
:1050B0004D915C9115976D917C91DC01ED91FC9186
:1050C0000280F381E02D19946115710579F0FB01DF
:1050D00001900020E9F73197AF01461B570BDC0127
:1050E000ED91FC910280F381E02D199480E090E035
:1050F00008956BEF75E00C9464280F931F93CF9382
:10510000DF93EC010E9456288C01CE010E94792881
:10511000800F911FDF91CF911F910F910895CF9331
:10512000DF93CDB7DEB7C755D1090FB6F894DEBF10
:105130000FBECDBF789484B5826084BD84B5816094
:1051400084BD85B5826085BD85B5816085BD809152
:105150006E00816080936E001092810080918100CA
:1051600082608093810080918100816080938100C2
:10517000809180008160809380008091B100846084
:105180008093B1008091B00081608093B0008091E5
:105190009100826080939100809191008160809362
:1051A0009100809190008160809390008091A10097
:1051B00082608093A1008091A10081608093A10012
:1051C0008091A00081608093A00080912101826085
:1051D0008093210180912101816080932101809140
:1051E000200181608093200180917A008460809307
:1051F0007A0080917A00826080937A0080917A00B0
:10520000816080937A0080917A00806880937A0030
:105210001092C10060E08EE10E948E1B61E084E08C
:105220000E948E1B61E084E00E94021B8AE19BE0E9
:105230000E94AD178DE79AE00E94AD1780EE99E0CD
:105240000E94AD1783E499E00E94AD1762E370E01D
:1052500080E090E00E94EF1B81E293E00E94C3187F
:1052600080913106811145C01092230610922206CA
:105270008FEF8093260680932706809328068093DD
:10528000290680932A0680932B0681E080932C06C2
:1052900010922E0610922D061092250610922406CA
:1052A0008091810890918208892B31F480E296E008
:1052B0009093820880938108E0911E06F0911F066A
:1052C000309721F080E296E09583848380E296E037
:1052D00090931F0680931E061092300610922F06A0
:1052E0008AEB92E0909321068093200681E08093E0
:1052F0003106809101018062809301018CE096E08B
:10530000909323068093220681E090E090932E06EE
:1053100080932D068091110C9091120CA091130C8A
:10532000B091140C843C29E09207A105B10520F44A
:1053300084EC99E0A0E0B0E08093110C9093120C03
:10534000A093130CB093140C8FEF80930C068093F2
:105350000D0680930E060E94351C62E370E080E02B
:1053600090E00E94EF1B88EC90E00E94473F8E384F
:1053700039F00E9491096EE888EC90E00E944F3F5E
:105380004BE8842E42E0942E5BE7A52E52E0B52E2A
:105390006BE6C62E62E0D62E7BE4E72E72E0F72E97
:1053A000EBE56E2EE2E07E2EFBE34F2EF2E05F2E69
:1053B00000E010E0C8010E941409D4016D937D93B0
:1053C0008D939D934D01C80104960E941409F50127
:1053D00061937193819391935F01C80108960E9434
:1053E0001409D6016D937D938D939D936D01C80132
:1053F0000C960E941409F701619371938193919324
:105400007F01C80140960E941409D3016D937D93DA
:105410008D939D933D01C80144960E941409F201A9
:1054200061937193819391932F010F5F1F4F04300C
:10543000110509F0BFCF0E94681B8EE293E00E9425
:10544000C3180E94681B81E080931F0988E680933F
:10545000410910922009109242096EE082E09CE01E
:105460000E943D1F0E94A62681E090E00E94D41871
:1054700090917F08809180089817F1F382E09CE07A
:105480000E94F41E082F0E94A62611E010931F0907
:1054900088E68093410910922009109242096EE03B
:1054A00082E09CE00E943D1F602F6B7382E09CE0D5
:1054B0000E943D1F0E94A62680ED97E09093130660
:1054C0008093120610931406109315061092160678
:1054D000109217061092180686E08093190680E74E
:1054E00095E3ADE6B8E380931A0690931B06A0936C
:1054F0001C06B0931D068DE393E00E94C3188AE159
:105500009BE00E94792864EF71E080E090E00E94C7
:10551000EF1B8CE493E00E94C3181092C40B10920E
:10552000C20B1092BF0B1092BE0B81E38093BD0B98
:105530000E94291C8B0161E08091BD0B0E948E1B93
:1055400061E08091BD0B0E94021BFFB6F894809130
:105550003906811127C0EDE6F3E08491E3EBF3E037
:105560009491E82FF0E0EE0FFF1FE651FD4FA5915B
:10557000B491EC91E92321F461E085E30E94021BE0
:1055800061E085E30E948E1B8CB580618CBD8CB57B
:1055900080648CBD61E084E30E948E1B61E083E344
:1055A0000E948E1B809139068F5F80933906FFBE63
:1055B00082E58093B70B1092B80B8091B70B909156
:1055C000B80B0E94E5202AE0F22E8FEF0E94A62061
:1055D000FA94F110FACF89EB9BE00E94E82020E0DA
:1055E00030E0A90160E089EB9BE00E94FE20F82EEC
:1055F0008093C30BF1E08F1749F00E94291C601BB8
:10560000710B613D774058F381E056C02AEA31E0E2
:1056100040E050E068E089EB9BE00E94FE2082FFC2
:1056200003C0F092C40B10C094E0F92E0E94AD208C
:105630008093C30BFA94F110F9CF8A3A11F082E00B
:105640003BC082E08093C40B8091C40B823021F078
:10565000C12CD12C760105C0C12CD12CE12C80E4C9
:10566000F82E20E030E0A90167E389EB9BE00E947F
:10567000FE20A701960169E289EB9BE00E94FE20D3
:105680008093C30B882349F00E94291C601B710B77
:10569000613D774030F388E00FC08091C40B8230C9
:1056A00009F520E030E0A9016AE389EB9BE00E9464
:1056B000FE20882349F086E08093BE0B89EB9BE0B7
:1056C0000E949B200C94163A0E94AD20807C803C66
:1056D00019F483E08093C40B0E94AD200E94AD209A
:1056E0000E94AD2089EB9BE00E949B2080E5809387
:1056F000B70B1092B80B81E00E94E018882331F0BC
:105700008091E80B882351F00C94163A80E00E94B7
:10571000E018882311F40C94163AF2CF8091DC0B38
:10572000803109F582E08093E80B1092FA0B109219
:10573000FB0B1092FC0B1092FD0B8091DD0B9091F6
:10574000DE0BA0E0B0E015E0880F991FAA1FBB1F79
:105750001A95D1F78093F60B9093F70BA093F80B63
:10576000B093F90B21C0803211F00C94163A83E00B
:105770008093E80B4091DF0B5091E00B6091E10BBF
:105780007091E20B4093FA0B5093FB0B6093FC0B70
:105790007093FD0B26EF3BE085EC9BE00E9409181F
:1057A000882311F40C94163A85EC9BE09093FF0B40
:1057B0008093FE0B81E08093E70B1092E90B10922F
:1057C000EA0B1092EB0B1092EC0B1092ED0B109277
:1057D000EE0B1092EF0B1092F00B1092F10B109257
:1057E000F20B1092F30B1092F40B1092F50B8DE567
:1057F00093E00E94C31889E380933D0C88E3809373
:105800003E0C61E089E30E948E1B60E080913E0CBB
:105810000E948E1B83E080933F0C60E080913D0CE2
:105820000E94021B0E94632710923A0C1092390CBE
:105830000E94681B8AE19BE00E9479288EE693E033
:105840000E94C318BFE72B2EBEE33B2E0E946505C6
:1058500080911006909111062091390230913A0200
:105860008217930711F40C94693690933A0280934F
:1058700039020E947A080E943D080E9400080E9496
:1058800074070E94F0060E94780680917B00877F53
:1058900080937B0080E480937C0080917A00806418
:1058A00080937A0080917A0086FDFCCFA0917800E9
:1058B00080917900B0E0B82B24EF31E00E942341C1
:1058C0002FEF33E040E050E00E945D3F223781E05F
:1058D00038073CF0253A91E039072CF024EA31E012
:1058E00002C022E731E0C901330FAA0BBB0B9C01B8
:1058F000AD012257314041095109A4E6B0E00E94B0
:105900007C3F22E330E040E050E00E945D3F209386
:105910003502C0906702D0906802E0906902F09072
:105920006A028091630290916402A0916502B09135
:10593000660222968CAF9DAFAEAFBFAF229780912B
:105940005F0290916002A0916102B09162028EAB01
:105950009FABA8AFB9AF40905B0250905C026090E3
:105960005D0270905E026091290270912A02072EFA
:10597000000C880B990B0E942A3E4B015C019B0195
:10598000AC0122966CAD7DAD8EAD9FAD22970E948D
:10599000893E6EA77FA788AB99ABA5019401C7018B
:1059A000B6010E94893E9B01AC016EA57FA588A926
:1059B00099A90E94B83F4B015C01A3019201C70164
:1059C000B6010E94893E9B01AC01C501B4010E9451
:1059D000B93F6B017C012EA93FA948AD59AD229674
:1059E0006CAD7DAD8EAD9FAD22970E94893E9B012F
:1059F000AC01C701B6010E94B83F6B017C012EA922
:105A00003FA948AD59ADC301B2010E94B83F9B0107
:105A1000AC01C701B6010E9425400E9497406296E2
:105A20006CAF7DAF8EAF9FAF62976096AEADBFADEE
:105A300060976496BFAFAEAF6497B0932A02A0930D
:105A40002902C0909702D0909802E0909902F090BD
:105A50009A028091930290919402A0919502B09144
:105A6000960222968CAF9DAFAEAFBFAF22978091CA
:105A70008F0290919002A0919102B09192028EAB10
:105A80009FABA8AFB9AF40908B0250908C02609052
:105A90008D0270908E028090190290901A02A09050
:105AA0001B02B0901C02A501940122966CAD7DAD45
:105AB0008EAD9FAD22970E94893E6EA77FA788ABCF
:105AC00099ABA5019401C701B6010E94893E9B01D3
:105AD000AC016EA57FA588A999A90E94B83F4B018A
