:100000000C9406020C9437020C9437020C943702BD
:100010000C9437020C9437020C9437020C9437027C
:100020000C9437020C9437020C9437020C9437026C
:100030000C9437020C94D6220C9437020C9437029D
:100040000C9437020C9437020C9437020C9437024C
:100050000C9437020C9437020C9437020C94D02184
:100060000C9437020C94AD0B0C94830B0C94370258
:100070000C9437020C9437020C9437020C9437021C
:100080000C9437020C9437020C9437020C9437020C
:100090000C94590B0C942F0B0C9437020C94701980
:1000A0000C9437020C9437020C9437020C943702EC
:1000B0000C9437020C9437020C9437020C943702DC
:1000C0000C9437020C9437020C9437020C94050BF5
:1000D0000C94DB0A0C9437020C9437020C94370210
:1000E0000C9437022A1E2D1E1C1E201E261E641E66
:1000F000311E351E3B1E3F1E431E491E4D1E511E06
:10010000641E571E5B1E5F1E0C9460170C943F1EEE
:100110000C94A30F0C9427180C94261E0C94BB1758
:100120000C94C3170C94A7170C94431E0C94420212
:100130000C94351E0C941F180C94641E0C949E0A8B
:100140000C9498170C945F1E0C943C020C9449027A
:100150000C946C020C942D1E0C945B1E0C94040ADF
:100160000C9497090C94B9090C944D1E0C941C1E08
:100170000C94201E0C9497170C944B0A0C942A1E76
:100180000C94301D0C943B1E0C9445020C943A1DAB
:100190000C94AB090C9421050C94511E0C94B037AF
:1001A0000C9481170C9439020C94311E0C94651E2A
:1001B0000C94F0170C94571E0C94DD040C94491EFB
:1001C00000407A10F35A00A0724E18090010A5D40E
:1001D000E80000E87648170000E40B54020000CA6B
:1001E0009A3B000000E1F5050000809698000000B1
:1001F00040420F000000A086010000001027000010
:100200000000E803000000006400000000000A0095
:10021000000000000100000000002C76D888DC6798
:100220004F0823DFC1DFAE59E1B1B796E5E3E453F0
:10023000C63AE651997696E8E6C28426EB898C9B0D
:1002400062ED407C6FFCEFBC9C9F40F2BAA56FA5AD
:10025000F490055A2AF75C936B6CF9676DC11BFC2F
:10026000E0E40D47FEF520E6B500D0ED902E03004A
:10027000943577050080841E080000204E0A000097
:1002800000C80C333333330F986E12831141EF8D56
:100290002114893BE65516CFFEE6DB18D1844B3896
:1002A0001BF77C1D901DA4BBE424203284725E22C7
:1002B0008100C9F124ECA1E53D27000102030405FA
:1002C0001112131415160A0B0C0D0E0F1F1C1F1EF6
:1002D0001F1E1F1F1E1F1E1F7C3C3E5E2B3D3F2FFF
:1002E0005B5D3B2C2A225C000200002100240027D9
:1002F000002A002D00300033000101000004010736
:10030000010A0100002200250028002B002E0031E8
:1003100000340002010000050108010B010000206B
:10032000002300260029002C002F003200000100CD
:100330000003010601090105050505070508080870
:1003400008020202020A0A08080404040401010166
:10035000010101010103030303030303030407076E
:10036000070C0C0C0C0C0C0C0C020202020606060C
:1003700006060606060B0B0B0B0B0B0B0B010210F4
:1003800020200808102040102040800201020108AF
:10039000040201010204081020408080402010085F
:1003A00004020180040201804020100804020108B8
:1003B0000402010102040810204080010204081018
:1003C00020408000000A0B02090C0D0E08070304F0
:1003D000010000000000000000000000000000001C
:1003E00000000000000000000000000000000012FB
:1003F00011100000000000000000000000000000DC
:1004000000000000000000000000B03711241FBEF3
:10041000CFEFD1E2DEBFCDBF00E00CBF15E0A0E022
:10042000B2E0ECE7F1E800E00BBF02C007900D92EC
:10043000AE36B107D9F72BE0AEE6B5E001C01D92AC
:10044000A334B207E1F712E0C6E0D2E000E006C054
:1004500021970109802FFE010E94573EC530D10728
:1004600080E00807A9F70E94FC230C94BC400C9480
:10047000000080E991E00895E1E0F1E08081806290
:100480008083089580E090E00895FC01858596853D
:100490000895CF93DF9300D000D0CDB7DEB7AB0186
:1004A0001C821D821E82DC01ED91FC910190F08185
:1004B000E02D19821A821B829E012F5F3F4FBE01E1
:1004C0006C5F7F4F199526960FB6F894DEBF0FBE6E
:1004D000CDBFDF91CF9108956F927F928F929F92BF
:1004E000AF92BF92CF92DF92EF92FF920F931F9342
:1004F000CF93DF933C01EB010E949C20F301278501
:100500003089621B730B6A307105B0F3F894E8818F
:10051000F981509102015062409102014F7D409358
:100520000201E9848E812E2D281B822F2E83DF84E9
:10053000AA81BB816C857D85FE846F5F7F5FF394AC
:100540009F813885BA84AB84108120E0C32E022FAE
:10055000322F3081112788943111380F08F43FEF82
:100560008195889460FD130F1795889461FD130F92
:100570001795889462FD130F1795889463FD130FE8
:100580001795889464FD130F1795889465FD130FD4
:100590001795889466FD130F1795889467FD130FC0
:1005A00017958894232F6111212F8E0D122F002C67
:1005B00050930201002C17FF409302013181222742
:1005C000889400C000C0409302013111390F00C06F
:1005D00050930201002C16FF4093020108F43FEFF4
:1005E0009195889400C000C04093020170FD230FD4
:1005F00000C050930201002C15FF40930201279583
:10060000889471FD230F00C000C04093020127951C
:10061000889400C050930201002C14FF4093020103
:1006200072FD230F2795889400C000C040930201FB
:1006300073FD230F00C050930201002C13FF409361
:1006400002012795889474FD230F00C000C04093D9
:1006500002012795889400C050930201002C12FFDC
:100660004093020175FD230F2795889400C000C0B8
:100670004093020176FD230F00C050930201002C2D
:1006800011FF409302012795889477FD230F00C046
:1006900000C0409302012795889400C05093020146
:1006A000002C10FF40930201132F7111122F9B0D8C
:1006B00000C000C04093020100C000C0509302017E
:1006C000002C17FF4093020132812227889400C03A
:1006D00000C04093020131113C0D00C05093020153
:1006E000002C16FF4093020108F43FEFED0DF11DC1
:1006F00000C000C040930201F0FC230F00C05093E3
:100700000201002C15FF4093020127958894F1FC0B
:10071000230F00C000C0409302012795889400C0B9
:1007200050930201002C14FF40930201F2FC230FAE
:100730002795889400C000C040930201F3FC230F6A
:1007400000C050930201002C13FF40930201279533
:100750008894F4FC230F00C000C040930201279549
:10076000889400C050930201002C12FF40930201B4
:10077000F5FC230F2795889400C000C04093020128
:10078000F6FC230F00C050930201002C11FF409390
:10079000020127958894F7FC230F00C000C0409306
:1007A00002012795889400C050930201002C10FF8D
:1007B00040930201132FF110122FC19400C000C00A
:1007C00040930201CA0C00C0002C50930201002C7F
:1007D00017FF4093020130812227889400C000C097
:1007E000409302013111380F00C050930201002CD8
:1007F00016FF4093020108F43FEF8195889400C0F2
:1008000000C04093020160FD230F00C0509302011D
:10081000002C15FF409302012795889461FD230F5A
:1008200000C000C0409302012795889400C05093F7
:100830000201002C14FF4093020162FD230F279553
:10084000889400C000C04093020163FD230F00C0E4
:1008500050930201002C13FF4093020127958894C6
:1008600064FD230F00C000C04093020127958894C7
:1008700000C050930201002C12FF4093020165FD5D
:10088000230F2795889400C000C04093020166FDA5
:10089000230F00C050930201002C11FF409302016E
:1008A0002795889467FD230F00C000C04093020184
:1008B0002795889400C050930201002C10FF4093AC
:1008C0000201132F6111122F8E0D00C000C0409342
:1008D0000201119709F06CCE4A815B8120EE31E074
:1008E000DA010E945F3EDC01CB01F4E0B695A795EA
:1008F00097958795FA95D1F720E030E0B901EAE9BC
:100900004E9F040E611D5E9F600D711D1124650FC9
:10091000711D860F971FA11DB11D893E43E09407ED
:10092000A105B10508F434C0885E9340A109B1095E
:1009300042E0B695A795979587954A95D1F747E0F8
:10094000849F080E211D949F200D311D1124290F15
:10095000311D6091EA0570E0860F971F820F931F8B
:1009600040913409509135096091360970913709E9
:10097000292F3327420F531F611D711D40933409E6
:100980005093350960933609709337098093EA05CF
:1009900078940E949C20F301708B6787DF91CF9140
:1009A0001F910F91FF90EF90DF90CF90BF90AF908D
:1009B0009F908F907F906F9008950F931F93CF9388
:1009C000DF93CDB7DEB762970FB6F894DEBF0FBEE8
:1009D000CDBF8C01F901DC011C968C917A8369836F
:1009E0005C834B835E834D8390819D8791819E873D
:1009F00092819F87813029F4CE0101960E94D01DFB
:100A000006C01C861B861A86198618861F8283E0FC
:100A1000888B1A8A198AD801ED91FC910484F58596
:100A2000E02DBE016F5F7F4FC801199562960FB62A
:100A3000F894DEBF0FBECDBFDF91CF911F910F9114
:100A400008950F931F93CF93DF93CDB7DEB76297CF
:100A50000FB6F894DEBF0FBECDBF8C01F901DC01EB
:100A60001C968C917A8369835C834B835E834D8370
:100A700090819D8791819E8792819F87813029F403
:100A8000CE0101960E94D01D06C01C861B861A86C8
:100A9000198618861F82188A1A8A198AD801ED9138
:100AA000FC910484F585E02DBE016F5F7F4FC80186
:100AB000199562960FB6F894DEBF0FBECDBFDF91D9
:100AC000CF911F910F9108953F924F925F926F9235
:100AD0007F928F929F92AF92BF92CF92DF92EF92CE
:100AE000FF920F931F93CF93DF93CDB7DEB76A9733
:100AF0000FB6F894DEBF0FBECDBF81E080933906FC
:100B000088E680935B0610923A0610925C0660E0DD
:100B100081E898E00E94F0170E94E11587E090E0DC
:100B20000E948F1E9091F0058091F1059817F1F3C6
:100B30008E01015F1F4FCE0101967C0181E898E094
:100B40000E94A717982F92959F708F70EAE09E9F42
:100B5000800D112490E0F801929382938F01EE169C
:100B6000FF0661F70E94E11569817A814B01F0E38C
:100B70008F1AF8EF9F0A90926F0580926E056B8036
:100B80007C80962D60927005AD80BE80A09271052C
:100B90008F818093750509851A85302E0093720523
:100BA000EB84FC844E2CE0927305CD84DE845C2CB7
:100BB000C0927405BB24A501ECECF2E081E089173A
:100BC00030F42491420F511D8F5F3196F8CF92304F
:100BD00031F4CB0183709927892B09F485C0F40186
:100BE000ED5CF740F695E795F695E7952DE631E053
:100BF000629FC001639F900D729F900D11249F0111
:100C0000280F391F21503109240F351FA8E1B0E00A
:100C10000E940A3D9B01AC01230D311D411D511D58
:100C2000ACE3B0E00E94DD3C9B01AC01240D311D22
:100C3000411D511D0E94DD3CDC01CB01850D911D44
:100C4000A11DB11D80599A4CA249B74C80937605DD
:100C500090937705A0937805B09379058CE0EEE644
:100C6000F5E0DE011F9601900D928A95E1F78CE088
:100C7000FE013F96AEEDB5E001900D928A95E1F749
:100C8000DD24D0928905C0928805FF24F092870563
:100C9000E0928605112710937B0500937A05B092A8
:100CA0007D05A0927C05772470927F0560927E0579
:100CB00090928105809280056A960FB6F894DEBF07
:100CC0000FBECDBFDF91CF911F910F91FF90EF909D
:100CD000DF90CF90BF90AF909F908F907F906F905C
:100CE0005F904F903F9008954F5F5F4F78CFCF92C6
:100CF000DF92EF92FF920F931F93CF93DF9300D079
:100D00001F92CDB7DEB7880F991F880F991F6E010C
:100D100025E0C20ED11C8E010F5F1F4F7C01E01A2F
:100D2000F10AC701800F911F0E94A83CF80181932E
:100D30008F01EC15FD05A9F769817A818B819C8172
:100D40000F900F900F900F90DF91CF911F910F9107
:100D5000FF90EF90DF90CF9008958F929F92AF9287
:100D6000BF92CF92DF92EF92FF920F931F93CF9398
:100D7000DF9300D01F92CDB7DEB74A015B017C0143
:100D8000EE0CFF1CEE0CFF1CC7010E947706A501AC
:100D900094010E94843B8823B1F089829A82AB82BD
:100DA000BC82CE0101966C0100E010E0F601619179
:100DB0006F01C701800F911F0E94B03C0F5F1F4F52
:100DC0000430110599F70F900F900F900F90DF915D
:100DD000CF911F910F91FF90EF90DF90CF90BF9038
:100DE000AF909F908F900895EF92FF920F931F9373
:100DF000CF93DF93CDB7DEB767970FB6F894DEBF1A
:100E00000FBECDBF8C017B010E94671569EE74E0B7
:100E1000C8010E946C221B8A1A8A1D8A1C8A1F8A9A
:100E20001E8A4AE0BE016F5F7F4FC7010E940B39E7
:100E3000BE016F5F7F4FCE0142960E946C22BE01C1
:100E40006E5E7F4FC8010E946015CE0142960E94DF
:100E50008D226BEE74E0C8010E945115C80167969F
:100E60000FB6F894DEBF0FBECDBFDF91CF911F91BB
:100E70000F91FF90EF9008952F923F924F925F92C3
:100E80006F927F928F929F92AF92BF92CF92DF929A
:100E9000EF92FF920F931F93CF93DF93CDB7DEB7FF
:100EA000C158D1090FB6F894DEBF0FBECDBFCE0139
:100EB00087589F4F0E9467151092820510928305F4
:100EC000109284051092850580912402909125024C
:100ED000893E934008F005C29DEE692E92E0792E7E
:100EE0004E013BE3830E911CCE0101967C01609183
:100EF000240270912502CE018D589F4F0E94F40666
:100F0000E596AEACBFACE5971EAE1DAE7CAE6BAE4B
:100F100021961FAE219719A218A27F8E6E8E1BA25A
:100F2000412C512CC158DF4F8882CF57D040392CEB
:100F300082E6C82E88E0D82EF501E40DF51D8081EB
:100F40008F3219F4FFEF4F1A5F0AD501A40DB51DBA
:100F5000FE01E85AFF4F80E090E08F012D912F3283
:100F600051F0222341F001963FEF431A530A219397
:100F70008C30910599F7F801E80FF91F1082F501FF
:100F8000E40DF51D80818F3219F48FEF481A580A4D
:100F9000F501E40DF51D20801C821B827A82698296
:100FA0001E8221E0A801B601C7010E94B11088236A
:100FB00031F0C7010E946F1221100BC030C092E6C1
:100FC000C91698E0D90619F0C6010E946F12D12CFB
:100FD00030C021E0A801B601C158DF4F8881CF574A
:100FE000D040932D0E94B110282EE2E6CE16E8E004
:100FF000DE0609F495C1C6010E946F12222039F362
:101000009C2D8D2DC158DF4FC880CF57D040D32C99
:10101000C158DF4F9883CF57D040382E8DCFF2E69E
:10102000CF16F8E0DF0619F0C6010E946F12DD242A
:10103000D394CE018D589F4F0E948D22D1100AC0AB
:10104000809124029091250201969093250280932D
:1010500024024DCF60EF74E0CE0187589F4F0E946D
:1010600051156CE675E0CE0187589F4F0E945115CF
:101070006091240270912502CE018D589F4F0E94ED
:10108000F406E5966EAC7FACE5976E012EE1C20EDC
:10109000D11C62E678E0C6010E949E1A1C821B8267
:1010A0008DEE92E09A8389831E82530127013C2CA6
:1010B0002D2C6FE270E0C5010E949B400097C9F1A2
:1010C000F50120812F3221F4FFEFAF1ABF0AF1CFD3
:1010D0008A198D3008F08CE0C82ED12CA601B501FC
:1010E000C8010E94AD40F801EC0DFD1D1082C20147
:1010F0000E946F1221E0A801632D722DC2010E948F
:10110000B11081110AC01EAE1DAE8DEE92E09CAFF3
:101110008BAF21961FAE21971AC0AC0CBD1C832D3E
:10112000922D0E946F12C101342C252C492E582E6D
:10113000C0CF950126193709C058DF4F398328835E
:10114000C058D040632D722DC4010E949E1AC05811
:10115000DF4F88819981C058D040680E791EF30115
:101160008081811107C0B401C7010E949E1A4CE31F
:1011700055E046C019A218A28DEE92E09F8F8E8F87
:101180001BA221968FAD2197811113C0F801138204
:10119000128288EE93E0A0E0B0E084839583A6837A
:1011A000B7838DE193E091838083128E118E148634
:1011B0002BC0825023E1A301823048F462E678E03C
:1011C000CE014E960E94B11081110BC0DFCFB40149
:1011D000CE014E960E94B1108823C1F2C4010E9434
:1011E0006F1249A95AA96BA97CA9CE014E960E94FB
:1011F0007D0DBE01625E7F4FC7010E949E1AA30152
:10120000B701C8010E94D012F801828193819093A6
:101210009D0880939C0884819581A681B7818093E5
:101220009E0890939F08A093A008B093A108808582
:101230009185A285B3858093A2089093A308A0937B
:10124000A408B093A508D8011C96E6EAF8E08D91B1
:10125000819328E0E33BF207D1F7F801818D928D6D
:101260009093B4088093B308CE018D589F4F0E948D
:101270008D22E091B308F091B4083097B9F08581E0
:101280008823A1F0BE0167587F4F8AE998E00E9449
:10129000E12389E997E00E944B238EE395E00E94C9
:1012A000741589E997E00E944B2315C065E575E048
:1012B0008CEF96E00E943623609124027091250203
:1012C000C7010E94F406B7018CEF96E00E94E1236B
:1012D000C7010E948D220E9464051092A6021092FE
:1012E000A502CE0187589F4F0E948D22CF57DF4F16
:1012F0000FB6F894DEBF0FBECDBFDF91CF911F9127
:101300000F91FF90EF90DF90CF90BF90AF909F90A4
:101310008F907F906F905F904F903F902F900895A7
:10132000882309F454CEFE017E966F0169CEFC013C
:10133000918D828D981761F0828DDF01A80FB11D0C
:101340005D968C91928D9F5F9F73928F90E0089530
:101350008FEF9FEF0895FC01918D828D981731F0EA
:10136000828DE80FF11D858D90E008958FEF9FEF3E
:101370000895FC01918D228D892F90E0805C9F4F14
:10138000821B91098F73992708958FE596E00E943B
:10139000B90921E0892B09F420E0822F08958CEF10
:1013A00096E00E94B90921E0892B09F420E0822F00
:1013B000089589E997E00E94B90921E0892B09F491
:1013C00020E0822F0895FC01848DDF01A80FB11D5C
:1013D000A35ABF4F2C91848D90E001968F7399276B
:1013E000848FA689B7892C93A089B1898C91806458
:1013F0008C93938D848D981306C00288F389E02D19
:1014000080818F7D80830895EF92FF920F931F93C9
:10141000CF93DF93EC0181E0888F9B8D8C8D9813A7
:1014200005C0E889F989808185FD24C0F62E0B8DE1
:1014300010E00F5F1F4F0F731127E02E8C8DE81205
:101440000CC00FB607FCFACFE889F989808185FFC7
:10145000F5CFCE010E94E309F1CF8B8DFE01E80F9D
:10146000F11DE35AFF4FF0820B8FEA89FB898081DF
:10147000806207C0EE89FF896083E889F9898081ED
:101480008064808381E090E0DF91CF911F910F9184
:10149000FF90EF900895CF93DF93EC01888D882320
:1014A000C9F0EA89FB89808185FD05C0A889B989D1
:1014B0008C9186FD0FC00FB607FCF5CF808185FFAC
:1014C000F2CFA889B9898C9185FFEDCFCE010E941A
:1014D000E309E7CFDF91CF91089580E090E0892B79
:1014E00021F00E94D90981111DC080E090E0892B74
:1014F00021F00E94CF09811118C080E090E0892B73
:1015000021F00E94C509811113C080E090E0892B71
:10151000A1F080E090E0892B81F00E940000811111
:101520000AC008950E940000E0CF0E940000E5CFAD
:101530000E940000EACF0C94000008950E948040B1
:101540008091EB058823A9F14091AB025091AC0248
:101550006091AD027091AE0228E339E08091380BC2
:101560009091390B0E94641D811102C080E00895A2
:101570004091EC055091ED056091EE057091EF05FD
:10158000411551056105710591F028E339E080911D
:10159000380B9091390B0E94641D882339F3109207
:1015A000EC051092ED051092EE051092EF051092E9
:1015B000EB0581E008951F920F920FB60F92112450
:1015C0000BB60F922F933F934F935F936F937F933D
:1015D0008F939F93AF93BF93EF93FF938FE596E025
:1015E0000E94E309FF91EF91BF91AF919F918F917D
:1015F0007F916F915F914F913F912F910F900BBE13
:101600000F900FBE0F901F9018951F920F920FB65C
:101610000F9211240BB60F922F933F934F935F932A
:101620006F937F938F939F93AF93BF93EF93FF93AA
:101630008FE596E00E94C91FFF91EF91BF91AF9196
:101640009F918F917F916F915F914F913F912F91DA
:101650000F900BBE0F900FBE0F901F9018951F920A
:101660000F920FB60F9211240BB60F922F933F9348
:101670004F935F936F937F938F939F93AF93BF939A
:10168000EF93FF938CEF96E00E94E309FF91EF91B7
:10169000BF91AF919F918F917F916F915F914F918A
:1016A0003F912F910F900BBE0F900FBE0F901F9088
:1016B00018951F920F920FB60F9211240BB60F922E
:1016C0002F933F934F935F936F937F938F939F934A
:1016D000AF93BF93EF93FF938CEF96E00E94C91FE7
:1016E000FF91EF91BF91AF919F918F917F916F91FA
:1016F0005F914F913F912F910F900BBE0F900FBEB6
:101700000F901F9018951F920F920FB60F921124F1
:101710000BB60F922F933F934F935F936F937F93EB
:101720008F939F93AF93BF93EF93FF9389E997E0D4
:101730000E94E309FF91EF91BF91AF919F918F912B
:101740007F916F915F914F913F912F910F900BBEC1
:101750000F900FBE0F901F9018951F920F920FB60B
:101760000F9211240BB60F922F933F934F935F93D9
:101770006F937F938F939F93AF93BF93EF93FF9359
:1017800089E997E00E94C91FFF91EF91BF91AF9146
:101790009F918F917F916F915F914F913F912F9189
:1017A0000F900BBE0F900FBE0F901F9018958F9249
:1017B0009F92AF92BF92EF92FF920F931F93CF939E
:1017C0004B015C01C42F8091AB029091AC02A091BF
:1017D000AD02B091AE0288159905AA05BB0501F1CD
:1017E0000E94A00A811102C080E020C088E3E82E98
:1017F00089E0F82E00E012E020E030E0B501A4011D
:101800008091380B9091390B0E94B31B882361F3B0
:101810008092AB029092AC02A092AD02B092AE0266
:101820008091EB05C82BC093EB0581E0CF911F9110
:101830000F91FF90EF90BF90AF909F908F90089581
:101840004F925F926F927F928F929F92AF92BF92D0
:10185000CF92DF92EF92FF920F931F93CF93DF937C
:10186000EC01423051056105710510F480E078C04B
:1018700089859A85AB85BC850196A11DB11D84170C
:101880009507A607B70790F3CB88DC88ED88FE881C
:101890008F89803129F4BB27A72F962F852F09C068
:1018A000DB01CA01E7E0B695A79597958795EA957C
:1018B000D1F7480159012A013B01C80ED91EEA1E81
:1018C000FB1E8091AB029091AC02A091AD02B09151
:1018D000AE02C816D906EA06FB0681F48F8980316C
:1018E000A9F4B301A201552766277727440F551F96
:1018F000FA01E85CF64F9182808219C040E0C7018E
:10190000B6010E94D70B8111E9CFB0CFB301A2017C
:101910004F77552766277727440F551F440F551FCC
:10192000FA01E85CF64F80829182A282B3828091B4
:10193000EB0581608093EB058A89823080F08D8190
:101940009E81AF81B885C80ED91EEA1EFB1EC092CB
:10195000EC05D092ED05E092EE05F092EF0581E006
:10196000DF91CF911F910F91FF90EF90DF90CF907B
:10197000BF90AF909F908F907F906F905F904F90AF
:1019800008958F929F92AF92BF92CF92DF92EF9283
:10199000FF920F931F93CF93DF93FC018185928574
:1019A000A385B4850196A11DB11D84179507A607CF
:1019B000B70710F480E05BC083889488A588B68858
:1019C0008789803129F4BB27A72F962F852F09C03F
:1019D000DB01CA01C7E0B695A79597958795CA958B
:1019E000D1F7E9016A017B018F01BC01CD01680DCE
:1019F000791D8A1D9B1D8090AB029090AC02A09037
:101A0000AD02B090AE02681579058A059B0591F488
:101A1000F80187898031A1F4DD24EE24FF24C6017A
:101A2000880F991FFC01E85CF64F80819181A0E04E
:101A3000B0E018C040E00E94D70B8111E9CFBACFC7
:101A4000E894C7F8DD24EE24FF24C601880F991F0F
:101A5000880F991FFC01E85CF64F80819181A2817B
:101A6000B381BF7088839983AA83BB8381E0DF91B0
:101A7000CF911F910F91FF90EF90DF90CF90BF908B
:101A8000AF909F908F900895CF93DF93EC018D815D
:101A9000882379F18C8187FF28C06E857F858889AE
:101AA000998941E00E94D70B882319F1EA8980E2E5
:101AB000E89FF0011124E85CF64F3097D1F08D815A
:101AC000823040F48B899C89AD89BE89848F958F43
:101AD000A68FB78F8F89988DA98DBA8D938F828F9E
:101AE000B58BA48B8C818F778C83DF91CF910C94F5
:101AF000A00A80E0DF91CF9108958F929F92AF92DC
:101B0000BF92CF92DF92EF92FF920F931F93CF93EA
:101B1000DF93EC018D81811102C080E078C00B89D8
:101B20001C892D893E890417150726073707A8F356
:101B30006A017B01823029F4CA86DB86EC86FD8649
:101B40000DC0C114D104E104F10451F41E821F82BE
:101B5000188619861A861B861C861D8681E057C04A
:101B60008A849B84AC84BD84EB8DFC8D258530E01C
:101B7000275F3F4FB501A401415051096109710927
:101B8000022E04C076956795579547950A94D2F72B
:101B9000D701C6010197A109B10904C0B695A7955F
:101BA000979587952A95D2F784179507A607B707C3
:101BB00020F089288A288B2871F44F89588D698DE7
:101BC0007A8D4E835F83688779874C015D018E0132
:101BD0000A5F1F4F16C0841B950BA60BB70BF5CFE2
:101BE0004E815F816885798598018B8D9C8D0E94DF
:101BF000C10C91E0891A9108A108B108882309F461
:101C00008CCF81149104A104B10451F795CFDF91D9
:101C1000CF911F910F91FF90EF90DF90CF90BF90E9
:101C2000AF909F908F9008952F923F924F925F9226
:101C30006F927F928F929F92AF92BF92CF92DF92DC
:101C4000EF92FF920F931F93CF93DF9300D01F92D9
:101C5000CDB7DEB78C015B011A01DC0115968C91C2
:101C600015978130C9F414968C9181FF15C082FFBD
:101C70001DC0F801438954896589768982859385D9
:101C8000A485B58584179507A607B70779F0C8011D
:101C90000E947D0D81110AC081E090E0D801139669
:101CA0009C938E93129780E090E036C1610183C0CF
:101CB0005B968D919C915C97FC0174802FEF270DB2
:101CC0002A013B0139E076946794579447943A95FA
:101CD000D1F7722E74207A01F1E0FF22772009F407
:101CE00076C080E092E08E199F0946018C159D0513
:101CF00008F44C01D8015B962D913C915C971696A7
:101D00008D919D910D90BC91A02D0297A109B109D3
:101D1000F901058404C0880F991FAA1FBB1F0A94EC
:101D2000D2F74685578560897189840F951FA61F54
:101D3000B71F9C01AD01270D311D411D511D29010A
:101D40003A01811432E0930609F088C08091AB0219
:101D50009091AC02A091AD02B091AE024816590626
:101D60006A067B0659F48FEF9FEFDC018093AB028C
:101D70009093AC02A093AD02B093AE029501B30173
:101D8000A2018091380B9091390B0E94641D882329
:101D900009F482CF9EEFB91AC818D908F8018285D4
:101DA0009385A485B585880D991DA11DB11D8287D8
:101DB0009387A487B587D8011A964D915D916D914F
:101DC0007C911D97C114D10409F072CF87C0E11432
:101DD000F10409F086CF16964D915D916D917C913D
:101DE0001997411551056105710559F457968D9163
:101DF0009D910D90BC91A02D0097A105B10541F5D5
:101E000021C09E012F5F3F4F0E94C10C882309F41F
:101E10004BCF89819A81AB81BC81F801238D348DB0
:101E2000F9012789203129F048EF5FEF6FEF7FE05C
:101E300004C048EF5FEF60E070E084179507A607E5
:101E4000B70730F0C8010E94431881114ACF24CF50
:101E5000F80186839783A087B18743CFE114F1040B
:101E600029F5D8011A964D915D916D917C911D9740
:101E700053968D919D910D90BC91A02D48175907B7
:101E80006A077B0798F00E94A00A882309F404CF10
:101E90004092AB025092AC026092AD027092AE02E0
:101EA0008091EB0581608093EB0508C041E0C301A0
:101EB000B2010E94D70B882309F4EECED501F701B9
:101EC000E85CF64F9F01280D391D2E173F0719F0CA
:101ED0008D918193FACFA80CB91C5ECFF80183894C
:101EE0009489A589B68984179507A607B70738F49A
:101EF000438B548B658B768B848180688483F80157
:101F0000848183FD02C0C10107C0C8010E94440D45
:101F1000882309F4C1CEF7CF0F900F900F900F9048
:101F2000DF91CF911F910F91FF90EF90DF90CF90B5
:101F3000BF90AF909F908F907F906F905F904F90E9
:101F40003F902F900895CF93DF931F92CDB7DEB7C8
:101F5000698341E050E0BE016F5F7F4F0E94140E25
:101F60000F90DF91CF9108958F929F92AF92BF9281
:101F7000CF92DF92EF92FF920F931F93CF93DF9355
:101F800000D01F92CDB7DEB77C0180E2689FF001E0
:101F90001124E85CF64F9385917121F0842F8274AF
:101FA00009F08FC0142FD70152966C93529740912D
:101FB000AB025091AC026091AD027091AE021E96E0
:101FC0004D935D936D937C9351974489558960E05F
:101FD00070E0BA0155274427828D938DA0E0B0E0D0
:101FE000482B592B6A2B7B2BD70157964D935D932A
:101FF0006D937C935A978385887159F4848D958D60
:10200000A68DB78DF701838B948BA58BB68B81E062
:1020100012C0803109F055C097012D5E3F4FD701A6
:102020005B968D919C915C970E940513882309F41F
:1020300048C084E0F7018583812F8F70D701149603
:102040008C931497F70116821782108611861A96C0
:102050001D921D921D921C921D9716FF34C015965D
:102060008C91813071F511FF2CC0F701438954899F
:1020700065897689452B462B472B09F461C040E0E2
:1020800050E0BA01C7010E947D0D8823D1F0F7010D
:102090008788908CA18CB28CC38CD48C82E090E029
:1020A000A0E0B0E0F60180839183A283B3839E0118
:1020B0002F5F3F4FB501A401C6010E94C10C8111E1
:1020C00004C080E03DC081E03BC000E010E098012A
:1020D000B501A401C6010E94200C882391F38980D8
:1020E0009A80AB80BC80D60157968C91803129F0C4
:1020F00088EF9FEFAFEFBFE004C088EF9FEFA0E055
:10210000B0E088169906AA06BB0688F2D701579652
:102110001D921D921D921C925A97F701138A148AE0
:10212000158A168A848180688483C7010E94440DC1
:10213000882339F240E050E0BA01C7010E947D0DCA
:102140000F900F900F900F90DF91CF911F910F91F3
:10215000FF90EF90DF90CF90BF90AF909F908F90C7
:1021600008952F923F924F925F926F927F928F923B
:102170009F92AF92BF92CF92DF92EF92FF920F9316
:102180001F93CF93DF93CDB7DEB72C970FB6F8949C
:10219000DEBF0FBECDBF7C01DC0115962C90211057
:1021A0007FC1FE013196CE010C966F0130E2319372
:1021B000E817F907E1F7DA0130E087E09D9199230C
:1021C00031F19E3231F48A3009F46FC138E08AE08F
:1021D000F5CFE8EDF2E04491442321F031969413D9
:1021E000FACF63C1831708F460C14FED490F4E3534
:1021F00008F05BC141E0430FF601E30FF11D3FE939
:10220000390F3A3108F490529083342FD7CF898117
:10221000803209F44AC12C878B01FB01838D948D98
:10222000D7015C969C938E935B97168217821086DB
:1022300011861286138614861586B12CF8018285C4
:102240009385A485B58543895489658976898417E2
:102250009507A607B70708F05BC025E0B695A795D8
:10226000979587952A95D1F7F82FFF70AF2ED80153
:1022700015968C91823008F418C1C8010E94471C41
:1022800097FD13C1F80182859385A485B5854F9686
:10229000A11DB11D82879387A487B587F0E2AF9E09
:1022A000B0011124685C764F6115710509F4FDC019
:1022B000DB018C91882319F0853EC1F4F3C0B11085
:1022C0000EC0F701A28A8091AB029091AC02A0915E
:1022D000AD02B091AE0286879787A08BB18BDB01F0
:1022E0008C91882399F0BB24B394A8CF4BE050E0A5
:1022F000C6010E948540892B09F0A0CF8C85807390
:10230000803309F4D2C04C856A2DC5C0BB24B39478
:102310008C858271823109F0C8C0BB20C1F0F70101
:10232000668577858089918941E00E94D70B882353
:1023300009F4BBC0D70152968C91B0E28B9FC001CB
:102340001124885C964F009709F079C0AEC0F8015F
:102350008581823009F4A9C0C8010E9443188823EE
:1023600009F4A3C0D8015B96ED91FC915C97169699
:102370008D909D90AD90BC901997B2E08B1A91080A
:10238000A108B108058404C0880C991CAA1CBB1CB8
:102390000A94D2F786859785A089B189880E991EFF
:1023A000AA1EBB1E3480E1E08E1A9108A108B10874
:1023B000332011F124013501430C511C611C711CA7
:1023C0000E94A00A882309F470C0E8E3F9E01192A2
:1023D00088E39BE08E179F07D1F74092AB025092A3
:1023E000AC026092AD027092AE028091EB0581600A
:1023F0008093EB053A94DCCFD8015B96ED91FC918C
:102400005C9780E092E0A0E0B0E0058404C0880F13
:10241000991FAA1FBB1F0A94D2F7F8014389548958
:1024200065897689840F951FA61FB71F838B948BB0
:10243000A58BB68BD70152961C9288E399E020E2D7
:10244000FC0111922A95E9F72BE0F601DC010190DD
:102450000D922A95E1F721E238E2DC0151963C9396
:102460002E93509740E058E01F965C934E931E9732
:1024700053963C932E93529759963C932E9358978C
:1024800057965C934E9356970E94A00A882369F052
:102490004C85F7016289C7010E94B40F282E05C040
:1024A000212C03C0B1101FCF0CCF822D2C960FB65C
:1024B000F894DEBF0FBECDBFDF91CF911F910F917A
:1024C000FF90EF90DF90CF90BF90AF909F908F9054
:1024D0007F906F905F904F903F902F900895CF9393
:1024E000DF93EC010E94440D882311F01D8281E0EE
:1024F000DF91CF910895EF92FF920F931F93CF93A7
:10250000DF936115710511F480E01CC04115510580
:10251000C1F07B01EC018C819D818A01080F191F9C
:10252000B801CE010E941A22882371F328813981D3
:102530008C819D81B701820F931F0E94A6401D834D
:102540000C8381E0DF91CF911F910F91FF90EF906D
:102550000895FC01A089B18982E08C93A485B5859A
:102560001C92A685B78587E08C93108EA489B589C7
:1025700086E08C93A289B3898C9180618C93A28927
:10258000B3898C9188608C93A289B3898C9180687F
:102590008C930288F389E02D80818F7D808308955C
:1025A000EF92FF920F931F93CF93DF93EC017B0188
:1025B0008A011B821A8288EE93E0A0E0B0E08C834F
:1025C0009D83AE83BF838DE193E0998388838DE102
:1025D00090E00E947A3E9A8F898F009779F02DE1E2
:1025E000F701DC0101900D922A95E1F74CE050E0F3
:1025F000B801CE010C960E94AD40188EDF91CF91AC
:102600001F910F91FF90EF9008954F925F926F92FC
:102610007F92AF92BF92CF92DF92EF92FF920F9391
:102620001F93CF93DF9300D01F92CDB7DEB78C01FD
:1026300049835A836B837C835901C12CD12C760149
:10264000412C82E0582E612C712C49815A816B817A
:102650007C819E012F5F3F4FC8010E94C10C8823DF
:1026600051F1D301C201F801058404C0880F991FFC
:10267000AA1FBB1F0A94D2F7C80ED91EEA1EFB1E62
:1026800049815A816B817C818789803129F088EF6B
:102690009FEFAFEFBFE004C088EF9FEFA0E0B0E096
:1026A000481759076A077B0780F2F501C082D1827B
:1026B000E282F38281E00F900F900F900F90DF91F4
:1026C000CF911F910F91FF90EF90DF90CF90BF902F
:1026D000AF907F906F905F904F9008953F924F9290
:1026E0005F926F927F928F929F92AF92BF92CF92A2
:1026F000DF92EF92FF920F931F93CF93DF9300D05F
:10270000CDB7DEB7F0908D08809190089091910838
:10271000A0919208B0919308892B8A2B8B2BE9F01A
:102720000E949C200091E2081091E3082091E408A7
:102730003091E508DC01CB01801B910BA20BB30BA0
:10274000009190081091910820919208309193087F
:1027500080179107A207B307B8F20E949C206093EC
:10276000E2087093E3088093E4089093E508E09111
:102770009808F0919908309759F040919408509139
:10278000950860919608709197088F2D1995F82EED
:1027900000915D0610915E064F2C512C612C712C1E
:1027A0000115110509F45FC0D8011C96EC901C9727
:1027B00080918E0890918F088436910510F41C96B4
:1027C0001C92D801ED91FC91A280B38019821A82EB
:1027D0001B82F11014C0F801458556856281738112
:1027E0009E012F5F3F4FC801F5011995D8011C9636
:1027F000EC921C9714960D911C911597D1CFF8016E
:102800003696CE0101966C01480199E0890E911C23
:102810002191222309F132803320F1F0822F90E0C0
:10282000A0E0B0E09C01AD012F5F3F4F4F4F5F4FE5
:10283000C301B2010E94333E9B01AC01832D90E0A5
:10284000A0E0B0E0BC01CD016F5F7F4F8F4F9F4F85
:102850000E94333ED6018C93BFEFCB1ADB0AE815FA
:10286000F905B1F6B8CF8091E0089091E1088C01AC
:102870000F5F1F4F1093E1080093E00849979CF108
:102880000E94FB204B015C0188EE93E0089FB001A1
:10289000099F700D189F700D1124072E000C880BD6
:1028A000990BC090DC08D090DD08E090DE08F09035
:1028B000DF08A50194012C193D094E095F090E940A
:1028C000E83C30938F0820938E081092E108109214
:1028D000E0080E94FB206093DC087093DD08809381
:1028E000DE089093DF080F900F900F90DF91CF914B
:1028F0001F910F91FF90EF90DF90CF90BF90AF901E
:102900009F908F907F906F905F904F903F90089531
:102910009CB59F7D9CBD9CB5937F9CBD9CB59C7FC9
:102920009CBD9DB591609DBD682F8091D2080C948F
:102930000B20CF93C82F80E00E9488148C2F0E9418
:10294000251BC82F81E00E9488148C2FCF910895F9
:1029500081EE0C949914EF92FF920F931F93CF93F3
:10296000DF93182F7B01C42F80E00E948814812FF1
:102970008F7180620E94251BD82F8701CC2339F0EC
:10298000F80181918F010E94251BC150F7CF81E092
:102990000E9488148D2FDF91CF911F910F91FF908E
:1029A000EF900895CF93DF93C82FD62F80E00E9439
:1029B00088148C2F8F7180620E94251BC82F8D2F49
:1029C0000E94251B81E00E9488148C2FDF91CF91FB
:1029D0000895CF93C82F80E00E9488148C2F8F71A8
:1029E0000E94251B8FEF0E94251BC82F81E00E94AB
:1029F00088148C2FCF91089580E00E94E91481FD06
:102A00000EC080E00E94E914682F626080E00E949E
:102A1000D21465E070E080E090E00C94C12008954D
:102A20000E94FC1480E00E94E914682F616080E03D
:102A30000E94D21460E787E00E94D2148091D608E9
:102A4000882339F04091DB0866ED78E08AE00E9447
:102A5000AB140E94A81461E08091D1080C940B2063
:102A60000F931F93CF938C0186E00E94E914C82F27
:102A7000C77D0230110511F4C06204C00130110598
:102A800009F4C8606C2F86E00E94D21486E00E9490
:102A9000E91491E0C81390E0892FCF911F910F9115
:102AA00008956115710551F0FB0101900020E9F7CF
:102AB0003197AF01461B570B0C947B1280E00895B1
:102AC000FB0144815581608171810C947B12FC0172
:102AD00011821082138212821582148240E050E02B
:102AE00060E274E00C944122CF93DF93BC0189E94A
:102AF00097E00E943623EC0189E997E00E944B237E
:102B00008C0F9D1FDF91CF910895EF92FF920F934D
:102B10001F93CF93DF93CDB7DEB7A1970FB6F8948D
:102B2000DEBF0FBECDBF7C01CB01BA01F701118220
:102B3000108213821282158214828E010F5F1F4F42
:102B400022E044E00E94BE38BC01C7010E946C2212
:102B5000A1960FB6F894DEBF0FBECDBFDF91CF9127
:102B60001F910F91FF90EF9008950F931F93CF93B4
:102B7000DF93CDB7DEB762970FB6F894DEBF0FBE16
:102B8000CDBF8C01CB01F801118210821382128219
:102B9000158214824AE0BE016F5F7F4F0E94DE38CB
:102BA000BE016F5F7F4FC8010E946C2262960FB614
:102BB000F894DEBF0FBECDBFDF91CF911F910F9173
:102BC000089530915C06313208F04BC08091380690
:102BD0008111FCCF90915B0622E02093380621E022
:102BE000209337062FEF2093360610923506309348
:102BF0003406EBE3F6E0A4E1B6E020E0321721F082
:102C000041914D932F5FFACF109213062091130636
:102C1000990F922B9093130690911206913061F4C4
:102C200010921206909113069093BB009091BC00F5
:102C300093FDF8CF95EC01C095EE9093BC00909178
:102C400038069230E1F3909136069F3F79F08091FB
:102C50003606803241F080913606803331F084E0D0
:102C600005C081E003C082E001C083E010923A0613
:102C700010925C06109239060895909138069111D1
:102C8000FCCF91E090933806909337062FEF209376
:102C9000360610923506260F2093340690931306BD
:102CA00090911306880F892B80931306809112064A
:102CB000813061F410921206809113068093BB005C
:102CC0008091BC0083FDF8CF85EC01C085EE809338
:102CD000BC00809138068130E1F38091350686177B
:102CE00010F460913506A4E1B6E0E2EFF5E080E093
:102CF000861721F09D9191938F5FFACF0895FF92EF
:102D00000F931F93CF93DF936091B8087091B90828
:102D1000813059F038F0823059F0833061F06368C7
:102D200071600BC06368716408C06368716505C039
:102D30006368716602C063687167EB01D068809157
:102D4000B508FF24F394F092390680935B06109245
:102D50003A0610925C0661E081E898E00E94F01764
:102D60006D2F81E898E00E94F0176C2F81E898E0C1
:102D70000E94F0170E94E1156091B60870E080E0B3
:102D800090E00E94C120C091B508F0923906C0932E
:102D90005B0610923A0610925C0660E081E898E0CB
:102DA0000E94F0170E94E11562E08C2F0E943D16F0
:102DB0001092F1058093F00581E898E00E94A71732
:102DC000C82F81E898E00E94A7171C2F00E0980107
:102DD000282BC9010090B70802C0969587950A94E0
:102DE000E2F7DF91CF911F910F91FF900895EF923D
:102DF000FF921F93CF93DF9310E0C7E0D0E0EE2463
:102E0000E394F12C60E08091BA080E940B208FE9D6
:102E10009FE00197F1F700C000008091BB080E947D
:102E2000E21F892B39F0C7010C2E01C0880F0A94CC
:102E3000EAF7182B61E08091BA080E940B208FE915
:102E40009FE00197F1F700C000002197D8F6812F8D
:102E5000DF91CF911F91FF90EF90089585ED8093C2
:102E6000BC008091BC0084FDFCCF10923806089510
:102E700040910809262F30E0240F311D2132310501
:102E8000DCF4209138062430C9F4FC0180E090E0A5
:102E9000861758F4309108092191DC01A851B74FE9
:102EA000A30FB11D2C930196F3CF80910809680FF1
:102EB0006093080980E0089581E0089582E0089514
:102EC000DC015996ED91FC915A973097B9F08389BE
:102ED0009489A589B6894285538564857585841B47
:102EE000950BA60BB70B811520E89207A105B1053C
:102EF00038F08FEF9FE7A0E0B0E0089580E090E029
:102F00000895CF93DF931F92CDB7DEB76983DC01BD
:102F1000ED91FC910280F381E02D41E050E0BE0193
:102F20006F5F7F4F19950F90DF91CF9108950895AE
:102F3000E091F1058091F005E81730F4F0E0EE50F3
:102F4000FA4F808190E008958FEF9FEF0895909160
:102F5000F1058091F005981750F4E92FF0E0EE505C
:102F6000FA4F208130E09F5F9093F10502C02FEF70
:102F70003FEFC90108958091F00590E02091F1059F
:102F8000821B91090895CF92DF92EF92FF920F93E7
:102F90001F93CF93DF937C01CB018A0120913906E7
:102FA000222389F0EB016B01C40ED51ECC15DD0583
:102FB00069F06991D701ED91FC910190F081E02DCC
:102FC000C7011995F3CF642F0E943817C801DF910C
:102FD000CF911F910F91FF90EF90DF90CF900895C8
:102FE000CF93DF931F92CDB7DEB769832091390667
:102FF0002223D1F020915C06203240F021E030E025
:10300000FC013383228380E090E015C080913A0672
:10301000E82FF0E0E55CF94F998190838F5F809312
:103020003A0680935C0605C061E0CE0101960E94DD
:10303000381781E090E00F90DF91CF910895FC0167
:10304000818D928D009711F00C94440D0895CF93CB
:10305000DF93EC01898D9A8D009739F481E090E03F
:103060009B838A8380E090E00BC0FC011382128274
:103070000E94140EE98DFA8D22813381232B71F782
:10308000DF91CF9108953F924F925F926F927F921E
:103090008F929F92AF92BF92CF92DF92EF92FF9268
:1030A0000F931F93CF93DF93CDB7DEB72C970FB657
:1030B000F894DEBF0FBECDBF5C01DC015B968D9046
:1030C0009C905C971696CD90DD90ED90FC901997B2
:1030D000C114D104E104F10439F0BFEFCB1ADB0ACB
:1030E000EB0AFB0A312C07C0F401C080D180E280DA
:1030F000F38033243394F40181859285A385B485CC
:103100009C01AD012F5F3F4F4F4F5F4F29873A879B
:103110004B875C87260137011D821E821F8218861D
:10312000F40181859285A385B4852D813E814F81EF
:103130005885281739074A075B0708F063C0898557
:103140009A85AB85BC858C159D05AE05BF0550F4F1
:1031500082E0C82ED12CE12CF12C92E0492E512C8A
:10316000612C712C9E012F5F3F4FB701A601C40156
:103170000E94C10C882309F445C089819A81AB81E2
:10318000BC81892B8A2B8B2B41F0260137019FEFC5
:10319000491A590A690A790A05C0C414D504E60413
:1031A000F70491F02D813E814F8158852F5F3F4F6D
:1031B0004F4F5F4F2D833E834F8358873FEFC31A96
:1031C000D30AE30AF30AACCF0FEF1FEF2FEF3FE074
:1031D000B301A201C4010E94200C882399F0D501FB
:1031E00016964D915D916D917C9119974115510500
:1031F0006105710549F093018201C4010E94200C10
:10320000811102C080E02AC0D50116964D925D92D0
:103210006D927C921997332051F0D301C20101962F
:10322000A11DB11DF40180839183A283B383F501B5
:103230008789908DA18DB28D892B8A2B8B2B69F478
:10324000D50157964D925D926D927C925A97149645
:103250008C911497806814968C9381E02C960FB60D
:10326000F894DEBF0FBECDBFDF91CF911F910F91BC
:10327000FF90EF90DF90CF90BF90AF909F908F9096
:103280007F906F905F904F903F9008958FB7F89424
:1032900080912C098FBF089561E0FC0184810E9418
:1032A0000B2080912B09811110922B0908958CBD60
:1032B0009DBD0895CF93DF93EC0180912B0981117F
:1032C00009C081E080932B098091360890913708DE
:1032D0000E94571960E08C81DF91CF910C940B20F4
:1032E0001F920F920FB60F9211240BB60F922F93CD
:1032F0003F934F935F936F937F938F939F93AF937E
:10330000BF93EF93FF938091B900887F803609F4D3
:103310009CC068F5883209F45BC090F4803109F4F0
:1033200054C038F4882309F4F2C0883009F44DC041
:10333000F2C0883109F44CC0803209F45DC0EBC0A2
:10334000803409F468C048F4803309F455C08833E8
:1033500009F0E1C080933606D4C0803509F44FC02F
:10336000883509F45DC0883409F0D5C0D2C08839E9
:1033700009F4C3C0A8F4883709F467C038F4883664
:1033800009F463C0803709F460C0C5C0883809F407
:10339000B4C0803909F45FC0803809F0BCC05BC09C
:1033A000803B09F484C038F4803A09F466C0883A56
:1033B00009F47DC0B0C0803C09F4A3C0883C09F486
:1033C000A0C0883B09F486C0A6C08091130610C037
:1033D0009091350680913406981770F5E091350686
:1033E00081E08E0F80933506F0E0EC5EF94F80812E
:1033F0008093BB0085EC82C0809336068AC0E09142
:10340000350681E08E0F809335068091BB00F0E099
:10341000EC5EF94F808390913506809134066AC046
:10342000E091350681E08E0F809335068091BB00D8
:10343000F0E0EC5EF94F808380913706811169C01E
:1034400081E08093120684EA5DC083E080933806B1
:1034500010922A09CFCF80912A09803208F04DC0FE
:10346000E0912A0981E08E0F80932A098091BB00A8
:10347000F0E0E65FF64F8083BDCF85EC8093BC0023
:103480001092380680912A09803230F4E0912A099E
:10349000F0E0E65FF64F108260912A0970E08AE062
:1034A00099E0E0E0F0E0199510922A0934C084E038
:1034B000809338061092090910920809E0E0F0E0C4
:1034C000199580910809811105C081E08093080950
:1034D0001092E808E091090981E08E0F80930909B4
:1034E000F0E0E851F74F80818093BB00909109098B
:1034F00080910809981708F47DCF85E88093BC0077
:103500000AC085EC8093BC001092380604C010926B
:1035100036060E942E17FF91EF91BF91AF919F91B8
:103520008F917F916F915F914F913F912F910F906C
:103530000BBE0F900FBE0F901F901895FC01DB0182
:1035400012968D919C911397938382838DEE92E0D6
:103550009183808314968C911497848315968C9113
:103560001597858316964D915D916D917C91199774
:1035700046835783608771871A964D915D916D914F
:103580007C911D9742875387648775871E964D915E
:103590005D916D917C91519746875787608B718BB8
:1035A00052968C915297828B53964D915D916D916D
:1035B0007C915697438B548B658B768B57964D91A8
:1035C0005D916D917C915A97478B508F618F728F6F
:1035D0005B968D919C915C97948F838F0895CF9388
:1035E000CFB7F8948091E708811127C0ECE6F3E0AB
:1035F0008491E2EBF3E09491E82FF0E0EE0FFF1FEF
:10360000E751FD4FA591B491EC91E92321F461E0DC
:1036100085E30E940B2061E085E30E9460208CB569
:1036200080618CBD8CB580648CBD61E084E30E94B8
:10363000602061E083E30E9460208091E7088F5F53
:103640008093E708CFBFCF9108958EBD00000DB4E1
:1036500007FEFDCF8EB508958FEF0C94251B0F93B9
:103660001F93CF93DF93EB010E94FB208B010E94FD
:103670002C1B8F3F49F00E94FB20601B710B6C17C5
:103680007D07A8F380E001C081E0DF91CF911F9119
:103690000F910895CF93DF93EC018E81882389F0F9
:1036A0008F8198859C012F5F3F4F38872F83823011
:1036B000924018F40E942C1BF3CFCE010E944C19AB
:1036C0001E82DF91CF9108958F929F92AF92BF9209
:1036D000FF920F931F93CF93DF93EC01F62E4901D6
:1036E0005A010E944A1BCE010E945A196CE271E0F5
:1036F000CE010E942F1B8F2D80640E94251B08E1A4
:1037000010E0D501C401002E04C0B695A795979589
:1037100087950A94D2F70E94251B08501109083F8B
:103720008FEF180771F7FF2029F088E0F81204C026
:1037300087E803C085E901C08FEF0E94251B10E0D8
:103740000E942C1B8A8787FF04C01F3F11F01F5F58
:10375000F7CFDF91CF911F910F91FF90BF90AF9066
:103760009F908F900895AF92BF92CF92DF92EF9289
:10377000FF920F931F93CF93DF93EC016901C80170
:10378000820F931F8130924008F070C08E81882391
:1037900071F088819981AA81BB8184179507A6075A
:1037A000B70729F48F819885C816D906B0F54883E4
:1037B00059836A837B838B85833039F089E0440F9A
:1037C000551F661F771F8A95D1F79A01AB0161E1FA
:1037D000CE010E94641B882319F083E08D8346C0CC
:1037E0000E94FB205B010E942C1B8A878F3F49F4BB
:1037F0000E94FB206A197B096D327140A0F38FE0B3
:1038000003C08E3F31F08DE08D83CE010E944C19B4
:103810002DC018861F8281E08E838F8198858C153C
:103820009D0540F40E942C1B8F81988501969887F6
:103830008F83F3CF6701E00EF11EEC14FD0431F02D
:103840000E942C1BF60181936F01F7CF8F81988521
:10385000080F191F18870F838985882319F0011510
:10386000124048F0CE010E944A1B05C0CE010E94C2
:103870004C1980E001C081E0DF91CF911F910F9141
:10388000FF90EF90DF90CF90BF90AF9008954F9250
:103890005F926F927F92AF92BF92CF92DF92EF9240
:1038A000FF920F931F93CF93DF931F92CDB7DEB795
:1038B000FC012581222309F4C1C0848180FFBEC0A0
:1038C00083899489A589B6894284538464847584E4
:1038D00084159505A605B70509F4B0C06F0152011E
:1038E000F1E0BF22D6015B968D919C915C97B3016C
:1038F000A20139E076956795579547953A95D1F7A6
:10390000223071F4FC01828D938DA48DB58D8A01D6
:103910009B01080F191F2A1F3B1FC901B8014AC08C
:10392000DC0114961C9111501423A114B104F9F474
:1039300011111DC045284628472851F4F6018789F2
:10394000908DA18DB28D86839783A087B1870FC09C
:10395000D60116964D915D916D917C9119979601C6
:103960002A5F3F4F0E94C10C882309F467C0F6010B
:10397000238D348D86819781A085B1850297A10919
:10398000B109AC01BD01F901058404C0440F551F04
:10399000661F771F0A94D2F786859785A089B1891B
:1039A000840F951FA61FB71FBC01CD01610F711DAC
:1039B000811D911DD60114962C9126FF0DC04090BB
:1039C000AB025090AC026090AD027090AE02461611
:1039D00057066806790699F440E00E94D70B8823C1
:1039E00069F1F501E85CF64FDE0111969F012F5F4A
:1039F0003F4F2E173F0799F081918D93FACFFE012B
:103A000031967F0101E010E09501AB01BC0180918E
:103A1000380B9091390B0E94B31B882379F0F60183
:103A200082859385A485B5850196A11DB11D8287E8
:103A30009387A487B587898190E002C08FEF9FEFBD
:103A40000F90DF91CF911F910F91FF90EF90DF903A
:103A5000CF90BF90AF907F906F905F904F90089500
:103A6000FC01818D928D009711F00C94471C8FEF13
:103A70009FEF08950F931F93CF93DF93FC01818DE8
:103A8000928D0097B9F0EF010E94471C8C010F3F07
:103A90008FEF180791F0898D9A8DFC01428553852F
:103AA0006485758541505109610971090E947D0D38
:103AB000C80105C080E090E002C08FEF9FEFDF916A
:103AC000CF911F910F910895EF92FF920F931F9343
:103AD000CF93DF93EC017901411551056105710523
:103AE00011F482E13CC08B85833039F089E0440FCA
:103AF000551F661F771F8A95D1F79A01AB0168E1C0
:103B0000CE010E94641B882311F084E028C08EEF50
:103B10000E94251B87018EEFF81AF80181918F0111
:103B20000E94251BE016F106C1F78FEF0E94251BAE
:103B30008FEF0E94251B0E942C1B8A878F71853076
:103B400031F081E18D83CE010E944C1909C068E5F6
:103B500072E0CE010E942F1B811107C085E18D8389
:103B6000CE010E944C1980E014C020E030E0A90191
:103B70006DE0CE010E94641B811109C00E942C1BC4
:103B8000811105C0CE010E944C1981E002C084E180
:103B9000E6CFDF91CF911F910F91FF90EF900895A5
:103BA0000F931F93CF93DF932091E6082F5F322F5F
:103BB00037703093E60820FF02C020E801C020E003
:103BC00031FD2064347009F02062205FFC01EC01BB
:103BD000239600E011E06485662331F070E0C801AF
:103BE0000E94433E6F5F01C060E06187322F369FC5
:103BF000030E30E0311D1124311102C0168202C0C3
:103C000031503683662311F0615061873196CE17AB
:103C1000DF0709F7DF91CF911F910F91089590E091
:103C2000FC013197E231F10508F04EC08827EE58CB
:103C3000FF4F8F4F0C94573E809180008F7703C0C9
:103C4000809180008F7D8093800008958091800016
:103C5000877FF9CF84B58F7702C084B58F7D84BD0F
:103C600008958091B0008F7703C08091B0008F7D60
:103C70008093B0000895809190008F7707C0809165
:103C800090008F7D03C080919000877F809390008B
:103C900008958091A0008F7707C08091A0008F7D4C
:103CA00003C08091A000877F8093A0000895809139
:103CB00020018F7707C0809120018F7D03C0809104
:103CC0002001877F809320010895CF92DF92EF92A9
:103CD000FF920F931F93CF93DF936C017A018B01B7
:103CE000C0E0D0E0CE15DF0581F0D8016D918D01E7
:103CF000D601ED91FC910190F081E02DC60119955E
:103D0000892B11F02196EECF7E01C701DF91CF9173
:103D10001F910F91FF90EF90DF90CF900895813227
:103D200008F080E2682F88E60E943D161092F105A7
:103D30008093F00508958F929F92AF92BF92CF9299
:103D4000DF92EF92FF92CF93DF93C82F88E398E042
:103D50009093390B8093380BCC2369F1C53010F068
:103D600080E00CC140E060E070E0CB010E94D70B26
:103D70008823B1F320E1C29FC0011124885D964FD2
:103D8000FC01E254FE4F20812F7751F73C96408191
:103D9000518162817381443651056105710500F3DB
:103DA0003497C080D180E280F380C114D104E10453
:103DB000F10421F4D5CFC12CD12C760140E0C7010C
:103DC000B6010E94D70B882359F280914309909144
:103DD00044098115924021F6A0914809AA2309F4CB
:103DE000BFCF60914609709147096115710509F4CB
:103DF000B7CF20914509222309F4B2CFA0935608EA
:103E00002093480880E030E041E050E0C82FFA01FC
:103E1000082E02C0EE0FFF1F0A94E2F72E173F078D
:103E200039F08F5FC83091F789E08093510898CFBF
:103E30008093510820914E0930914F092115310589
:103E400019F040E050E008C020915C0930915D0914
:103E500040915E0950915F092093490830934A08C8
:103E600040934B0850934C0846015701860E971E0D
:103E7000A11CB11C8092570890925808A092590832
:103E8000B0925A08E0914909F0914A09F0935D080F
:103E9000E0935C08B0E00E94DD3C860E971EA81EF1
:103EA000B91E80925E0890925F08A0926008B0925E
:103EB000610885E0EE0FFF1F8A95E1F7E150FE4FA4
:103EC000EF2FFF27E6958E0E9F1EA11CB11C80923E
:103ED000520890925308A0925408B092550820912D
:103EE0004B0930914C092115310521F0A90160E001
:103EF00070E008C0409158095091590960915A09E1
:103F000070915B09D701C60188199909AA09BB09F3
:103F1000840F951FA61FB71F04C0B695A795979548
:103F20008795CA95D2F780934D0890934E08A09339
:103F30004F08B0935008853F2FE09207A105B105C7
:103F400010F48CE018C0853F9F4FA105B10510F417
:103F500080E111C08091640990916509A091660982
:103F6000B091670980935E0890935F08A093600802
:103F7000B093610880E280935B0881E0DF91CF918C
:103F8000FF90EF90DF90CF90BF90AF909F908F9079
:103F90000895FC01A089B1898C91A689B78982FD19
:103FA0000FC09C91818D8F5F8F73228D821749F096
:103FB000218DDF01A20FB11D5D969C93818F089525
:103FC0008C910895CF93DF93282F30E0F901ED53C2
:103FD000FC4F8491F901E358FC4FD491F901E95C5D
:103FE000FC4FC491CC2391F081110E940F1EEC2F45
:103FF000F0E0EE0FFF1FE35EFC4FA591B491EC9152
:10400000ED2381E090E021F480E002C080E090E0C8
:10401000DF91CF9108951F93CF93DF93282F30E046
:10402000F901ED53FC4F8491F901E358FC4FD49111
:10403000F901E95CFC4FC491CC23C1F0162F81112A
:104040000E940F1EEC2FF0E0EE0FFF1FED5FFC4F04
:10405000A591B4919FB7F894111104C08C91D0959B
:10406000D82302C0EC91DE2BDC939FBFDF91CF9170
:104070001F9108951092F1051092F00510923A06E2
:1040800010925C061092380681E0809337061092F9
:10409000120661E084E10E940B2061E085E10E944C
:1040A0000B20E9EBF0E080818E7F808380818D7F23
:1040B000808388E48093B80085E48093BC000895F1
:1040C000CF93DF9390E0FC01E358FC4F2491FC0177
:1040D000E95CFC4F8491882361F190E0880F991F7F
:1040E000FC01E751FD4FC591D491FC01ED5FFC4F00
:1040F000A591B491611109C09FB7F894888120956A
:1041000082238883EC912E230BC0623061F49FB729
:10411000F8948881322F309583238883EC912E2B5D
:104120002C939FBF06C08FB7F894E8812E2B28836D
:104130008FBFDF91CF9108953FB7F89480913B0BEB
:1041400090913C0BA0913D0BB0913E0B26B5A89BE6
:1041500005C02F3F19F00196A11DB11D3FBFBA2F19
:10416000A92F982F8827820F911DA11DB11DBC0179
:10417000CD0142E0660F771F881F991F4A95D1F73E
:1041800008958F929F92AF92BF92CF92DF92EF925B
:10419000FF926B017C010E949C204B015C01C114C9
:1041A000D104E104F104F1F00E949C20DC01CB0178
:1041B00088199909AA09BB09883E9340A105B10550
:1041C00070F321E0C21AD108E108F10888EE880EE8
:1041D00083E0981EA11CB11CC114D104E104F104B8
:1041E00019F7DDCFFF90EF90DF90CF90BF90AF90A9
:1041F0009F908F9008952FB7F89460913409709133
:10420000350980913609909137092FBF08950F9392
:104210001F93CF93DF93EC010E94FB20688779877F
:104220008A879B87CE010E94AB0997FF17C00E9427
:10423000FB20088519852A853B85DC01CB01801B85
:10424000910BA20BB30B0C811D812E813F81801736
:104250009107A207B30730F38FEF9FEFDF91CF9164
:104260001F910F9108958F929F92AF92BF92CF921C
:10427000DF92EF92FF920F931F93CF93DF93EC01A6
:10428000CE010E940721FC0197FD0DC08D329105E2
:1042900071F0C0970A9758F0EE32F10541F0CE0167
:1042A0000E949709EDCF60E070E0CB016CC0812CDB
:1042B000912C80E8A82E8FE3B82EC12CD12C76014A
:1042C00010E000E0E130F10569F1ED32F10539F17E
:1042D000EE32F10531F1CF01C0970A9718F5AAE047
:1042E000B0E0A70196010E94DD3C6F01FF0FEE08D0
:1042F000FF08C60ED71EE81EF91E80E3C81AD108B3
:10430000E108F108112371F02DEC3CEC4CEC5DE37D
:10431000C501B4010E94EA3B4B015C0103C001E00E
:1043200001C011E0CE010E949709CE010E94072131
:10433000FC01C0970A9730F2EE32F10519F4111121
:104340001FC0C0CFE130F10509F4BCCF002341F01C
:10435000F094E094D094C094C11CD11CE11CF11CD9
:10436000112349F0C701B6010E948B3BA5019401BE
:104370000E94EA3B08C0C701B6010E948B3B03C004
:104380000111E6CFEFCFDF91CF911F910F91FF90F9
:10439000EF90DF90CF90BF90AF909F908F90089557
:1043A0001F920F920FB60F9211242F933F938F936A
:1043B0009F93AF93BF938091340990913509A09159
:1043C0003609B091370930913A0B23E0230F2D378E
:1043D00020F40196A11DB11D05C026E8230F029609
:1043E000A11DB11D20933A0B809334099093350998
:1043F000A0933609B093370980913B0B90913C0B09
:10440000A0913D0BB0913E0B0196A11DB11D809373
:104410003B0B90933C0BA0933D0BB0933E0BBF9195
:10442000AF919F918F913F912F910F900FBE0F9061
:104430001F9018950F931F93CF93DF93EC01888102
:104440009981009729F02A813B812617370788F444
:104450008B016F5F7F4F0E949B3F009761F09983B4
:1044600088831B830A832C813D81232B11F4FC015B
:10447000108281E001C080E0DF91CF911F910F9108
:104480000895EF92FF920F931F93CF93DF93EC0168
:104490007B018A01BA010E941A2228813981811187
:1044A0000DC02115310519F0C9010E94123F198272
:1044B00018821D821C821B821A8206C01D830C83F7
:1044C000B701C9010E94A640CE01DF91CF911F9193
:1044D0000F91FF90EF900895CF93DF93EC0161155A
:1044E000710559F0FB0101900020E9F73197AF0108
:1044F000461B570B0E9441220CC08881998100976E
:1045000011F00E94123F198218821D821C821B82A8
:104510001A82CE01DF91CF910895FC0180819181B3
:104520000C94123F9091AF0289133DC0E8EEF2E087
:10453000E4919FEF9093AF02E230C9F050F4EE2384
:1045400099F0E13081F590916F009D7F90936F001D
:104550002AC0E43019F1E0F0E53029F590917300BC
:104560009D7F909373001FC010926E001CC09091AD
:1045700070009D7F9093700091E09093B0009091B7
:10458000B100987F94609093B1001092B3000BC07B
:10459000909171009D7F9093710005C09091720081
:1045A0009D7F9093720060E00C940B201F920F92FD
:1045B0000FB60F9211240BB60F922F933F934F9388
:1045C0005F936F937F938F939F93AF93BF93EF937B
:1045D000FF938091300990913109A0913209B091F7
:1045E0003309892B8A2B8B2B51F190912F09E09164
:1045F0002D09F0912E0980818927808380913009CF
:1046000090913109A0913209B09133091816190619
:104610001A061B06C4F48091300990913109A091CB
:104620003209B09133090197A109B109809330098A
:1046300090933109A0933209B093330904C080915B
:10464000AF020E949222FF91EF91BF91AF919F9193
:104650008F917F916F915F914F913F912F910F902B
:104660000BBE0F900FBE0F901F901895611571052E
:1046700079F0FB0101900020E9F73197AF01461B6B
:10468000570BDC01ED91FC910280F381E02D199430
:1046900080E090E008956BE675E00C9436238F92ED
:1046A0009F92AF92BF92CF92DF92EF92FF920F93C1
:1046B0001F93CF93DF93CDB7DEB7A1970FB6F894D2
:1046C000DEBF0FBECDBF6C01990FEE08FF08F7FEED
:1046D0002DC06DE289E997E00E94040A8C0122272F
:1046E0003327A9012C193D094E095F0919A2CE01F2
:1046F00081967C019AE0892E912CA12CB12CCA01C3
:10470000B901A50194010E94E83C605DF701629344
:104710007F01211531054105510589F7BF0189E95F
:1047200097E00E943623080F191F20C0A7019601A9
:1047300019A28E010F5D1F4F8AE0C82ED12CE12CEB
:10474000F12CCA01B901A70196010E94E83C605D05
:10475000F80162938F01211531054105510589F753
:10476000BF0189E997E00E9436238C0189E997E02F
:104770000E944B23800F911FA1960FB6F894DEBFC5
:104780000FBECDBFDF91CF911F910F91FF90EF90A2
:10479000DF90CF90BF90AF909F908F9008950F9330
:1047A0001F93CF93DF93EC010E94040A8C01CE018A
:1047B0000E944B23800F911FDF91CF911F910F918A
:1047C00008950F931F93CF93DF93EC01FB01448176
:1047D000558160817181E881F9810280F381E02D4A
:1047E00019958C01CE010E944B23800F911FDF9100
:1047F000CF911F910F910895CF93DF93CDB7DEB77F
:10480000C355D1090FB6F894DEBF0FBECDBF789463
:1048100084B5826084BD84B5816084BD85B58260C5
:1048200085BD85B5816085BD80916E008160809376
:104830006E001092810080918100826080938100DF
:1048400080918100816080938100809180008160EF
:10485000809380008091B10084608093B10080914A
:10486000B00081608093B00080919100826080935D
:1048700091008091910081608093910080919000DF
:104880008160809390008091A10082608093A1005C
:104890008091A10081608093A1008091A00081603F
:1048A0008093A000809121018260809321018091FA
:1048B000210181608093210180912001816080939A
:1048C000200180917A00846080937A0080917A0040
:1048D000826080937A0080917A00816080937A0070
:1048E00080917A00806880937A001092C10062E023
:1048F0008EE10E94602089E997E00E94A9128CEF66
:1049000096E00E94A9128FE596E00E94A91264E643
:1049100070E080E090E00E94C12089E293E00E9474
:10492000741580919D05811145C010928F051092DC
:104930008E058FEF80939205809393058093940565
:1049400080939505809396058093970581E08093E9
:10495000980510929A05109299051092910510925F
:10496000900580915D0690915E06892B31F48CE86C
:1049700095E090935E0680935D06E0918A05F09144
:104980008B05309721F08CE895E0958384838CE843
:1049900095E090938B0580938A0510929C05109268
:1049A0009B058AEC92E090938D0580938C0581E0C5
:1049B00080939D05809101018062809301018EEBBF
:1049C00095E090938F0580938E0581E090E0909321
:1049D0009A05809399058091900890919108A091F3
:1049E0009208B0919308843C29E09207A105B10593
:1049F00020F484EC99E0A0E0B0E0809390089093DC
:104A00009108A0939208B093930861E08091D10837
:104A10000E94602061E08091D2080E9460200E9484
:104A2000EF1A60E08091D1080E940B2081E00E9483
:104A3000881465E070E080E090E00E94C1206FE59E
:104A400084E00E94D21482E090E00E943015882316
:104A500019F081E08093D30880E090E00E94301547
:104A600080E00E94E914682F6C6080E00E94D214FC
:104A700060E787E00E94D2146CE485E00E94D214C3
:104A800082EE0E9499140E94A8140E94FC1480E0F7
:104A90000E94E914682F6E7F80E00E94D2146FE3B9
:104AA00081E00E94D2146FE084E00E94D21480E082
:104AB0000E94881480E50E94251B83E70E94251B25
:104AC00081E00E9488148DE10E94E914682F6660DD
:104AD0008DE10E94D2148CE10E94E914682F63607A
:104AE0008CE10E94D21481E08093D50880E280930B
:104AF000D4084091DB0866E072E08AE00E94AB14C3
:104B00004091DB0866E072E080E10E94AB146091A6
:104B1000D40881E10E94D214E7ECF2E08491409144
:104B2000DB0860E072E00E94AB14E1ECF2E08491FB
:104B30006091D4080E94D21482E00E94E914EBEB49
:104B4000F2E0E49161E070E001C0660FEA95EAF7F7
:104B5000682B82E00E94D21460E685E00E94D214A5
:104B600086E00E94E914682F676086E00E94D214F4
:104B700082E090E00E9430150E94FC140E94101503
:104B800086E393E00E94741589E997E00E944B2325
:104B900088EC90E00E94A83C8B3709F460C08BE75A
:104BA000882E82E0982E9BE6A92E92E0B92E2BE566
:104BB000C22E22E0D22E3BE4E32E32E0F32E4BE372
:104BC000642E42E0742E5BE2452E52E0552E00E04A
:104BD00010E0D4014D915D916D917D914D01C80121
:104BE0000E94AD06F50141915191619171915F0172
:104BF000C80104960E94AD06D6014D915D916D915C
:104C00007D916D01C80108960E94AD06F7014191A2
:104C10005191619171917F01C8010C960E94AD067E
:104C2000D3014D915D916D917D913D01C8014096FB
:104C30000E94AD06F20141915191619171912F0154
:104C4000C80144960E94AD060F5F1F4F0430110546
:104C500009F0BFCF6BE788EC90E00E94B03CEBE23C
:104C60004E2EE2E05E2EFBE36F2EF2E07F2EABE4F1
:104C7000EA2EA2E0FA2EBBE5CB2EB2E0DB2E1BE63D
:104C8000A12E12E0B12E0BE7802E02E0902E00E064
:104C900010E0C8010E947706D4016D937D938D9337
:104CA0009D934D01C80104960E947706F50161931A
:104CB0007193819391935F01C80108960E947706D2
:104CC000D6016D937D938D939D936D01C8010C96D4
:104CD0000E947706F70161937193819391937F010D
:104CE000C80140960E947706D3016D937D938D9302
:104CF0009D933D01C80144960E947706F20161939D
:104D00007193819391932F010F5F1F4F0430110511
:104D100009F0BFCF0E943A2086E493E00E94741508
:104D20000E943A2081E08093390688E680935B06F2
:104D300010923A0610925C066EE081E898E00E94BC
:104D4000F0170E94E11581E090E00E948F1E909183
:104D5000F0058091F1059817F1F381E898E00E9441
:104D6000A717082F0E94E11511E01093390688E675
:104D700080935B0610923A0610925C066EE081E822
:104D800098E00E94F017602F6B7381E898E00E9412
:104D9000F0170E94E11580ED97E090936F058093E6
:104DA0006E051093700510937105109272051092A4
:104DB00073051092740586E08093750580E795E38E
:104DC000ADE6B8E38093760590937705A0937805D8
:104DD000B093790585E593E00E94741589E997E021
:104DE0000E944B2364EF71E080E090E00E94C120BC
:104DF00084E693E00E9474151092430810924108D3
:104E000010923E0810923D0881E380933C080E9476
:104E1000FB206B017C0161E080913C080E946020D6
:104E200061E080913C080E940B200E94EF1A82E50D
:104E30008093360810923708809136089091370891
:104E40000E9457191AE08FEF0E94251B1150D9F7C5
:104E5000860188E398E00E945A1920E030E0A90119
:104E600060E088E398E00E94641BF82E809342087B
:104E7000F1E08F1749F00E94FB20601B710B613D30
:104E8000774058F381E056C02AEA31E040E050E034
:104E900068E088E398E00E94641B82FF03C0F09200
:104EA000430810C074E0F72E0E942C1B8093420828
:104EB000FA94F110F9CF8A3A11F082E03BC082E017
:104EC0008093430880914308823021F0C12CD12C7B
:104ED000760105C0C12CD12CE12C60E4F62E20E037
:104EE00030E0A90167E388E398E00E94641BA70112
:104EF000960169E288E398E00E94641B809342086F
:104F0000882349F00E94FB20601B710B613D7740B4
:104F100030F388E00FC080914308823009F520E02B
:104F200030E0A9016AE388E398E00E94641B8823CB
:104F300049F086E080933D0888E398E00E944C1990
:104F40000C94A5370E942C1B807C803C19F483E0D4
:104F5000809343080E942C1B0E942C1B0E942C1B38
:104F600088E398E00E944C1980E5809336081092FF
:104F7000370881E00E949B1E882331F080916708EA
:104F8000882351F00C94A53780E00E949B1E882353
:104F900011F40C94A537F2CF80915B08803109F5AC
:104FA00082E0809367081092790810927A08109234
:104FB0007B0810927C0880915C0890915D08A0E0CD
:104FC000B0E055E0880F991FAA1FBB1F5A95D1F773
:104FD0008093750890937608A0937708B09378082B
:104FE00021C0803211F00C94A53783E080936708CC
:104FF00040915E0850915F0860916008709161086F
:105000004093790850937A0860937B0870937C08EA
:1050100025E738E084E498E00E940513882311F422
:105020000C94A53784E498E090937E0880937D08E3
:1050300081E08093660810926808109269081092C7
:105040006A0810926B0810926C0810926D0810920A
:105050006E0810926F0810927008109271081092EA
:105060007208109273081092740885E793E00E940A
:1050700074151092B9081092B8080E943A2089E974
:1050800097E00E944B2386E893E00E9474154FE35B
:10509000242E46E0342E0E9464058091880590916C
:1050A00089052091290230912A028217930711F471
:1050B0000C94A43390932A028093290280E00E94EA
:1050C0007F16BC01990F880B990B0E948B3B20E047
:1050D00030E040E45EE30E94EA3B20E030E04AE753
:1050E00054E40E94863D6B017C0120E030E0A90180
:1050F0000E94EA3B4B015C0120E030E048EC52E4C6
:10510000C701B6010E94EA3B9B01AC01C501B40195
:105110000E94193D20E030E0A9010E941A3D2DECCB
:105120003CEC4CEC5FEB0E94863D609397027093E1
:1051300098028093990290939A020E94FB206B013F
:105140007C0164E78CEF96E00E94CF2312E789E9A7
:1051500097E00E94B909181619069CF48CEF96E0A6
:105160000E949709182F8D3661F48CEF96E00E940B
:10517000332160938B0270938C0280938D02909305
:105180008E020E94FB20DC01CB018C199D09AE0927
:10519000BF0985369105A105B10518F41D36B9F68C
:1051A00004C08FE993E00E94741560E08091BC0810
:1051B0000E940B208FE99FE00197F1F700C00000EB
:1051C0000E94F716082F10E0102F00270E94F716F4
:1051D000082B61E08091BC080E940B2002FD11C0E9
:1051E000B80123E0769567952A95E1F780E090E095
:1051F0000E94893B20E030E040E85EE30E94EA3B09
:1052000004C060E070E080EC9FE760938F027093D1
:10521000900280939102909392020E94FB206B0176
:105220007C0160E78FE596E00E94CF2312E789E9D1
:1052300097E00E94B909181619069CF48FE596E0CC
:105240000E949709182F893661F48FE596E00E9435
:10525000332160939D0270939E0280939F029093EE
:10526000A0020E94FB20DC01CB018C199D09AE0934
:10527000BF0985369105A105B10518F41936B9F6AF
:1052800004C08CEB93E00E947415153659F189E93E
:1052900097E00E94B909181619069CF48FE596E06C
:1052A0000E949709182F853661F48FE596E00E94D9
:1052B00033216093A1027093A2028093A302909382
:1052C000A4020E94FB20DC01CB018C199D09AE09D0
:1052D000BF09893C9105A105B105B8F28CEB93E0BB
:1052E0000E94741581E00E947F16BC01990F880B03
:1052F000990B0E948B3B20E030E040E45EE30E948B
:10530000EA3B20E030E04AE754E40E94863D6B012E
:105310007C0120E030E0A9010E94EA3B4B015C01E6
:1053200020E030E040E850E4C701B6010E94EA3BCB
:105330009B01AC01C501B4010E94193D20E030E0A1
:10534000A9010E941A3D20E030E040EA50EC0E94A2
:10535000863D60939302709394028093950290939C
:10536000960280E00E947F16BC01990F880B990B72
:105370000E948B3B20E030E040E45EE30E94EA3B89
:1053800020E030E04AE754E40E94863D0E94F83D68
:10539000072E000C880B990B0E948B3B6B017C0144
:1053A00020E030E0A9010E94EA3B4B015C0120E0D3
:1053B00030E04AEF54E4C701B6010E94EA3B9B018A
:1053C000AC01C501B4010E94193D20E030E0A90103
:1053D0000E941A3D20E030E040E450EC0E94863DFF
:1053E0000E94F83D70939C0260939B0280917B0029
:1053F000877F80937B0080E480937C0080917A009B
:10540000806480937A0080917A0086FDFCCFA09121
:10541000780080917900B0E0B82B24EF31E00E9451
:105420005F3E2FEF33E040E050E00E94BE3C223769
:1054300091E039073CF0253AA1E03A072CF024EA44
:1054400031E002C022E731E0C901330FAA0BBB0BE8
:105450009C01AD012257314041095109A4E6B0E059
:105460000E94DD3C22E330E040E050E00E94BE3C80
:105470002093A702C0904702D0904802E0904902D2
:10548000F0904A028091430290914402A09145021B
:10549000B09146028AAF9BAFACAFBDAF80913F02E7
:1054A00090914002A0914102B09142028AAB9BAB25
:1054B000ACABBDAB40903B0250903C0260903D02D3
:1054C00070903E0260919B0270919C02072E000C2E
:1054D000880B990B0E948B3B4B015C019B01AC013B
:1054E0006AAD7BAD8CAD9DAD0E94EA3B6EA77FA7F8
:1054F00088AB99ABA5019401C701B6010E94EA3BB4
:105500009B01AC016EA57FA588A999A90E94193DB0
:105510004B015C01A3019201C701B6010E94EA3B65
:105520009B01AC01C501B4010E941A3D6B017C01D5
:105530002AA93BA94CA95DA96AAD7BAD8CAD9DADF7
:105540000E94EA3B9B01AC01C701B6010E94193DD4
:105550006B017C012AA93BA94CA95DA9C301B20139
:105560000E94193D9B01AC01C701B6010E94863D16
:105570000E94F83D2E966CAF7DAF8EAF9FAF2E97F9
:105580002C96AEADBFAD2C976096BFAFAEAF609717
:10559000B0939C02A0939B02C0908702D090880297
:1055A000E0908902F0908A028091830290918402B7
:1055B000A0918502B09186028AAF9BAFACAFBDAF20
:1055C00080917F0290918002A0918102B09182022D
:1055D0008AAB9BABACABBDAB40907B0250907C02E6
:1055E00060907D0270907E0280908B0290908C0281
:1055F000A0908D02B0908E02A50194016AAD7BADA2
:105600008CAD9DAD0E94EA3B6EA77FA788AB99AB9E
:10561000A5019401C701B6010E94EA3B9B01AC01C0
:105620006EA57FA588A999A90E94193D4B015C012F
:10563000A3019201C701B6010E94EA3B9B01AC01A4
:10564000C501B4010E941A3D6B017C012AA93BA946
:105650004CA95DA96AAD7BAD8CAD9DAD0E94EA3BC6
:105660009B01AC01C701B6010E94193D6B017C0191
:105670002AA93BA94CA95DA9C301B2010E94193D09
:105680009B01AC01C701B6010E94863D6AAF7BAFAA
:105690008CAF9DAF60938B0270938C0280938D02D0
:1056A00090938E02C0907702D0907802E0907902B9
:1056B000F0907A028091730290917402A091750229
:1056C000B09176028AAB9BABACABBDAB80916F0265
:1056D00090917002A0917102B09172028EA79FA763
:1056E000A8ABB9AB40906B0250906C0260906D0219
:1056F00070906E0280908F0290909002A090910224
:10570000B0909202A50194016AA97BA98CA99DA9D8
:105710000E94EA3B6EAB7FAB88AF99AFA5019401C5
:10572000C701B6010E94EA3B9B01AC016EA97FA9AB
:1057300088AD99AD0E94193D4B015C01A301920116
:10574000C701B6010E94EA3B9B01AC01C501B4014F
:105750000E941A3D6B017C012EA53FA548A959A9BD
:105760006AA97BA98CA99DA90E94EA3B9B01AC0177
:10577000C701B6010E94193D6B017C012EA53FA512
:1057800048A959A9C301B2010E94193D9B01AC016E
:10579000C701B6010E94863D6AAB7BAB8CAB9DAB6B
:1057A00060938F0270939002809391029093920283
:1057B0008091370290913802A0913902B0913A025B
:1057C0008EA79FA7A8ABB9AB80913302909134020A
:1057D000A0913502B09136028EAB9FABA8AFB9AFA6
:1057E00040902F025090300260903102709032024F
:1057F00080902B0290902C02A0902D02B0902E024F
:10580000C0909D02D0909E02E0909F02F090A00276
:10581000A50194016EA57FA588A999A90E94EA3BDC
:1058200022966CAF7DAF8EAF9FAF2297A3019201FE
:105830006EA97FA988AD99AD0E94EA3B26966CAF10
:105840007DAF8EAF9FAF2697A3019201C501B40132
:105850000E94193D2B013C01A70196016EA97FA969
:1058600088AD99AD0E94EA3B4B015C01A70196010E
:105870006EA57FA588A999A90E94EA3B9B01AC016E
:10588000C501B4010E94193D22962CAD3DAD4EAD2F
:105890005FAD22970E941A3D26962CAD3DAD4EADD0
:1058A0005FAD26970E94193DA30192010E94863D9B
:1058B0002A966CAF7DAF8EAF9FAF2A9760939D0203
:1058C00070939E0280939F029093A002C090A102C9
:1058D000D090A202E090A302F090A402A70196014A
:1058E0006EA97FA988AD99AD0E94EA3B4B015C018E
:1058F000A70196016EA57FA588A999A90E94EA3BF8
:105900009B01AC01C501B4010E94193D22962CAD4A
:105910003DAD4EAD5FAD22970E941A3D26962CAD4F
:105920003DAD4EAD5FAD26970E94193DA30192019A
:105930000E94863D6EA77FA788AB99AB6093A102BA
:105940007093A2028093A3029093A402C090670276
:10595000D0906802E0906902F0906A028091630240
:1059600090916402A0916502B09166028EAB9FABEC
:10597000A8AFB9AF80915F0290916002A0916102DF
:10598000B091620222968CAF9DAFAEAFBFAF2297AF
:1059900040905B0250905C0260905D0270905E02ED
:1059A0008090930290909402A0909502B0909602FD
:1059B000A50194016EA97FA988AD99AD0E94EA3B2B
:1059C00026966CAF7DAF8EAF9FAF2697A501940151
:1059D000C701B6010E94EA3B9B01AC0126966CAD63
:1059E0007DAD8EAD9FAD26970E94193D4B015C01A8
:1059F000A3019201C701B6010E94EA3B9B01AC01E1
:105A0000C501B4010E941A3D6B017C0122962CADA8
:105A10003DAD4EAD5FAD22976EA97FA988AD99AD22
:105A20000E94EA3B9B01AC01C701B6010E94193DEF
:105A30006B017C0122962CAD3DAD4EAD5FAD229742
:105A4000C301B2010E94193D9B01AC01C701B6011F
:105A50000E94863D2B013C01609393027093940257
:105A60008093950290939602C0905702D09058026E
:105A7000E0905902F0905A028091530290915402A2
:105A8000A0915502B09156028EAB9FABA8AFB9AFB3
:105A900080914F0290915002A0915102B091520218
:105AA00022968CAF9DAFAEAFBFAF229780914B02D5
:105AB00090914C02A0914D02B0914E0226968CAF6F
:105AC0009DAFAEAFBFAF269780909702909098029F
:105AD000A0909902B0909A02A50194016EA97FA9A5
